{
	"data": {
		"bytecode": {
			"linkReferences": {},
			"object": "608060405234801561000f575f5ffd5b50604051611ee3380380611ee3833981810160405281019061003191906100d5565b8060025f6101000a81548173ffffffffffffffffffffffffffffffffffffffff021916908373ffffffffffffffffffffffffffffffffffffffff16021790555050610100565b5f5ffd5b5f73ffffffffffffffffffffffffffffffffffffffff82169050919050565b5f6100a48261007b565b9050919050565b6100b48161009a565b81146100be575f5ffd5b50565b5f815190506100cf816100ab565b92915050565b5f602082840312156100ea576100e9610077565b5b5f6100f7848285016100c1565b91505092915050565b611dd68061010d5f395ff3fe608060405234801561000f575f5ffd5b5060043610610091575f3560e01c8063c7303c6111610064578063c7303c611461011f578063d362ee561461013b578063de53776514610157578063fa99654a14610187578063fc68e09f146101a357610091565b8063094cd5ee1461009557806330561100146100b1578063718ce2bc146100cf57806396f2507314610103575b5f5ffd5b6100af60048036038101906100aa9190611080565b6101d4565b005b6100b9610470565b6040516100c691906113a0565b60405180910390f35b6100e960048036038101906100e49190611080565b610696565b6040516100fa959493929190611417565b60405180910390f35b61011d60048036038101906101189190611080565b61075d565b005b610139600480360381019061013491906114d0565b61095e565b005b6101556004803603810190610150919061151b565b610b4e565b005b610171600480360381019061016c9190611578565b610d7a565b60405161017e91906115b6565b60405180910390f35b6101a1600480360381019061019c91906115cf565b610da5565b005b6101bd60048036038101906101b89190611080565b610f3e565b6040516101cb92919061162c565b60405180910390f35b5f60025f9054906101000a900473ffffffffffffffffffffffffffffffffffffffff1673ffffffffffffffffffffffffffffffffffffffff166326567eec336040518263ffffffff1660e01b815260040161022f9190611692565b602060405180830381865afa15801561024a573d5f5f3e3d5ffd5b505050506040513d601f19601f8201168201806040525081019061026e91906116bf565b90505f60065f8481526020019081526020015f206040518060400160405290815f8201548152602001600182015481525050905081815f0151146102e7576040517f08c379a00000000000000000000000000000000000000000000000000000000081526004016102de90611734565b60405180910390fd5b6102f083610f5e565b61032f576040517f08c379a00000000000000000000000000000000000000000000000000000000081526004016103269061179c565b60405180910390fd5b6005816020015181548110610347576103466117ba565b5b905f5260205f2090600602015f5f82015f9055600182015f9055600282015f9055600382015f6103779190610f8b565b600482015f6103869190610fc8565b600582015f9055505060065f8481526020019081526020015f205f5f82015f9055600182015f9055505060045f825f015181526020019081526020015f20600160045f845f015181526020019081526020015f20805490506103e89190611814565b815481106103f9576103f86117ba565b5b905f5260205f20015460045f835f015181526020019081526020015f208481548110610428576104276117ba565b5b905f5260205f20018190555060045f825f015181526020019081526020015f2080548061045857610457611847565b5b600190038181905f5260205f20015f90559055505050565b60606005805480602002602001604051908101604052809291908181526020015f905b8282101561068d578382905f5260205f2090600602016040518060c00160405290815f820154815260200160018201548152602001600282015481526020016003820180546104e1906118a1565b80601f016020809104026020016040519081016040528092919081815260200182805461050d906118a1565b80156105585780601f1061052f57610100808354040283529160200191610558565b820191905f5260205f20905b81548152906001019060200180831161053b57829003601f168201915b5050505050815260200160048201805480602002602001604051908101604052809291908181526020015f905b8282101561066c578382905f5260205f2090600502016040518060a00160405290815f820154815260200160018201548152602001600282015481526020016003820180546105d3906118a1565b80601f01602080910402602001604051908101604052809291908181526020018280546105ff906118a1565b801561064a5780601f106106215761010080835404028352916020019161064a565b820191905f5260205f20905b81548152906001019060200180831161062d57829003601f168201915b5050505050815260200160048201548152505081526020019060010190610585565b50505050815260200160058201548152505081526020019060010190610493565b50505050905090565b600581815481106106a5575f80fd5b905f5260205f2090600602015f91509050805f0154908060010154908060020154908060030180546106d6906118a1565b80601f0160208091040260200160405190810160405280929190818152602001828054610702906118a1565b801561074d5780601f106107245761010080835404028352916020019161074d565b820191905f5260205f20905b81548152906001019060200180831161073057829003601f168201915b5050505050908060050154905085565b5f60025f9054906101000a900473ffffffffffffffffffffffffffffffffffffffff1673ffffffffffffffffffffffffffffffffffffffff166326567eec336040518263ffffffff1660e01b81526004016107b89190611692565b602060405180830381865afa1580156107d3573d5f5f3e3d5ffd5b505050506040513d601f19601f820116820180604052508101906107f791906116bf565b90505f60065f8481526020019081526020015f206040518060400160405290815f8201548152602001600182015481525050905061083483610f5e565b610873576040517f08c379a000000000000000000000000000000000000000000000000000000000815260040161086a9061179c565b60405180910390fd5b60035f8381526020019081526020015f205f9054906101000a900460ff16156108f55760035f8381526020019081526020015f205f6101000a81549060ff021916905560058160200151815481106108ce576108cd6117ba565b5b905f5260205f2090600602016002015f81546108e9906118d1565b91905081905550610959565b600160035f8481526020019081526020015f205f6101000a81548160ff0219169083151502179055506005816020015181548110610936576109356117ba565b5b905f5260205f2090600602016002015f8154610951906118f8565b919050819055505b505050565b5f60025f9054906101000a900473ffffffffffffffffffffffffffffffffffffffff1673ffffffffffffffffffffffffffffffffffffffff166326567eec336040518263ffffffff1660e01b81526004016109b99190611692565b602060405180830381865afa1580156109d4573d5f5f3e3d5ffd5b505050506040513d601f19601f820116820180604052508101906109f891906116bf565b90505f5f815480929190610a0b906118f8565b91905055505f5f549050600560018160018154018082558091505003905f5260205f209050505f6001600580549050610a449190611814565b90505f60058281548110610a5b57610a5a6117ba565b5b905f5260205f209060060201905083815f01819055508281600101819055508585826003019182610a8d929190611b16565b5042816005018190555060045f8581526020019081526020015f2082908060018154018082558091505060019003905f5260205f20015f909190919091505560405180604001604052808581526020018381525060065f8581526020019081526020015f205f820151815f0155602082015181600101559050507f9d8ba7605d631183923c2b8e95cd748a3f7bad1c3cab55df446fea93c84980ef8385888842604051610b3e959493929190611c1d565b60405180910390a1505050505050565b5f60025f9054906101000a900473ffffffffffffffffffffffffffffffffffffffff1673ffffffffffffffffffffffffffffffffffffffff166326567eec336040518263ffffffff1660e01b8152600401610ba99190611692565b602060405180830381865afa158015610bc4573d5f5f3e3d5ffd5b505050506040513d601f19601f82011682018060405250810190610be891906116bf565b90505f60065f8481526020019081526020015f206040518060400160405290815f820154815260200160018201548152505090505f815f015103610c61576040517f08c379a0000000000000000000000000000000000000000000000000000000008152600401610c5890611cb3565b60405180910390fd5b5f816020015190505f6040518060a0016040528060015f8154610c83906118f8565b919050819055815260200186815260200185815260200188888080601f0160208091040260200160405190810160405280939291908181526020018383808284375f81840152601f19601f82011690508083019250505050505050815260200142815250905060058281548110610cfd57610cfc6117ba565b5b905f5260205f20906006020160040181908060018154018082558091505060019003905f5260205f2090600502015f909190919091505f820151815f015560208201518160010155604082015181600201556060820151816003019081610d649190611cd1565b5060808201518160040155505050505050505050565b6004602052815f5260405f208181548110610d93575f80fd5b905f5260205f20015f91509150505481565b5f60025f9054906101000a900473ffffffffffffffffffffffffffffffffffffffff1673ffffffffffffffffffffffffffffffffffffffff166326567eec336040518263ffffffff1660e01b8152600401610e009190611692565b602060405180830381865afa158015610e1b573d5f5f3e3d5ffd5b505050506040513d601f19601f82011682018060405250810190610e3f91906116bf565b90505f60065f8681526020019081526020015f206040518060400160405290815f8201548152602001600182015481525050905081815f015114610eb8576040517f08c379a0000000000000000000000000000000000000000000000000000000008152600401610eaf90611734565b60405180910390fd5b610ec185610f5e565b610f00576040517f08c379a0000000000000000000000000000000000000000000000000000000008152600401610ef79061179c565b60405180910390fd5b83836005836020015181548110610f1a57610f196117ba565b5b905f5260205f2090600602016003019182610f36929190611b16565b505050505050565b6006602052805f5260405f205f91509050805f0154908060010154905082565b5f5f60065f8481526020019081526020015f205f015414610f825760019050610f86565b5f90505b919050565b508054610f97906118a1565b5f825580601f10610fa85750610fc5565b601f0160209004905f5260205f2090810190610fc49190610fe9565b5b50565b5080545f8255600502905f5260205f2090810190610fe69190611004565b50565b5b80821115611000575f815f905550600101610fea565b5090565b5b80821115611041575f5f82015f9055600182015f9055600282015f9055600382015f6110319190610f8b565b600482015f905550600501611005565b5090565b5f5ffd5b5f5ffd5b5f819050919050565b61105f8161104d565b8114611069575f5ffd5b50565b5f8135905061107a81611056565b92915050565b5f6020828403121561109557611094611045565b5b5f6110a28482850161106c565b91505092915050565b5f81519050919050565b5f82825260208201905092915050565b5f819050602082019050919050565b6110dd8161104d565b82525050565b5f81519050919050565b5f82825260208201905092915050565b8281835e5f83830152505050565b5f601f19601f8301169050919050565b5f611125826110e3565b61112f81856110ed565b935061113f8185602086016110fd565b6111488161110b565b840191505092915050565b5f81519050919050565b5f82825260208201905092915050565b5f819050602082019050919050565b5f60a083015f8301516111915f8601826110d4565b5060208301516111a460208601826110d4565b5060408301516111b760408601826110d4565b50606083015184820360608601526111cf828261111b565b91505060808301516111e460808601826110d4565b508091505092915050565b5f6111fa838361117c565b905092915050565b5f602082019050919050565b5f61121882611153565b611222818561115d565b9350836020820285016112348561116d565b805f5b8581101561126f578484038952815161125085826111ef565b945061125b83611202565b925060208a01995050600181019050611237565b50829750879550505050505092915050565b5f60c083015f8301516112965f8601826110d4565b5060208301516112a960208601826110d4565b5060408301516112bc60408601826110d4565b50606083015184820360608601526112d4828261111b565b915050608083015184820360808601526112ee828261120e565b91505060a083015161130360a08601826110d4565b508091505092915050565b5f6113198383611281565b905092915050565b5f602082019050919050565b5f611337826110ab565b61134181856110b5565b935083602082028501611353856110c5565b805f5b8581101561138e578484038952815161136f858261130e565b945061137a83611321565b925060208a01995050600181019050611356565b50829750879550505050505092915050565b5f6020820190508181035f8301526113b8818461132d565b905092915050565b6113c98161104d565b82525050565b5f82825260208201905092915050565b5f6113e9826110e3565b6113f381856113cf565b93506114038185602086016110fd565b61140c8161110b565b840191505092915050565b5f60a08201905061142a5f8301886113c0565b61143760208301876113c0565b61144460408301866113c0565b818103606083015261145681856113df565b905061146560808301846113c0565b9695505050505050565b5f5ffd5b5f5ffd5b5f5ffd5b5f5f83601f8401126114905761148f61146f565b5b8235905067ffffffffffffffff8111156114ad576114ac611473565b5b6020830191508360018202830111156114c9576114c8611477565b5b9250929050565b5f5f602083850312156114e6576114e5611045565b5b5f83013567ffffffffffffffff81111561150357611502611049565b5b61150f8582860161147b565b92509250509250929050565b5f5f5f6040848603121561153257611531611045565b5b5f84013567ffffffffffffffff81111561154f5761154e611049565b5b61155b8682870161147b565b9350935050602061156e8682870161106c565b9150509250925092565b5f5f6040838503121561158e5761158d611045565b5b5f61159b8582860161106c565b92505060206115ac8582860161106c565b9150509250929050565b5f6020820190506115c95f8301846113c0565b92915050565b5f5f5f604084860312156115e6576115e5611045565b5b5f6115f38682870161106c565b935050602084013567ffffffffffffffff81111561161457611613611049565b5b6116208682870161147b565b92509250509250925092565b5f60408201905061163f5f8301856113c0565b61164c60208301846113c0565b9392505050565b5f73ffffffffffffffffffffffffffffffffffffffff82169050919050565b5f61167c82611653565b9050919050565b61168c81611672565b82525050565b5f6020820190506116a55f830184611683565b92915050565b5f815190506116b981611056565b92915050565b5f602082840312156116d4576116d3611045565b5b5f6116e1848285016116ab565b91505092915050565b7f796f7520646f6e27742068617665207468697320706f737400000000000000005f82015250565b5f61171e6018836113cf565b9150611729826116ea565b602082019050919050565b5f6020820190508181035f83015261174b81611712565b9050919050565b7f506f737420646f65736e277420657869737400000000000000000000000000005f82015250565b5f6117866012836113cf565b915061179182611752565b602082019050919050565b5f6020820190508181035f8301526117b38161177a565b9050919050565b7f4e487b71000000000000000000000000000000000000000000000000000000005f52603260045260245ffd5b7f4e487b71000000000000000000000000000000000000000000000000000000005f52601160045260245ffd5b5f61181e8261104d565b91506118298361104d565b9250828203905081811115611841576118406117e7565b5b92915050565b7f4e487b71000000000000000000000000000000000000000000000000000000005f52603160045260245ffd5b7f4e487b71000000000000000000000000000000000000000000000000000000005f52602260045260245ffd5b5f60028204905060018216806118b857607f821691505b6020821081036118cb576118ca611874565b5b50919050565b5f6118db8261104d565b91505f82036118ed576118ec6117e7565b5b600182039050919050565b5f6119028261104d565b91507fffffffffffffffffffffffffffffffffffffffffffffffffffffffffffffffff8203611934576119336117e7565b5b600182019050919050565b5f82905092915050565b7f4e487b71000000000000000000000000000000000000000000000000000000005f52604160045260245ffd5b5f819050815f5260205f209050919050565b5f6020601f8301049050919050565b5f82821b905092915050565b5f600883026119d27fffffffffffffffffffffffffffffffffffffffffffffffffffffffffffffffff82611997565b6119dc8683611997565b95508019841693508086168417925050509392505050565b5f819050919050565b5f611a17611a12611a0d8461104d565b6119f4565b61104d565b9050919050565b5f819050919050565b611a30836119fd565b611a44611a3c82611a1e565b8484546119a3565b825550505050565b5f5f905090565b611a5b611a4c565b611a66818484611a27565b505050565b5b81811015611a8957611a7e5f82611a53565b600181019050611a6c565b5050565b601f821115611ace57611a9f81611976565b611aa884611988565b81016020851015611ab7578190505b611acb611ac385611988565b830182611a6b565b50505b505050565b5f82821c905092915050565b5f611aee5f1984600802611ad3565b1980831691505092915050565b5f611b068383611adf565b9150826002028217905092915050565b611b20838361193f565b67ffffffffffffffff811115611b3957611b38611949565b5b611b4382546118a1565b611b4e828285611a8d565b5f601f831160018114611b7b575f8415611b69578287013590505b611b738582611afb565b865550611bda565b601f198416611b8986611976565b5f5b82811015611bb057848901358255600182019150602085019450602081019050611b8b565b86831015611bcd5784890135611bc9601f891682611adf565b8355505b6001600288020188555050505b50505050505050565b828183375f83830152505050565b5f611bfc83856113cf565b9350611c09838584611be3565b611c128361110b565b840190509392505050565b5f608082019050611c305f8301886113c0565b611c3d60208301876113c0565b8181036040830152611c50818587611bf1565b9050611c5f60608301846113c0565b9695505050505050565b7f506f737420646f6573206e6f74206578697374000000000000000000000000005f82015250565b5f611c9d6013836113cf565b9150611ca882611c69565b602082019050919050565b5f6020820190508181035f830152611cca81611c91565b9050919050565b611cda826110e3565b67ffffffffffffffff811115611cf357611cf2611949565b5b611cfd82546118a1565b611d08828285611a8d565b5f60209050601f831160018114611d39575f8415611d27578287015190505b611d318582611afb565b865550611d98565b601f198416611d4786611976565b5f5b82811015611d6e57848901518255600182019150602085019450602081019050611d49565b86831015611d8b5784890151611d87601f891682611adf565b8355505b6001600288020188555050505b50505050505056fea26469706673582212200a5a856e75c346d93312c0a5dc8a9a7ea97ee10001f09a123ccd9ab9bee3152164736f6c634300081e0033",
			"opcodes": "PUSH1 0x80 PUSH1 0x40 MSTORE CALLVALUE DUP1 ISZERO PUSH2 0xF JUMPI PUSH0 PUSH0 REVERT JUMPDEST POP PUSH1 0x40 MLOAD PUSH2 0x1EE3 CODESIZE SUB DUP1 PUSH2 0x1EE3 DUP4 CODECOPY DUP2 DUP2 ADD PUSH1 0x40 MSTORE DUP2 ADD SWAP1 PUSH2 0x31 SWAP2 SWAP1 PUSH2 0xD5 JUMP JUMPDEST DUP1 PUSH1 0x2 PUSH0 PUSH2 0x100 EXP DUP2 SLOAD DUP2 PUSH20 0xFFFFFFFFFFFFFFFFFFFFFFFFFFFFFFFFFFFFFFFF MUL NOT AND SWAP1 DUP4 PUSH20 0xFFFFFFFFFFFFFFFFFFFFFFFFFFFFFFFFFFFFFFFF AND MUL OR SWAP1 SSTORE POP POP PUSH2 0x100 JUMP JUMPDEST PUSH0 PUSH0 REVERT JUMPDEST PUSH0 PUSH20 0xFFFFFFFFFFFFFFFFFFFFFFFFFFFFFFFFFFFFFFFF DUP3 AND SWAP1 POP SWAP2 SWAP1 POP JUMP JUMPDEST PUSH0 PUSH2 0xA4 DUP3 PUSH2 0x7B JUMP JUMPDEST SWAP1 POP SWAP2 SWAP1 POP JUMP JUMPDEST PUSH2 0xB4 DUP2 PUSH2 0x9A JUMP JUMPDEST DUP2 EQ PUSH2 0xBE JUMPI PUSH0 PUSH0 REVERT JUMPDEST POP JUMP JUMPDEST PUSH0 DUP2 MLOAD SWAP1 POP PUSH2 0xCF DUP2 PUSH2 0xAB JUMP JUMPDEST SWAP3 SWAP2 POP POP JUMP JUMPDEST PUSH0 PUSH1 0x20 DUP3 DUP5 SUB SLT ISZERO PUSH2 0xEA JUMPI PUSH2 0xE9 PUSH2 0x77 JUMP JUMPDEST JUMPDEST PUSH0 PUSH2 0xF7 DUP5 DUP3 DUP6 ADD PUSH2 0xC1 JUMP JUMPDEST SWAP2 POP POP SWAP3 SWAP2 POP POP JUMP JUMPDEST PUSH2 0x1DD6 DUP1 PUSH2 0x10D PUSH0 CODECOPY PUSH0 RETURN INVALID PUSH1 0x80 PUSH1 0x40 MSTORE CALLVALUE DUP1 ISZERO PUSH2 0xF JUMPI PUSH0 PUSH0 REVERT JUMPDEST POP PUSH1 0x4 CALLDATASIZE LT PUSH2 0x91 JUMPI PUSH0 CALLDATALOAD PUSH1 0xE0 SHR DUP1 PUSH4 0xC7303C61 GT PUSH2 0x64 JUMPI DUP1 PUSH4 0xC7303C61 EQ PUSH2 0x11F JUMPI DUP1 PUSH4 0xD362EE56 EQ PUSH2 0x13B JUMPI DUP1 PUSH4 0xDE537765 EQ PUSH2 0x157 JUMPI DUP1 PUSH4 0xFA99654A EQ PUSH2 0x187 JUMPI DUP1 PUSH4 0xFC68E09F EQ PUSH2 0x1A3 JUMPI PUSH2 0x91 JUMP JUMPDEST DUP1 PUSH4 0x94CD5EE EQ PUSH2 0x95 JUMPI DUP1 PUSH4 0x30561100 EQ PUSH2 0xB1 JUMPI DUP1 PUSH4 0x718CE2BC EQ PUSH2 0xCF JUMPI DUP1 PUSH4 0x96F25073 EQ PUSH2 0x103 JUMPI JUMPDEST PUSH0 PUSH0 REVERT JUMPDEST PUSH2 0xAF PUSH1 0x4 DUP1 CALLDATASIZE SUB DUP2 ADD SWAP1 PUSH2 0xAA SWAP2 SWAP1 PUSH2 0x1080 JUMP JUMPDEST PUSH2 0x1D4 JUMP JUMPDEST STOP JUMPDEST PUSH2 0xB9 PUSH2 0x470 JUMP JUMPDEST PUSH1 0x40 MLOAD PUSH2 0xC6 SWAP2 SWAP1 PUSH2 0x13A0 JUMP JUMPDEST PUSH1 0x40 MLOAD DUP1 SWAP2 SUB SWAP1 RETURN JUMPDEST PUSH2 0xE9 PUSH1 0x4 DUP1 CALLDATASIZE SUB DUP2 ADD SWAP1 PUSH2 0xE4 SWAP2 SWAP1 PUSH2 0x1080 JUMP JUMPDEST PUSH2 0x696 JUMP JUMPDEST PUSH1 0x40 MLOAD PUSH2 0xFA SWAP6 SWAP5 SWAP4 SWAP3 SWAP2 SWAP1 PUSH2 0x1417 JUMP JUMPDEST PUSH1 0x40 MLOAD DUP1 SWAP2 SUB SWAP1 RETURN JUMPDEST PUSH2 0x11D PUSH1 0x4 DUP1 CALLDATASIZE SUB DUP2 ADD SWAP1 PUSH2 0x118 SWAP2 SWAP1 PUSH2 0x1080 JUMP JUMPDEST PUSH2 0x75D JUMP JUMPDEST STOP JUMPDEST PUSH2 0x139 PUSH1 0x4 DUP1 CALLDATASIZE SUB DUP2 ADD SWAP1 PUSH2 0x134 SWAP2 SWAP1 PUSH2 0x14D0 JUMP JUMPDEST PUSH2 0x95E JUMP JUMPDEST STOP JUMPDEST PUSH2 0x155 PUSH1 0x4 DUP1 CALLDATASIZE SUB DUP2 ADD SWAP1 PUSH2 0x150 SWAP2 SWAP1 PUSH2 0x151B JUMP JUMPDEST PUSH2 0xB4E JUMP JUMPDEST STOP JUMPDEST PUSH2 0x171 PUSH1 0x4 DUP1 CALLDATASIZE SUB DUP2 ADD SWAP1 PUSH2 0x16C SWAP2 SWAP1 PUSH2 0x1578 JUMP JUMPDEST PUSH2 0xD7A JUMP JUMPDEST PUSH1 0x40 MLOAD PUSH2 0x17E SWAP2 SWAP1 PUSH2 0x15B6 JUMP JUMPDEST PUSH1 0x40 MLOAD DUP1 SWAP2 SUB SWAP1 RETURN JUMPDEST PUSH2 0x1A1 PUSH1 0x4 DUP1 CALLDATASIZE SUB DUP2 ADD SWAP1 PUSH2 0x19C SWAP2 SWAP1 PUSH2 0x15CF JUMP JUMPDEST PUSH2 0xDA5 JUMP JUMPDEST STOP JUMPDEST PUSH2 0x1BD PUSH1 0x4 DUP1 CALLDATASIZE SUB DUP2 ADD SWAP1 PUSH2 0x1B8 SWAP2 SWAP1 PUSH2 0x1080 JUMP JUMPDEST PUSH2 0xF3E JUMP JUMPDEST PUSH1 0x40 MLOAD PUSH2 0x1CB SWAP3 SWAP2 SWAP1 PUSH2 0x162C JUMP JUMPDEST PUSH1 0x40 MLOAD DUP1 SWAP2 SUB SWAP1 RETURN JUMPDEST PUSH0 PUSH1 0x2 PUSH0 SWAP1 SLOAD SWAP1 PUSH2 0x100 EXP SWAP1 DIV PUSH20 0xFFFFFFFFFFFFFFFFFFFFFFFFFFFFFFFFFFFFFFFF AND PUSH20 0xFFFFFFFFFFFFFFFFFFFFFFFFFFFFFFFFFFFFFFFF AND PUSH4 0x26567EEC CALLER PUSH1 0x40 MLOAD DUP3 PUSH4 0xFFFFFFFF AND PUSH1 0xE0 SHL DUP2 MSTORE PUSH1 0x4 ADD PUSH2 0x22F SWAP2 SWAP1 PUSH2 0x1692 JUMP JUMPDEST PUSH1 0x20 PUSH1 0x40 MLOAD DUP1 DUP4 SUB DUP2 DUP7 GAS STATICCALL ISZERO DUP1 ISZERO PUSH2 0x24A JUMPI RETURNDATASIZE PUSH0 PUSH0 RETURNDATACOPY RETURNDATASIZE PUSH0 REVERT JUMPDEST POP POP POP POP PUSH1 0x40 MLOAD RETURNDATASIZE PUSH1 0x1F NOT PUSH1 0x1F DUP3 ADD AND DUP3 ADD DUP1 PUSH1 0x40 MSTORE POP DUP2 ADD SWAP1 PUSH2 0x26E SWAP2 SWAP1 PUSH2 0x16BF JUMP JUMPDEST SWAP1 POP PUSH0 PUSH1 0x6 PUSH0 DUP5 DUP2 MSTORE PUSH1 0x20 ADD SWAP1 DUP2 MSTORE PUSH1 0x20 ADD PUSH0 KECCAK256 PUSH1 0x40 MLOAD DUP1 PUSH1 0x40 ADD PUSH1 0x40 MSTORE SWAP1 DUP2 PUSH0 DUP3 ADD SLOAD DUP2 MSTORE PUSH1 0x20 ADD PUSH1 0x1 DUP3 ADD SLOAD DUP2 MSTORE POP POP SWAP1 POP DUP2 DUP2 PUSH0 ADD MLOAD EQ PUSH2 0x2E7 JUMPI PUSH1 0x40 MLOAD PUSH32 0x8C379A000000000000000000000000000000000000000000000000000000000 DUP2 MSTORE PUSH1 0x4 ADD PUSH2 0x2DE SWAP1 PUSH2 0x1734 JUMP JUMPDEST PUSH1 0x40 MLOAD DUP1 SWAP2 SUB SWAP1 REVERT JUMPDEST PUSH2 0x2F0 DUP4 PUSH2 0xF5E JUMP JUMPDEST PUSH2 0x32F JUMPI PUSH1 0x40 MLOAD PUSH32 0x8C379A000000000000000000000000000000000000000000000000000000000 DUP2 MSTORE PUSH1 0x4 ADD PUSH2 0x326 SWAP1 PUSH2 0x179C JUMP JUMPDEST PUSH1 0x40 MLOAD DUP1 SWAP2 SUB SWAP1 REVERT JUMPDEST PUSH1 0x5 DUP2 PUSH1 0x20 ADD MLOAD DUP2 SLOAD DUP2 LT PUSH2 0x347 JUMPI PUSH2 0x346 PUSH2 0x17BA JUMP JUMPDEST JUMPDEST SWAP1 PUSH0 MSTORE PUSH1 0x20 PUSH0 KECCAK256 SWAP1 PUSH1 0x6 MUL ADD PUSH0 PUSH0 DUP3 ADD PUSH0 SWAP1 SSTORE PUSH1 0x1 DUP3 ADD PUSH0 SWAP1 SSTORE PUSH1 0x2 DUP3 ADD PUSH0 SWAP1 SSTORE PUSH1 0x3 DUP3 ADD PUSH0 PUSH2 0x377 SWAP2 SWAP1 PUSH2 0xF8B JUMP JUMPDEST PUSH1 0x4 DUP3 ADD PUSH0 PUSH2 0x386 SWAP2 SWAP1 PUSH2 0xFC8 JUMP JUMPDEST PUSH1 0x5 DUP3 ADD PUSH0 SWAP1 SSTORE POP POP PUSH1 0x6 PUSH0 DUP5 DUP2 MSTORE PUSH1 0x20 ADD SWAP1 DUP2 MSTORE PUSH1 0x20 ADD PUSH0 KECCAK256 PUSH0 PUSH0 DUP3 ADD PUSH0 SWAP1 SSTORE PUSH1 0x1 DUP3 ADD PUSH0 SWAP1 SSTORE POP POP PUSH1 0x4 PUSH0 DUP3 PUSH0 ADD MLOAD DUP2 MSTORE PUSH1 0x20 ADD SWAP1 DUP2 MSTORE PUSH1 0x20 ADD PUSH0 KECCAK256 PUSH1 0x1 PUSH1 0x4 PUSH0 DUP5 PUSH0 ADD MLOAD DUP2 MSTORE PUSH1 0x20 ADD SWAP1 DUP2 MSTORE PUSH1 0x20 ADD PUSH0 KECCAK256 DUP1 SLOAD SWAP1 POP PUSH2 0x3E8 SWAP2 SWAP1 PUSH2 0x1814 JUMP JUMPDEST DUP2 SLOAD DUP2 LT PUSH2 0x3F9 JUMPI PUSH2 0x3F8 PUSH2 0x17BA JUMP JUMPDEST JUMPDEST SWAP1 PUSH0 MSTORE PUSH1 0x20 PUSH0 KECCAK256 ADD SLOAD PUSH1 0x4 PUSH0 DUP4 PUSH0 ADD MLOAD DUP2 MSTORE PUSH1 0x20 ADD SWAP1 DUP2 MSTORE PUSH1 0x20 ADD PUSH0 KECCAK256 DUP5 DUP2 SLOAD DUP2 LT PUSH2 0x428 JUMPI PUSH2 0x427 PUSH2 0x17BA JUMP JUMPDEST JUMPDEST SWAP1 PUSH0 MSTORE PUSH1 0x20 PUSH0 KECCAK256 ADD DUP2 SWAP1 SSTORE POP PUSH1 0x4 PUSH0 DUP3 PUSH0 ADD MLOAD DUP2 MSTORE PUSH1 0x20 ADD SWAP1 DUP2 MSTORE PUSH1 0x20 ADD PUSH0 KECCAK256 DUP1 SLOAD DUP1 PUSH2 0x458 JUMPI PUSH2 0x457 PUSH2 0x1847 JUMP JUMPDEST JUMPDEST PUSH1 0x1 SWAP1 SUB DUP2 DUP2 SWAP1 PUSH0 MSTORE PUSH1 0x20 PUSH0 KECCAK256 ADD PUSH0 SWAP1 SSTORE SWAP1 SSTORE POP POP POP JUMP JUMPDEST PUSH1 0x60 PUSH1 0x5 DUP1 SLOAD DUP1 PUSH1 0x20 MUL PUSH1 0x20 ADD PUSH1 0x40 MLOAD SWAP1 DUP2 ADD PUSH1 0x40 MSTORE DUP1 SWAP3 SWAP2 SWAP1 DUP2 DUP2 MSTORE PUSH1 0x20 ADD PUSH0 SWAP1 JUMPDEST DUP3 DUP3 LT ISZERO PUSH2 0x68D JUMPI DUP4 DUP3 SWAP1 PUSH0 MSTORE PUSH1 0x20 PUSH0 KECCAK256 SWAP1 PUSH1 0x6 MUL ADD PUSH1 0x40 MLOAD DUP1 PUSH1 0xC0 ADD PUSH1 0x40 MSTORE SWAP1 DUP2 PUSH0 DUP3 ADD SLOAD DUP2 MSTORE PUSH1 0x20 ADD PUSH1 0x1 DUP3 ADD SLOAD DUP2 MSTORE PUSH1 0x20 ADD PUSH1 0x2 DUP3 ADD SLOAD DUP2 MSTORE PUSH1 0x20 ADD PUSH1 0x3 DUP3 ADD DUP1 SLOAD PUSH2 0x4E1 SWAP1 PUSH2 0x18A1 JUMP JUMPDEST DUP1 PUSH1 0x1F ADD PUSH1 0x20 DUP1 SWAP2 DIV MUL PUSH1 0x20 ADD PUSH1 0x40 MLOAD SWAP1 DUP2 ADD PUSH1 0x40 MSTORE DUP1 SWAP3 SWAP2 SWAP1 DUP2 DUP2 MSTORE PUSH1 0x20 ADD DUP3 DUP1 SLOAD PUSH2 0x50D SWAP1 PUSH2 0x18A1 JUMP JUMPDEST DUP1 ISZERO PUSH2 0x558 JUMPI DUP1 PUSH1 0x1F LT PUSH2 0x52F JUMPI PUSH2 0x100 DUP1 DUP4 SLOAD DIV MUL DUP4 MSTORE SWAP2 PUSH1 0x20 ADD SWAP2 PUSH2 0x558 JUMP JUMPDEST DUP3 ADD SWAP2 SWAP1 PUSH0 MSTORE PUSH1 0x20 PUSH0 KECCAK256 SWAP1 JUMPDEST DUP2 SLOAD DUP2 MSTORE SWAP1 PUSH1 0x1 ADD SWAP1 PUSH1 0x20 ADD DUP1 DUP4 GT PUSH2 0x53B JUMPI DUP3 SWAP1 SUB PUSH1 0x1F AND DUP3 ADD SWAP2 JUMPDEST POP POP POP POP POP DUP2 MSTORE PUSH1 0x20 ADD PUSH1 0x4 DUP3 ADD DUP1 SLOAD DUP1 PUSH1 0x20 MUL PUSH1 0x20 ADD PUSH1 0x40 MLOAD SWAP1 DUP2 ADD PUSH1 0x40 MSTORE DUP1 SWAP3 SWAP2 SWAP1 DUP2 DUP2 MSTORE PUSH1 0x20 ADD PUSH0 SWAP1 JUMPDEST DUP3 DUP3 LT ISZERO PUSH2 0x66C JUMPI DUP4 DUP3 SWAP1 PUSH0 MSTORE PUSH1 0x20 PUSH0 KECCAK256 SWAP1 PUSH1 0x5 MUL ADD PUSH1 0x40 MLOAD DUP1 PUSH1 0xA0 ADD PUSH1 0x40 MSTORE SWAP1 DUP2 PUSH0 DUP3 ADD SLOAD DUP2 MSTORE PUSH1 0x20 ADD PUSH1 0x1 DUP3 ADD SLOAD DUP2 MSTORE PUSH1 0x20 ADD PUSH1 0x2 DUP3 ADD SLOAD DUP2 MSTORE PUSH1 0x20 ADD PUSH1 0x3 DUP3 ADD DUP1 SLOAD PUSH2 0x5D3 SWAP1 PUSH2 0x18A1 JUMP JUMPDEST DUP1 PUSH1 0x1F ADD PUSH1 0x20 DUP1 SWAP2 DIV MUL PUSH1 0x20 ADD PUSH1 0x40 MLOAD SWAP1 DUP2 ADD PUSH1 0x40 MSTORE DUP1 SWAP3 SWAP2 SWAP1 DUP2 DUP2 MSTORE PUSH1 0x20 ADD DUP3 DUP1 SLOAD PUSH2 0x5FF SWAP1 PUSH2 0x18A1 JUMP JUMPDEST DUP1 ISZERO PUSH2 0x64A JUMPI DUP1 PUSH1 0x1F LT PUSH2 0x621 JUMPI PUSH2 0x100 DUP1 DUP4 SLOAD DIV MUL DUP4 MSTORE SWAP2 PUSH1 0x20 ADD SWAP2 PUSH2 0x64A JUMP JUMPDEST DUP3 ADD SWAP2 SWAP1 PUSH0 MSTORE PUSH1 0x20 PUSH0 KECCAK256 SWAP1 JUMPDEST DUP2 SLOAD DUP2 MSTORE SWAP1 PUSH1 0x1 ADD SWAP1 PUSH1 0x20 ADD DUP1 DUP4 GT PUSH2 0x62D JUMPI DUP3 SWAP1 SUB PUSH1 0x1F AND DUP3 ADD SWAP2 JUMPDEST POP POP POP POP POP DUP2 MSTORE PUSH1 0x20 ADD PUSH1 0x4 DUP3 ADD SLOAD DUP2 MSTORE POP POP DUP2 MSTORE PUSH1 0x20 ADD SWAP1 PUSH1 0x1 ADD SWAP1 PUSH2 0x585 JUMP JUMPDEST POP POP POP POP DUP2 MSTORE PUSH1 0x20 ADD PUSH1 0x5 DUP3 ADD SLOAD DUP2 MSTORE POP POP DUP2 MSTORE PUSH1 0x20 ADD SWAP1 PUSH1 0x1 ADD SWAP1 PUSH2 0x493 JUMP JUMPDEST POP POP POP POP SWAP1 POP SWAP1 JUMP JUMPDEST PUSH1 0x5 DUP2 DUP2 SLOAD DUP2 LT PUSH2 0x6A5 JUMPI PUSH0 DUP1 REVERT JUMPDEST SWAP1 PUSH0 MSTORE PUSH1 0x20 PUSH0 KECCAK256 SWAP1 PUSH1 0x6 MUL ADD PUSH0 SWAP2 POP SWAP1 POP DUP1 PUSH0 ADD SLOAD SWAP1 DUP1 PUSH1 0x1 ADD SLOAD SWAP1 DUP1 PUSH1 0x2 ADD SLOAD SWAP1 DUP1 PUSH1 0x3 ADD DUP1 SLOAD PUSH2 0x6D6 SWAP1 PUSH2 0x18A1 JUMP JUMPDEST DUP1 PUSH1 0x1F ADD PUSH1 0x20 DUP1 SWAP2 DIV MUL PUSH1 0x20 ADD PUSH1 0x40 MLOAD SWAP1 DUP2 ADD PUSH1 0x40 MSTORE DUP1 SWAP3 SWAP2 SWAP1 DUP2 DUP2 MSTORE PUSH1 0x20 ADD DUP3 DUP1 SLOAD PUSH2 0x702 SWAP1 PUSH2 0x18A1 JUMP JUMPDEST DUP1 ISZERO PUSH2 0x74D JUMPI DUP1 PUSH1 0x1F LT PUSH2 0x724 JUMPI PUSH2 0x100 DUP1 DUP4 SLOAD DIV MUL DUP4 MSTORE SWAP2 PUSH1 0x20 ADD SWAP2 PUSH2 0x74D JUMP JUMPDEST DUP3 ADD SWAP2 SWAP1 PUSH0 MSTORE PUSH1 0x20 PUSH0 KECCAK256 SWAP1 JUMPDEST DUP2 SLOAD DUP2 MSTORE SWAP1 PUSH1 0x1 ADD SWAP1 PUSH1 0x20 ADD DUP1 DUP4 GT PUSH2 0x730 JUMPI DUP3 SWAP1 SUB PUSH1 0x1F AND DUP3 ADD SWAP2 JUMPDEST POP POP POP POP POP SWAP1 DUP1 PUSH1 0x5 ADD SLOAD SWAP1 POP DUP6 JUMP JUMPDEST PUSH0 PUSH1 0x2 PUSH0 SWAP1 SLOAD SWAP1 PUSH2 0x100 EXP SWAP1 DIV PUSH20 0xFFFFFFFFFFFFFFFFFFFFFFFFFFFFFFFFFFFFFFFF AND PUSH20 0xFFFFFFFFFFFFFFFFFFFFFFFFFFFFFFFFFFFFFFFF AND PUSH4 0x26567EEC CALLER PUSH1 0x40 MLOAD DUP3 PUSH4 0xFFFFFFFF AND PUSH1 0xE0 SHL DUP2 MSTORE PUSH1 0x4 ADD PUSH2 0x7B8 SWAP2 SWAP1 PUSH2 0x1692 JUMP JUMPDEST PUSH1 0x20 PUSH1 0x40 MLOAD DUP1 DUP4 SUB DUP2 DUP7 GAS STATICCALL ISZERO DUP1 ISZERO PUSH2 0x7D3 JUMPI RETURNDATASIZE PUSH0 PUSH0 RETURNDATACOPY RETURNDATASIZE PUSH0 REVERT JUMPDEST POP POP POP POP PUSH1 0x40 MLOAD RETURNDATASIZE PUSH1 0x1F NOT PUSH1 0x1F DUP3 ADD AND DUP3 ADD DUP1 PUSH1 0x40 MSTORE POP DUP2 ADD SWAP1 PUSH2 0x7F7 SWAP2 SWAP1 PUSH2 0x16BF JUMP JUMPDEST SWAP1 POP PUSH0 PUSH1 0x6 PUSH0 DUP5 DUP2 MSTORE PUSH1 0x20 ADD SWAP1 DUP2 MSTORE PUSH1 0x20 ADD PUSH0 KECCAK256 PUSH1 0x40 MLOAD DUP1 PUSH1 0x40 ADD PUSH1 0x40 MSTORE SWAP1 DUP2 PUSH0 DUP3 ADD SLOAD DUP2 MSTORE PUSH1 0x20 ADD PUSH1 0x1 DUP3 ADD SLOAD DUP2 MSTORE POP POP SWAP1 POP PUSH2 0x834 DUP4 PUSH2 0xF5E JUMP JUMPDEST PUSH2 0x873 JUMPI PUSH1 0x40 MLOAD PUSH32 0x8C379A000000000000000000000000000000000000000000000000000000000 DUP2 MSTORE PUSH1 0x4 ADD PUSH2 0x86A SWAP1 PUSH2 0x179C JUMP JUMPDEST PUSH1 0x40 MLOAD DUP1 SWAP2 SUB SWAP1 REVERT JUMPDEST PUSH1 0x3 PUSH0 DUP4 DUP2 MSTORE PUSH1 0x20 ADD SWAP1 DUP2 MSTORE PUSH1 0x20 ADD PUSH0 KECCAK256 PUSH0 SWAP1 SLOAD SWAP1 PUSH2 0x100 EXP SWAP1 DIV PUSH1 0xFF AND ISZERO PUSH2 0x8F5 JUMPI PUSH1 0x3 PUSH0 DUP4 DUP2 MSTORE PUSH1 0x20 ADD SWAP1 DUP2 MSTORE PUSH1 0x20 ADD PUSH0 KECCAK256 PUSH0 PUSH2 0x100 EXP DUP2 SLOAD SWAP1 PUSH1 0xFF MUL NOT AND SWAP1 SSTORE PUSH1 0x5 DUP2 PUSH1 0x20 ADD MLOAD DUP2 SLOAD DUP2 LT PUSH2 0x8CE JUMPI PUSH2 0x8CD PUSH2 0x17BA JUMP JUMPDEST JUMPDEST SWAP1 PUSH0 MSTORE PUSH1 0x20 PUSH0 KECCAK256 SWAP1 PUSH1 0x6 MUL ADD PUSH1 0x2 ADD PUSH0 DUP2 SLOAD PUSH2 0x8E9 SWAP1 PUSH2 0x18D1 JUMP JUMPDEST SWAP2 SWAP1 POP DUP2 SWAP1 SSTORE POP PUSH2 0x959 JUMP JUMPDEST PUSH1 0x1 PUSH1 0x3 PUSH0 DUP5 DUP2 MSTORE PUSH1 0x20 ADD SWAP1 DUP2 MSTORE PUSH1 0x20 ADD PUSH0 KECCAK256 PUSH0 PUSH2 0x100 EXP DUP2 SLOAD DUP2 PUSH1 0xFF MUL NOT AND SWAP1 DUP4 ISZERO ISZERO MUL OR SWAP1 SSTORE POP PUSH1 0x5 DUP2 PUSH1 0x20 ADD MLOAD DUP2 SLOAD DUP2 LT PUSH2 0x936 JUMPI PUSH2 0x935 PUSH2 0x17BA JUMP JUMPDEST JUMPDEST SWAP1 PUSH0 MSTORE PUSH1 0x20 PUSH0 KECCAK256 SWAP1 PUSH1 0x6 MUL ADD PUSH1 0x2 ADD PUSH0 DUP2 SLOAD PUSH2 0x951 SWAP1 PUSH2 0x18F8 JUMP JUMPDEST SWAP2 SWAP1 POP DUP2 SWAP1 SSTORE POP JUMPDEST POP POP POP JUMP JUMPDEST PUSH0 PUSH1 0x2 PUSH0 SWAP1 SLOAD SWAP1 PUSH2 0x100 EXP SWAP1 DIV PUSH20 0xFFFFFFFFFFFFFFFFFFFFFFFFFFFFFFFFFFFFFFFF AND PUSH20 0xFFFFFFFFFFFFFFFFFFFFFFFFFFFFFFFFFFFFFFFF AND PUSH4 0x26567EEC CALLER PUSH1 0x40 MLOAD DUP3 PUSH4 0xFFFFFFFF AND PUSH1 0xE0 SHL DUP2 MSTORE PUSH1 0x4 ADD PUSH2 0x9B9 SWAP2 SWAP1 PUSH2 0x1692 JUMP JUMPDEST PUSH1 0x20 PUSH1 0x40 MLOAD DUP1 DUP4 SUB DUP2 DUP7 GAS STATICCALL ISZERO DUP1 ISZERO PUSH2 0x9D4 JUMPI RETURNDATASIZE PUSH0 PUSH0 RETURNDATACOPY RETURNDATASIZE PUSH0 REVERT JUMPDEST POP POP POP POP PUSH1 0x40 MLOAD RETURNDATASIZE PUSH1 0x1F NOT PUSH1 0x1F DUP3 ADD AND DUP3 ADD DUP1 PUSH1 0x40 MSTORE POP DUP2 ADD SWAP1 PUSH2 0x9F8 SWAP2 SWAP1 PUSH2 0x16BF JUMP JUMPDEST SWAP1 POP PUSH0 PUSH0 DUP2 SLOAD DUP1 SWAP3 SWAP2 SWAP1 PUSH2 0xA0B SWAP1 PUSH2 0x18F8 JUMP JUMPDEST SWAP2 SWAP1 POP SSTORE POP PUSH0 PUSH0 SLOAD SWAP1 POP PUSH1 0x5 PUSH1 0x1 DUP2 PUSH1 0x1 DUP2 SLOAD ADD DUP1 DUP3 SSTORE DUP1 SWAP2 POP POP SUB SWAP1 PUSH0 MSTORE PUSH1 0x20 PUSH0 KECCAK256 SWAP1 POP POP PUSH0 PUSH1 0x1 PUSH1 0x5 DUP1 SLOAD SWAP1 POP PUSH2 0xA44 SWAP2 SWAP1 PUSH2 0x1814 JUMP JUMPDEST SWAP1 POP PUSH0 PUSH1 0x5 DUP3 DUP2 SLOAD DUP2 LT PUSH2 0xA5B JUMPI PUSH2 0xA5A PUSH2 0x17BA JUMP JUMPDEST JUMPDEST SWAP1 PUSH0 MSTORE PUSH1 0x20 PUSH0 KECCAK256 SWAP1 PUSH1 0x6 MUL ADD SWAP1 POP DUP4 DUP2 PUSH0 ADD DUP2 SWAP1 SSTORE POP DUP3 DUP2 PUSH1 0x1 ADD DUP2 SWAP1 SSTORE POP DUP6 DUP6 DUP3 PUSH1 0x3 ADD SWAP2 DUP3 PUSH2 0xA8D SWAP3 SWAP2 SWAP1 PUSH2 0x1B16 JUMP JUMPDEST POP TIMESTAMP DUP2 PUSH1 0x5 ADD DUP2 SWAP1 SSTORE POP PUSH1 0x4 PUSH0 DUP6 DUP2 MSTORE PUSH1 0x20 ADD SWAP1 DUP2 MSTORE PUSH1 0x20 ADD PUSH0 KECCAK256 DUP3 SWAP1 DUP1 PUSH1 0x1 DUP2 SLOAD ADD DUP1 DUP3 SSTORE DUP1 SWAP2 POP POP PUSH1 0x1 SWAP1 SUB SWAP1 PUSH0 MSTORE PUSH1 0x20 PUSH0 KECCAK256 ADD PUSH0 SWAP1 SWAP2 SWAP1 SWAP2 SWAP1 SWAP2 POP SSTORE PUSH1 0x40 MLOAD DUP1 PUSH1 0x40 ADD PUSH1 0x40 MSTORE DUP1 DUP6 DUP2 MSTORE PUSH1 0x20 ADD DUP4 DUP2 MSTORE POP PUSH1 0x6 PUSH0 DUP6 DUP2 MSTORE PUSH1 0x20 ADD SWAP1 DUP2 MSTORE PUSH1 0x20 ADD PUSH0 KECCAK256 PUSH0 DUP3 ADD MLOAD DUP2 PUSH0 ADD SSTORE PUSH1 0x20 DUP3 ADD MLOAD DUP2 PUSH1 0x1 ADD SSTORE SWAP1 POP POP PUSH32 0x9D8BA7605D631183923C2B8E95CD748A3F7BAD1C3CAB55DF446FEA93C84980EF DUP4 DUP6 DUP9 DUP9 TIMESTAMP PUSH1 0x40 MLOAD PUSH2 0xB3E SWAP6 SWAP5 SWAP4 SWAP3 SWAP2 SWAP1 PUSH2 0x1C1D JUMP JUMPDEST PUSH1 0x40 MLOAD DUP1 SWAP2 SUB SWAP1 LOG1 POP POP POP POP POP POP JUMP JUMPDEST PUSH0 PUSH1 0x2 PUSH0 SWAP1 SLOAD SWAP1 PUSH2 0x100 EXP SWAP1 DIV PUSH20 0xFFFFFFFFFFFFFFFFFFFFFFFFFFFFFFFFFFFFFFFF AND PUSH20 0xFFFFFFFFFFFFFFFFFFFFFFFFFFFFFFFFFFFFFFFF AND PUSH4 0x26567EEC CALLER PUSH1 0x40 MLOAD DUP3 PUSH4 0xFFFFFFFF AND PUSH1 0xE0 SHL DUP2 MSTORE PUSH1 0x4 ADD PUSH2 0xBA9 SWAP2 SWAP1 PUSH2 0x1692 JUMP JUMPDEST PUSH1 0x20 PUSH1 0x40 MLOAD DUP1 DUP4 SUB DUP2 DUP7 GAS STATICCALL ISZERO DUP1 ISZERO PUSH2 0xBC4 JUMPI RETURNDATASIZE PUSH0 PUSH0 RETURNDATACOPY RETURNDATASIZE PUSH0 REVERT JUMPDEST POP POP POP POP PUSH1 0x40 MLOAD RETURNDATASIZE PUSH1 0x1F NOT PUSH1 0x1F DUP3 ADD AND DUP3 ADD DUP1 PUSH1 0x40 MSTORE POP DUP2 ADD SWAP1 PUSH2 0xBE8 SWAP2 SWAP1 PUSH2 0x16BF JUMP JUMPDEST SWAP1 POP PUSH0 PUSH1 0x6 PUSH0 DUP5 DUP2 MSTORE PUSH1 0x20 ADD SWAP1 DUP2 MSTORE PUSH1 0x20 ADD PUSH0 KECCAK256 PUSH1 0x40 MLOAD DUP1 PUSH1 0x40 ADD PUSH1 0x40 MSTORE SWAP1 DUP2 PUSH0 DUP3 ADD SLOAD DUP2 MSTORE PUSH1 0x20 ADD PUSH1 0x1 DUP3 ADD SLOAD DUP2 MSTORE POP POP SWAP1 POP PUSH0 DUP2 PUSH0 ADD MLOAD SUB PUSH2 0xC61 JUMPI PUSH1 0x40 MLOAD PUSH32 0x8C379A000000000000000000000000000000000000000000000000000000000 DUP2 MSTORE PUSH1 0x4 ADD PUSH2 0xC58 SWAP1 PUSH2 0x1CB3 JUMP JUMPDEST PUSH1 0x40 MLOAD DUP1 SWAP2 SUB SWAP1 REVERT JUMPDEST PUSH0 DUP2 PUSH1 0x20 ADD MLOAD SWAP1 POP PUSH0 PUSH1 0x40 MLOAD DUP1 PUSH1 0xA0 ADD PUSH1 0x40 MSTORE DUP1 PUSH1 0x1 PUSH0 DUP2 SLOAD PUSH2 0xC83 SWAP1 PUSH2 0x18F8 JUMP JUMPDEST SWAP2 SWAP1 POP DUP2 SWAP1 SSTORE DUP2 MSTORE PUSH1 0x20 ADD DUP7 DUP2 MSTORE PUSH1 0x20 ADD DUP6 DUP2 MSTORE PUSH1 0x20 ADD DUP9 DUP9 DUP1 DUP1 PUSH1 0x1F ADD PUSH1 0x20 DUP1 SWAP2 DIV MUL PUSH1 0x20 ADD PUSH1 0x40 MLOAD SWAP1 DUP2 ADD PUSH1 0x40 MSTORE DUP1 SWAP4 SWAP3 SWAP2 SWAP1 DUP2 DUP2 MSTORE PUSH1 0x20 ADD DUP4 DUP4 DUP1 DUP3 DUP5 CALLDATACOPY PUSH0 DUP2 DUP5 ADD MSTORE PUSH1 0x1F NOT PUSH1 0x1F DUP3 ADD AND SWAP1 POP DUP1 DUP4 ADD SWAP3 POP POP POP POP POP POP POP DUP2 MSTORE PUSH1 0x20 ADD TIMESTAMP DUP2 MSTORE POP SWAP1 POP PUSH1 0x5 DUP3 DUP2 SLOAD DUP2 LT PUSH2 0xCFD JUMPI PUSH2 0xCFC PUSH2 0x17BA JUMP JUMPDEST JUMPDEST SWAP1 PUSH0 MSTORE PUSH1 0x20 PUSH0 KECCAK256 SWAP1 PUSH1 0x6 MUL ADD PUSH1 0x4 ADD DUP2 SWAP1 DUP1 PUSH1 0x1 DUP2 SLOAD ADD DUP1 DUP3 SSTORE DUP1 SWAP2 POP POP PUSH1 0x1 SWAP1 SUB SWAP1 PUSH0 MSTORE PUSH1 0x20 PUSH0 KECCAK256 SWAP1 PUSH1 0x5 MUL ADD PUSH0 SWAP1 SWAP2 SWAP1 SWAP2 SWAP1 SWAP2 POP PUSH0 DUP3 ADD MLOAD DUP2 PUSH0 ADD SSTORE PUSH1 0x20 DUP3 ADD MLOAD DUP2 PUSH1 0x1 ADD SSTORE PUSH1 0x40 DUP3 ADD MLOAD DUP2 PUSH1 0x2 ADD SSTORE PUSH1 0x60 DUP3 ADD MLOAD DUP2 PUSH1 0x3 ADD SWAP1 DUP2 PUSH2 0xD64 SWAP2 SWAP1 PUSH2 0x1CD1 JUMP JUMPDEST POP PUSH1 0x80 DUP3 ADD MLOAD DUP2 PUSH1 0x4 ADD SSTORE POP POP POP POP POP POP POP POP POP JUMP JUMPDEST PUSH1 0x4 PUSH1 0x20 MSTORE DUP2 PUSH0 MSTORE PUSH1 0x40 PUSH0 KECCAK256 DUP2 DUP2 SLOAD DUP2 LT PUSH2 0xD93 JUMPI PUSH0 DUP1 REVERT JUMPDEST SWAP1 PUSH0 MSTORE PUSH1 0x20 PUSH0 KECCAK256 ADD PUSH0 SWAP2 POP SWAP2 POP POP SLOAD DUP2 JUMP JUMPDEST PUSH0 PUSH1 0x2 PUSH0 SWAP1 SLOAD SWAP1 PUSH2 0x100 EXP SWAP1 DIV PUSH20 0xFFFFFFFFFFFFFFFFFFFFFFFFFFFFFFFFFFFFFFFF AND PUSH20 0xFFFFFFFFFFFFFFFFFFFFFFFFFFFFFFFFFFFFFFFF AND PUSH4 0x26567EEC CALLER PUSH1 0x40 MLOAD DUP3 PUSH4 0xFFFFFFFF AND PUSH1 0xE0 SHL DUP2 MSTORE PUSH1 0x4 ADD PUSH2 0xE00 SWAP2 SWAP1 PUSH2 0x1692 JUMP JUMPDEST PUSH1 0x20 PUSH1 0x40 MLOAD DUP1 DUP4 SUB DUP2 DUP7 GAS STATICCALL ISZERO DUP1 ISZERO PUSH2 0xE1B JUMPI RETURNDATASIZE PUSH0 PUSH0 RETURNDATACOPY RETURNDATASIZE PUSH0 REVERT JUMPDEST POP POP POP POP PUSH1 0x40 MLOAD RETURNDATASIZE PUSH1 0x1F NOT PUSH1 0x1F DUP3 ADD AND DUP3 ADD DUP1 PUSH1 0x40 MSTORE POP DUP2 ADD SWAP1 PUSH2 0xE3F SWAP2 SWAP1 PUSH2 0x16BF JUMP JUMPDEST SWAP1 POP PUSH0 PUSH1 0x6 PUSH0 DUP7 DUP2 MSTORE PUSH1 0x20 ADD SWAP1 DUP2 MSTORE PUSH1 0x20 ADD PUSH0 KECCAK256 PUSH1 0x40 MLOAD DUP1 PUSH1 0x40 ADD PUSH1 0x40 MSTORE SWAP1 DUP2 PUSH0 DUP3 ADD SLOAD DUP2 MSTORE PUSH1 0x20 ADD PUSH1 0x1 DUP3 ADD SLOAD DUP2 MSTORE POP POP SWAP1 POP DUP2 DUP2 PUSH0 ADD MLOAD EQ PUSH2 0xEB8 JUMPI PUSH1 0x40 MLOAD PUSH32 0x8C379A000000000000000000000000000000000000000000000000000000000 DUP2 MSTORE PUSH1 0x4 ADD PUSH2 0xEAF SWAP1 PUSH2 0x1734 JUMP JUMPDEST PUSH1 0x40 MLOAD DUP1 SWAP2 SUB SWAP1 REVERT JUMPDEST PUSH2 0xEC1 DUP6 PUSH2 0xF5E JUMP JUMPDEST PUSH2 0xF00 JUMPI PUSH1 0x40 MLOAD PUSH32 0x8C379A000000000000000000000000000000000000000000000000000000000 DUP2 MSTORE PUSH1 0x4 ADD PUSH2 0xEF7 SWAP1 PUSH2 0x179C JUMP JUMPDEST PUSH1 0x40 MLOAD DUP1 SWAP2 SUB SWAP1 REVERT JUMPDEST DUP4 DUP4 PUSH1 0x5 DUP4 PUSH1 0x20 ADD MLOAD DUP2 SLOAD DUP2 LT PUSH2 0xF1A JUMPI PUSH2 0xF19 PUSH2 0x17BA JUMP JUMPDEST JUMPDEST SWAP1 PUSH0 MSTORE PUSH1 0x20 PUSH0 KECCAK256 SWAP1 PUSH1 0x6 MUL ADD PUSH1 0x3 ADD SWAP2 DUP3 PUSH2 0xF36 SWAP3 SWAP2 SWAP1 PUSH2 0x1B16 JUMP JUMPDEST POP POP POP POP POP POP JUMP JUMPDEST PUSH1 0x6 PUSH1 0x20 MSTORE DUP1 PUSH0 MSTORE PUSH1 0x40 PUSH0 KECCAK256 PUSH0 SWAP2 POP SWAP1 POP DUP1 PUSH0 ADD SLOAD SWAP1 DUP1 PUSH1 0x1 ADD SLOAD SWAP1 POP DUP3 JUMP JUMPDEST PUSH0 PUSH0 PUSH1 0x6 PUSH0 DUP5 DUP2 MSTORE PUSH1 0x20 ADD SWAP1 DUP2 MSTORE PUSH1 0x20 ADD PUSH0 KECCAK256 PUSH0 ADD SLOAD EQ PUSH2 0xF82 JUMPI PUSH1 0x1 SWAP1 POP PUSH2 0xF86 JUMP JUMPDEST PUSH0 SWAP1 POP JUMPDEST SWAP2 SWAP1 POP JUMP JUMPDEST POP DUP1 SLOAD PUSH2 0xF97 SWAP1 PUSH2 0x18A1 JUMP JUMPDEST PUSH0 DUP3 SSTORE DUP1 PUSH1 0x1F LT PUSH2 0xFA8 JUMPI POP PUSH2 0xFC5 JUMP JUMPDEST PUSH1 0x1F ADD PUSH1 0x20 SWAP1 DIV SWAP1 PUSH0 MSTORE PUSH1 0x20 PUSH0 KECCAK256 SWAP1 DUP2 ADD SWAP1 PUSH2 0xFC4 SWAP2 SWAP1 PUSH2 0xFE9 JUMP JUMPDEST JUMPDEST POP JUMP JUMPDEST POP DUP1 SLOAD PUSH0 DUP3 SSTORE PUSH1 0x5 MUL SWAP1 PUSH0 MSTORE PUSH1 0x20 PUSH0 KECCAK256 SWAP1 DUP2 ADD SWAP1 PUSH2 0xFE6 SWAP2 SWAP1 PUSH2 0x1004 JUMP JUMPDEST POP JUMP JUMPDEST JUMPDEST DUP1 DUP3 GT ISZERO PUSH2 0x1000 JUMPI PUSH0 DUP2 PUSH0 SWAP1 SSTORE POP PUSH1 0x1 ADD PUSH2 0xFEA JUMP JUMPDEST POP SWAP1 JUMP JUMPDEST JUMPDEST DUP1 DUP3 GT ISZERO PUSH2 0x1041 JUMPI PUSH0 PUSH0 DUP3 ADD PUSH0 SWAP1 SSTORE PUSH1 0x1 DUP3 ADD PUSH0 SWAP1 SSTORE PUSH1 0x2 DUP3 ADD PUSH0 SWAP1 SSTORE PUSH1 0x3 DUP3 ADD PUSH0 PUSH2 0x1031 SWAP2 SWAP1 PUSH2 0xF8B JUMP JUMPDEST PUSH1 0x4 DUP3 ADD PUSH0 SWAP1 SSTORE POP PUSH1 0x5 ADD PUSH2 0x1005 JUMP JUMPDEST POP SWAP1 JUMP JUMPDEST PUSH0 PUSH0 REVERT JUMPDEST PUSH0 PUSH0 REVERT JUMPDEST PUSH0 DUP2 SWAP1 POP SWAP2 SWAP1 POP JUMP JUMPDEST PUSH2 0x105F DUP2 PUSH2 0x104D JUMP JUMPDEST DUP2 EQ PUSH2 0x1069 JUMPI PUSH0 PUSH0 REVERT JUMPDEST POP JUMP JUMPDEST PUSH0 DUP2 CALLDATALOAD SWAP1 POP PUSH2 0x107A DUP2 PUSH2 0x1056 JUMP JUMPDEST SWAP3 SWAP2 POP POP JUMP JUMPDEST PUSH0 PUSH1 0x20 DUP3 DUP5 SUB SLT ISZERO PUSH2 0x1095 JUMPI PUSH2 0x1094 PUSH2 0x1045 JUMP JUMPDEST JUMPDEST PUSH0 PUSH2 0x10A2 DUP5 DUP3 DUP6 ADD PUSH2 0x106C JUMP JUMPDEST SWAP2 POP POP SWAP3 SWAP2 POP POP JUMP JUMPDEST PUSH0 DUP2 MLOAD SWAP1 POP SWAP2 SWAP1 POP JUMP JUMPDEST PUSH0 DUP3 DUP3 MSTORE PUSH1 0x20 DUP3 ADD SWAP1 POP SWAP3 SWAP2 POP POP JUMP JUMPDEST PUSH0 DUP2 SWAP1 POP PUSH1 0x20 DUP3 ADD SWAP1 POP SWAP2 SWAP1 POP JUMP JUMPDEST PUSH2 0x10DD DUP2 PUSH2 0x104D JUMP JUMPDEST DUP3 MSTORE POP POP JUMP JUMPDEST PUSH0 DUP2 MLOAD SWAP1 POP SWAP2 SWAP1 POP JUMP JUMPDEST PUSH0 DUP3 DUP3 MSTORE PUSH1 0x20 DUP3 ADD SWAP1 POP SWAP3 SWAP2 POP POP JUMP JUMPDEST DUP3 DUP2 DUP4 MCOPY PUSH0 DUP4 DUP4 ADD MSTORE POP POP POP JUMP JUMPDEST PUSH0 PUSH1 0x1F NOT PUSH1 0x1F DUP4 ADD AND SWAP1 POP SWAP2 SWAP1 POP JUMP JUMPDEST PUSH0 PUSH2 0x1125 DUP3 PUSH2 0x10E3 JUMP JUMPDEST PUSH2 0x112F DUP2 DUP6 PUSH2 0x10ED JUMP JUMPDEST SWAP4 POP PUSH2 0x113F DUP2 DUP6 PUSH1 0x20 DUP7 ADD PUSH2 0x10FD JUMP JUMPDEST PUSH2 0x1148 DUP2 PUSH2 0x110B JUMP JUMPDEST DUP5 ADD SWAP2 POP POP SWAP3 SWAP2 POP POP JUMP JUMPDEST PUSH0 DUP2 MLOAD SWAP1 POP SWAP2 SWAP1 POP JUMP JUMPDEST PUSH0 DUP3 DUP3 MSTORE PUSH1 0x20 DUP3 ADD SWAP1 POP SWAP3 SWAP2 POP POP JUMP JUMPDEST PUSH0 DUP2 SWAP1 POP PUSH1 0x20 DUP3 ADD SWAP1 POP SWAP2 SWAP1 POP JUMP JUMPDEST PUSH0 PUSH1 0xA0 DUP4 ADD PUSH0 DUP4 ADD MLOAD PUSH2 0x1191 PUSH0 DUP7 ADD DUP3 PUSH2 0x10D4 JUMP JUMPDEST POP PUSH1 0x20 DUP4 ADD MLOAD PUSH2 0x11A4 PUSH1 0x20 DUP7 ADD DUP3 PUSH2 0x10D4 JUMP JUMPDEST POP PUSH1 0x40 DUP4 ADD MLOAD PUSH2 0x11B7 PUSH1 0x40 DUP7 ADD DUP3 PUSH2 0x10D4 JUMP JUMPDEST POP PUSH1 0x60 DUP4 ADD MLOAD DUP5 DUP3 SUB PUSH1 0x60 DUP7 ADD MSTORE PUSH2 0x11CF DUP3 DUP3 PUSH2 0x111B JUMP JUMPDEST SWAP2 POP POP PUSH1 0x80 DUP4 ADD MLOAD PUSH2 0x11E4 PUSH1 0x80 DUP7 ADD DUP3 PUSH2 0x10D4 JUMP JUMPDEST POP DUP1 SWAP2 POP POP SWAP3 SWAP2 POP POP JUMP JUMPDEST PUSH0 PUSH2 0x11FA DUP4 DUP4 PUSH2 0x117C JUMP JUMPDEST SWAP1 POP SWAP3 SWAP2 POP POP JUMP JUMPDEST PUSH0 PUSH1 0x20 DUP3 ADD SWAP1 POP SWAP2 SWAP1 POP JUMP JUMPDEST PUSH0 PUSH2 0x1218 DUP3 PUSH2 0x1153 JUMP JUMPDEST PUSH2 0x1222 DUP2 DUP6 PUSH2 0x115D JUMP JUMPDEST SWAP4 POP DUP4 PUSH1 0x20 DUP3 MUL DUP6 ADD PUSH2 0x1234 DUP6 PUSH2 0x116D JUMP JUMPDEST DUP1 PUSH0 JUMPDEST DUP6 DUP2 LT ISZERO PUSH2 0x126F JUMPI DUP5 DUP5 SUB DUP10 MSTORE DUP2 MLOAD PUSH2 0x1250 DUP6 DUP3 PUSH2 0x11EF JUMP JUMPDEST SWAP5 POP PUSH2 0x125B DUP4 PUSH2 0x1202 JUMP JUMPDEST SWAP3 POP PUSH1 0x20 DUP11 ADD SWAP10 POP POP PUSH1 0x1 DUP2 ADD SWAP1 POP PUSH2 0x1237 JUMP JUMPDEST POP DUP3 SWAP8 POP DUP8 SWAP6 POP POP POP POP POP POP SWAP3 SWAP2 POP POP JUMP JUMPDEST PUSH0 PUSH1 0xC0 DUP4 ADD PUSH0 DUP4 ADD MLOAD PUSH2 0x1296 PUSH0 DUP7 ADD DUP3 PUSH2 0x10D4 JUMP JUMPDEST POP PUSH1 0x20 DUP4 ADD MLOAD PUSH2 0x12A9 PUSH1 0x20 DUP7 ADD DUP3 PUSH2 0x10D4 JUMP JUMPDEST POP PUSH1 0x40 DUP4 ADD MLOAD PUSH2 0x12BC PUSH1 0x40 DUP7 ADD DUP3 PUSH2 0x10D4 JUMP JUMPDEST POP PUSH1 0x60 DUP4 ADD MLOAD DUP5 DUP3 SUB PUSH1 0x60 DUP7 ADD MSTORE PUSH2 0x12D4 DUP3 DUP3 PUSH2 0x111B JUMP JUMPDEST SWAP2 POP POP PUSH1 0x80 DUP4 ADD MLOAD DUP5 DUP3 SUB PUSH1 0x80 DUP7 ADD MSTORE PUSH2 0x12EE DUP3 DUP3 PUSH2 0x120E JUMP JUMPDEST SWAP2 POP POP PUSH1 0xA0 DUP4 ADD MLOAD PUSH2 0x1303 PUSH1 0xA0 DUP7 ADD DUP3 PUSH2 0x10D4 JUMP JUMPDEST POP DUP1 SWAP2 POP POP SWAP3 SWAP2 POP POP JUMP JUMPDEST PUSH0 PUSH2 0x1319 DUP4 DUP4 PUSH2 0x1281 JUMP JUMPDEST SWAP1 POP SWAP3 SWAP2 POP POP JUMP JUMPDEST PUSH0 PUSH1 0x20 DUP3 ADD SWAP1 POP SWAP2 SWAP1 POP JUMP JUMPDEST PUSH0 PUSH2 0x1337 DUP3 PUSH2 0x10AB JUMP JUMPDEST PUSH2 0x1341 DUP2 DUP6 PUSH2 0x10B5 JUMP JUMPDEST SWAP4 POP DUP4 PUSH1 0x20 DUP3 MUL DUP6 ADD PUSH2 0x1353 DUP6 PUSH2 0x10C5 JUMP JUMPDEST DUP1 PUSH0 JUMPDEST DUP6 DUP2 LT ISZERO PUSH2 0x138E JUMPI DUP5 DUP5 SUB DUP10 MSTORE DUP2 MLOAD PUSH2 0x136F DUP6 DUP3 PUSH2 0x130E JUMP JUMPDEST SWAP5 POP PUSH2 0x137A DUP4 PUSH2 0x1321 JUMP JUMPDEST SWAP3 POP PUSH1 0x20 DUP11 ADD SWAP10 POP POP PUSH1 0x1 DUP2 ADD SWAP1 POP PUSH2 0x1356 JUMP JUMPDEST POP DUP3 SWAP8 POP DUP8 SWAP6 POP POP POP POP POP POP SWAP3 SWAP2 POP POP JUMP JUMPDEST PUSH0 PUSH1 0x20 DUP3 ADD SWAP1 POP DUP2 DUP2 SUB PUSH0 DUP4 ADD MSTORE PUSH2 0x13B8 DUP2 DUP5 PUSH2 0x132D JUMP JUMPDEST SWAP1 POP SWAP3 SWAP2 POP POP JUMP JUMPDEST PUSH2 0x13C9 DUP2 PUSH2 0x104D JUMP JUMPDEST DUP3 MSTORE POP POP JUMP JUMPDEST PUSH0 DUP3 DUP3 MSTORE PUSH1 0x20 DUP3 ADD SWAP1 POP SWAP3 SWAP2 POP POP JUMP JUMPDEST PUSH0 PUSH2 0x13E9 DUP3 PUSH2 0x10E3 JUMP JUMPDEST PUSH2 0x13F3 DUP2 DUP6 PUSH2 0x13CF JUMP JUMPDEST SWAP4 POP PUSH2 0x1403 DUP2 DUP6 PUSH1 0x20 DUP7 ADD PUSH2 0x10FD JUMP JUMPDEST PUSH2 0x140C DUP2 PUSH2 0x110B JUMP JUMPDEST DUP5 ADD SWAP2 POP POP SWAP3 SWAP2 POP POP JUMP JUMPDEST PUSH0 PUSH1 0xA0 DUP3 ADD SWAP1 POP PUSH2 0x142A PUSH0 DUP4 ADD DUP9 PUSH2 0x13C0 JUMP JUMPDEST PUSH2 0x1437 PUSH1 0x20 DUP4 ADD DUP8 PUSH2 0x13C0 JUMP JUMPDEST PUSH2 0x1444 PUSH1 0x40 DUP4 ADD DUP7 PUSH2 0x13C0 JUMP JUMPDEST DUP2 DUP2 SUB PUSH1 0x60 DUP4 ADD MSTORE PUSH2 0x1456 DUP2 DUP6 PUSH2 0x13DF JUMP JUMPDEST SWAP1 POP PUSH2 0x1465 PUSH1 0x80 DUP4 ADD DUP5 PUSH2 0x13C0 JUMP JUMPDEST SWAP7 SWAP6 POP POP POP POP POP POP JUMP JUMPDEST PUSH0 PUSH0 REVERT JUMPDEST PUSH0 PUSH0 REVERT JUMPDEST PUSH0 PUSH0 REVERT JUMPDEST PUSH0 PUSH0 DUP4 PUSH1 0x1F DUP5 ADD SLT PUSH2 0x1490 JUMPI PUSH2 0x148F PUSH2 0x146F JUMP JUMPDEST JUMPDEST DUP3 CALLDATALOAD SWAP1 POP PUSH8 0xFFFFFFFFFFFFFFFF DUP2 GT ISZERO PUSH2 0x14AD JUMPI PUSH2 0x14AC PUSH2 0x1473 JUMP JUMPDEST JUMPDEST PUSH1 0x20 DUP4 ADD SWAP2 POP DUP4 PUSH1 0x1 DUP3 MUL DUP4 ADD GT ISZERO PUSH2 0x14C9 JUMPI PUSH2 0x14C8 PUSH2 0x1477 JUMP JUMPDEST JUMPDEST SWAP3 POP SWAP3 SWAP1 POP JUMP JUMPDEST PUSH0 PUSH0 PUSH1 0x20 DUP4 DUP6 SUB SLT ISZERO PUSH2 0x14E6 JUMPI PUSH2 0x14E5 PUSH2 0x1045 JUMP JUMPDEST JUMPDEST PUSH0 DUP4 ADD CALLDATALOAD PUSH8 0xFFFFFFFFFFFFFFFF DUP2 GT ISZERO PUSH2 0x1503 JUMPI PUSH2 0x1502 PUSH2 0x1049 JUMP JUMPDEST JUMPDEST PUSH2 0x150F DUP6 DUP3 DUP7 ADD PUSH2 0x147B JUMP JUMPDEST SWAP3 POP SWAP3 POP POP SWAP3 POP SWAP3 SWAP1 POP JUMP JUMPDEST PUSH0 PUSH0 PUSH0 PUSH1 0x40 DUP5 DUP7 SUB SLT ISZERO PUSH2 0x1532 JUMPI PUSH2 0x1531 PUSH2 0x1045 JUMP JUMPDEST JUMPDEST PUSH0 DUP5 ADD CALLDATALOAD PUSH8 0xFFFFFFFFFFFFFFFF DUP2 GT ISZERO PUSH2 0x154F JUMPI PUSH2 0x154E PUSH2 0x1049 JUMP JUMPDEST JUMPDEST PUSH2 0x155B DUP7 DUP3 DUP8 ADD PUSH2 0x147B JUMP JUMPDEST SWAP4 POP SWAP4 POP POP PUSH1 0x20 PUSH2 0x156E DUP7 DUP3 DUP8 ADD PUSH2 0x106C JUMP JUMPDEST SWAP2 POP POP SWAP3 POP SWAP3 POP SWAP3 JUMP JUMPDEST PUSH0 PUSH0 PUSH1 0x40 DUP4 DUP6 SUB SLT ISZERO PUSH2 0x158E JUMPI PUSH2 0x158D PUSH2 0x1045 JUMP JUMPDEST JUMPDEST PUSH0 PUSH2 0x159B DUP6 DUP3 DUP7 ADD PUSH2 0x106C JUMP JUMPDEST SWAP3 POP POP PUSH1 0x20 PUSH2 0x15AC DUP6 DUP3 DUP7 ADD PUSH2 0x106C JUMP JUMPDEST SWAP2 POP POP SWAP3 POP SWAP3 SWAP1 POP JUMP JUMPDEST PUSH0 PUSH1 0x20 DUP3 ADD SWAP1 POP PUSH2 0x15C9 PUSH0 DUP4 ADD DUP5 PUSH2 0x13C0 JUMP JUMPDEST SWAP3 SWAP2 POP POP JUMP JUMPDEST PUSH0 PUSH0 PUSH0 PUSH1 0x40 DUP5 DUP7 SUB SLT ISZERO PUSH2 0x15E6 JUMPI PUSH2 0x15E5 PUSH2 0x1045 JUMP JUMPDEST JUMPDEST PUSH0 PUSH2 0x15F3 DUP7 DUP3 DUP8 ADD PUSH2 0x106C JUMP JUMPDEST SWAP4 POP POP PUSH1 0x20 DUP5 ADD CALLDATALOAD PUSH8 0xFFFFFFFFFFFFFFFF DUP2 GT ISZERO PUSH2 0x1614 JUMPI PUSH2 0x1613 PUSH2 0x1049 JUMP JUMPDEST JUMPDEST PUSH2 0x1620 DUP7 DUP3 DUP8 ADD PUSH2 0x147B JUMP JUMPDEST SWAP3 POP SWAP3 POP POP SWAP3 POP SWAP3 POP SWAP3 JUMP JUMPDEST PUSH0 PUSH1 0x40 DUP3 ADD SWAP1 POP PUSH2 0x163F PUSH0 DUP4 ADD DUP6 PUSH2 0x13C0 JUMP JUMPDEST PUSH2 0x164C PUSH1 0x20 DUP4 ADD DUP5 PUSH2 0x13C0 JUMP JUMPDEST SWAP4 SWAP3 POP POP POP JUMP JUMPDEST PUSH0 PUSH20 0xFFFFFFFFFFFFFFFFFFFFFFFFFFFFFFFFFFFFFFFF DUP3 AND SWAP1 POP SWAP2 SWAP1 POP JUMP JUMPDEST PUSH0 PUSH2 0x167C DUP3 PUSH2 0x1653 JUMP JUMPDEST SWAP1 POP SWAP2 SWAP1 POP JUMP JUMPDEST PUSH2 0x168C DUP2 PUSH2 0x1672 JUMP JUMPDEST DUP3 MSTORE POP POP JUMP JUMPDEST PUSH0 PUSH1 0x20 DUP3 ADD SWAP1 POP PUSH2 0x16A5 PUSH0 DUP4 ADD DUP5 PUSH2 0x1683 JUMP JUMPDEST SWAP3 SWAP2 POP POP JUMP JUMPDEST PUSH0 DUP2 MLOAD SWAP1 POP PUSH2 0x16B9 DUP2 PUSH2 0x1056 JUMP JUMPDEST SWAP3 SWAP2 POP POP JUMP JUMPDEST PUSH0 PUSH1 0x20 DUP3 DUP5 SUB SLT ISZERO PUSH2 0x16D4 JUMPI PUSH2 0x16D3 PUSH2 0x1045 JUMP JUMPDEST JUMPDEST PUSH0 PUSH2 0x16E1 DUP5 DUP3 DUP6 ADD PUSH2 0x16AB JUMP JUMPDEST SWAP2 POP POP SWAP3 SWAP2 POP POP JUMP JUMPDEST PUSH32 0x796F7520646F6E27742068617665207468697320706F73740000000000000000 PUSH0 DUP3 ADD MSTORE POP JUMP JUMPDEST PUSH0 PUSH2 0x171E PUSH1 0x18 DUP4 PUSH2 0x13CF JUMP JUMPDEST SWAP2 POP PUSH2 0x1729 DUP3 PUSH2 0x16EA JUMP JUMPDEST PUSH1 0x20 DUP3 ADD SWAP1 POP SWAP2 SWAP1 POP JUMP JUMPDEST PUSH0 PUSH1 0x20 DUP3 ADD SWAP1 POP DUP2 DUP2 SUB PUSH0 DUP4 ADD MSTORE PUSH2 0x174B DUP2 PUSH2 0x1712 JUMP JUMPDEST SWAP1 POP SWAP2 SWAP1 POP JUMP JUMPDEST PUSH32 0x506F737420646F65736E27742065786973740000000000000000000000000000 PUSH0 DUP3 ADD MSTORE POP JUMP JUMPDEST PUSH0 PUSH2 0x1786 PUSH1 0x12 DUP4 PUSH2 0x13CF JUMP JUMPDEST SWAP2 POP PUSH2 0x1791 DUP3 PUSH2 0x1752 JUMP JUMPDEST PUSH1 0x20 DUP3 ADD SWAP1 POP SWAP2 SWAP1 POP JUMP JUMPDEST PUSH0 PUSH1 0x20 DUP3 ADD SWAP1 POP DUP2 DUP2 SUB PUSH0 DUP4 ADD MSTORE PUSH2 0x17B3 DUP2 PUSH2 0x177A JUMP JUMPDEST SWAP1 POP SWAP2 SWAP1 POP JUMP JUMPDEST PUSH32 0x4E487B7100000000000000000000000000000000000000000000000000000000 PUSH0 MSTORE PUSH1 0x32 PUSH1 0x4 MSTORE PUSH1 0x24 PUSH0 REVERT JUMPDEST PUSH32 0x4E487B7100000000000000000000000000000000000000000000000000000000 PUSH0 MSTORE PUSH1 0x11 PUSH1 0x4 MSTORE PUSH1 0x24 PUSH0 REVERT JUMPDEST PUSH0 PUSH2 0x181E DUP3 PUSH2 0x104D JUMP JUMPDEST SWAP2 POP PUSH2 0x1829 DUP4 PUSH2 0x104D JUMP JUMPDEST SWAP3 POP DUP3 DUP3 SUB SWAP1 POP DUP2 DUP2 GT ISZERO PUSH2 0x1841 JUMPI PUSH2 0x1840 PUSH2 0x17E7 JUMP JUMPDEST JUMPDEST SWAP3 SWAP2 POP POP JUMP JUMPDEST PUSH32 0x4E487B7100000000000000000000000000000000000000000000000000000000 PUSH0 MSTORE PUSH1 0x31 PUSH1 0x4 MSTORE PUSH1 0x24 PUSH0 REVERT JUMPDEST PUSH32 0x4E487B7100000000000000000000000000000000000000000000000000000000 PUSH0 MSTORE PUSH1 0x22 PUSH1 0x4 MSTORE PUSH1 0x24 PUSH0 REVERT JUMPDEST PUSH0 PUSH1 0x2 DUP3 DIV SWAP1 POP PUSH1 0x1 DUP3 AND DUP1 PUSH2 0x18B8 JUMPI PUSH1 0x7F DUP3 AND SWAP2 POP JUMPDEST PUSH1 0x20 DUP3 LT DUP2 SUB PUSH2 0x18CB JUMPI PUSH2 0x18CA PUSH2 0x1874 JUMP JUMPDEST JUMPDEST POP SWAP2 SWAP1 POP JUMP JUMPDEST PUSH0 PUSH2 0x18DB DUP3 PUSH2 0x104D JUMP JUMPDEST SWAP2 POP PUSH0 DUP3 SUB PUSH2 0x18ED JUMPI PUSH2 0x18EC PUSH2 0x17E7 JUMP JUMPDEST JUMPDEST PUSH1 0x1 DUP3 SUB SWAP1 POP SWAP2 SWAP1 POP JUMP JUMPDEST PUSH0 PUSH2 0x1902 DUP3 PUSH2 0x104D JUMP JUMPDEST SWAP2 POP PUSH32 0xFFFFFFFFFFFFFFFFFFFFFFFFFFFFFFFFFFFFFFFFFFFFFFFFFFFFFFFFFFFFFFFF DUP3 SUB PUSH2 0x1934 JUMPI PUSH2 0x1933 PUSH2 0x17E7 JUMP JUMPDEST JUMPDEST PUSH1 0x1 DUP3 ADD SWAP1 POP SWAP2 SWAP1 POP JUMP JUMPDEST PUSH0 DUP3 SWAP1 POP SWAP3 SWAP2 POP POP JUMP JUMPDEST PUSH32 0x4E487B7100000000000000000000000000000000000000000000000000000000 PUSH0 MSTORE PUSH1 0x41 PUSH1 0x4 MSTORE PUSH1 0x24 PUSH0 REVERT JUMPDEST PUSH0 DUP2 SWAP1 POP DUP2 PUSH0 MSTORE PUSH1 0x20 PUSH0 KECCAK256 SWAP1 POP SWAP2 SWAP1 POP JUMP JUMPDEST PUSH0 PUSH1 0x20 PUSH1 0x1F DUP4 ADD DIV SWAP1 POP SWAP2 SWAP1 POP JUMP JUMPDEST PUSH0 DUP3 DUP3 SHL SWAP1 POP SWAP3 SWAP2 POP POP JUMP JUMPDEST PUSH0 PUSH1 0x8 DUP4 MUL PUSH2 0x19D2 PUSH32 0xFFFFFFFFFFFFFFFFFFFFFFFFFFFFFFFFFFFFFFFFFFFFFFFFFFFFFFFFFFFFFFFF DUP3 PUSH2 0x1997 JUMP JUMPDEST PUSH2 0x19DC DUP7 DUP4 PUSH2 0x1997 JUMP JUMPDEST SWAP6 POP DUP1 NOT DUP5 AND SWAP4 POP DUP1 DUP7 AND DUP5 OR SWAP3 POP POP POP SWAP4 SWAP3 POP POP POP JUMP JUMPDEST PUSH0 DUP2 SWAP1 POP SWAP2 SWAP1 POP JUMP JUMPDEST PUSH0 PUSH2 0x1A17 PUSH2 0x1A12 PUSH2 0x1A0D DUP5 PUSH2 0x104D JUMP JUMPDEST PUSH2 0x19F4 JUMP JUMPDEST PUSH2 0x104D JUMP JUMPDEST SWAP1 POP SWAP2 SWAP1 POP JUMP JUMPDEST PUSH0 DUP2 SWAP1 POP SWAP2 SWAP1 POP JUMP JUMPDEST PUSH2 0x1A30 DUP4 PUSH2 0x19FD JUMP JUMPDEST PUSH2 0x1A44 PUSH2 0x1A3C DUP3 PUSH2 0x1A1E JUMP JUMPDEST DUP5 DUP5 SLOAD PUSH2 0x19A3 JUMP JUMPDEST DUP3 SSTORE POP POP POP POP JUMP JUMPDEST PUSH0 PUSH0 SWAP1 POP SWAP1 JUMP JUMPDEST PUSH2 0x1A5B PUSH2 0x1A4C JUMP JUMPDEST PUSH2 0x1A66 DUP2 DUP5 DUP5 PUSH2 0x1A27 JUMP JUMPDEST POP POP POP JUMP JUMPDEST JUMPDEST DUP2 DUP2 LT ISZERO PUSH2 0x1A89 JUMPI PUSH2 0x1A7E PUSH0 DUP3 PUSH2 0x1A53 JUMP JUMPDEST PUSH1 0x1 DUP2 ADD SWAP1 POP PUSH2 0x1A6C JUMP JUMPDEST POP POP JUMP JUMPDEST PUSH1 0x1F DUP3 GT ISZERO PUSH2 0x1ACE JUMPI PUSH2 0x1A9F DUP2 PUSH2 0x1976 JUMP JUMPDEST PUSH2 0x1AA8 DUP5 PUSH2 0x1988 JUMP JUMPDEST DUP2 ADD PUSH1 0x20 DUP6 LT ISZERO PUSH2 0x1AB7 JUMPI DUP2 SWAP1 POP JUMPDEST PUSH2 0x1ACB PUSH2 0x1AC3 DUP6 PUSH2 0x1988 JUMP JUMPDEST DUP4 ADD DUP3 PUSH2 0x1A6B JUMP JUMPDEST POP POP JUMPDEST POP POP POP JUMP JUMPDEST PUSH0 DUP3 DUP3 SHR SWAP1 POP SWAP3 SWAP2 POP POP JUMP JUMPDEST PUSH0 PUSH2 0x1AEE PUSH0 NOT DUP5 PUSH1 0x8 MUL PUSH2 0x1AD3 JUMP JUMPDEST NOT DUP1 DUP4 AND SWAP2 POP POP SWAP3 SWAP2 POP POP JUMP JUMPDEST PUSH0 PUSH2 0x1B06 DUP4 DUP4 PUSH2 0x1ADF JUMP JUMPDEST SWAP2 POP DUP3 PUSH1 0x2 MUL DUP3 OR SWAP1 POP SWAP3 SWAP2 POP POP JUMP JUMPDEST PUSH2 0x1B20 DUP4 DUP4 PUSH2 0x193F JUMP JUMPDEST PUSH8 0xFFFFFFFFFFFFFFFF DUP2 GT ISZERO PUSH2 0x1B39 JUMPI PUSH2 0x1B38 PUSH2 0x1949 JUMP JUMPDEST JUMPDEST PUSH2 0x1B43 DUP3 SLOAD PUSH2 0x18A1 JUMP JUMPDEST PUSH2 0x1B4E DUP3 DUP3 DUP6 PUSH2 0x1A8D JUMP JUMPDEST PUSH0 PUSH1 0x1F DUP4 GT PUSH1 0x1 DUP2 EQ PUSH2 0x1B7B JUMPI PUSH0 DUP5 ISZERO PUSH2 0x1B69 JUMPI DUP3 DUP8 ADD CALLDATALOAD SWAP1 POP JUMPDEST PUSH2 0x1B73 DUP6 DUP3 PUSH2 0x1AFB JUMP JUMPDEST DUP7 SSTORE POP PUSH2 0x1BDA JUMP JUMPDEST PUSH1 0x1F NOT DUP5 AND PUSH2 0x1B89 DUP7 PUSH2 0x1976 JUMP JUMPDEST PUSH0 JUMPDEST DUP3 DUP2 LT ISZERO PUSH2 0x1BB0 JUMPI DUP5 DUP10 ADD CALLDATALOAD DUP3 SSTORE PUSH1 0x1 DUP3 ADD SWAP2 POP PUSH1 0x20 DUP6 ADD SWAP5 POP PUSH1 0x20 DUP2 ADD SWAP1 POP PUSH2 0x1B8B JUMP JUMPDEST DUP7 DUP4 LT ISZERO PUSH2 0x1BCD JUMPI DUP5 DUP10 ADD CALLDATALOAD PUSH2 0x1BC9 PUSH1 0x1F DUP10 AND DUP3 PUSH2 0x1ADF JUMP JUMPDEST DUP4 SSTORE POP JUMPDEST PUSH1 0x1 PUSH1 0x2 DUP9 MUL ADD DUP9 SSTORE POP POP POP JUMPDEST POP POP POP POP POP POP POP JUMP JUMPDEST DUP3 DUP2 DUP4 CALLDATACOPY PUSH0 DUP4 DUP4 ADD MSTORE POP POP POP JUMP JUMPDEST PUSH0 PUSH2 0x1BFC DUP4 DUP6 PUSH2 0x13CF JUMP JUMPDEST SWAP4 POP PUSH2 0x1C09 DUP4 DUP6 DUP5 PUSH2 0x1BE3 JUMP JUMPDEST PUSH2 0x1C12 DUP4 PUSH2 0x110B JUMP JUMPDEST DUP5 ADD SWAP1 POP SWAP4 SWAP3 POP POP POP JUMP JUMPDEST PUSH0 PUSH1 0x80 DUP3 ADD SWAP1 POP PUSH2 0x1C30 PUSH0 DUP4 ADD DUP9 PUSH2 0x13C0 JUMP JUMPDEST PUSH2 0x1C3D PUSH1 0x20 DUP4 ADD DUP8 PUSH2 0x13C0 JUMP JUMPDEST DUP2 DUP2 SUB PUSH1 0x40 DUP4 ADD MSTORE PUSH2 0x1C50 DUP2 DUP6 DUP8 PUSH2 0x1BF1 JUMP JUMPDEST SWAP1 POP PUSH2 0x1C5F PUSH1 0x60 DUP4 ADD DUP5 PUSH2 0x13C0 JUMP JUMPDEST SWAP7 SWAP6 POP POP POP POP POP POP JUMP JUMPDEST PUSH32 0x506F737420646F6573206E6F7420657869737400000000000000000000000000 PUSH0 DUP3 ADD MSTORE POP JUMP JUMPDEST PUSH0 PUSH2 0x1C9D PUSH1 0x13 DUP4 PUSH2 0x13CF JUMP JUMPDEST SWAP2 POP PUSH2 0x1CA8 DUP3 PUSH2 0x1C69 JUMP JUMPDEST PUSH1 0x20 DUP3 ADD SWAP1 POP SWAP2 SWAP1 POP JUMP JUMPDEST PUSH0 PUSH1 0x20 DUP3 ADD SWAP1 POP DUP2 DUP2 SUB PUSH0 DUP4 ADD MSTORE PUSH2 0x1CCA DUP2 PUSH2 0x1C91 JUMP JUMPDEST SWAP1 POP SWAP2 SWAP1 POP JUMP JUMPDEST PUSH2 0x1CDA DUP3 PUSH2 0x10E3 JUMP JUMPDEST PUSH8 0xFFFFFFFFFFFFFFFF DUP2 GT ISZERO PUSH2 0x1CF3 JUMPI PUSH2 0x1CF2 PUSH2 0x1949 JUMP JUMPDEST JUMPDEST PUSH2 0x1CFD DUP3 SLOAD PUSH2 0x18A1 JUMP JUMPDEST PUSH2 0x1D08 DUP3 DUP3 DUP6 PUSH2 0x1A8D JUMP JUMPDEST PUSH0 PUSH1 0x20 SWAP1 POP PUSH1 0x1F DUP4 GT PUSH1 0x1 DUP2 EQ PUSH2 0x1D39 JUMPI PUSH0 DUP5 ISZERO PUSH2 0x1D27 JUMPI DUP3 DUP8 ADD MLOAD SWAP1 POP JUMPDEST PUSH2 0x1D31 DUP6 DUP3 PUSH2 0x1AFB JUMP JUMPDEST DUP7 SSTORE POP PUSH2 0x1D98 JUMP JUMPDEST PUSH1 0x1F NOT DUP5 AND PUSH2 0x1D47 DUP7 PUSH2 0x1976 JUMP JUMPDEST PUSH0 JUMPDEST DUP3 DUP2 LT ISZERO PUSH2 0x1D6E JUMPI DUP5 DUP10 ADD MLOAD DUP3 SSTORE PUSH1 0x1 DUP3 ADD SWAP2 POP PUSH1 0x20 DUP6 ADD SWAP5 POP PUSH1 0x20 DUP2 ADD SWAP1 POP PUSH2 0x1D49 JUMP JUMPDEST DUP7 DUP4 LT ISZERO PUSH2 0x1D8B JUMPI DUP5 DUP10 ADD MLOAD PUSH2 0x1D87 PUSH1 0x1F DUP10 AND DUP3 PUSH2 0x1ADF JUMP JUMPDEST DUP4 SSTORE POP JUMPDEST PUSH1 0x1 PUSH1 0x2 DUP9 MUL ADD DUP9 SSTORE POP POP POP JUMPDEST POP POP POP POP POP POP JUMP INVALID LOG2 PUSH5 0x6970667358 0x22 SLT KECCAK256 EXP GAS DUP6 PUSH15 0x75C346D93312C0A5DC8A9A7EA97EE1 STOP ADD CREATE SWAP11 SLT EXTCODECOPY 0xCD SWAP11 0xB9 0xBE CALLF 0x1521 PUSH5 0x736F6C6343 STOP ADDMOD 0x1E STOP CALLER "
		},
		"gasEstimates": {
			"creation": {
				"codeDepositCost": "1527600",
				"executionCost": "infinite",
				"totalCost": "infinite"
			},
			"external": {
				"allPosts(uint256)": "infinite",
				"commentOnPost(string,uint256)": "infinite",
				"createPost(string)": "infinite",
				"deletePost(uint256)": "infinite",
				"editPost(uint256,string)": "infinite",
				"getAllPosts()": "infinite",
				"postIndex(uint256)": "infinite",
				"togglePostLike(uint256)": "infinite",
				"userPosts(uint256,uint256)": "infinite"
			},
			"internal": {
				"_postExists(uint256)": "2247"
			}
		},
		"methodIdentifiers": {
			"allPosts(uint256)": "718ce2bc",
			"commentOnPost(string,uint256)": "d362ee56",
			"createPost(string)": "c7303c61",
			"deletePost(uint256)": "094cd5ee",
			"editPost(uint256,string)": "fa99654a",
			"getAllPosts()": "30561100",
			"postIndex(uint256)": "fc68e09f",
			"togglePostLike(uint256)": "96f25073",
			"userPosts(uint256,uint256)": "de537765"
		}
	},
	"abi": [
		{
			"inputs": [
				{
					"internalType": "address",
					"name": "_profileManagerAddress",
					"type": "address"
				}
			],
			"stateMutability": "nonpayable",
			"type": "constructor"
		},
		{
			"anonymous": false,
			"inputs": [
				{
					"indexed": false,
					"internalType": "uint256",
					"name": "postId",
					"type": "uint256"
				},
				{
					"indexed": false,
					"internalType": "uint256",
					"name": "ownerId",
					"type": "uint256"
				},
				{
					"indexed": false,
					"internalType": "string",
					"name": "description",
					"type": "string"
				},
				{
					"indexed": false,
					"internalType": "uint256",
					"name": "createdAt",
					"type": "uint256"
				}
			],
			"name": "PostCreated",
			"type": "event"
		},
		{
			"inputs": [
				{
					"internalType": "uint256",
					"name": "",
					"type": "uint256"
				}
			],
			"name": "allPosts",
			"outputs": [
				{
					"internalType": "uint256",
					"name": "ownerId",
					"type": "uint256"
				},
				{
					"internalType": "uint256",
					"name": "postId",
					"type": "uint256"
				},
				{
					"internalType": "uint256",
					"name": "like",
					"type": "uint256"
				},
				{
					"internalType": "string",
					"name": "description",
					"type": "string"
				},
				{
					"internalType": "uint256",
					"name": "createdAt",
					"type": "uint256"
				}
			],
			"stateMutability": "view",
			"type": "function"
		},
		{
			"inputs": [
				{
					"internalType": "string",
					"name": "_comment",
					"type": "string"
				},
				{
					"internalType": "uint256",
					"name": "_postId",
					"type": "uint256"
				}
			],
			"name": "commentOnPost",
			"outputs": [],
			"stateMutability": "nonpayable",
			"type": "function"
		},
		{
			"inputs": [
				{
					"internalType": "string",
					"name": "_description",
					"type": "string"
				}
			],
			"name": "createPost",
			"outputs": [],
			"stateMutability": "nonpayable",
			"type": "function"
		},
		{
			"inputs": [
				{
					"internalType": "uint256",
					"name": "_postId",
					"type": "uint256"
				}
			],
			"name": "deletePost",
			"outputs": [],
			"stateMutability": "nonpayable",
			"type": "function"
		},
		{
			"inputs": [
				{
					"internalType": "uint256",
					"name": "_postId",
					"type": "uint256"
				},
				{
					"internalType": "string",
					"name": "_description",
					"type": "string"
				}
			],
			"name": "editPost",
			"outputs": [],
			"stateMutability": "nonpayable",
			"type": "function"
		},
		{
			"inputs": [],
			"name": "getAllPosts",
			"outputs": [
				{
					"components": [
						{
							"internalType": "uint256",
							"name": "ownerId",
							"type": "uint256"
						},
						{
							"internalType": "uint256",
							"name": "postId",
							"type": "uint256"
						},
						{
							"internalType": "uint256",
							"name": "like",
							"type": "uint256"
						},
						{
							"internalType": "string",
							"name": "description",
							"type": "string"
						},
						{
							"components": [
								{
									"internalType": "uint256",
									"name": "commentId",
									"type": "uint256"
								},
								{
									"internalType": "uint256",
									"name": "postId",
									"type": "uint256"
								},
								{
									"internalType": "uint256",
									"name": "userId",
									"type": "uint256"
								},
								{
									"internalType": "string",
									"name": "comment",
									"type": "string"
								},
								{
									"internalType": "uint256",
									"name": "createdAt",
									"type": "uint256"
								}
							],
							"internalType": "struct PostManager.Comment[]",
							"name": "comments",
							"type": "tuple[]"
						},
						{
							"internalType": "uint256",
							"name": "createdAt",
							"type": "uint256"
						}
					],
					"internalType": "struct PostManager.Post[]",
					"name": "",
					"type": "tuple[]"
				}
			],
			"stateMutability": "view",
			"type": "function"
		},
		{
			"inputs": [
				{
					"internalType": "uint256",
					"name": "postId",
					"type": "uint256"
				}
			],
			"name": "postIndex",
			"outputs": [
				{
					"internalType": "uint256",
					"name": "ownerId",
					"type": "uint256"
				},
				{
					"internalType": "uint256",
					"name": "index",
					"type": "uint256"
				}
			],
			"stateMutability": "view",
			"type": "function"
		},
		{
			"inputs": [
				{
					"internalType": "uint256",
					"name": "_postId",
					"type": "uint256"
				}
			],
			"name": "togglePostLike",
			"outputs": [],
			"stateMutability": "nonpayable",
			"type": "function"
		},
		{
			"inputs": [
				{
					"internalType": "uint256",
					"name": "userId",
					"type": "uint256"
				},
				{
					"internalType": "uint256",
					"name": "",
					"type": "uint256"
				}
			],
			"name": "userPosts",
			"outputs": [
				{
					"internalType": "uint256",
					"name": "userPostsIndex",
					"type": "uint256"
				}
			],
			"stateMutability": "view",
			"type": "function"
		}
	]
}