{
	"data": {
		"bytecode": {
			"linkReferences": {},
			"object": "608060405234801561000f575f5ffd5b50604051612896380380612896833981810160405281019061003191906100d5565b8060025f6101000a81548173ffffffffffffffffffffffffffffffffffffffff021916908373ffffffffffffffffffffffffffffffffffffffff16021790555050610100565b5f5ffd5b5f73ffffffffffffffffffffffffffffffffffffffff82169050919050565b5f6100a48261007b565b9050919050565b6100b48161009a565b81146100be575f5ffd5b50565b5f815190506100cf816100ab565b92915050565b5f602082840312156100ea576100e9610077565b5b5f6100f7848285016100c1565b91505092915050565b6127898061010d5f395ff3fe608060405234801561000f575f5ffd5b50600436106100b2575f3560e01c8063c7303c611161006f578063c7303c61146101b1578063d362ee56146101cd578063d6e93896146101e9578063de53776514610219578063fa99654a14610249578063fc68e09f14610265576100b2565b8063094cd5ee146100b6578063211117ff146100d257806364e958951461010257806365aa1ed914610132578063718ce2bc1461016257806396f2507314610195575b5f5ffd5b6100d060048036038101906100cb91906117bd565b610296565b005b6100ec60048036038101906100e791906117bd565b61068e565b6040516100f99190611aca565b60405180910390f35b61011c600480360381019061011791906117bd565b6109e8565b6040516101299190611b64565b60405180910390f35b61014c60048036038101906101479190611b84565b610c61565b6040516101599190611bdc565b60405180910390f35b61017c600480360381019061017791906117bd565b610cdf565b60405161018c9493929190611c4c565b60405180910390f35b6101af60048036038101906101aa91906117bd565b610da0565b005b6101cb60048036038101906101c69190611cf7565b610f7b565b005b6101e760048036038101906101e29190611d42565b61116b565b005b61020360048036038101906101fe91906117bd565b61139a565b6040516102109190611d9f565b60405180910390f35b610233600480360381019061022e9190611b84565b6113fc565b6040516102409190611d9f565b60405180910390f35b610263600480360381019061025e9190611db8565b611427565b005b61027f600480360381019061027a91906117bd565b6115c0565b60405161028d929190611e15565b60405180910390f35b5f60025f9054906101000a900473ffffffffffffffffffffffffffffffffffffffff1673ffffffffffffffffffffffffffffffffffffffff166326567eec336040518263ffffffff1660e01b81526004016102f19190611e7b565b602060405180830381865afa15801561030c573d5f5f3e3d5ffd5b505050506040513d601f19601f820116820180604052508101906103309190611ea8565b905061033b826115e0565b61037a576040517f08c379a000000000000000000000000000000000000000000000000000000000815260040161037190611f1d565b60405180910390fd5b5f60045f8481526020019081526020015f206040518060400160405290815f8201548152602001600182015481525050905081815f0151146103f1576040517f08c379a00000000000000000000000000000000000000000000000000000000081526004016103e890611f85565b60405180910390fd5b5f816020015190505f600160078054905061040c9190611fd0565b9050808214610541575f6007828154811061042a57610429612003565b5b905f5260205f2090600502019050806007848154811061044d5761044c612003565b5b905f5260205f2090600502015f820154815f0155600182015481600101556002820181600201908161047f919061226f565b50600382018160030190805461049692919061160d565b50600482015481600401559050508260045f836001015481526020019081526020015f20600101819055505f60035f835f015481526020019081526020015f2090505f5f90505b818054905081101561053d57838282815481106104fd576104fc612003565b5b905f5260205f20015403610530578482828154811061051f5761051e612003565b5b905f5260205f20018190555061053d565b80806001019150506104dd565b5050505b600780548061055357610552612354565b5b600190038181905f5260205f2090600502015f5f82015f9055600182015f9055600282015f610582919061169c565b600382015f61059191906116d9565b600482015f9055505090555f60035f8681526020019081526020015f2090505f5f90505b818054905081101561066457838282815481106105d5576105d4612003565b5b905f5260205f200154036106575781600183805490506105f59190611fd0565b8154811061060657610605612003565b5b905f5260205f20015482828154811061062257610621612003565b5b905f5260205f2001819055508180548061063f5761063e612354565b5b600190038181905f5260205f20015f90559055610664565b80806001019150506105b5565b5060045f8781526020019081526020015f205f5f82015f9055600182015f90555050505050505050565b60605f60035f8481526020019081526020015f2080549050116106e6576040517f08c379a00000000000000000000000000000000000000000000000000000000081526004016106dd906123cb565b60405180910390fd5b5f60035f8481526020019081526020015f2080548060200260200160405190810160405280929190818152602001828054801561074057602002820191905f5260205f20905b81548152602001906001019080831161072c575b505050505090505f815167ffffffffffffffff811115610763576107626120a2565b5b60405190808252806020026020018201604052801561079c57816020015b6107896116fa565b8152602001906001900390816107815790505b5090505f5f90505b82518110156109dd5760078382815181106107c2576107c1612003565b5b6020026020010151815481106107db576107da612003565b5b905f5260205f2090600502016040518060a00160405290815f8201548152602001600182015481526020016002820180546108159061205d565b80601f01602080910402602001604051908101604052809291908181526020018280546108419061205d565b801561088c5780601f106108635761010080835404028352916020019161088c565b820191905f5260205f20905b81548152906001019060200180831161086f57829003601f168201915b5050505050815260200160038201805480602002602001604051908101604052809291908181526020015f905b828210156109a0578382905f5260205f2090600502016040518060a00160405290815f820154815260200160018201548152602001600282015481526020016003820180546109079061205d565b80601f01602080910402602001604051908101604052809291908181526020018280546109339061205d565b801561097e5780601f106109555761010080835404028352916020019161097e565b820191905f5260205f20905b81548152906001019060200180831161096157829003601f168201915b50505050508152602001600482015481525050815260200190600101906108b9565b5050505081526020016004820154815250508282815181106109c5576109c4612003565b5b602002602001018190525080806001019150506107a4565b508092505050919050565b6109f06116fa565b6109f9826115e0565b610a38576040517f08c379a0000000000000000000000000000000000000000000000000000000008152600401610a2f90612433565b60405180910390fd5b5f60045f8481526020019081526020015f206040518060400160405290815f820154815260200160018201548152505090506007816020015181548110610a8257610a81612003565b5b905f5260205f2090600502016040518060a00160405290815f820154815260200160018201548152602001600282018054610abc9061205d565b80601f0160208091040260200160405190810160405280929190818152602001828054610ae89061205d565b8015610b335780601f10610b0a57610100808354040283529160200191610b33565b820191905f5260205f20905b815481529060010190602001808311610b1657829003601f168201915b5050505050815260200160038201805480602002602001604051908101604052809291908181526020015f905b82821015610c47578382905f5260205f2090600502016040518060a00160405290815f82015481526020016001820154815260200160028201548152602001600382018054610bae9061205d565b80601f0160208091040260200160405190810160405280929190818152602001828054610bda9061205d565b8015610c255780601f10610bfc57610100808354040283529160200191610c25565b820191905f5260205f20905b815481529060010190602001808311610c0857829003601f168201915b5050505050815260200160048201548152505081526020019060010190610b60565b505050508152602001600482015481525050915050919050565b5f610c6b836115e0565b610caa576040517f08c379a0000000000000000000000000000000000000000000000000000000008152600401610ca190612433565b60405180910390fd5b60055f8481526020019081526020015f205f8381526020019081526020015f205f9054906101000a900460ff16905092915050565b60078181548110610cee575f80fd5b905f5260205f2090600502015f91509050805f015490806001015490806002018054610d199061205d565b80601f0160208091040260200160405190810160405280929190818152602001828054610d459061205d565b8015610d905780601f10610d6757610100808354040283529160200191610d90565b820191905f5260205f20905b815481529060010190602001808311610d7357829003601f168201915b5050505050908060040154905084565b5f60025f9054906101000a900473ffffffffffffffffffffffffffffffffffffffff1673ffffffffffffffffffffffffffffffffffffffff166326567eec336040518263ffffffff1660e01b8152600401610dfb9190611e7b565b602060405180830381865afa158015610e16573d5f5f3e3d5ffd5b505050506040513d601f19601f82011682018060405250810190610e3a9190611ea8565b9050610e45826115e0565b610e84576040517f08c379a0000000000000000000000000000000000000000000000000000000008152600401610e7b90612433565b60405180910390fd5b60055f8381526020019081526020015f205f8281526020019081526020015f205f9054906101000a900460ff1615610f18575f60055f8481526020019081526020015f205f8381526020019081526020015f205f6101000a81548160ff02191690831515021790555060065f8381526020019081526020015f205f815480929190610f0e90612451565b9190505550610f77565b600160055f8481526020019081526020015f205f8381526020019081526020015f205f6101000a81548160ff02191690831515021790555060065f8381526020019081526020015f205f815480929190610f7190612478565b91905055505b5050565b5f60025f9054906101000a900473ffffffffffffffffffffffffffffffffffffffff1673ffffffffffffffffffffffffffffffffffffffff166326567eec336040518263ffffffff1660e01b8152600401610fd69190611e7b565b602060405180830381865afa158015610ff1573d5f5f3e3d5ffd5b505050506040513d601f19601f820116820180604052508101906110159190611ea8565b90505f5f81548092919061102890612478565b91905055505f5f549050600760018160018154018082558091505003905f5260205f209050505f60016007805490506110619190611fd0565b90505f6007828154811061107857611077612003565b5b905f5260205f209060050201905083815f018190555082816001018190555085858260020191826110aa9291906124c9565b5042816004018190555060035f8581526020019081526020015f2082908060018154018082558091505060019003905f5260205f20015f909190919091505560405180604001604052808581526020018381525060045f8581526020019081526020015f205f820151815f0155602082015181600101559050507f9d8ba7605d631183923c2b8e95cd748a3f7bad1c3cab55df446fea93c84980ef838588884260405161115b9594939291906125d0565b60405180910390a1505050505050565b5f60025f9054906101000a900473ffffffffffffffffffffffffffffffffffffffff1673ffffffffffffffffffffffffffffffffffffffff166326567eec336040518263ffffffff1660e01b81526004016111c69190611e7b565b602060405180830381865afa1580156111e1573d5f5f3e3d5ffd5b505050506040513d601f19601f820116820180604052508101906112059190611ea8565b9050611210826115e0565b61124f576040517f08c379a000000000000000000000000000000000000000000000000000000000815260040161124690611f1d565b60405180910390fd5b5f60045f8481526020019081526020015f206040518060400160405290815f820154815260200160018201548152505090505f816020015190505f6040518060a0016040528060015f81546112a390612478565b919050819055815260200186815260200185815260200188888080601f0160208091040260200160405190810160405280939291908181526020018383808284375f81840152601f19601f8201169050808301925050505050505081526020014281525090506007828154811061131d5761131c612003565b5b905f5260205f20906005020160030181908060018154018082558091505060019003905f5260205f2090600502015f909190919091505f820151815f015560208201518160010155604082015181600201556060820151816003019081611384919061261c565b5060808201518160040155505050505050505050565b5f6113a4826115e0565b6113e3576040517f08c379a00000000000000000000000000000000000000000000000000000000081526004016113da90612433565b60405180910390fd5b60065f8381526020019081526020015f20549050919050565b6003602052815f5260405f208181548110611415575f80fd5b905f5260205f20015f91509150505481565b5f60025f9054906101000a900473ffffffffffffffffffffffffffffffffffffffff1673ffffffffffffffffffffffffffffffffffffffff166326567eec336040518263ffffffff1660e01b81526004016114829190611e7b565b602060405180830381865afa15801561149d573d5f5f3e3d5ffd5b505050506040513d601f19601f820116820180604052508101906114c19190611ea8565b90506114cc846115e0565b61150b576040517f08c379a000000000000000000000000000000000000000000000000000000000815260040161150290612433565b60405180910390fd5b5f60045f8681526020019081526020015f206040518060400160405290815f8201548152602001600182015481525050905081815f015114611582576040517f08c379a000000000000000000000000000000000000000000000000000000000815260040161157990612735565b60405180910390fd5b8383600783602001518154811061159c5761159b612003565b5b905f5260205f20906005020160020191826115b89291906124c9565b505050505050565b6004602052805f5260405f205f91509050805f0154908060010154905082565b5f5f60045f8481526020019081526020015f205f0154146116045760019050611608565b5f90505b919050565b828054828255905f5260205f2090600502810192821561168b575f5260205f209160050282015b8281111561168a5782825f820154815f015560018201548160010155600282015481600201556003820181600301908161166e919061226f565b5060048201548160040155505091600501919060050190611634565b5b5090506116989190611726565b5090565b5080546116a89061205d565b5f825580601f106116b957506116d6565b601f0160209004905f5260205f20908101906116d59190611767565b5b50565b5080545f8255600502905f5260205f20908101906116f79190611726565b50565b6040518060a001604052805f81526020015f815260200160608152602001606081526020015f81525090565b5b80821115611763575f5f82015f9055600182015f9055600282015f9055600382015f611753919061169c565b600482015f905550600501611727565b5090565b5b8082111561177e575f815f905550600101611768565b5090565b5f5ffd5b5f5ffd5b5f819050919050565b61179c8161178a565b81146117a6575f5ffd5b50565b5f813590506117b781611793565b92915050565b5f602082840312156117d2576117d1611782565b5b5f6117df848285016117a9565b91505092915050565b5f81519050919050565b5f82825260208201905092915050565b5f819050602082019050919050565b61181a8161178a565b82525050565b5f81519050919050565b5f82825260208201905092915050565b8281835e5f83830152505050565b5f601f19601f8301169050919050565b5f61186282611820565b61186c818561182a565b935061187c81856020860161183a565b61188581611848565b840191505092915050565b5f81519050919050565b5f82825260208201905092915050565b5f819050602082019050919050565b5f60a083015f8301516118ce5f860182611811565b5060208301516118e16020860182611811565b5060408301516118f46040860182611811565b506060830151848203606086015261190c8282611858565b91505060808301516119216080860182611811565b508091505092915050565b5f61193783836118b9565b905092915050565b5f602082019050919050565b5f61195582611890565b61195f818561189a565b935083602082028501611971856118aa565b805f5b858110156119ac578484038952815161198d858261192c565b94506119988361193f565b925060208a01995050600181019050611974565b50829750879550505050505092915050565b5f60a083015f8301516119d35f860182611811565b5060208301516119e66020860182611811565b50604083015184820360408601526119fe8282611858565b91505060608301518482036060860152611a18828261194b565b9150506080830151611a2d6080860182611811565b508091505092915050565b5f611a4383836119be565b905092915050565b5f602082019050919050565b5f611a61826117e8565b611a6b81856117f2565b935083602082028501611a7d85611802565b805f5b85811015611ab85784840389528151611a998582611a38565b9450611aa483611a4b565b925060208a01995050600181019050611a80565b50829750879550505050505092915050565b5f6020820190508181035f830152611ae28184611a57565b905092915050565b5f60a083015f830151611aff5f860182611811565b506020830151611b126020860182611811565b5060408301518482036040860152611b2a8282611858565b91505060608301518482036060860152611b44828261194b565b9150506080830151611b596080860182611811565b508091505092915050565b5f6020820190508181035f830152611b7c8184611aea565b905092915050565b5f5f60408385031215611b9a57611b99611782565b5b5f611ba7858286016117a9565b9250506020611bb8858286016117a9565b9150509250929050565b5f8115159050919050565b611bd681611bc2565b82525050565b5f602082019050611bef5f830184611bcd565b92915050565b611bfe8161178a565b82525050565b5f82825260208201905092915050565b5f611c1e82611820565b611c288185611c04565b9350611c3881856020860161183a565b611c4181611848565b840191505092915050565b5f608082019050611c5f5f830187611bf5565b611c6c6020830186611bf5565b8181036040830152611c7e8185611c14565b9050611c8d6060830184611bf5565b95945050505050565b5f5ffd5b5f5ffd5b5f5ffd5b5f5f83601f840112611cb757611cb6611c96565b5b8235905067ffffffffffffffff811115611cd457611cd3611c9a565b5b602083019150836001820283011115611cf057611cef611c9e565b5b9250929050565b5f5f60208385031215611d0d57611d0c611782565b5b5f83013567ffffffffffffffff811115611d2a57611d29611786565b5b611d3685828601611ca2565b92509250509250929050565b5f5f5f60408486031215611d5957611d58611782565b5b5f84013567ffffffffffffffff811115611d7657611d75611786565b5b611d8286828701611ca2565b93509350506020611d95868287016117a9565b9150509250925092565b5f602082019050611db25f830184611bf5565b92915050565b5f5f5f60408486031215611dcf57611dce611782565b5b5f611ddc868287016117a9565b935050602084013567ffffffffffffffff811115611dfd57611dfc611786565b5b611e0986828701611ca2565b92509250509250925092565b5f604082019050611e285f830185611bf5565b611e356020830184611bf5565b9392505050565b5f73ffffffffffffffffffffffffffffffffffffffff82169050919050565b5f611e6582611e3c565b9050919050565b611e7581611e5b565b82525050565b5f602082019050611e8e5f830184611e6c565b92915050565b5f81519050611ea281611793565b92915050565b5f60208284031215611ebd57611ebc611782565b5b5f611eca84828501611e94565b91505092915050565b7f506f737420646f6573206e6f74206578697374000000000000000000000000005f82015250565b5f611f07601383611c04565b9150611f1282611ed3565b602082019050919050565b5f6020820190508181035f830152611f3481611efb565b9050919050565b7f596f7520646f206e6f74206f776e207468697320706f737400000000000000005f82015250565b5f611f6f601883611c04565b9150611f7a82611f3b565b602082019050919050565b5f6020820190508181035f830152611f9c81611f63565b9050919050565b7f4e487b71000000000000000000000000000000000000000000000000000000005f52601160045260245ffd5b5f611fda8261178a565b9150611fe58361178a565b9250828203905081811115611ffd57611ffc611fa3565b5b92915050565b7f4e487b71000000000000000000000000000000000000000000000000000000005f52603260045260245ffd5b7f4e487b71000000000000000000000000000000000000000000000000000000005f52602260045260245ffd5b5f600282049050600182168061207457607f821691505b60208210810361208757612086612030565b5b50919050565b5f8154905061209b8161205d565b9050919050565b7f4e487b71000000000000000000000000000000000000000000000000000000005f52604160045260245ffd5b5f819050815f5260205f209050919050565b5f6020601f8301049050919050565b5f82821b905092915050565b5f6008830261212b7fffffffffffffffffffffffffffffffffffffffffffffffffffffffffffffffff826120f0565b61213586836120f0565b95508019841693508086168417925050509392505050565b5f819050919050565b5f61217061216b6121668461178a565b61214d565b61178a565b9050919050565b5f819050919050565b61218983612156565b61219d61219582612177565b8484546120fc565b825550505050565b5f5f905090565b6121b46121a5565b6121bf818484612180565b505050565b5b818110156121e2576121d75f826121ac565b6001810190506121c5565b5050565b601f821115612227576121f8816120cf565b612201846120e1565b81016020851015612210578190505b61222461221c856120e1565b8301826121c4565b50505b505050565b5f82821c905092915050565b5f6122475f198460080261222c565b1980831691505092915050565b5f61225f8383612238565b9150826002028217905092915050565b81810361227d575050612352565b6122868261208d565b67ffffffffffffffff81111561229f5761229e6120a2565b5b6122a9825461205d565b6122b48282856121e6565b5f601f8311600181146122e1575f84156122cf578287015490505b6122d98582612254565b86555061234b565b601f1984166122ef876120cf565b96506122fa866120cf565b5f5b82811015612321578489015482556001820191506001850194506020810190506122fc565b8683101561233e578489015461233a601f891682612238565b8355505b6001600288020188555050505b5050505050505b565b7f4e487b71000000000000000000000000000000000000000000000000000000005f52603160045260245ffd5b7f5573657220646f65736e2774206f776e20616e7920706f7374730000000000005f82015250565b5f6123b5601a83611c04565b91506123c082612381565b602082019050919050565b5f6020820190508181035f8301526123e2816123a9565b9050919050565b7f506f737420646f65736e277420657869737400000000000000000000000000005f82015250565b5f61241d601283611c04565b9150612428826123e9565b602082019050919050565b5f6020820190508181035f83015261244a81612411565b9050919050565b5f61245b8261178a565b91505f820361246d5761246c611fa3565b5b600182039050919050565b5f6124828261178a565b91507fffffffffffffffffffffffffffffffffffffffffffffffffffffffffffffffff82036124b4576124b3611fa3565b5b600182019050919050565b5f82905092915050565b6124d383836124bf565b67ffffffffffffffff8111156124ec576124eb6120a2565b5b6124f6825461205d565b6125018282856121e6565b5f601f83116001811461252e575f841561251c578287013590505b6125268582612254565b86555061258d565b601f19841661253c866120cf565b5f5b828110156125635784890135825560018201915060208501945060208101905061253e565b86831015612580578489013561257c601f891682612238565b8355505b6001600288020188555050505b50505050505050565b828183375f83830152505050565b5f6125af8385611c04565b93506125bc838584612596565b6125c583611848565b840190509392505050565b5f6080820190506125e35f830188611bf5565b6125f06020830187611bf5565b81810360408301526126038185876125a4565b90506126126060830184611bf5565b9695505050505050565b61262582611820565b67ffffffffffffffff81111561263e5761263d6120a2565b5b612648825461205d565b6126538282856121e6565b5f60209050601f831160018114612684575f8415612672578287015190505b61267c8582612254565b8655506126e3565b601f198416612692866120cf565b5f5b828110156126b957848901518255600182019150602085019450602081019050612694565b868310156126d657848901516126d2601f891682612238565b8355505b6001600288020188555050505b505050505050565b7f796f7520646f6e27742068617665207468697320706f737400000000000000005f82015250565b5f61271f601883611c04565b915061272a826126eb565b602082019050919050565b5f6020820190508181035f83015261274c81612713565b905091905056fea26469706673582212200953c50090b8f64c54898804b849d3bb513bd9ace506f453f1e744f8abf6b1a464736f6c634300081e0033",
			"opcodes": "PUSH1 0x80 PUSH1 0x40 MSTORE CALLVALUE DUP1 ISZERO PUSH2 0xF JUMPI PUSH0 PUSH0 REVERT JUMPDEST POP PUSH1 0x40 MLOAD PUSH2 0x2896 CODESIZE SUB DUP1 PUSH2 0x2896 DUP4 CODECOPY DUP2 DUP2 ADD PUSH1 0x40 MSTORE DUP2 ADD SWAP1 PUSH2 0x31 SWAP2 SWAP1 PUSH2 0xD5 JUMP JUMPDEST DUP1 PUSH1 0x2 PUSH0 PUSH2 0x100 EXP DUP2 SLOAD DUP2 PUSH20 0xFFFFFFFFFFFFFFFFFFFFFFFFFFFFFFFFFFFFFFFF MUL NOT AND SWAP1 DUP4 PUSH20 0xFFFFFFFFFFFFFFFFFFFFFFFFFFFFFFFFFFFFFFFF AND MUL OR SWAP1 SSTORE POP POP PUSH2 0x100 JUMP JUMPDEST PUSH0 PUSH0 REVERT JUMPDEST PUSH0 PUSH20 0xFFFFFFFFFFFFFFFFFFFFFFFFFFFFFFFFFFFFFFFF DUP3 AND SWAP1 POP SWAP2 SWAP1 POP JUMP JUMPDEST PUSH0 PUSH2 0xA4 DUP3 PUSH2 0x7B JUMP JUMPDEST SWAP1 POP SWAP2 SWAP1 POP JUMP JUMPDEST PUSH2 0xB4 DUP2 PUSH2 0x9A JUMP JUMPDEST DUP2 EQ PUSH2 0xBE JUMPI PUSH0 PUSH0 REVERT JUMPDEST POP JUMP JUMPDEST PUSH0 DUP2 MLOAD SWAP1 POP PUSH2 0xCF DUP2 PUSH2 0xAB JUMP JUMPDEST SWAP3 SWAP2 POP POP JUMP JUMPDEST PUSH0 PUSH1 0x20 DUP3 DUP5 SUB SLT ISZERO PUSH2 0xEA JUMPI PUSH2 0xE9 PUSH2 0x77 JUMP JUMPDEST JUMPDEST PUSH0 PUSH2 0xF7 DUP5 DUP3 DUP6 ADD PUSH2 0xC1 JUMP JUMPDEST SWAP2 POP POP SWAP3 SWAP2 POP POP JUMP JUMPDEST PUSH2 0x2789 DUP1 PUSH2 0x10D PUSH0 CODECOPY PUSH0 RETURN INVALID PUSH1 0x80 PUSH1 0x40 MSTORE CALLVALUE DUP1 ISZERO PUSH2 0xF JUMPI PUSH0 PUSH0 REVERT JUMPDEST POP PUSH1 0x4 CALLDATASIZE LT PUSH2 0xB2 JUMPI PUSH0 CALLDATALOAD PUSH1 0xE0 SHR DUP1 PUSH4 0xC7303C61 GT PUSH2 0x6F JUMPI DUP1 PUSH4 0xC7303C61 EQ PUSH2 0x1B1 JUMPI DUP1 PUSH4 0xD362EE56 EQ PUSH2 0x1CD JUMPI DUP1 PUSH4 0xD6E93896 EQ PUSH2 0x1E9 JUMPI DUP1 PUSH4 0xDE537765 EQ PUSH2 0x219 JUMPI DUP1 PUSH4 0xFA99654A EQ PUSH2 0x249 JUMPI DUP1 PUSH4 0xFC68E09F EQ PUSH2 0x265 JUMPI PUSH2 0xB2 JUMP JUMPDEST DUP1 PUSH4 0x94CD5EE EQ PUSH2 0xB6 JUMPI DUP1 PUSH4 0x211117FF EQ PUSH2 0xD2 JUMPI DUP1 PUSH4 0x64E95895 EQ PUSH2 0x102 JUMPI DUP1 PUSH4 0x65AA1ED9 EQ PUSH2 0x132 JUMPI DUP1 PUSH4 0x718CE2BC EQ PUSH2 0x162 JUMPI DUP1 PUSH4 0x96F25073 EQ PUSH2 0x195 JUMPI JUMPDEST PUSH0 PUSH0 REVERT JUMPDEST PUSH2 0xD0 PUSH1 0x4 DUP1 CALLDATASIZE SUB DUP2 ADD SWAP1 PUSH2 0xCB SWAP2 SWAP1 PUSH2 0x17BD JUMP JUMPDEST PUSH2 0x296 JUMP JUMPDEST STOP JUMPDEST PUSH2 0xEC PUSH1 0x4 DUP1 CALLDATASIZE SUB DUP2 ADD SWAP1 PUSH2 0xE7 SWAP2 SWAP1 PUSH2 0x17BD JUMP JUMPDEST PUSH2 0x68E JUMP JUMPDEST PUSH1 0x40 MLOAD PUSH2 0xF9 SWAP2 SWAP1 PUSH2 0x1ACA JUMP JUMPDEST PUSH1 0x40 MLOAD DUP1 SWAP2 SUB SWAP1 RETURN JUMPDEST PUSH2 0x11C PUSH1 0x4 DUP1 CALLDATASIZE SUB DUP2 ADD SWAP1 PUSH2 0x117 SWAP2 SWAP1 PUSH2 0x17BD JUMP JUMPDEST PUSH2 0x9E8 JUMP JUMPDEST PUSH1 0x40 MLOAD PUSH2 0x129 SWAP2 SWAP1 PUSH2 0x1B64 JUMP JUMPDEST PUSH1 0x40 MLOAD DUP1 SWAP2 SUB SWAP1 RETURN JUMPDEST PUSH2 0x14C PUSH1 0x4 DUP1 CALLDATASIZE SUB DUP2 ADD SWAP1 PUSH2 0x147 SWAP2 SWAP1 PUSH2 0x1B84 JUMP JUMPDEST PUSH2 0xC61 JUMP JUMPDEST PUSH1 0x40 MLOAD PUSH2 0x159 SWAP2 SWAP1 PUSH2 0x1BDC JUMP JUMPDEST PUSH1 0x40 MLOAD DUP1 SWAP2 SUB SWAP1 RETURN JUMPDEST PUSH2 0x17C PUSH1 0x4 DUP1 CALLDATASIZE SUB DUP2 ADD SWAP1 PUSH2 0x177 SWAP2 SWAP1 PUSH2 0x17BD JUMP JUMPDEST PUSH2 0xCDF JUMP JUMPDEST PUSH1 0x40 MLOAD PUSH2 0x18C SWAP5 SWAP4 SWAP3 SWAP2 SWAP1 PUSH2 0x1C4C JUMP JUMPDEST PUSH1 0x40 MLOAD DUP1 SWAP2 SUB SWAP1 RETURN JUMPDEST PUSH2 0x1AF PUSH1 0x4 DUP1 CALLDATASIZE SUB DUP2 ADD SWAP1 PUSH2 0x1AA SWAP2 SWAP1 PUSH2 0x17BD JUMP JUMPDEST PUSH2 0xDA0 JUMP JUMPDEST STOP JUMPDEST PUSH2 0x1CB PUSH1 0x4 DUP1 CALLDATASIZE SUB DUP2 ADD SWAP1 PUSH2 0x1C6 SWAP2 SWAP1 PUSH2 0x1CF7 JUMP JUMPDEST PUSH2 0xF7B JUMP JUMPDEST STOP JUMPDEST PUSH2 0x1E7 PUSH1 0x4 DUP1 CALLDATASIZE SUB DUP2 ADD SWAP1 PUSH2 0x1E2 SWAP2 SWAP1 PUSH2 0x1D42 JUMP JUMPDEST PUSH2 0x116B JUMP JUMPDEST STOP JUMPDEST PUSH2 0x203 PUSH1 0x4 DUP1 CALLDATASIZE SUB DUP2 ADD SWAP1 PUSH2 0x1FE SWAP2 SWAP1 PUSH2 0x17BD JUMP JUMPDEST PUSH2 0x139A JUMP JUMPDEST PUSH1 0x40 MLOAD PUSH2 0x210 SWAP2 SWAP1 PUSH2 0x1D9F JUMP JUMPDEST PUSH1 0x40 MLOAD DUP1 SWAP2 SUB SWAP1 RETURN JUMPDEST PUSH2 0x233 PUSH1 0x4 DUP1 CALLDATASIZE SUB DUP2 ADD SWAP1 PUSH2 0x22E SWAP2 SWAP1 PUSH2 0x1B84 JUMP JUMPDEST PUSH2 0x13FC JUMP JUMPDEST PUSH1 0x40 MLOAD PUSH2 0x240 SWAP2 SWAP1 PUSH2 0x1D9F JUMP JUMPDEST PUSH1 0x40 MLOAD DUP1 SWAP2 SUB SWAP1 RETURN JUMPDEST PUSH2 0x263 PUSH1 0x4 DUP1 CALLDATASIZE SUB DUP2 ADD SWAP1 PUSH2 0x25E SWAP2 SWAP1 PUSH2 0x1DB8 JUMP JUMPDEST PUSH2 0x1427 JUMP JUMPDEST STOP JUMPDEST PUSH2 0x27F PUSH1 0x4 DUP1 CALLDATASIZE SUB DUP2 ADD SWAP1 PUSH2 0x27A SWAP2 SWAP1 PUSH2 0x17BD JUMP JUMPDEST PUSH2 0x15C0 JUMP JUMPDEST PUSH1 0x40 MLOAD PUSH2 0x28D SWAP3 SWAP2 SWAP1 PUSH2 0x1E15 JUMP JUMPDEST PUSH1 0x40 MLOAD DUP1 SWAP2 SUB SWAP1 RETURN JUMPDEST PUSH0 PUSH1 0x2 PUSH0 SWAP1 SLOAD SWAP1 PUSH2 0x100 EXP SWAP1 DIV PUSH20 0xFFFFFFFFFFFFFFFFFFFFFFFFFFFFFFFFFFFFFFFF AND PUSH20 0xFFFFFFFFFFFFFFFFFFFFFFFFFFFFFFFFFFFFFFFF AND PUSH4 0x26567EEC CALLER PUSH1 0x40 MLOAD DUP3 PUSH4 0xFFFFFFFF AND PUSH1 0xE0 SHL DUP2 MSTORE PUSH1 0x4 ADD PUSH2 0x2F1 SWAP2 SWAP1 PUSH2 0x1E7B JUMP JUMPDEST PUSH1 0x20 PUSH1 0x40 MLOAD DUP1 DUP4 SUB DUP2 DUP7 GAS STATICCALL ISZERO DUP1 ISZERO PUSH2 0x30C JUMPI RETURNDATASIZE PUSH0 PUSH0 RETURNDATACOPY RETURNDATASIZE PUSH0 REVERT JUMPDEST POP POP POP POP PUSH1 0x40 MLOAD RETURNDATASIZE PUSH1 0x1F NOT PUSH1 0x1F DUP3 ADD AND DUP3 ADD DUP1 PUSH1 0x40 MSTORE POP DUP2 ADD SWAP1 PUSH2 0x330 SWAP2 SWAP1 PUSH2 0x1EA8 JUMP JUMPDEST SWAP1 POP PUSH2 0x33B DUP3 PUSH2 0x15E0 JUMP JUMPDEST PUSH2 0x37A JUMPI PUSH1 0x40 MLOAD PUSH32 0x8C379A000000000000000000000000000000000000000000000000000000000 DUP2 MSTORE PUSH1 0x4 ADD PUSH2 0x371 SWAP1 PUSH2 0x1F1D JUMP JUMPDEST PUSH1 0x40 MLOAD DUP1 SWAP2 SUB SWAP1 REVERT JUMPDEST PUSH0 PUSH1 0x4 PUSH0 DUP5 DUP2 MSTORE PUSH1 0x20 ADD SWAP1 DUP2 MSTORE PUSH1 0x20 ADD PUSH0 KECCAK256 PUSH1 0x40 MLOAD DUP1 PUSH1 0x40 ADD PUSH1 0x40 MSTORE SWAP1 DUP2 PUSH0 DUP3 ADD SLOAD DUP2 MSTORE PUSH1 0x20 ADD PUSH1 0x1 DUP3 ADD SLOAD DUP2 MSTORE POP POP SWAP1 POP DUP2 DUP2 PUSH0 ADD MLOAD EQ PUSH2 0x3F1 JUMPI PUSH1 0x40 MLOAD PUSH32 0x8C379A000000000000000000000000000000000000000000000000000000000 DUP2 MSTORE PUSH1 0x4 ADD PUSH2 0x3E8 SWAP1 PUSH2 0x1F85 JUMP JUMPDEST PUSH1 0x40 MLOAD DUP1 SWAP2 SUB SWAP1 REVERT JUMPDEST PUSH0 DUP2 PUSH1 0x20 ADD MLOAD SWAP1 POP PUSH0 PUSH1 0x1 PUSH1 0x7 DUP1 SLOAD SWAP1 POP PUSH2 0x40C SWAP2 SWAP1 PUSH2 0x1FD0 JUMP JUMPDEST SWAP1 POP DUP1 DUP3 EQ PUSH2 0x541 JUMPI PUSH0 PUSH1 0x7 DUP3 DUP2 SLOAD DUP2 LT PUSH2 0x42A JUMPI PUSH2 0x429 PUSH2 0x2003 JUMP JUMPDEST JUMPDEST SWAP1 PUSH0 MSTORE PUSH1 0x20 PUSH0 KECCAK256 SWAP1 PUSH1 0x5 MUL ADD SWAP1 POP DUP1 PUSH1 0x7 DUP5 DUP2 SLOAD DUP2 LT PUSH2 0x44D JUMPI PUSH2 0x44C PUSH2 0x2003 JUMP JUMPDEST JUMPDEST SWAP1 PUSH0 MSTORE PUSH1 0x20 PUSH0 KECCAK256 SWAP1 PUSH1 0x5 MUL ADD PUSH0 DUP3 ADD SLOAD DUP2 PUSH0 ADD SSTORE PUSH1 0x1 DUP3 ADD SLOAD DUP2 PUSH1 0x1 ADD SSTORE PUSH1 0x2 DUP3 ADD DUP2 PUSH1 0x2 ADD SWAP1 DUP2 PUSH2 0x47F SWAP2 SWAP1 PUSH2 0x226F JUMP JUMPDEST POP PUSH1 0x3 DUP3 ADD DUP2 PUSH1 0x3 ADD SWAP1 DUP1 SLOAD PUSH2 0x496 SWAP3 SWAP2 SWAP1 PUSH2 0x160D JUMP JUMPDEST POP PUSH1 0x4 DUP3 ADD SLOAD DUP2 PUSH1 0x4 ADD SSTORE SWAP1 POP POP DUP3 PUSH1 0x4 PUSH0 DUP4 PUSH1 0x1 ADD SLOAD DUP2 MSTORE PUSH1 0x20 ADD SWAP1 DUP2 MSTORE PUSH1 0x20 ADD PUSH0 KECCAK256 PUSH1 0x1 ADD DUP2 SWAP1 SSTORE POP PUSH0 PUSH1 0x3 PUSH0 DUP4 PUSH0 ADD SLOAD DUP2 MSTORE PUSH1 0x20 ADD SWAP1 DUP2 MSTORE PUSH1 0x20 ADD PUSH0 KECCAK256 SWAP1 POP PUSH0 PUSH0 SWAP1 POP JUMPDEST DUP2 DUP1 SLOAD SWAP1 POP DUP2 LT ISZERO PUSH2 0x53D JUMPI DUP4 DUP3 DUP3 DUP2 SLOAD DUP2 LT PUSH2 0x4FD JUMPI PUSH2 0x4FC PUSH2 0x2003 JUMP JUMPDEST JUMPDEST SWAP1 PUSH0 MSTORE PUSH1 0x20 PUSH0 KECCAK256 ADD SLOAD SUB PUSH2 0x530 JUMPI DUP5 DUP3 DUP3 DUP2 SLOAD DUP2 LT PUSH2 0x51F JUMPI PUSH2 0x51E PUSH2 0x2003 JUMP JUMPDEST JUMPDEST SWAP1 PUSH0 MSTORE PUSH1 0x20 PUSH0 KECCAK256 ADD DUP2 SWAP1 SSTORE POP PUSH2 0x53D JUMP JUMPDEST DUP1 DUP1 PUSH1 0x1 ADD SWAP2 POP POP PUSH2 0x4DD JUMP JUMPDEST POP POP POP JUMPDEST PUSH1 0x7 DUP1 SLOAD DUP1 PUSH2 0x553 JUMPI PUSH2 0x552 PUSH2 0x2354 JUMP JUMPDEST JUMPDEST PUSH1 0x1 SWAP1 SUB DUP2 DUP2 SWAP1 PUSH0 MSTORE PUSH1 0x20 PUSH0 KECCAK256 SWAP1 PUSH1 0x5 MUL ADD PUSH0 PUSH0 DUP3 ADD PUSH0 SWAP1 SSTORE PUSH1 0x1 DUP3 ADD PUSH0 SWAP1 SSTORE PUSH1 0x2 DUP3 ADD PUSH0 PUSH2 0x582 SWAP2 SWAP1 PUSH2 0x169C JUMP JUMPDEST PUSH1 0x3 DUP3 ADD PUSH0 PUSH2 0x591 SWAP2 SWAP1 PUSH2 0x16D9 JUMP JUMPDEST PUSH1 0x4 DUP3 ADD PUSH0 SWAP1 SSTORE POP POP SWAP1 SSTORE PUSH0 PUSH1 0x3 PUSH0 DUP7 DUP2 MSTORE PUSH1 0x20 ADD SWAP1 DUP2 MSTORE PUSH1 0x20 ADD PUSH0 KECCAK256 SWAP1 POP PUSH0 PUSH0 SWAP1 POP JUMPDEST DUP2 DUP1 SLOAD SWAP1 POP DUP2 LT ISZERO PUSH2 0x664 JUMPI DUP4 DUP3 DUP3 DUP2 SLOAD DUP2 LT PUSH2 0x5D5 JUMPI PUSH2 0x5D4 PUSH2 0x2003 JUMP JUMPDEST JUMPDEST SWAP1 PUSH0 MSTORE PUSH1 0x20 PUSH0 KECCAK256 ADD SLOAD SUB PUSH2 0x657 JUMPI DUP2 PUSH1 0x1 DUP4 DUP1 SLOAD SWAP1 POP PUSH2 0x5F5 SWAP2 SWAP1 PUSH2 0x1FD0 JUMP JUMPDEST DUP2 SLOAD DUP2 LT PUSH2 0x606 JUMPI PUSH2 0x605 PUSH2 0x2003 JUMP JUMPDEST JUMPDEST SWAP1 PUSH0 MSTORE PUSH1 0x20 PUSH0 KECCAK256 ADD SLOAD DUP3 DUP3 DUP2 SLOAD DUP2 LT PUSH2 0x622 JUMPI PUSH2 0x621 PUSH2 0x2003 JUMP JUMPDEST JUMPDEST SWAP1 PUSH0 MSTORE PUSH1 0x20 PUSH0 KECCAK256 ADD DUP2 SWAP1 SSTORE POP DUP2 DUP1 SLOAD DUP1 PUSH2 0x63F JUMPI PUSH2 0x63E PUSH2 0x2354 JUMP JUMPDEST JUMPDEST PUSH1 0x1 SWAP1 SUB DUP2 DUP2 SWAP1 PUSH0 MSTORE PUSH1 0x20 PUSH0 KECCAK256 ADD PUSH0 SWAP1 SSTORE SWAP1 SSTORE PUSH2 0x664 JUMP JUMPDEST DUP1 DUP1 PUSH1 0x1 ADD SWAP2 POP POP PUSH2 0x5B5 JUMP JUMPDEST POP PUSH1 0x4 PUSH0 DUP8 DUP2 MSTORE PUSH1 0x20 ADD SWAP1 DUP2 MSTORE PUSH1 0x20 ADD PUSH0 KECCAK256 PUSH0 PUSH0 DUP3 ADD PUSH0 SWAP1 SSTORE PUSH1 0x1 DUP3 ADD PUSH0 SWAP1 SSTORE POP POP POP POP POP POP POP POP JUMP JUMPDEST PUSH1 0x60 PUSH0 PUSH1 0x3 PUSH0 DUP5 DUP2 MSTORE PUSH1 0x20 ADD SWAP1 DUP2 MSTORE PUSH1 0x20 ADD PUSH0 KECCAK256 DUP1 SLOAD SWAP1 POP GT PUSH2 0x6E6 JUMPI PUSH1 0x40 MLOAD PUSH32 0x8C379A000000000000000000000000000000000000000000000000000000000 DUP2 MSTORE PUSH1 0x4 ADD PUSH2 0x6DD SWAP1 PUSH2 0x23CB JUMP JUMPDEST PUSH1 0x40 MLOAD DUP1 SWAP2 SUB SWAP1 REVERT JUMPDEST PUSH0 PUSH1 0x3 PUSH0 DUP5 DUP2 MSTORE PUSH1 0x20 ADD SWAP1 DUP2 MSTORE PUSH1 0x20 ADD PUSH0 KECCAK256 DUP1 SLOAD DUP1 PUSH1 0x20 MUL PUSH1 0x20 ADD PUSH1 0x40 MLOAD SWAP1 DUP2 ADD PUSH1 0x40 MSTORE DUP1 SWAP3 SWAP2 SWAP1 DUP2 DUP2 MSTORE PUSH1 0x20 ADD DUP3 DUP1 SLOAD DUP1 ISZERO PUSH2 0x740 JUMPI PUSH1 0x20 MUL DUP3 ADD SWAP2 SWAP1 PUSH0 MSTORE PUSH1 0x20 PUSH0 KECCAK256 SWAP1 JUMPDEST DUP2 SLOAD DUP2 MSTORE PUSH1 0x20 ADD SWAP1 PUSH1 0x1 ADD SWAP1 DUP1 DUP4 GT PUSH2 0x72C JUMPI JUMPDEST POP POP POP POP POP SWAP1 POP PUSH0 DUP2 MLOAD PUSH8 0xFFFFFFFFFFFFFFFF DUP2 GT ISZERO PUSH2 0x763 JUMPI PUSH2 0x762 PUSH2 0x20A2 JUMP JUMPDEST JUMPDEST PUSH1 0x40 MLOAD SWAP1 DUP1 DUP3 MSTORE DUP1 PUSH1 0x20 MUL PUSH1 0x20 ADD DUP3 ADD PUSH1 0x40 MSTORE DUP1 ISZERO PUSH2 0x79C JUMPI DUP2 PUSH1 0x20 ADD JUMPDEST PUSH2 0x789 PUSH2 0x16FA JUMP JUMPDEST DUP2 MSTORE PUSH1 0x20 ADD SWAP1 PUSH1 0x1 SWAP1 SUB SWAP1 DUP2 PUSH2 0x781 JUMPI SWAP1 POP JUMPDEST POP SWAP1 POP PUSH0 PUSH0 SWAP1 POP JUMPDEST DUP3 MLOAD DUP2 LT ISZERO PUSH2 0x9DD JUMPI PUSH1 0x7 DUP4 DUP3 DUP2 MLOAD DUP2 LT PUSH2 0x7C2 JUMPI PUSH2 0x7C1 PUSH2 0x2003 JUMP JUMPDEST JUMPDEST PUSH1 0x20 MUL PUSH1 0x20 ADD ADD MLOAD DUP2 SLOAD DUP2 LT PUSH2 0x7DB JUMPI PUSH2 0x7DA PUSH2 0x2003 JUMP JUMPDEST JUMPDEST SWAP1 PUSH0 MSTORE PUSH1 0x20 PUSH0 KECCAK256 SWAP1 PUSH1 0x5 MUL ADD PUSH1 0x40 MLOAD DUP1 PUSH1 0xA0 ADD PUSH1 0x40 MSTORE SWAP1 DUP2 PUSH0 DUP3 ADD SLOAD DUP2 MSTORE PUSH1 0x20 ADD PUSH1 0x1 DUP3 ADD SLOAD DUP2 MSTORE PUSH1 0x20 ADD PUSH1 0x2 DUP3 ADD DUP1 SLOAD PUSH2 0x815 SWAP1 PUSH2 0x205D JUMP JUMPDEST DUP1 PUSH1 0x1F ADD PUSH1 0x20 DUP1 SWAP2 DIV MUL PUSH1 0x20 ADD PUSH1 0x40 MLOAD SWAP1 DUP2 ADD PUSH1 0x40 MSTORE DUP1 SWAP3 SWAP2 SWAP1 DUP2 DUP2 MSTORE PUSH1 0x20 ADD DUP3 DUP1 SLOAD PUSH2 0x841 SWAP1 PUSH2 0x205D JUMP JUMPDEST DUP1 ISZERO PUSH2 0x88C JUMPI DUP1 PUSH1 0x1F LT PUSH2 0x863 JUMPI PUSH2 0x100 DUP1 DUP4 SLOAD DIV MUL DUP4 MSTORE SWAP2 PUSH1 0x20 ADD SWAP2 PUSH2 0x88C JUMP JUMPDEST DUP3 ADD SWAP2 SWAP1 PUSH0 MSTORE PUSH1 0x20 PUSH0 KECCAK256 SWAP1 JUMPDEST DUP2 SLOAD DUP2 MSTORE SWAP1 PUSH1 0x1 ADD SWAP1 PUSH1 0x20 ADD DUP1 DUP4 GT PUSH2 0x86F JUMPI DUP3 SWAP1 SUB PUSH1 0x1F AND DUP3 ADD SWAP2 JUMPDEST POP POP POP POP POP DUP2 MSTORE PUSH1 0x20 ADD PUSH1 0x3 DUP3 ADD DUP1 SLOAD DUP1 PUSH1 0x20 MUL PUSH1 0x20 ADD PUSH1 0x40 MLOAD SWAP1 DUP2 ADD PUSH1 0x40 MSTORE DUP1 SWAP3 SWAP2 SWAP1 DUP2 DUP2 MSTORE PUSH1 0x20 ADD PUSH0 SWAP1 JUMPDEST DUP3 DUP3 LT ISZERO PUSH2 0x9A0 JUMPI DUP4 DUP3 SWAP1 PUSH0 MSTORE PUSH1 0x20 PUSH0 KECCAK256 SWAP1 PUSH1 0x5 MUL ADD PUSH1 0x40 MLOAD DUP1 PUSH1 0xA0 ADD PUSH1 0x40 MSTORE SWAP1 DUP2 PUSH0 DUP3 ADD SLOAD DUP2 MSTORE PUSH1 0x20 ADD PUSH1 0x1 DUP3 ADD SLOAD DUP2 MSTORE PUSH1 0x20 ADD PUSH1 0x2 DUP3 ADD SLOAD DUP2 MSTORE PUSH1 0x20 ADD PUSH1 0x3 DUP3 ADD DUP1 SLOAD PUSH2 0x907 SWAP1 PUSH2 0x205D JUMP JUMPDEST DUP1 PUSH1 0x1F ADD PUSH1 0x20 DUP1 SWAP2 DIV MUL PUSH1 0x20 ADD PUSH1 0x40 MLOAD SWAP1 DUP2 ADD PUSH1 0x40 MSTORE DUP1 SWAP3 SWAP2 SWAP1 DUP2 DUP2 MSTORE PUSH1 0x20 ADD DUP3 DUP1 SLOAD PUSH2 0x933 SWAP1 PUSH2 0x205D JUMP JUMPDEST DUP1 ISZERO PUSH2 0x97E JUMPI DUP1 PUSH1 0x1F LT PUSH2 0x955 JUMPI PUSH2 0x100 DUP1 DUP4 SLOAD DIV MUL DUP4 MSTORE SWAP2 PUSH1 0x20 ADD SWAP2 PUSH2 0x97E JUMP JUMPDEST DUP3 ADD SWAP2 SWAP1 PUSH0 MSTORE PUSH1 0x20 PUSH0 KECCAK256 SWAP1 JUMPDEST DUP2 SLOAD DUP2 MSTORE SWAP1 PUSH1 0x1 ADD SWAP1 PUSH1 0x20 ADD DUP1 DUP4 GT PUSH2 0x961 JUMPI DUP3 SWAP1 SUB PUSH1 0x1F AND DUP3 ADD SWAP2 JUMPDEST POP POP POP POP POP DUP2 MSTORE PUSH1 0x20 ADD PUSH1 0x4 DUP3 ADD SLOAD DUP2 MSTORE POP POP DUP2 MSTORE PUSH1 0x20 ADD SWAP1 PUSH1 0x1 ADD SWAP1 PUSH2 0x8B9 JUMP JUMPDEST POP POP POP POP DUP2 MSTORE PUSH1 0x20 ADD PUSH1 0x4 DUP3 ADD SLOAD DUP2 MSTORE POP POP DUP3 DUP3 DUP2 MLOAD DUP2 LT PUSH2 0x9C5 JUMPI PUSH2 0x9C4 PUSH2 0x2003 JUMP JUMPDEST JUMPDEST PUSH1 0x20 MUL PUSH1 0x20 ADD ADD DUP2 SWAP1 MSTORE POP DUP1 DUP1 PUSH1 0x1 ADD SWAP2 POP POP PUSH2 0x7A4 JUMP JUMPDEST POP DUP1 SWAP3 POP POP POP SWAP2 SWAP1 POP JUMP JUMPDEST PUSH2 0x9F0 PUSH2 0x16FA JUMP JUMPDEST PUSH2 0x9F9 DUP3 PUSH2 0x15E0 JUMP JUMPDEST PUSH2 0xA38 JUMPI PUSH1 0x40 MLOAD PUSH32 0x8C379A000000000000000000000000000000000000000000000000000000000 DUP2 MSTORE PUSH1 0x4 ADD PUSH2 0xA2F SWAP1 PUSH2 0x2433 JUMP JUMPDEST PUSH1 0x40 MLOAD DUP1 SWAP2 SUB SWAP1 REVERT JUMPDEST PUSH0 PUSH1 0x4 PUSH0 DUP5 DUP2 MSTORE PUSH1 0x20 ADD SWAP1 DUP2 MSTORE PUSH1 0x20 ADD PUSH0 KECCAK256 PUSH1 0x40 MLOAD DUP1 PUSH1 0x40 ADD PUSH1 0x40 MSTORE SWAP1 DUP2 PUSH0 DUP3 ADD SLOAD DUP2 MSTORE PUSH1 0x20 ADD PUSH1 0x1 DUP3 ADD SLOAD DUP2 MSTORE POP POP SWAP1 POP PUSH1 0x7 DUP2 PUSH1 0x20 ADD MLOAD DUP2 SLOAD DUP2 LT PUSH2 0xA82 JUMPI PUSH2 0xA81 PUSH2 0x2003 JUMP JUMPDEST JUMPDEST SWAP1 PUSH0 MSTORE PUSH1 0x20 PUSH0 KECCAK256 SWAP1 PUSH1 0x5 MUL ADD PUSH1 0x40 MLOAD DUP1 PUSH1 0xA0 ADD PUSH1 0x40 MSTORE SWAP1 DUP2 PUSH0 DUP3 ADD SLOAD DUP2 MSTORE PUSH1 0x20 ADD PUSH1 0x1 DUP3 ADD SLOAD DUP2 MSTORE PUSH1 0x20 ADD PUSH1 0x2 DUP3 ADD DUP1 SLOAD PUSH2 0xABC SWAP1 PUSH2 0x205D JUMP JUMPDEST DUP1 PUSH1 0x1F ADD PUSH1 0x20 DUP1 SWAP2 DIV MUL PUSH1 0x20 ADD PUSH1 0x40 MLOAD SWAP1 DUP2 ADD PUSH1 0x40 MSTORE DUP1 SWAP3 SWAP2 SWAP1 DUP2 DUP2 MSTORE PUSH1 0x20 ADD DUP3 DUP1 SLOAD PUSH2 0xAE8 SWAP1 PUSH2 0x205D JUMP JUMPDEST DUP1 ISZERO PUSH2 0xB33 JUMPI DUP1 PUSH1 0x1F LT PUSH2 0xB0A JUMPI PUSH2 0x100 DUP1 DUP4 SLOAD DIV MUL DUP4 MSTORE SWAP2 PUSH1 0x20 ADD SWAP2 PUSH2 0xB33 JUMP JUMPDEST DUP3 ADD SWAP2 SWAP1 PUSH0 MSTORE PUSH1 0x20 PUSH0 KECCAK256 SWAP1 JUMPDEST DUP2 SLOAD DUP2 MSTORE SWAP1 PUSH1 0x1 ADD SWAP1 PUSH1 0x20 ADD DUP1 DUP4 GT PUSH2 0xB16 JUMPI DUP3 SWAP1 SUB PUSH1 0x1F AND DUP3 ADD SWAP2 JUMPDEST POP POP POP POP POP DUP2 MSTORE PUSH1 0x20 ADD PUSH1 0x3 DUP3 ADD DUP1 SLOAD DUP1 PUSH1 0x20 MUL PUSH1 0x20 ADD PUSH1 0x40 MLOAD SWAP1 DUP2 ADD PUSH1 0x40 MSTORE DUP1 SWAP3 SWAP2 SWAP1 DUP2 DUP2 MSTORE PUSH1 0x20 ADD PUSH0 SWAP1 JUMPDEST DUP3 DUP3 LT ISZERO PUSH2 0xC47 JUMPI DUP4 DUP3 SWAP1 PUSH0 MSTORE PUSH1 0x20 PUSH0 KECCAK256 SWAP1 PUSH1 0x5 MUL ADD PUSH1 0x40 MLOAD DUP1 PUSH1 0xA0 ADD PUSH1 0x40 MSTORE SWAP1 DUP2 PUSH0 DUP3 ADD SLOAD DUP2 MSTORE PUSH1 0x20 ADD PUSH1 0x1 DUP3 ADD SLOAD DUP2 MSTORE PUSH1 0x20 ADD PUSH1 0x2 DUP3 ADD SLOAD DUP2 MSTORE PUSH1 0x20 ADD PUSH1 0x3 DUP3 ADD DUP1 SLOAD PUSH2 0xBAE SWAP1 PUSH2 0x205D JUMP JUMPDEST DUP1 PUSH1 0x1F ADD PUSH1 0x20 DUP1 SWAP2 DIV MUL PUSH1 0x20 ADD PUSH1 0x40 MLOAD SWAP1 DUP2 ADD PUSH1 0x40 MSTORE DUP1 SWAP3 SWAP2 SWAP1 DUP2 DUP2 MSTORE PUSH1 0x20 ADD DUP3 DUP1 SLOAD PUSH2 0xBDA SWAP1 PUSH2 0x205D JUMP JUMPDEST DUP1 ISZERO PUSH2 0xC25 JUMPI DUP1 PUSH1 0x1F LT PUSH2 0xBFC JUMPI PUSH2 0x100 DUP1 DUP4 SLOAD DIV MUL DUP4 MSTORE SWAP2 PUSH1 0x20 ADD SWAP2 PUSH2 0xC25 JUMP JUMPDEST DUP3 ADD SWAP2 SWAP1 PUSH0 MSTORE PUSH1 0x20 PUSH0 KECCAK256 SWAP1 JUMPDEST DUP2 SLOAD DUP2 MSTORE SWAP1 PUSH1 0x1 ADD SWAP1 PUSH1 0x20 ADD DUP1 DUP4 GT PUSH2 0xC08 JUMPI DUP3 SWAP1 SUB PUSH1 0x1F AND DUP3 ADD SWAP2 JUMPDEST POP POP POP POP POP DUP2 MSTORE PUSH1 0x20 ADD PUSH1 0x4 DUP3 ADD SLOAD DUP2 MSTORE POP POP DUP2 MSTORE PUSH1 0x20 ADD SWAP1 PUSH1 0x1 ADD SWAP1 PUSH2 0xB60 JUMP JUMPDEST POP POP POP POP DUP2 MSTORE PUSH1 0x20 ADD PUSH1 0x4 DUP3 ADD SLOAD DUP2 MSTORE POP POP SWAP2 POP POP SWAP2 SWAP1 POP JUMP JUMPDEST PUSH0 PUSH2 0xC6B DUP4 PUSH2 0x15E0 JUMP JUMPDEST PUSH2 0xCAA JUMPI PUSH1 0x40 MLOAD PUSH32 0x8C379A000000000000000000000000000000000000000000000000000000000 DUP2 MSTORE PUSH1 0x4 ADD PUSH2 0xCA1 SWAP1 PUSH2 0x2433 JUMP JUMPDEST PUSH1 0x40 MLOAD DUP1 SWAP2 SUB SWAP1 REVERT JUMPDEST PUSH1 0x5 PUSH0 DUP5 DUP2 MSTORE PUSH1 0x20 ADD SWAP1 DUP2 MSTORE PUSH1 0x20 ADD PUSH0 KECCAK256 PUSH0 DUP4 DUP2 MSTORE PUSH1 0x20 ADD SWAP1 DUP2 MSTORE PUSH1 0x20 ADD PUSH0 KECCAK256 PUSH0 SWAP1 SLOAD SWAP1 PUSH2 0x100 EXP SWAP1 DIV PUSH1 0xFF AND SWAP1 POP SWAP3 SWAP2 POP POP JUMP JUMPDEST PUSH1 0x7 DUP2 DUP2 SLOAD DUP2 LT PUSH2 0xCEE JUMPI PUSH0 DUP1 REVERT JUMPDEST SWAP1 PUSH0 MSTORE PUSH1 0x20 PUSH0 KECCAK256 SWAP1 PUSH1 0x5 MUL ADD PUSH0 SWAP2 POP SWAP1 POP DUP1 PUSH0 ADD SLOAD SWAP1 DUP1 PUSH1 0x1 ADD SLOAD SWAP1 DUP1 PUSH1 0x2 ADD DUP1 SLOAD PUSH2 0xD19 SWAP1 PUSH2 0x205D JUMP JUMPDEST DUP1 PUSH1 0x1F ADD PUSH1 0x20 DUP1 SWAP2 DIV MUL PUSH1 0x20 ADD PUSH1 0x40 MLOAD SWAP1 DUP2 ADD PUSH1 0x40 MSTORE DUP1 SWAP3 SWAP2 SWAP1 DUP2 DUP2 MSTORE PUSH1 0x20 ADD DUP3 DUP1 SLOAD PUSH2 0xD45 SWAP1 PUSH2 0x205D JUMP JUMPDEST DUP1 ISZERO PUSH2 0xD90 JUMPI DUP1 PUSH1 0x1F LT PUSH2 0xD67 JUMPI PUSH2 0x100 DUP1 DUP4 SLOAD DIV MUL DUP4 MSTORE SWAP2 PUSH1 0x20 ADD SWAP2 PUSH2 0xD90 JUMP JUMPDEST DUP3 ADD SWAP2 SWAP1 PUSH0 MSTORE PUSH1 0x20 PUSH0 KECCAK256 SWAP1 JUMPDEST DUP2 SLOAD DUP2 MSTORE SWAP1 PUSH1 0x1 ADD SWAP1 PUSH1 0x20 ADD DUP1 DUP4 GT PUSH2 0xD73 JUMPI DUP3 SWAP1 SUB PUSH1 0x1F AND DUP3 ADD SWAP2 JUMPDEST POP POP POP POP POP SWAP1 DUP1 PUSH1 0x4 ADD SLOAD SWAP1 POP DUP5 JUMP JUMPDEST PUSH0 PUSH1 0x2 PUSH0 SWAP1 SLOAD SWAP1 PUSH2 0x100 EXP SWAP1 DIV PUSH20 0xFFFFFFFFFFFFFFFFFFFFFFFFFFFFFFFFFFFFFFFF AND PUSH20 0xFFFFFFFFFFFFFFFFFFFFFFFFFFFFFFFFFFFFFFFF AND PUSH4 0x26567EEC CALLER PUSH1 0x40 MLOAD DUP3 PUSH4 0xFFFFFFFF AND PUSH1 0xE0 SHL DUP2 MSTORE PUSH1 0x4 ADD PUSH2 0xDFB SWAP2 SWAP1 PUSH2 0x1E7B JUMP JUMPDEST PUSH1 0x20 PUSH1 0x40 MLOAD DUP1 DUP4 SUB DUP2 DUP7 GAS STATICCALL ISZERO DUP1 ISZERO PUSH2 0xE16 JUMPI RETURNDATASIZE PUSH0 PUSH0 RETURNDATACOPY RETURNDATASIZE PUSH0 REVERT JUMPDEST POP POP POP POP PUSH1 0x40 MLOAD RETURNDATASIZE PUSH1 0x1F NOT PUSH1 0x1F DUP3 ADD AND DUP3 ADD DUP1 PUSH1 0x40 MSTORE POP DUP2 ADD SWAP1 PUSH2 0xE3A SWAP2 SWAP1 PUSH2 0x1EA8 JUMP JUMPDEST SWAP1 POP PUSH2 0xE45 DUP3 PUSH2 0x15E0 JUMP JUMPDEST PUSH2 0xE84 JUMPI PUSH1 0x40 MLOAD PUSH32 0x8C379A000000000000000000000000000000000000000000000000000000000 DUP2 MSTORE PUSH1 0x4 ADD PUSH2 0xE7B SWAP1 PUSH2 0x2433 JUMP JUMPDEST PUSH1 0x40 MLOAD DUP1 SWAP2 SUB SWAP1 REVERT JUMPDEST PUSH1 0x5 PUSH0 DUP4 DUP2 MSTORE PUSH1 0x20 ADD SWAP1 DUP2 MSTORE PUSH1 0x20 ADD PUSH0 KECCAK256 PUSH0 DUP3 DUP2 MSTORE PUSH1 0x20 ADD SWAP1 DUP2 MSTORE PUSH1 0x20 ADD PUSH0 KECCAK256 PUSH0 SWAP1 SLOAD SWAP1 PUSH2 0x100 EXP SWAP1 DIV PUSH1 0xFF AND ISZERO PUSH2 0xF18 JUMPI PUSH0 PUSH1 0x5 PUSH0 DUP5 DUP2 MSTORE PUSH1 0x20 ADD SWAP1 DUP2 MSTORE PUSH1 0x20 ADD PUSH0 KECCAK256 PUSH0 DUP4 DUP2 MSTORE PUSH1 0x20 ADD SWAP1 DUP2 MSTORE PUSH1 0x20 ADD PUSH0 KECCAK256 PUSH0 PUSH2 0x100 EXP DUP2 SLOAD DUP2 PUSH1 0xFF MUL NOT AND SWAP1 DUP4 ISZERO ISZERO MUL OR SWAP1 SSTORE POP PUSH1 0x6 PUSH0 DUP4 DUP2 MSTORE PUSH1 0x20 ADD SWAP1 DUP2 MSTORE PUSH1 0x20 ADD PUSH0 KECCAK256 PUSH0 DUP2 SLOAD DUP1 SWAP3 SWAP2 SWAP1 PUSH2 0xF0E SWAP1 PUSH2 0x2451 JUMP JUMPDEST SWAP2 SWAP1 POP SSTORE POP PUSH2 0xF77 JUMP JUMPDEST PUSH1 0x1 PUSH1 0x5 PUSH0 DUP5 DUP2 MSTORE PUSH1 0x20 ADD SWAP1 DUP2 MSTORE PUSH1 0x20 ADD PUSH0 KECCAK256 PUSH0 DUP4 DUP2 MSTORE PUSH1 0x20 ADD SWAP1 DUP2 MSTORE PUSH1 0x20 ADD PUSH0 KECCAK256 PUSH0 PUSH2 0x100 EXP DUP2 SLOAD DUP2 PUSH1 0xFF MUL NOT AND SWAP1 DUP4 ISZERO ISZERO MUL OR SWAP1 SSTORE POP PUSH1 0x6 PUSH0 DUP4 DUP2 MSTORE PUSH1 0x20 ADD SWAP1 DUP2 MSTORE PUSH1 0x20 ADD PUSH0 KECCAK256 PUSH0 DUP2 SLOAD DUP1 SWAP3 SWAP2 SWAP1 PUSH2 0xF71 SWAP1 PUSH2 0x2478 JUMP JUMPDEST SWAP2 SWAP1 POP SSTORE POP JUMPDEST POP POP JUMP JUMPDEST PUSH0 PUSH1 0x2 PUSH0 SWAP1 SLOAD SWAP1 PUSH2 0x100 EXP SWAP1 DIV PUSH20 0xFFFFFFFFFFFFFFFFFFFFFFFFFFFFFFFFFFFFFFFF AND PUSH20 0xFFFFFFFFFFFFFFFFFFFFFFFFFFFFFFFFFFFFFFFF AND PUSH4 0x26567EEC CALLER PUSH1 0x40 MLOAD DUP3 PUSH4 0xFFFFFFFF AND PUSH1 0xE0 SHL DUP2 MSTORE PUSH1 0x4 ADD PUSH2 0xFD6 SWAP2 SWAP1 PUSH2 0x1E7B JUMP JUMPDEST PUSH1 0x20 PUSH1 0x40 MLOAD DUP1 DUP4 SUB DUP2 DUP7 GAS STATICCALL ISZERO DUP1 ISZERO PUSH2 0xFF1 JUMPI RETURNDATASIZE PUSH0 PUSH0 RETURNDATACOPY RETURNDATASIZE PUSH0 REVERT JUMPDEST POP POP POP POP PUSH1 0x40 MLOAD RETURNDATASIZE PUSH1 0x1F NOT PUSH1 0x1F DUP3 ADD AND DUP3 ADD DUP1 PUSH1 0x40 MSTORE POP DUP2 ADD SWAP1 PUSH2 0x1015 SWAP2 SWAP1 PUSH2 0x1EA8 JUMP JUMPDEST SWAP1 POP PUSH0 PUSH0 DUP2 SLOAD DUP1 SWAP3 SWAP2 SWAP1 PUSH2 0x1028 SWAP1 PUSH2 0x2478 JUMP JUMPDEST SWAP2 SWAP1 POP SSTORE POP PUSH0 PUSH0 SLOAD SWAP1 POP PUSH1 0x7 PUSH1 0x1 DUP2 PUSH1 0x1 DUP2 SLOAD ADD DUP1 DUP3 SSTORE DUP1 SWAP2 POP POP SUB SWAP1 PUSH0 MSTORE PUSH1 0x20 PUSH0 KECCAK256 SWAP1 POP POP PUSH0 PUSH1 0x1 PUSH1 0x7 DUP1 SLOAD SWAP1 POP PUSH2 0x1061 SWAP2 SWAP1 PUSH2 0x1FD0 JUMP JUMPDEST SWAP1 POP PUSH0 PUSH1 0x7 DUP3 DUP2 SLOAD DUP2 LT PUSH2 0x1078 JUMPI PUSH2 0x1077 PUSH2 0x2003 JUMP JUMPDEST JUMPDEST SWAP1 PUSH0 MSTORE PUSH1 0x20 PUSH0 KECCAK256 SWAP1 PUSH1 0x5 MUL ADD SWAP1 POP DUP4 DUP2 PUSH0 ADD DUP2 SWAP1 SSTORE POP DUP3 DUP2 PUSH1 0x1 ADD DUP2 SWAP1 SSTORE POP DUP6 DUP6 DUP3 PUSH1 0x2 ADD SWAP2 DUP3 PUSH2 0x10AA SWAP3 SWAP2 SWAP1 PUSH2 0x24C9 JUMP JUMPDEST POP TIMESTAMP DUP2 PUSH1 0x4 ADD DUP2 SWAP1 SSTORE POP PUSH1 0x3 PUSH0 DUP6 DUP2 MSTORE PUSH1 0x20 ADD SWAP1 DUP2 MSTORE PUSH1 0x20 ADD PUSH0 KECCAK256 DUP3 SWAP1 DUP1 PUSH1 0x1 DUP2 SLOAD ADD DUP1 DUP3 SSTORE DUP1 SWAP2 POP POP PUSH1 0x1 SWAP1 SUB SWAP1 PUSH0 MSTORE PUSH1 0x20 PUSH0 KECCAK256 ADD PUSH0 SWAP1 SWAP2 SWAP1 SWAP2 SWAP1 SWAP2 POP SSTORE PUSH1 0x40 MLOAD DUP1 PUSH1 0x40 ADD PUSH1 0x40 MSTORE DUP1 DUP6 DUP2 MSTORE PUSH1 0x20 ADD DUP4 DUP2 MSTORE POP PUSH1 0x4 PUSH0 DUP6 DUP2 MSTORE PUSH1 0x20 ADD SWAP1 DUP2 MSTORE PUSH1 0x20 ADD PUSH0 KECCAK256 PUSH0 DUP3 ADD MLOAD DUP2 PUSH0 ADD SSTORE PUSH1 0x20 DUP3 ADD MLOAD DUP2 PUSH1 0x1 ADD SSTORE SWAP1 POP POP PUSH32 0x9D8BA7605D631183923C2B8E95CD748A3F7BAD1C3CAB55DF446FEA93C84980EF DUP4 DUP6 DUP9 DUP9 TIMESTAMP PUSH1 0x40 MLOAD PUSH2 0x115B SWAP6 SWAP5 SWAP4 SWAP3 SWAP2 SWAP1 PUSH2 0x25D0 JUMP JUMPDEST PUSH1 0x40 MLOAD DUP1 SWAP2 SUB SWAP1 LOG1 POP POP POP POP POP POP JUMP JUMPDEST PUSH0 PUSH1 0x2 PUSH0 SWAP1 SLOAD SWAP1 PUSH2 0x100 EXP SWAP1 DIV PUSH20 0xFFFFFFFFFFFFFFFFFFFFFFFFFFFFFFFFFFFFFFFF AND PUSH20 0xFFFFFFFFFFFFFFFFFFFFFFFFFFFFFFFFFFFFFFFF AND PUSH4 0x26567EEC CALLER PUSH1 0x40 MLOAD DUP3 PUSH4 0xFFFFFFFF AND PUSH1 0xE0 SHL DUP2 MSTORE PUSH1 0x4 ADD PUSH2 0x11C6 SWAP2 SWAP1 PUSH2 0x1E7B JUMP JUMPDEST PUSH1 0x20 PUSH1 0x40 MLOAD DUP1 DUP4 SUB DUP2 DUP7 GAS STATICCALL ISZERO DUP1 ISZERO PUSH2 0x11E1 JUMPI RETURNDATASIZE PUSH0 PUSH0 RETURNDATACOPY RETURNDATASIZE PUSH0 REVERT JUMPDEST POP POP POP POP PUSH1 0x40 MLOAD RETURNDATASIZE PUSH1 0x1F NOT PUSH1 0x1F DUP3 ADD AND DUP3 ADD DUP1 PUSH1 0x40 MSTORE POP DUP2 ADD SWAP1 PUSH2 0x1205 SWAP2 SWAP1 PUSH2 0x1EA8 JUMP JUMPDEST SWAP1 POP PUSH2 0x1210 DUP3 PUSH2 0x15E0 JUMP JUMPDEST PUSH2 0x124F JUMPI PUSH1 0x40 MLOAD PUSH32 0x8C379A000000000000000000000000000000000000000000000000000000000 DUP2 MSTORE PUSH1 0x4 ADD PUSH2 0x1246 SWAP1 PUSH2 0x1F1D JUMP JUMPDEST PUSH1 0x40 MLOAD DUP1 SWAP2 SUB SWAP1 REVERT JUMPDEST PUSH0 PUSH1 0x4 PUSH0 DUP5 DUP2 MSTORE PUSH1 0x20 ADD SWAP1 DUP2 MSTORE PUSH1 0x20 ADD PUSH0 KECCAK256 PUSH1 0x40 MLOAD DUP1 PUSH1 0x40 ADD PUSH1 0x40 MSTORE SWAP1 DUP2 PUSH0 DUP3 ADD SLOAD DUP2 MSTORE PUSH1 0x20 ADD PUSH1 0x1 DUP3 ADD SLOAD DUP2 MSTORE POP POP SWAP1 POP PUSH0 DUP2 PUSH1 0x20 ADD MLOAD SWAP1 POP PUSH0 PUSH1 0x40 MLOAD DUP1 PUSH1 0xA0 ADD PUSH1 0x40 MSTORE DUP1 PUSH1 0x1 PUSH0 DUP2 SLOAD PUSH2 0x12A3 SWAP1 PUSH2 0x2478 JUMP JUMPDEST SWAP2 SWAP1 POP DUP2 SWAP1 SSTORE DUP2 MSTORE PUSH1 0x20 ADD DUP7 DUP2 MSTORE PUSH1 0x20 ADD DUP6 DUP2 MSTORE PUSH1 0x20 ADD DUP9 DUP9 DUP1 DUP1 PUSH1 0x1F ADD PUSH1 0x20 DUP1 SWAP2 DIV MUL PUSH1 0x20 ADD PUSH1 0x40 MLOAD SWAP1 DUP2 ADD PUSH1 0x40 MSTORE DUP1 SWAP4 SWAP3 SWAP2 SWAP1 DUP2 DUP2 MSTORE PUSH1 0x20 ADD DUP4 DUP4 DUP1 DUP3 DUP5 CALLDATACOPY PUSH0 DUP2 DUP5 ADD MSTORE PUSH1 0x1F NOT PUSH1 0x1F DUP3 ADD AND SWAP1 POP DUP1 DUP4 ADD SWAP3 POP POP POP POP POP POP POP DUP2 MSTORE PUSH1 0x20 ADD TIMESTAMP DUP2 MSTORE POP SWAP1 POP PUSH1 0x7 DUP3 DUP2 SLOAD DUP2 LT PUSH2 0x131D JUMPI PUSH2 0x131C PUSH2 0x2003 JUMP JUMPDEST JUMPDEST SWAP1 PUSH0 MSTORE PUSH1 0x20 PUSH0 KECCAK256 SWAP1 PUSH1 0x5 MUL ADD PUSH1 0x3 ADD DUP2 SWAP1 DUP1 PUSH1 0x1 DUP2 SLOAD ADD DUP1 DUP3 SSTORE DUP1 SWAP2 POP POP PUSH1 0x1 SWAP1 SUB SWAP1 PUSH0 MSTORE PUSH1 0x20 PUSH0 KECCAK256 SWAP1 PUSH1 0x5 MUL ADD PUSH0 SWAP1 SWAP2 SWAP1 SWAP2 SWAP1 SWAP2 POP PUSH0 DUP3 ADD MLOAD DUP2 PUSH0 ADD SSTORE PUSH1 0x20 DUP3 ADD MLOAD DUP2 PUSH1 0x1 ADD SSTORE PUSH1 0x40 DUP3 ADD MLOAD DUP2 PUSH1 0x2 ADD SSTORE PUSH1 0x60 DUP3 ADD MLOAD DUP2 PUSH1 0x3 ADD SWAP1 DUP2 PUSH2 0x1384 SWAP2 SWAP1 PUSH2 0x261C JUMP JUMPDEST POP PUSH1 0x80 DUP3 ADD MLOAD DUP2 PUSH1 0x4 ADD SSTORE POP POP POP POP POP POP POP POP POP JUMP JUMPDEST PUSH0 PUSH2 0x13A4 DUP3 PUSH2 0x15E0 JUMP JUMPDEST PUSH2 0x13E3 JUMPI PUSH1 0x40 MLOAD PUSH32 0x8C379A000000000000000000000000000000000000000000000000000000000 DUP2 MSTORE PUSH1 0x4 ADD PUSH2 0x13DA SWAP1 PUSH2 0x2433 JUMP JUMPDEST PUSH1 0x40 MLOAD DUP1 SWAP2 SUB SWAP1 REVERT JUMPDEST PUSH1 0x6 PUSH0 DUP4 DUP2 MSTORE PUSH1 0x20 ADD SWAP1 DUP2 MSTORE PUSH1 0x20 ADD PUSH0 KECCAK256 SLOAD SWAP1 POP SWAP2 SWAP1 POP JUMP JUMPDEST PUSH1 0x3 PUSH1 0x20 MSTORE DUP2 PUSH0 MSTORE PUSH1 0x40 PUSH0 KECCAK256 DUP2 DUP2 SLOAD DUP2 LT PUSH2 0x1415 JUMPI PUSH0 DUP1 REVERT JUMPDEST SWAP1 PUSH0 MSTORE PUSH1 0x20 PUSH0 KECCAK256 ADD PUSH0 SWAP2 POP SWAP2 POP POP SLOAD DUP2 JUMP JUMPDEST PUSH0 PUSH1 0x2 PUSH0 SWAP1 SLOAD SWAP1 PUSH2 0x100 EXP SWAP1 DIV PUSH20 0xFFFFFFFFFFFFFFFFFFFFFFFFFFFFFFFFFFFFFFFF AND PUSH20 0xFFFFFFFFFFFFFFFFFFFFFFFFFFFFFFFFFFFFFFFF AND PUSH4 0x26567EEC CALLER PUSH1 0x40 MLOAD DUP3 PUSH4 0xFFFFFFFF AND PUSH1 0xE0 SHL DUP2 MSTORE PUSH1 0x4 ADD PUSH2 0x1482 SWAP2 SWAP1 PUSH2 0x1E7B JUMP JUMPDEST PUSH1 0x20 PUSH1 0x40 MLOAD DUP1 DUP4 SUB DUP2 DUP7 GAS STATICCALL ISZERO DUP1 ISZERO PUSH2 0x149D JUMPI RETURNDATASIZE PUSH0 PUSH0 RETURNDATACOPY RETURNDATASIZE PUSH0 REVERT JUMPDEST POP POP POP POP PUSH1 0x40 MLOAD RETURNDATASIZE PUSH1 0x1F NOT PUSH1 0x1F DUP3 ADD AND DUP3 ADD DUP1 PUSH1 0x40 MSTORE POP DUP2 ADD SWAP1 PUSH2 0x14C1 SWAP2 SWAP1 PUSH2 0x1EA8 JUMP JUMPDEST SWAP1 POP PUSH2 0x14CC DUP5 PUSH2 0x15E0 JUMP JUMPDEST PUSH2 0x150B JUMPI PUSH1 0x40 MLOAD PUSH32 0x8C379A000000000000000000000000000000000000000000000000000000000 DUP2 MSTORE PUSH1 0x4 ADD PUSH2 0x1502 SWAP1 PUSH2 0x2433 JUMP JUMPDEST PUSH1 0x40 MLOAD DUP1 SWAP2 SUB SWAP1 REVERT JUMPDEST PUSH0 PUSH1 0x4 PUSH0 DUP7 DUP2 MSTORE PUSH1 0x20 ADD SWAP1 DUP2 MSTORE PUSH1 0x20 ADD PUSH0 KECCAK256 PUSH1 0x40 MLOAD DUP1 PUSH1 0x40 ADD PUSH1 0x40 MSTORE SWAP1 DUP2 PUSH0 DUP3 ADD SLOAD DUP2 MSTORE PUSH1 0x20 ADD PUSH1 0x1 DUP3 ADD SLOAD DUP2 MSTORE POP POP SWAP1 POP DUP2 DUP2 PUSH0 ADD MLOAD EQ PUSH2 0x1582 JUMPI PUSH1 0x40 MLOAD PUSH32 0x8C379A000000000000000000000000000000000000000000000000000000000 DUP2 MSTORE PUSH1 0x4 ADD PUSH2 0x1579 SWAP1 PUSH2 0x2735 JUMP JUMPDEST PUSH1 0x40 MLOAD DUP1 SWAP2 SUB SWAP1 REVERT JUMPDEST DUP4 DUP4 PUSH1 0x7 DUP4 PUSH1 0x20 ADD MLOAD DUP2 SLOAD DUP2 LT PUSH2 0x159C JUMPI PUSH2 0x159B PUSH2 0x2003 JUMP JUMPDEST JUMPDEST SWAP1 PUSH0 MSTORE PUSH1 0x20 PUSH0 KECCAK256 SWAP1 PUSH1 0x5 MUL ADD PUSH1 0x2 ADD SWAP2 DUP3 PUSH2 0x15B8 SWAP3 SWAP2 SWAP1 PUSH2 0x24C9 JUMP JUMPDEST POP POP POP POP POP POP JUMP JUMPDEST PUSH1 0x4 PUSH1 0x20 MSTORE DUP1 PUSH0 MSTORE PUSH1 0x40 PUSH0 KECCAK256 PUSH0 SWAP2 POP SWAP1 POP DUP1 PUSH0 ADD SLOAD SWAP1 DUP1 PUSH1 0x1 ADD SLOAD SWAP1 POP DUP3 JUMP JUMPDEST PUSH0 PUSH0 PUSH1 0x4 PUSH0 DUP5 DUP2 MSTORE PUSH1 0x20 ADD SWAP1 DUP2 MSTORE PUSH1 0x20 ADD PUSH0 KECCAK256 PUSH0 ADD SLOAD EQ PUSH2 0x1604 JUMPI PUSH1 0x1 SWAP1 POP PUSH2 0x1608 JUMP JUMPDEST PUSH0 SWAP1 POP JUMPDEST SWAP2 SWAP1 POP JUMP JUMPDEST DUP3 DUP1 SLOAD DUP3 DUP3 SSTORE SWAP1 PUSH0 MSTORE PUSH1 0x20 PUSH0 KECCAK256 SWAP1 PUSH1 0x5 MUL DUP2 ADD SWAP3 DUP3 ISZERO PUSH2 0x168B JUMPI PUSH0 MSTORE PUSH1 0x20 PUSH0 KECCAK256 SWAP2 PUSH1 0x5 MUL DUP3 ADD JUMPDEST DUP3 DUP2 GT ISZERO PUSH2 0x168A JUMPI DUP3 DUP3 PUSH0 DUP3 ADD SLOAD DUP2 PUSH0 ADD SSTORE PUSH1 0x1 DUP3 ADD SLOAD DUP2 PUSH1 0x1 ADD SSTORE PUSH1 0x2 DUP3 ADD SLOAD DUP2 PUSH1 0x2 ADD SSTORE PUSH1 0x3 DUP3 ADD DUP2 PUSH1 0x3 ADD SWAP1 DUP2 PUSH2 0x166E SWAP2 SWAP1 PUSH2 0x226F JUMP JUMPDEST POP PUSH1 0x4 DUP3 ADD SLOAD DUP2 PUSH1 0x4 ADD SSTORE POP POP SWAP2 PUSH1 0x5 ADD SWAP2 SWAP1 PUSH1 0x5 ADD SWAP1 PUSH2 0x1634 JUMP JUMPDEST JUMPDEST POP SWAP1 POP PUSH2 0x1698 SWAP2 SWAP1 PUSH2 0x1726 JUMP JUMPDEST POP SWAP1 JUMP JUMPDEST POP DUP1 SLOAD PUSH2 0x16A8 SWAP1 PUSH2 0x205D JUMP JUMPDEST PUSH0 DUP3 SSTORE DUP1 PUSH1 0x1F LT PUSH2 0x16B9 JUMPI POP PUSH2 0x16D6 JUMP JUMPDEST PUSH1 0x1F ADD PUSH1 0x20 SWAP1 DIV SWAP1 PUSH0 MSTORE PUSH1 0x20 PUSH0 KECCAK256 SWAP1 DUP2 ADD SWAP1 PUSH2 0x16D5 SWAP2 SWAP1 PUSH2 0x1767 JUMP JUMPDEST JUMPDEST POP JUMP JUMPDEST POP DUP1 SLOAD PUSH0 DUP3 SSTORE PUSH1 0x5 MUL SWAP1 PUSH0 MSTORE PUSH1 0x20 PUSH0 KECCAK256 SWAP1 DUP2 ADD SWAP1 PUSH2 0x16F7 SWAP2 SWAP1 PUSH2 0x1726 JUMP JUMPDEST POP JUMP JUMPDEST PUSH1 0x40 MLOAD DUP1 PUSH1 0xA0 ADD PUSH1 0x40 MSTORE DUP1 PUSH0 DUP2 MSTORE PUSH1 0x20 ADD PUSH0 DUP2 MSTORE PUSH1 0x20 ADD PUSH1 0x60 DUP2 MSTORE PUSH1 0x20 ADD PUSH1 0x60 DUP2 MSTORE PUSH1 0x20 ADD PUSH0 DUP2 MSTORE POP SWAP1 JUMP JUMPDEST JUMPDEST DUP1 DUP3 GT ISZERO PUSH2 0x1763 JUMPI PUSH0 PUSH0 DUP3 ADD PUSH0 SWAP1 SSTORE PUSH1 0x1 DUP3 ADD PUSH0 SWAP1 SSTORE PUSH1 0x2 DUP3 ADD PUSH0 SWAP1 SSTORE PUSH1 0x3 DUP3 ADD PUSH0 PUSH2 0x1753 SWAP2 SWAP1 PUSH2 0x169C JUMP JUMPDEST PUSH1 0x4 DUP3 ADD PUSH0 SWAP1 SSTORE POP PUSH1 0x5 ADD PUSH2 0x1727 JUMP JUMPDEST POP SWAP1 JUMP JUMPDEST JUMPDEST DUP1 DUP3 GT ISZERO PUSH2 0x177E JUMPI PUSH0 DUP2 PUSH0 SWAP1 SSTORE POP PUSH1 0x1 ADD PUSH2 0x1768 JUMP JUMPDEST POP SWAP1 JUMP JUMPDEST PUSH0 PUSH0 REVERT JUMPDEST PUSH0 PUSH0 REVERT JUMPDEST PUSH0 DUP2 SWAP1 POP SWAP2 SWAP1 POP JUMP JUMPDEST PUSH2 0x179C DUP2 PUSH2 0x178A JUMP JUMPDEST DUP2 EQ PUSH2 0x17A6 JUMPI PUSH0 PUSH0 REVERT JUMPDEST POP JUMP JUMPDEST PUSH0 DUP2 CALLDATALOAD SWAP1 POP PUSH2 0x17B7 DUP2 PUSH2 0x1793 JUMP JUMPDEST SWAP3 SWAP2 POP POP JUMP JUMPDEST PUSH0 PUSH1 0x20 DUP3 DUP5 SUB SLT ISZERO PUSH2 0x17D2 JUMPI PUSH2 0x17D1 PUSH2 0x1782 JUMP JUMPDEST JUMPDEST PUSH0 PUSH2 0x17DF DUP5 DUP3 DUP6 ADD PUSH2 0x17A9 JUMP JUMPDEST SWAP2 POP POP SWAP3 SWAP2 POP POP JUMP JUMPDEST PUSH0 DUP2 MLOAD SWAP1 POP SWAP2 SWAP1 POP JUMP JUMPDEST PUSH0 DUP3 DUP3 MSTORE PUSH1 0x20 DUP3 ADD SWAP1 POP SWAP3 SWAP2 POP POP JUMP JUMPDEST PUSH0 DUP2 SWAP1 POP PUSH1 0x20 DUP3 ADD SWAP1 POP SWAP2 SWAP1 POP JUMP JUMPDEST PUSH2 0x181A DUP2 PUSH2 0x178A JUMP JUMPDEST DUP3 MSTORE POP POP JUMP JUMPDEST PUSH0 DUP2 MLOAD SWAP1 POP SWAP2 SWAP1 POP JUMP JUMPDEST PUSH0 DUP3 DUP3 MSTORE PUSH1 0x20 DUP3 ADD SWAP1 POP SWAP3 SWAP2 POP POP JUMP JUMPDEST DUP3 DUP2 DUP4 MCOPY PUSH0 DUP4 DUP4 ADD MSTORE POP POP POP JUMP JUMPDEST PUSH0 PUSH1 0x1F NOT PUSH1 0x1F DUP4 ADD AND SWAP1 POP SWAP2 SWAP1 POP JUMP JUMPDEST PUSH0 PUSH2 0x1862 DUP3 PUSH2 0x1820 JUMP JUMPDEST PUSH2 0x186C DUP2 DUP6 PUSH2 0x182A JUMP JUMPDEST SWAP4 POP PUSH2 0x187C DUP2 DUP6 PUSH1 0x20 DUP7 ADD PUSH2 0x183A JUMP JUMPDEST PUSH2 0x1885 DUP2 PUSH2 0x1848 JUMP JUMPDEST DUP5 ADD SWAP2 POP POP SWAP3 SWAP2 POP POP JUMP JUMPDEST PUSH0 DUP2 MLOAD SWAP1 POP SWAP2 SWAP1 POP JUMP JUMPDEST PUSH0 DUP3 DUP3 MSTORE PUSH1 0x20 DUP3 ADD SWAP1 POP SWAP3 SWAP2 POP POP JUMP JUMPDEST PUSH0 DUP2 SWAP1 POP PUSH1 0x20 DUP3 ADD SWAP1 POP SWAP2 SWAP1 POP JUMP JUMPDEST PUSH0 PUSH1 0xA0 DUP4 ADD PUSH0 DUP4 ADD MLOAD PUSH2 0x18CE PUSH0 DUP7 ADD DUP3 PUSH2 0x1811 JUMP JUMPDEST POP PUSH1 0x20 DUP4 ADD MLOAD PUSH2 0x18E1 PUSH1 0x20 DUP7 ADD DUP3 PUSH2 0x1811 JUMP JUMPDEST POP PUSH1 0x40 DUP4 ADD MLOAD PUSH2 0x18F4 PUSH1 0x40 DUP7 ADD DUP3 PUSH2 0x1811 JUMP JUMPDEST POP PUSH1 0x60 DUP4 ADD MLOAD DUP5 DUP3 SUB PUSH1 0x60 DUP7 ADD MSTORE PUSH2 0x190C DUP3 DUP3 PUSH2 0x1858 JUMP JUMPDEST SWAP2 POP POP PUSH1 0x80 DUP4 ADD MLOAD PUSH2 0x1921 PUSH1 0x80 DUP7 ADD DUP3 PUSH2 0x1811 JUMP JUMPDEST POP DUP1 SWAP2 POP POP SWAP3 SWAP2 POP POP JUMP JUMPDEST PUSH0 PUSH2 0x1937 DUP4 DUP4 PUSH2 0x18B9 JUMP JUMPDEST SWAP1 POP SWAP3 SWAP2 POP POP JUMP JUMPDEST PUSH0 PUSH1 0x20 DUP3 ADD SWAP1 POP SWAP2 SWAP1 POP JUMP JUMPDEST PUSH0 PUSH2 0x1955 DUP3 PUSH2 0x1890 JUMP JUMPDEST PUSH2 0x195F DUP2 DUP6 PUSH2 0x189A JUMP JUMPDEST SWAP4 POP DUP4 PUSH1 0x20 DUP3 MUL DUP6 ADD PUSH2 0x1971 DUP6 PUSH2 0x18AA JUMP JUMPDEST DUP1 PUSH0 JUMPDEST DUP6 DUP2 LT ISZERO PUSH2 0x19AC JUMPI DUP5 DUP5 SUB DUP10 MSTORE DUP2 MLOAD PUSH2 0x198D DUP6 DUP3 PUSH2 0x192C JUMP JUMPDEST SWAP5 POP PUSH2 0x1998 DUP4 PUSH2 0x193F JUMP JUMPDEST SWAP3 POP PUSH1 0x20 DUP11 ADD SWAP10 POP POP PUSH1 0x1 DUP2 ADD SWAP1 POP PUSH2 0x1974 JUMP JUMPDEST POP DUP3 SWAP8 POP DUP8 SWAP6 POP POP POP POP POP POP SWAP3 SWAP2 POP POP JUMP JUMPDEST PUSH0 PUSH1 0xA0 DUP4 ADD PUSH0 DUP4 ADD MLOAD PUSH2 0x19D3 PUSH0 DUP7 ADD DUP3 PUSH2 0x1811 JUMP JUMPDEST POP PUSH1 0x20 DUP4 ADD MLOAD PUSH2 0x19E6 PUSH1 0x20 DUP7 ADD DUP3 PUSH2 0x1811 JUMP JUMPDEST POP PUSH1 0x40 DUP4 ADD MLOAD DUP5 DUP3 SUB PUSH1 0x40 DUP7 ADD MSTORE PUSH2 0x19FE DUP3 DUP3 PUSH2 0x1858 JUMP JUMPDEST SWAP2 POP POP PUSH1 0x60 DUP4 ADD MLOAD DUP5 DUP3 SUB PUSH1 0x60 DUP7 ADD MSTORE PUSH2 0x1A18 DUP3 DUP3 PUSH2 0x194B JUMP JUMPDEST SWAP2 POP POP PUSH1 0x80 DUP4 ADD MLOAD PUSH2 0x1A2D PUSH1 0x80 DUP7 ADD DUP3 PUSH2 0x1811 JUMP JUMPDEST POP DUP1 SWAP2 POP POP SWAP3 SWAP2 POP POP JUMP JUMPDEST PUSH0 PUSH2 0x1A43 DUP4 DUP4 PUSH2 0x19BE JUMP JUMPDEST SWAP1 POP SWAP3 SWAP2 POP POP JUMP JUMPDEST PUSH0 PUSH1 0x20 DUP3 ADD SWAP1 POP SWAP2 SWAP1 POP JUMP JUMPDEST PUSH0 PUSH2 0x1A61 DUP3 PUSH2 0x17E8 JUMP JUMPDEST PUSH2 0x1A6B DUP2 DUP6 PUSH2 0x17F2 JUMP JUMPDEST SWAP4 POP DUP4 PUSH1 0x20 DUP3 MUL DUP6 ADD PUSH2 0x1A7D DUP6 PUSH2 0x1802 JUMP JUMPDEST DUP1 PUSH0 JUMPDEST DUP6 DUP2 LT ISZERO PUSH2 0x1AB8 JUMPI DUP5 DUP5 SUB DUP10 MSTORE DUP2 MLOAD PUSH2 0x1A99 DUP6 DUP3 PUSH2 0x1A38 JUMP JUMPDEST SWAP5 POP PUSH2 0x1AA4 DUP4 PUSH2 0x1A4B JUMP JUMPDEST SWAP3 POP PUSH1 0x20 DUP11 ADD SWAP10 POP POP PUSH1 0x1 DUP2 ADD SWAP1 POP PUSH2 0x1A80 JUMP JUMPDEST POP DUP3 SWAP8 POP DUP8 SWAP6 POP POP POP POP POP POP SWAP3 SWAP2 POP POP JUMP JUMPDEST PUSH0 PUSH1 0x20 DUP3 ADD SWAP1 POP DUP2 DUP2 SUB PUSH0 DUP4 ADD MSTORE PUSH2 0x1AE2 DUP2 DUP5 PUSH2 0x1A57 JUMP JUMPDEST SWAP1 POP SWAP3 SWAP2 POP POP JUMP JUMPDEST PUSH0 PUSH1 0xA0 DUP4 ADD PUSH0 DUP4 ADD MLOAD PUSH2 0x1AFF PUSH0 DUP7 ADD DUP3 PUSH2 0x1811 JUMP JUMPDEST POP PUSH1 0x20 DUP4 ADD MLOAD PUSH2 0x1B12 PUSH1 0x20 DUP7 ADD DUP3 PUSH2 0x1811 JUMP JUMPDEST POP PUSH1 0x40 DUP4 ADD MLOAD DUP5 DUP3 SUB PUSH1 0x40 DUP7 ADD MSTORE PUSH2 0x1B2A DUP3 DUP3 PUSH2 0x1858 JUMP JUMPDEST SWAP2 POP POP PUSH1 0x60 DUP4 ADD MLOAD DUP5 DUP3 SUB PUSH1 0x60 DUP7 ADD MSTORE PUSH2 0x1B44 DUP3 DUP3 PUSH2 0x194B JUMP JUMPDEST SWAP2 POP POP PUSH1 0x80 DUP4 ADD MLOAD PUSH2 0x1B59 PUSH1 0x80 DUP7 ADD DUP3 PUSH2 0x1811 JUMP JUMPDEST POP DUP1 SWAP2 POP POP SWAP3 SWAP2 POP POP JUMP JUMPDEST PUSH0 PUSH1 0x20 DUP3 ADD SWAP1 POP DUP2 DUP2 SUB PUSH0 DUP4 ADD MSTORE PUSH2 0x1B7C DUP2 DUP5 PUSH2 0x1AEA JUMP JUMPDEST SWAP1 POP SWAP3 SWAP2 POP POP JUMP JUMPDEST PUSH0 PUSH0 PUSH1 0x40 DUP4 DUP6 SUB SLT ISZERO PUSH2 0x1B9A JUMPI PUSH2 0x1B99 PUSH2 0x1782 JUMP JUMPDEST JUMPDEST PUSH0 PUSH2 0x1BA7 DUP6 DUP3 DUP7 ADD PUSH2 0x17A9 JUMP JUMPDEST SWAP3 POP POP PUSH1 0x20 PUSH2 0x1BB8 DUP6 DUP3 DUP7 ADD PUSH2 0x17A9 JUMP JUMPDEST SWAP2 POP POP SWAP3 POP SWAP3 SWAP1 POP JUMP JUMPDEST PUSH0 DUP2 ISZERO ISZERO SWAP1 POP SWAP2 SWAP1 POP JUMP JUMPDEST PUSH2 0x1BD6 DUP2 PUSH2 0x1BC2 JUMP JUMPDEST DUP3 MSTORE POP POP JUMP JUMPDEST PUSH0 PUSH1 0x20 DUP3 ADD SWAP1 POP PUSH2 0x1BEF PUSH0 DUP4 ADD DUP5 PUSH2 0x1BCD JUMP JUMPDEST SWAP3 SWAP2 POP POP JUMP JUMPDEST PUSH2 0x1BFE DUP2 PUSH2 0x178A JUMP JUMPDEST DUP3 MSTORE POP POP JUMP JUMPDEST PUSH0 DUP3 DUP3 MSTORE PUSH1 0x20 DUP3 ADD SWAP1 POP SWAP3 SWAP2 POP POP JUMP JUMPDEST PUSH0 PUSH2 0x1C1E DUP3 PUSH2 0x1820 JUMP JUMPDEST PUSH2 0x1C28 DUP2 DUP6 PUSH2 0x1C04 JUMP JUMPDEST SWAP4 POP PUSH2 0x1C38 DUP2 DUP6 PUSH1 0x20 DUP7 ADD PUSH2 0x183A JUMP JUMPDEST PUSH2 0x1C41 DUP2 PUSH2 0x1848 JUMP JUMPDEST DUP5 ADD SWAP2 POP POP SWAP3 SWAP2 POP POP JUMP JUMPDEST PUSH0 PUSH1 0x80 DUP3 ADD SWAP1 POP PUSH2 0x1C5F PUSH0 DUP4 ADD DUP8 PUSH2 0x1BF5 JUMP JUMPDEST PUSH2 0x1C6C PUSH1 0x20 DUP4 ADD DUP7 PUSH2 0x1BF5 JUMP JUMPDEST DUP2 DUP2 SUB PUSH1 0x40 DUP4 ADD MSTORE PUSH2 0x1C7E DUP2 DUP6 PUSH2 0x1C14 JUMP JUMPDEST SWAP1 POP PUSH2 0x1C8D PUSH1 0x60 DUP4 ADD DUP5 PUSH2 0x1BF5 JUMP JUMPDEST SWAP6 SWAP5 POP POP POP POP POP JUMP JUMPDEST PUSH0 PUSH0 REVERT JUMPDEST PUSH0 PUSH0 REVERT JUMPDEST PUSH0 PUSH0 REVERT JUMPDEST PUSH0 PUSH0 DUP4 PUSH1 0x1F DUP5 ADD SLT PUSH2 0x1CB7 JUMPI PUSH2 0x1CB6 PUSH2 0x1C96 JUMP JUMPDEST JUMPDEST DUP3 CALLDATALOAD SWAP1 POP PUSH8 0xFFFFFFFFFFFFFFFF DUP2 GT ISZERO PUSH2 0x1CD4 JUMPI PUSH2 0x1CD3 PUSH2 0x1C9A JUMP JUMPDEST JUMPDEST PUSH1 0x20 DUP4 ADD SWAP2 POP DUP4 PUSH1 0x1 DUP3 MUL DUP4 ADD GT ISZERO PUSH2 0x1CF0 JUMPI PUSH2 0x1CEF PUSH2 0x1C9E JUMP JUMPDEST JUMPDEST SWAP3 POP SWAP3 SWAP1 POP JUMP JUMPDEST PUSH0 PUSH0 PUSH1 0x20 DUP4 DUP6 SUB SLT ISZERO PUSH2 0x1D0D JUMPI PUSH2 0x1D0C PUSH2 0x1782 JUMP JUMPDEST JUMPDEST PUSH0 DUP4 ADD CALLDATALOAD PUSH8 0xFFFFFFFFFFFFFFFF DUP2 GT ISZERO PUSH2 0x1D2A JUMPI PUSH2 0x1D29 PUSH2 0x1786 JUMP JUMPDEST JUMPDEST PUSH2 0x1D36 DUP6 DUP3 DUP7 ADD PUSH2 0x1CA2 JUMP JUMPDEST SWAP3 POP SWAP3 POP POP SWAP3 POP SWAP3 SWAP1 POP JUMP JUMPDEST PUSH0 PUSH0 PUSH0 PUSH1 0x40 DUP5 DUP7 SUB SLT ISZERO PUSH2 0x1D59 JUMPI PUSH2 0x1D58 PUSH2 0x1782 JUMP JUMPDEST JUMPDEST PUSH0 DUP5 ADD CALLDATALOAD PUSH8 0xFFFFFFFFFFFFFFFF DUP2 GT ISZERO PUSH2 0x1D76 JUMPI PUSH2 0x1D75 PUSH2 0x1786 JUMP JUMPDEST JUMPDEST PUSH2 0x1D82 DUP7 DUP3 DUP8 ADD PUSH2 0x1CA2 JUMP JUMPDEST SWAP4 POP SWAP4 POP POP PUSH1 0x20 PUSH2 0x1D95 DUP7 DUP3 DUP8 ADD PUSH2 0x17A9 JUMP JUMPDEST SWAP2 POP POP SWAP3 POP SWAP3 POP SWAP3 JUMP JUMPDEST PUSH0 PUSH1 0x20 DUP3 ADD SWAP1 POP PUSH2 0x1DB2 PUSH0 DUP4 ADD DUP5 PUSH2 0x1BF5 JUMP JUMPDEST SWAP3 SWAP2 POP POP JUMP JUMPDEST PUSH0 PUSH0 PUSH0 PUSH1 0x40 DUP5 DUP7 SUB SLT ISZERO PUSH2 0x1DCF JUMPI PUSH2 0x1DCE PUSH2 0x1782 JUMP JUMPDEST JUMPDEST PUSH0 PUSH2 0x1DDC DUP7 DUP3 DUP8 ADD PUSH2 0x17A9 JUMP JUMPDEST SWAP4 POP POP PUSH1 0x20 DUP5 ADD CALLDATALOAD PUSH8 0xFFFFFFFFFFFFFFFF DUP2 GT ISZERO PUSH2 0x1DFD JUMPI PUSH2 0x1DFC PUSH2 0x1786 JUMP JUMPDEST JUMPDEST PUSH2 0x1E09 DUP7 DUP3 DUP8 ADD PUSH2 0x1CA2 JUMP JUMPDEST SWAP3 POP SWAP3 POP POP SWAP3 POP SWAP3 POP SWAP3 JUMP JUMPDEST PUSH0 PUSH1 0x40 DUP3 ADD SWAP1 POP PUSH2 0x1E28 PUSH0 DUP4 ADD DUP6 PUSH2 0x1BF5 JUMP JUMPDEST PUSH2 0x1E35 PUSH1 0x20 DUP4 ADD DUP5 PUSH2 0x1BF5 JUMP JUMPDEST SWAP4 SWAP3 POP POP POP JUMP JUMPDEST PUSH0 PUSH20 0xFFFFFFFFFFFFFFFFFFFFFFFFFFFFFFFFFFFFFFFF DUP3 AND SWAP1 POP SWAP2 SWAP1 POP JUMP JUMPDEST PUSH0 PUSH2 0x1E65 DUP3 PUSH2 0x1E3C JUMP JUMPDEST SWAP1 POP SWAP2 SWAP1 POP JUMP JUMPDEST PUSH2 0x1E75 DUP2 PUSH2 0x1E5B JUMP JUMPDEST DUP3 MSTORE POP POP JUMP JUMPDEST PUSH0 PUSH1 0x20 DUP3 ADD SWAP1 POP PUSH2 0x1E8E PUSH0 DUP4 ADD DUP5 PUSH2 0x1E6C JUMP JUMPDEST SWAP3 SWAP2 POP POP JUMP JUMPDEST PUSH0 DUP2 MLOAD SWAP1 POP PUSH2 0x1EA2 DUP2 PUSH2 0x1793 JUMP JUMPDEST SWAP3 SWAP2 POP POP JUMP JUMPDEST PUSH0 PUSH1 0x20 DUP3 DUP5 SUB SLT ISZERO PUSH2 0x1EBD JUMPI PUSH2 0x1EBC PUSH2 0x1782 JUMP JUMPDEST JUMPDEST PUSH0 PUSH2 0x1ECA DUP5 DUP3 DUP6 ADD PUSH2 0x1E94 JUMP JUMPDEST SWAP2 POP POP SWAP3 SWAP2 POP POP JUMP JUMPDEST PUSH32 0x506F737420646F6573206E6F7420657869737400000000000000000000000000 PUSH0 DUP3 ADD MSTORE POP JUMP JUMPDEST PUSH0 PUSH2 0x1F07 PUSH1 0x13 DUP4 PUSH2 0x1C04 JUMP JUMPDEST SWAP2 POP PUSH2 0x1F12 DUP3 PUSH2 0x1ED3 JUMP JUMPDEST PUSH1 0x20 DUP3 ADD SWAP1 POP SWAP2 SWAP1 POP JUMP JUMPDEST PUSH0 PUSH1 0x20 DUP3 ADD SWAP1 POP DUP2 DUP2 SUB PUSH0 DUP4 ADD MSTORE PUSH2 0x1F34 DUP2 PUSH2 0x1EFB JUMP JUMPDEST SWAP1 POP SWAP2 SWAP1 POP JUMP JUMPDEST PUSH32 0x596F7520646F206E6F74206F776E207468697320706F73740000000000000000 PUSH0 DUP3 ADD MSTORE POP JUMP JUMPDEST PUSH0 PUSH2 0x1F6F PUSH1 0x18 DUP4 PUSH2 0x1C04 JUMP JUMPDEST SWAP2 POP PUSH2 0x1F7A DUP3 PUSH2 0x1F3B JUMP JUMPDEST PUSH1 0x20 DUP3 ADD SWAP1 POP SWAP2 SWAP1 POP JUMP JUMPDEST PUSH0 PUSH1 0x20 DUP3 ADD SWAP1 POP DUP2 DUP2 SUB PUSH0 DUP4 ADD MSTORE PUSH2 0x1F9C DUP2 PUSH2 0x1F63 JUMP JUMPDEST SWAP1 POP SWAP2 SWAP1 POP JUMP JUMPDEST PUSH32 0x4E487B7100000000000000000000000000000000000000000000000000000000 PUSH0 MSTORE PUSH1 0x11 PUSH1 0x4 MSTORE PUSH1 0x24 PUSH0 REVERT JUMPDEST PUSH0 PUSH2 0x1FDA DUP3 PUSH2 0x178A JUMP JUMPDEST SWAP2 POP PUSH2 0x1FE5 DUP4 PUSH2 0x178A JUMP JUMPDEST SWAP3 POP DUP3 DUP3 SUB SWAP1 POP DUP2 DUP2 GT ISZERO PUSH2 0x1FFD JUMPI PUSH2 0x1FFC PUSH2 0x1FA3 JUMP JUMPDEST JUMPDEST SWAP3 SWAP2 POP POP JUMP JUMPDEST PUSH32 0x4E487B7100000000000000000000000000000000000000000000000000000000 PUSH0 MSTORE PUSH1 0x32 PUSH1 0x4 MSTORE PUSH1 0x24 PUSH0 REVERT JUMPDEST PUSH32 0x4E487B7100000000000000000000000000000000000000000000000000000000 PUSH0 MSTORE PUSH1 0x22 PUSH1 0x4 MSTORE PUSH1 0x24 PUSH0 REVERT JUMPDEST PUSH0 PUSH1 0x2 DUP3 DIV SWAP1 POP PUSH1 0x1 DUP3 AND DUP1 PUSH2 0x2074 JUMPI PUSH1 0x7F DUP3 AND SWAP2 POP JUMPDEST PUSH1 0x20 DUP3 LT DUP2 SUB PUSH2 0x2087 JUMPI PUSH2 0x2086 PUSH2 0x2030 JUMP JUMPDEST JUMPDEST POP SWAP2 SWAP1 POP JUMP JUMPDEST PUSH0 DUP2 SLOAD SWAP1 POP PUSH2 0x209B DUP2 PUSH2 0x205D JUMP JUMPDEST SWAP1 POP SWAP2 SWAP1 POP JUMP JUMPDEST PUSH32 0x4E487B7100000000000000000000000000000000000000000000000000000000 PUSH0 MSTORE PUSH1 0x41 PUSH1 0x4 MSTORE PUSH1 0x24 PUSH0 REVERT JUMPDEST PUSH0 DUP2 SWAP1 POP DUP2 PUSH0 MSTORE PUSH1 0x20 PUSH0 KECCAK256 SWAP1 POP SWAP2 SWAP1 POP JUMP JUMPDEST PUSH0 PUSH1 0x20 PUSH1 0x1F DUP4 ADD DIV SWAP1 POP SWAP2 SWAP1 POP JUMP JUMPDEST PUSH0 DUP3 DUP3 SHL SWAP1 POP SWAP3 SWAP2 POP POP JUMP JUMPDEST PUSH0 PUSH1 0x8 DUP4 MUL PUSH2 0x212B PUSH32 0xFFFFFFFFFFFFFFFFFFFFFFFFFFFFFFFFFFFFFFFFFFFFFFFFFFFFFFFFFFFFFFFF DUP3 PUSH2 0x20F0 JUMP JUMPDEST PUSH2 0x2135 DUP7 DUP4 PUSH2 0x20F0 JUMP JUMPDEST SWAP6 POP DUP1 NOT DUP5 AND SWAP4 POP DUP1 DUP7 AND DUP5 OR SWAP3 POP POP POP SWAP4 SWAP3 POP POP POP JUMP JUMPDEST PUSH0 DUP2 SWAP1 POP SWAP2 SWAP1 POP JUMP JUMPDEST PUSH0 PUSH2 0x2170 PUSH2 0x216B PUSH2 0x2166 DUP5 PUSH2 0x178A JUMP JUMPDEST PUSH2 0x214D JUMP JUMPDEST PUSH2 0x178A JUMP JUMPDEST SWAP1 POP SWAP2 SWAP1 POP JUMP JUMPDEST PUSH0 DUP2 SWAP1 POP SWAP2 SWAP1 POP JUMP JUMPDEST PUSH2 0x2189 DUP4 PUSH2 0x2156 JUMP JUMPDEST PUSH2 0x219D PUSH2 0x2195 DUP3 PUSH2 0x2177 JUMP JUMPDEST DUP5 DUP5 SLOAD PUSH2 0x20FC JUMP JUMPDEST DUP3 SSTORE POP POP POP POP JUMP JUMPDEST PUSH0 PUSH0 SWAP1 POP SWAP1 JUMP JUMPDEST PUSH2 0x21B4 PUSH2 0x21A5 JUMP JUMPDEST PUSH2 0x21BF DUP2 DUP5 DUP5 PUSH2 0x2180 JUMP JUMPDEST POP POP POP JUMP JUMPDEST JUMPDEST DUP2 DUP2 LT ISZERO PUSH2 0x21E2 JUMPI PUSH2 0x21D7 PUSH0 DUP3 PUSH2 0x21AC JUMP JUMPDEST PUSH1 0x1 DUP2 ADD SWAP1 POP PUSH2 0x21C5 JUMP JUMPDEST POP POP JUMP JUMPDEST PUSH1 0x1F DUP3 GT ISZERO PUSH2 0x2227 JUMPI PUSH2 0x21F8 DUP2 PUSH2 0x20CF JUMP JUMPDEST PUSH2 0x2201 DUP5 PUSH2 0x20E1 JUMP JUMPDEST DUP2 ADD PUSH1 0x20 DUP6 LT ISZERO PUSH2 0x2210 JUMPI DUP2 SWAP1 POP JUMPDEST PUSH2 0x2224 PUSH2 0x221C DUP6 PUSH2 0x20E1 JUMP JUMPDEST DUP4 ADD DUP3 PUSH2 0x21C4 JUMP JUMPDEST POP POP JUMPDEST POP POP POP JUMP JUMPDEST PUSH0 DUP3 DUP3 SHR SWAP1 POP SWAP3 SWAP2 POP POP JUMP JUMPDEST PUSH0 PUSH2 0x2247 PUSH0 NOT DUP5 PUSH1 0x8 MUL PUSH2 0x222C JUMP JUMPDEST NOT DUP1 DUP4 AND SWAP2 POP POP SWAP3 SWAP2 POP POP JUMP JUMPDEST PUSH0 PUSH2 0x225F DUP4 DUP4 PUSH2 0x2238 JUMP JUMPDEST SWAP2 POP DUP3 PUSH1 0x2 MUL DUP3 OR SWAP1 POP SWAP3 SWAP2 POP POP JUMP JUMPDEST DUP2 DUP2 SUB PUSH2 0x227D JUMPI POP POP PUSH2 0x2352 JUMP JUMPDEST PUSH2 0x2286 DUP3 PUSH2 0x208D JUMP JUMPDEST PUSH8 0xFFFFFFFFFFFFFFFF DUP2 GT ISZERO PUSH2 0x229F JUMPI PUSH2 0x229E PUSH2 0x20A2 JUMP JUMPDEST JUMPDEST PUSH2 0x22A9 DUP3 SLOAD PUSH2 0x205D JUMP JUMPDEST PUSH2 0x22B4 DUP3 DUP3 DUP6 PUSH2 0x21E6 JUMP JUMPDEST PUSH0 PUSH1 0x1F DUP4 GT PUSH1 0x1 DUP2 EQ PUSH2 0x22E1 JUMPI PUSH0 DUP5 ISZERO PUSH2 0x22CF JUMPI DUP3 DUP8 ADD SLOAD SWAP1 POP JUMPDEST PUSH2 0x22D9 DUP6 DUP3 PUSH2 0x2254 JUMP JUMPDEST DUP7 SSTORE POP PUSH2 0x234B JUMP JUMPDEST PUSH1 0x1F NOT DUP5 AND PUSH2 0x22EF DUP8 PUSH2 0x20CF JUMP JUMPDEST SWAP7 POP PUSH2 0x22FA DUP7 PUSH2 0x20CF JUMP JUMPDEST PUSH0 JUMPDEST DUP3 DUP2 LT ISZERO PUSH2 0x2321 JUMPI DUP5 DUP10 ADD SLOAD DUP3 SSTORE PUSH1 0x1 DUP3 ADD SWAP2 POP PUSH1 0x1 DUP6 ADD SWAP5 POP PUSH1 0x20 DUP2 ADD SWAP1 POP PUSH2 0x22FC JUMP JUMPDEST DUP7 DUP4 LT ISZERO PUSH2 0x233E JUMPI DUP5 DUP10 ADD SLOAD PUSH2 0x233A PUSH1 0x1F DUP10 AND DUP3 PUSH2 0x2238 JUMP JUMPDEST DUP4 SSTORE POP JUMPDEST PUSH1 0x1 PUSH1 0x2 DUP9 MUL ADD DUP9 SSTORE POP POP POP JUMPDEST POP POP POP POP POP POP JUMPDEST JUMP JUMPDEST PUSH32 0x4E487B7100000000000000000000000000000000000000000000000000000000 PUSH0 MSTORE PUSH1 0x31 PUSH1 0x4 MSTORE PUSH1 0x24 PUSH0 REVERT JUMPDEST PUSH32 0x5573657220646F65736E2774206F776E20616E7920706F737473000000000000 PUSH0 DUP3 ADD MSTORE POP JUMP JUMPDEST PUSH0 PUSH2 0x23B5 PUSH1 0x1A DUP4 PUSH2 0x1C04 JUMP JUMPDEST SWAP2 POP PUSH2 0x23C0 DUP3 PUSH2 0x2381 JUMP JUMPDEST PUSH1 0x20 DUP3 ADD SWAP1 POP SWAP2 SWAP1 POP JUMP JUMPDEST PUSH0 PUSH1 0x20 DUP3 ADD SWAP1 POP DUP2 DUP2 SUB PUSH0 DUP4 ADD MSTORE PUSH2 0x23E2 DUP2 PUSH2 0x23A9 JUMP JUMPDEST SWAP1 POP SWAP2 SWAP1 POP JUMP JUMPDEST PUSH32 0x506F737420646F65736E27742065786973740000000000000000000000000000 PUSH0 DUP3 ADD MSTORE POP JUMP JUMPDEST PUSH0 PUSH2 0x241D PUSH1 0x12 DUP4 PUSH2 0x1C04 JUMP JUMPDEST SWAP2 POP PUSH2 0x2428 DUP3 PUSH2 0x23E9 JUMP JUMPDEST PUSH1 0x20 DUP3 ADD SWAP1 POP SWAP2 SWAP1 POP JUMP JUMPDEST PUSH0 PUSH1 0x20 DUP3 ADD SWAP1 POP DUP2 DUP2 SUB PUSH0 DUP4 ADD MSTORE PUSH2 0x244A DUP2 PUSH2 0x2411 JUMP JUMPDEST SWAP1 POP SWAP2 SWAP1 POP JUMP JUMPDEST PUSH0 PUSH2 0x245B DUP3 PUSH2 0x178A JUMP JUMPDEST SWAP2 POP PUSH0 DUP3 SUB PUSH2 0x246D JUMPI PUSH2 0x246C PUSH2 0x1FA3 JUMP JUMPDEST JUMPDEST PUSH1 0x1 DUP3 SUB SWAP1 POP SWAP2 SWAP1 POP JUMP JUMPDEST PUSH0 PUSH2 0x2482 DUP3 PUSH2 0x178A JUMP JUMPDEST SWAP2 POP PUSH32 0xFFFFFFFFFFFFFFFFFFFFFFFFFFFFFFFFFFFFFFFFFFFFFFFFFFFFFFFFFFFFFFFF DUP3 SUB PUSH2 0x24B4 JUMPI PUSH2 0x24B3 PUSH2 0x1FA3 JUMP JUMPDEST JUMPDEST PUSH1 0x1 DUP3 ADD SWAP1 POP SWAP2 SWAP1 POP JUMP JUMPDEST PUSH0 DUP3 SWAP1 POP SWAP3 SWAP2 POP POP JUMP JUMPDEST PUSH2 0x24D3 DUP4 DUP4 PUSH2 0x24BF JUMP JUMPDEST PUSH8 0xFFFFFFFFFFFFFFFF DUP2 GT ISZERO PUSH2 0x24EC JUMPI PUSH2 0x24EB PUSH2 0x20A2 JUMP JUMPDEST JUMPDEST PUSH2 0x24F6 DUP3 SLOAD PUSH2 0x205D JUMP JUMPDEST PUSH2 0x2501 DUP3 DUP3 DUP6 PUSH2 0x21E6 JUMP JUMPDEST PUSH0 PUSH1 0x1F DUP4 GT PUSH1 0x1 DUP2 EQ PUSH2 0x252E JUMPI PUSH0 DUP5 ISZERO PUSH2 0x251C JUMPI DUP3 DUP8 ADD CALLDATALOAD SWAP1 POP JUMPDEST PUSH2 0x2526 DUP6 DUP3 PUSH2 0x2254 JUMP JUMPDEST DUP7 SSTORE POP PUSH2 0x258D JUMP JUMPDEST PUSH1 0x1F NOT DUP5 AND PUSH2 0x253C DUP7 PUSH2 0x20CF JUMP JUMPDEST PUSH0 JUMPDEST DUP3 DUP2 LT ISZERO PUSH2 0x2563 JUMPI DUP5 DUP10 ADD CALLDATALOAD DUP3 SSTORE PUSH1 0x1 DUP3 ADD SWAP2 POP PUSH1 0x20 DUP6 ADD SWAP5 POP PUSH1 0x20 DUP2 ADD SWAP1 POP PUSH2 0x253E JUMP JUMPDEST DUP7 DUP4 LT ISZERO PUSH2 0x2580 JUMPI DUP5 DUP10 ADD CALLDATALOAD PUSH2 0x257C PUSH1 0x1F DUP10 AND DUP3 PUSH2 0x2238 JUMP JUMPDEST DUP4 SSTORE POP JUMPDEST PUSH1 0x1 PUSH1 0x2 DUP9 MUL ADD DUP9 SSTORE POP POP POP JUMPDEST POP POP POP POP POP POP POP JUMP JUMPDEST DUP3 DUP2 DUP4 CALLDATACOPY PUSH0 DUP4 DUP4 ADD MSTORE POP POP POP JUMP JUMPDEST PUSH0 PUSH2 0x25AF DUP4 DUP6 PUSH2 0x1C04 JUMP JUMPDEST SWAP4 POP PUSH2 0x25BC DUP4 DUP6 DUP5 PUSH2 0x2596 JUMP JUMPDEST PUSH2 0x25C5 DUP4 PUSH2 0x1848 JUMP JUMPDEST DUP5 ADD SWAP1 POP SWAP4 SWAP3 POP POP POP JUMP JUMPDEST PUSH0 PUSH1 0x80 DUP3 ADD SWAP1 POP PUSH2 0x25E3 PUSH0 DUP4 ADD DUP9 PUSH2 0x1BF5 JUMP JUMPDEST PUSH2 0x25F0 PUSH1 0x20 DUP4 ADD DUP8 PUSH2 0x1BF5 JUMP JUMPDEST DUP2 DUP2 SUB PUSH1 0x40 DUP4 ADD MSTORE PUSH2 0x2603 DUP2 DUP6 DUP8 PUSH2 0x25A4 JUMP JUMPDEST SWAP1 POP PUSH2 0x2612 PUSH1 0x60 DUP4 ADD DUP5 PUSH2 0x1BF5 JUMP JUMPDEST SWAP7 SWAP6 POP POP POP POP POP POP JUMP JUMPDEST PUSH2 0x2625 DUP3 PUSH2 0x1820 JUMP JUMPDEST PUSH8 0xFFFFFFFFFFFFFFFF DUP2 GT ISZERO PUSH2 0x263E JUMPI PUSH2 0x263D PUSH2 0x20A2 JUMP JUMPDEST JUMPDEST PUSH2 0x2648 DUP3 SLOAD PUSH2 0x205D JUMP JUMPDEST PUSH2 0x2653 DUP3 DUP3 DUP6 PUSH2 0x21E6 JUMP JUMPDEST PUSH0 PUSH1 0x20 SWAP1 POP PUSH1 0x1F DUP4 GT PUSH1 0x1 DUP2 EQ PUSH2 0x2684 JUMPI PUSH0 DUP5 ISZERO PUSH2 0x2672 JUMPI DUP3 DUP8 ADD MLOAD SWAP1 POP JUMPDEST PUSH2 0x267C DUP6 DUP3 PUSH2 0x2254 JUMP JUMPDEST DUP7 SSTORE POP PUSH2 0x26E3 JUMP JUMPDEST PUSH1 0x1F NOT DUP5 AND PUSH2 0x2692 DUP7 PUSH2 0x20CF JUMP JUMPDEST PUSH0 JUMPDEST DUP3 DUP2 LT ISZERO PUSH2 0x26B9 JUMPI DUP5 DUP10 ADD MLOAD DUP3 SSTORE PUSH1 0x1 DUP3 ADD SWAP2 POP PUSH1 0x20 DUP6 ADD SWAP5 POP PUSH1 0x20 DUP2 ADD SWAP1 POP PUSH2 0x2694 JUMP JUMPDEST DUP7 DUP4 LT ISZERO PUSH2 0x26D6 JUMPI DUP5 DUP10 ADD MLOAD PUSH2 0x26D2 PUSH1 0x1F DUP10 AND DUP3 PUSH2 0x2238 JUMP JUMPDEST DUP4 SSTORE POP JUMPDEST PUSH1 0x1 PUSH1 0x2 DUP9 MUL ADD DUP9 SSTORE POP POP POP JUMPDEST POP POP POP POP POP POP JUMP JUMPDEST PUSH32 0x796F7520646F6E27742068617665207468697320706F73740000000000000000 PUSH0 DUP3 ADD MSTORE POP JUMP JUMPDEST PUSH0 PUSH2 0x271F PUSH1 0x18 DUP4 PUSH2 0x1C04 JUMP JUMPDEST SWAP2 POP PUSH2 0x272A DUP3 PUSH2 0x26EB JUMP JUMPDEST PUSH1 0x20 DUP3 ADD SWAP1 POP SWAP2 SWAP1 POP JUMP JUMPDEST PUSH0 PUSH1 0x20 DUP3 ADD SWAP1 POP DUP2 DUP2 SUB PUSH0 DUP4 ADD MSTORE PUSH2 0x274C DUP2 PUSH2 0x2713 JUMP JUMPDEST SWAP1 POP SWAP2 SWAP1 POP JUMP INVALID LOG2 PUSH5 0x6970667358 0x22 SLT KECCAK256 MULMOD MSTORE8 0xC5 STOP SWAP1 0xB8 0xF6 0x4C SLOAD DUP10 DUP9 DIV 0xB8 BLOBHASH 0xD3 0xBB MLOAD EXTCODESIZE 0xD9 0xAC JUMPF 0x6F4 MSTORE8 CALL SWAPN 0x44 EXTCALL 0xAB 0xF6 0xB1 LOG4 PUSH5 0x736F6C6343 STOP ADDMOD 0x1E STOP CALLER "
		},
		"gasEstimates": {
			"creation": {
				"codeDepositCost": "2024200",
				"executionCost": "infinite",
				"totalCost": "infinite"
			},
			"external": {
				"allPosts(uint256)": "infinite",
				"commentOnPost(string,uint256)": "infinite",
				"createPost(string)": "infinite",
				"deletePost(uint256)": "infinite",
				"editPost(uint256,string)": "infinite",
				"getPostById(uint256)": "infinite",
				"getPostLikeCount(uint256)": "infinite",
				"getPostsByUser(uint256)": "infinite",
				"hasUserLikedPost(uint256,uint256)": "infinite",
				"postIndex(uint256)": "infinite",
				"togglePostLike(uint256)": "infinite",
				"userPosts(uint256,uint256)": "infinite"
			},
			"internal": {
				"_postExists(uint256)": "2247",
				"getAllPosts()": "infinite"
			}
		},
		"methodIdentifiers": {
			"allPosts(uint256)": "718ce2bc",
			"commentOnPost(string,uint256)": "d362ee56",
			"createPost(string)": "c7303c61",
			"deletePost(uint256)": "094cd5ee",
			"editPost(uint256,string)": "fa99654a",
			"getPostById(uint256)": "64e95895",
			"getPostLikeCount(uint256)": "d6e93896",
			"getPostsByUser(uint256)": "211117ff",
			"hasUserLikedPost(uint256,uint256)": "65aa1ed9",
			"postIndex(uint256)": "fc68e09f",
			"togglePostLike(uint256)": "96f25073",
			"userPosts(uint256,uint256)": "de537765"
		}
	},
	"abi": [
		{
			"inputs": [
				{
					"internalType": "address",
					"name": "_profileManagerAddress",
					"type": "address"
				}
			],
			"stateMutability": "nonpayable",
			"type": "constructor"
		},
		{
			"anonymous": false,
			"inputs": [
				{
					"indexed": false,
					"internalType": "uint256",
					"name": "postId",
					"type": "uint256"
				},
				{
					"indexed": false,
					"internalType": "uint256",
					"name": "ownerId",
					"type": "uint256"
				},
				{
					"indexed": false,
					"internalType": "string",
					"name": "description",
					"type": "string"
				},
				{
					"indexed": false,
					"internalType": "uint256",
					"name": "createdAt",
					"type": "uint256"
				}
			],
			"name": "PostCreated",
			"type": "event"
		},
		{
			"inputs": [
				{
					"internalType": "uint256",
					"name": "",
					"type": "uint256"
				}
			],
			"name": "allPosts",
			"outputs": [
				{
					"internalType": "uint256",
					"name": "ownerId",
					"type": "uint256"
				},
				{
					"internalType": "uint256",
					"name": "postId",
					"type": "uint256"
				},
				{
					"internalType": "string",
					"name": "description",
					"type": "string"
				},
				{
					"internalType": "uint256",
					"name": "createdAt",
					"type": "uint256"
				}
			],
			"stateMutability": "view",
			"type": "function"
		},
		{
			"inputs": [
				{
					"internalType": "string",
					"name": "_comment",
					"type": "string"
				},
				{
					"internalType": "uint256",
					"name": "_postId",
					"type": "uint256"
				}
			],
			"name": "commentOnPost",
			"outputs": [],
			"stateMutability": "nonpayable",
			"type": "function"
		},
		{
			"inputs": [
				{
					"internalType": "string",
					"name": "_description",
					"type": "string"
				}
			],
			"name": "createPost",
			"outputs": [],
			"stateMutability": "nonpayable",
			"type": "function"
		},
		{
			"inputs": [
				{
					"internalType": "uint256",
					"name": "_postId",
					"type": "uint256"
				}
			],
			"name": "deletePost",
			"outputs": [],
			"stateMutability": "nonpayable",
			"type": "function"
		},
		{
			"inputs": [
				{
					"internalType": "uint256",
					"name": "_postId",
					"type": "uint256"
				},
				{
					"internalType": "string",
					"name": "_description",
					"type": "string"
				}
			],
			"name": "editPost",
			"outputs": [],
			"stateMutability": "nonpayable",
			"type": "function"
		},
		{
			"inputs": [
				{
					"internalType": "uint256",
					"name": "_postId",
					"type": "uint256"
				}
			],
			"name": "getPostById",
			"outputs": [
				{
					"components": [
						{
							"internalType": "uint256",
							"name": "ownerId",
							"type": "uint256"
						},
						{
							"internalType": "uint256",
							"name": "postId",
							"type": "uint256"
						},
						{
							"internalType": "string",
							"name": "description",
							"type": "string"
						},
						{
							"components": [
								{
									"internalType": "uint256",
									"name": "commentId",
									"type": "uint256"
								},
								{
									"internalType": "uint256",
									"name": "postId",
									"type": "uint256"
								},
								{
									"internalType": "uint256",
									"name": "userId",
									"type": "uint256"
								},
								{
									"internalType": "string",
									"name": "comment",
									"type": "string"
								},
								{
									"internalType": "uint256",
									"name": "createdAt",
									"type": "uint256"
								}
							],
							"internalType": "struct PostManager.Comment[]",
							"name": "comments",
							"type": "tuple[]"
						},
						{
							"internalType": "uint256",
							"name": "createdAt",
							"type": "uint256"
						}
					],
					"internalType": "struct PostManager.Post",
					"name": "",
					"type": "tuple"
				}
			],
			"stateMutability": "view",
			"type": "function"
		},
		{
			"inputs": [
				{
					"internalType": "uint256",
					"name": "_postId",
					"type": "uint256"
				}
			],
			"name": "getPostLikeCount",
			"outputs": [
				{
					"internalType": "uint256",
					"name": "",
					"type": "uint256"
				}
			],
			"stateMutability": "view",
			"type": "function"
		},
		{
			"inputs": [
				{
					"internalType": "uint256",
					"name": "userId",
					"type": "uint256"
				}
			],
			"name": "getPostsByUser",
			"outputs": [
				{
					"components": [
						{
							"internalType": "uint256",
							"name": "ownerId",
							"type": "uint256"
						},
						{
							"internalType": "uint256",
							"name": "postId",
							"type": "uint256"
						},
						{
							"internalType": "string",
							"name": "description",
							"type": "string"
						},
						{
							"components": [
								{
									"internalType": "uint256",
									"name": "commentId",
									"type": "uint256"
								},
								{
									"internalType": "uint256",
									"name": "postId",
									"type": "uint256"
								},
								{
									"internalType": "uint256",
									"name": "userId",
									"type": "uint256"
								},
								{
									"internalType": "string",
									"name": "comment",
									"type": "string"
								},
								{
									"internalType": "uint256",
									"name": "createdAt",
									"type": "uint256"
								}
							],
							"internalType": "struct PostManager.Comment[]",
							"name": "comments",
							"type": "tuple[]"
						},
						{
							"internalType": "uint256",
							"name": "createdAt",
							"type": "uint256"
						}
					],
					"internalType": "struct PostManager.Post[]",
					"name": "",
					"type": "tuple[]"
				}
			],
			"stateMutability": "view",
			"type": "function"
		},
		{
			"inputs": [
				{
					"internalType": "uint256",
					"name": "_postId",
					"type": "uint256"
				},
				{
					"internalType": "uint256",
					"name": "_userId",
					"type": "uint256"
				}
			],
			"name": "hasUserLikedPost",
			"outputs": [
				{
					"internalType": "bool",
					"name": "",
					"type": "bool"
				}
			],
			"stateMutability": "view",
			"type": "function"
		},
		{
			"inputs": [
				{
					"internalType": "uint256",
					"name": "postId",
					"type": "uint256"
				}
			],
			"name": "postIndex",
			"outputs": [
				{
					"internalType": "uint256",
					"name": "ownerId",
					"type": "uint256"
				},
				{
					"internalType": "uint256",
					"name": "index",
					"type": "uint256"
				}
			],
			"stateMutability": "view",
			"type": "function"
		},
		{
			"inputs": [
				{
					"internalType": "uint256",
					"name": "_postId",
					"type": "uint256"
				}
			],
			"name": "togglePostLike",
			"outputs": [],
			"stateMutability": "nonpayable",
			"type": "function"
		},
		{
			"inputs": [
				{
					"internalType": "uint256",
					"name": "userId",
					"type": "uint256"
				},
				{
					"internalType": "uint256",
					"name": "",
					"type": "uint256"
				}
			],
			"name": "userPosts",
			"outputs": [
				{
					"internalType": "uint256",
					"name": "userPostsIndex",
					"type": "uint256"
				}
			],
			"stateMutability": "view",
			"type": "function"
		}
	]
}