{
	"data": {
		"bytecode": {
			"linkReferences": {},
			"object": "608060405234801561000f575f5ffd5b50604051612a1a380380612a1a833981810160405281019061003191906100d5565b8060025f6101000a81548173ffffffffffffffffffffffffffffffffffffffff021916908373ffffffffffffffffffffffffffffffffffffffff16021790555050610100565b5f5ffd5b5f73ffffffffffffffffffffffffffffffffffffffff82169050919050565b5f6100a48261007b565b9050919050565b6100b48161009a565b81146100be575f5ffd5b50565b5f815190506100cf816100ab565b92915050565b5f602082840312156100ea576100e9610077565b5b5f6100f7848285016100c1565b91505092915050565b61290d8061010d5f395ff3fe608060405234801561000f575f5ffd5b50600436106100e8575f3560e01c806396f250731161008a578063d0446c4111610064578063d0446c4114610254578063d6e9389614610284578063efbe8469146102b4578063fa99654a146102d2576100e8565b806396f2507314610200578063ad8160291461021c578063c7303c6114610238576100e8565b806364732154116100c6578063647321541461016857806364e958951461018457806365aa1ed9146101b45780637d0b1026146101e4576100e8565b8063094cd5ee146100ec578063211117ff1461010857806360f7437714610138575b5f5ffd5b6101066004803603810190610101919061190d565b6102ee565b005b610122600480360381019061011d919061190d565b6104e3565b60405161012f9190611aff565b60405180910390f35b610152600480360381019061014d9190611b1f565b6106ee565b60405161015f9190611cb0565b60405180910390f35b610182600480360381019061017d9190611d31565b6109ac565b005b61019e6004803603810190610199919061190d565b610c0f565b6040516101ab9190611e01565b60405180910390f35b6101ce60048036038101906101c99190611e21565b610d8f565b6040516101db9190611e6e565b60405180910390f35b6101fe60048036038101906101f9919061190d565b610e0d565b005b61021a6004803603810190610215919061190d565b610f8a565b005b61023660048036038101906102319190611d31565b611165565b005b610252600480360381019061024d9190611e87565b6112dc565b005b61026e6004803603810190610269919061190d565b611510565b60405161027b9190611ee1565b60405180910390f35b61029e6004803603810190610299919061190d565b611575565b6040516102ab9190611ee1565b60405180910390f35b6102bc6115d7565b6040516102c99190611ee1565b60405180910390f35b6102ec60048036038101906102e79190611d31565b6115e3565b005b5f60025f9054906101000a900473ffffffffffffffffffffffffffffffffffffffff1673ffffffffffffffffffffffffffffffffffffffff166326567eec336040518263ffffffff1660e01b81526004016103499190611f39565b602060405180830381865afa158015610364573d5f5f3e3d5ffd5b505050506040513d601f19601f820116820180604052508101906103889190611f66565b9050610393826117c2565b6103d2576040517f08c379a00000000000000000000000000000000000000000000000000000000081526004016103c990611feb565b60405180910390fd5b5f60045f8481526020019081526020015f206040518060400160405290815f8201548152602001600182015481525050905081815f015114610449576040517f08c379a000000000000000000000000000000000000000000000000000000000815260040161044090612053565b60405180910390fd5b5f600982602001518154811061046257610461612071565b5b905f5260205f2090600502019050806004015f9054906101000a900460ff16156104c1576040517f08c379a00000000000000000000000000000000000000000000000000000000081526004016104b8906120e8565b60405180910390fd5b6001816004015f6101000a81548160ff02191690831515021790555050505050565b60605f60035f8481526020019081526020015f2080548060200260200160405190810160405280929190818152602001828054801561053f57602002820191905f5260205f20905b81548152602001906001019080831161052b575b505050505090505f815167ffffffffffffffff81111561056257610561612106565b5b60405190808252806020026020018201604052801561059b57816020015b610588611872565b8152602001906001900390816105805790505b5090505f5f90505b82518110156106e35760098382815181106105c1576105c0612071565b5b6020026020010151815481106105da576105d9612071565b5b905f5260205f2090600502016040518060a00160405290815f82015481526020016001820154815260200160028201805461061490612160565b80601f016020809104026020016040519081016040528092919081815260200182805461064090612160565b801561068b5780601f106106625761010080835404028352916020019161068b565b820191905f5260205f20905b81548152906001019060200180831161066e57829003601f168201915b5050505050815260200160038201548152602001600482015f9054906101000a900460ff1615151515815250508282815181106106cb576106ca612071565b5b602002602001018190525080806001019150506105a3565b508092505050919050565b60606106f9846117c2565b610738576040517f08c379a000000000000000000000000000000000000000000000000000000000815260040161072f90611feb565b60405180910390fd5b5f60085f8681526020019081526020015f208054905090508084106107b3575f67ffffffffffffffff81111561077157610770612106565b5b6040519080825280602002602001820160405280156107aa57816020015b61079761189f565b81526020019060019003908161078f5790505b509150506109a5565b5f83856107c091906121bd565b9050818111156107ce578190505b5f85826107db91906121f0565b90505f8167ffffffffffffffff8111156107f8576107f7612106565b5b60405190808252806020026020018201604052801561083157816020015b61081e61189f565b8152602001906001900390816108165790505b5090505f5f90505f8890505b8481101561099b575f60085f8c81526020019081526020015f20828154811061086957610868612071565b5b905f5260205f200154905060075f8281526020019081526020015f206040518060c00160405290815f820154815260200160018201548152602001600282015481526020016003820180546108bd90612160565b80601f01602080910402602001604051908101604052809291908181526020018280546108e990612160565b80156109345780601f1061090b57610100808354040283529160200191610934565b820191905f5260205f20905b81548152906001019060200180831161091757829003601f168201915b5050505050815260200160048201548152602001600582015f9054906101000a900460ff16151515158152505084848151811061097457610973612071565b5b6020026020010181905250828061098a90612223565b93505050808060010191505061083d565b5081955050505050505b9392505050565b5f60025f9054906101000a900473ffffffffffffffffffffffffffffffffffffffff1673ffffffffffffffffffffffffffffffffffffffff166326567eec336040518263ffffffff1660e01b8152600401610a079190611f39565b602060405180830381865afa158015610a22573d5f5f3e3d5ffd5b505050506040513d601f19601f82011682018060405250810190610a469190611f66565b9050610a51846117c2565b610a90576040517f08c379a0000000000000000000000000000000000000000000000000000000008152600401610a8790611feb565b60405180910390fd5b5f8383905011610ad5576040517f08c379a0000000000000000000000000000000000000000000000000000000008152600401610acc906122b4565b60405180910390fd5b60015f815480929190610ae790612223565b91905055505f60015490506040518060c0016040528082815260200186815260200183815260200185858080601f0160208091040260200160405190810160405280939291908181526020018383808284375f81840152601f19601f8201169050808301925050505050505081526020014281526020015f151581525060075f8381526020019081526020015f205f820151815f015560208201518160010155604082015181600201556060820151816003019081610ba69190612472565b506080820151816004015560a0820151816005015f6101000a81548160ff02191690831515021790555090505060085f8681526020019081526020015f2081908060018154018082558091505060019003905f5260205f20015f90919091909150555050505050565b610c17611872565b610c20826117c2565b610c5f576040517f08c379a0000000000000000000000000000000000000000000000000000000008152600401610c569061258b565b60405180910390fd5b5f60045f8481526020019081526020015f206040518060400160405290815f820154815260200160018201548152505090506009816020015181548110610ca957610ca8612071565b5b905f5260205f2090600502016040518060a00160405290815f820154815260200160018201548152602001600282018054610ce390612160565b80601f0160208091040260200160405190810160405280929190818152602001828054610d0f90612160565b8015610d5a5780601f10610d3157610100808354040283529160200191610d5a565b820191905f5260205f20905b815481529060010190602001808311610d3d57829003601f168201915b5050505050815260200160038201548152602001600482015f9054906101000a900460ff161515151581525050915050919050565b5f610d99836117c2565b610dd8576040517f08c379a0000000000000000000000000000000000000000000000000000000008152600401610dcf9061258b565b60405180910390fd5b60055f8481526020019081526020015f205f8381526020019081526020015f205f9054906101000a900460ff16905092915050565b5f60025f9054906101000a900473ffffffffffffffffffffffffffffffffffffffff1673ffffffffffffffffffffffffffffffffffffffff166326567eec336040518263ffffffff1660e01b8152600401610e689190611f39565b602060405180830381865afa158015610e83573d5f5f3e3d5ffd5b505050506040513d601f19601f82011682018060405250810190610ea79190611f66565b90505f60075f8481526020019081526020015f20600201549050808214610f03576040517f08c379a0000000000000000000000000000000000000000000000000000000008152600401610efa906125f3565b60405180910390fd5b5f60075f8581526020019081526020015f209050806005015f9054906101000a900460ff1615610f68576040517f08c379a0000000000000000000000000000000000000000000000000000000008152600401610f5f9061265b565b60405180910390fd5b6001816005015f6101000a81548160ff02191690831515021790555050505050565b5f60025f9054906101000a900473ffffffffffffffffffffffffffffffffffffffff1673ffffffffffffffffffffffffffffffffffffffff166326567eec336040518263ffffffff1660e01b8152600401610fe59190611f39565b602060405180830381865afa158015611000573d5f5f3e3d5ffd5b505050506040513d601f19601f820116820180604052508101906110249190611f66565b905061102f826117c2565b61106e576040517f08c379a00000000000000000000000000000000000000000000000000000000081526004016110659061258b565b60405180910390fd5b60055f8381526020019081526020015f205f8281526020019081526020015f205f9054906101000a900460ff1615611102575f60055f8481526020019081526020015f205f8381526020019081526020015f205f6101000a81548160ff02191690831515021790555060065f8381526020019081526020015f205f8154809291906110f890612679565b9190505550611161565b600160055f8481526020019081526020015f205f8381526020019081526020015f205f6101000a81548160ff02191690831515021790555060065f8381526020019081526020015f205f81548092919061115b90612223565b91905055505b5050565b5f60025f9054906101000a900473ffffffffffffffffffffffffffffffffffffffff1673ffffffffffffffffffffffffffffffffffffffff166326567eec336040518263ffffffff1660e01b81526004016111c09190611f39565b602060405180830381865afa1580156111db573d5f5f3e3d5ffd5b505050506040513d601f19601f820116820180604052508101906111ff9190611f66565b90505f60075f8681526020019081526020015f2060020154905080821461125b576040517f08c379a0000000000000000000000000000000000000000000000000000000008152600401611252906125f3565b60405180910390fd5b5f60075f8781526020019081526020015f209050806005015f9054906101000a900460ff16156112c0576040517f08c379a00000000000000000000000000000000000000000000000000000000081526004016112b79061265b565b60405180910390fd5b84848260030191826112d39291906126aa565b50505050505050565b60038282905011611322576040517f08c379a0000000000000000000000000000000000000000000000000000000008152600401611319906127e7565b60405180910390fd5b5f60025f9054906101000a900473ffffffffffffffffffffffffffffffffffffffff1673ffffffffffffffffffffffffffffffffffffffff166326567eec336040518263ffffffff1660e01b815260040161137d9190611f39565b602060405180830381865afa158015611398573d5f5f3e3d5ffd5b505050506040513d601f19601f820116820180604052508101906113bc9190611f66565b90505f5f8154809291906113cf90612223565b91905055505f5f549050600960018160018154018082558091505003905f5260205f209050505f600160098054905061140891906121f0565b90505f6009828154811061141f5761141e612071565b5b905f5260205f209060050201905083815f018190555082816001018190555085858260020191826114519291906126aa565b5042816003018190555060035f8581526020019081526020015f2082908060018154018082558091505060019003905f5260205f20015f909190919091505560405180604001604052808581526020018381525060045f8581526020019081526020015f205f820151815f01556020820151816001015590505083837f9d8ba7605d631183923c2b8e95cd748a3f7bad1c3cab55df446fea93c84980ef8888426040516115009392919061283f565b60405180910390a3505050505050565b5f61151a826117c2565b611559576040517f08c379a000000000000000000000000000000000000000000000000000000000815260040161155090611feb565b60405180910390fd5b60085f8381526020019081526020015f20805490509050919050565b5f61157f826117c2565b6115be576040517f08c379a00000000000000000000000000000000000000000000000000000000081526004016115b59061258b565b60405180910390fd5b60065f8381526020019081526020015f20549050919050565b5f600980549050905090565b5f60025f9054906101000a900473ffffffffffffffffffffffffffffffffffffffff1673ffffffffffffffffffffffffffffffffffffffff166326567eec336040518263ffffffff1660e01b815260040161163e9190611f39565b602060405180830381865afa158015611659573d5f5f3e3d5ffd5b505050506040513d601f19601f8201168201806040525081019061167d9190611f66565b9050611688846117c2565b6116c7576040517f08c379a00000000000000000000000000000000000000000000000000000000081526004016116be9061258b565b60405180910390fd5b5f60045f8681526020019081526020015f206040518060400160405290815f8201548152602001600182015481525050905081815f01511461173e576040517f08c379a0000000000000000000000000000000000000000000000000000000008152600401611735906128b9565b60405180910390fd5b60038484905011611784576040517f08c379a000000000000000000000000000000000000000000000000000000000815260040161177b906127e7565b60405180910390fd5b8383600983602001518154811061179e5761179d612071565b5b905f5260205f20906005020160020191826117ba9291906126aa565b505050505050565b5f5f60045f8481526020019081526020015f205f0154141580156117ec57506117ea82611803565b155b156117fa57600190506117fe565b5f90505b919050565b5f5f60045f8481526020019081526020015f206040518060400160405290815f82015481526020016001820154815250509050600981602001518154811061184e5761184d612071565b5b905f5260205f2090600502016004015f9054906101000a900460ff16915050919050565b6040518060a001604052805f81526020015f8152602001606081526020015f81526020015f151581525090565b6040518060c001604052805f81526020015f81526020015f8152602001606081526020015f81526020015f151581525090565b5f5ffd5b5f5ffd5b5f819050919050565b6118ec816118da565b81146118f6575f5ffd5b50565b5f81359050611907816118e3565b92915050565b5f60208284031215611922576119216118d2565b5b5f61192f848285016118f9565b91505092915050565b5f81519050919050565b5f82825260208201905092915050565b5f819050602082019050919050565b61196a816118da565b82525050565b5f81519050919050565b5f82825260208201905092915050565b8281835e5f83830152505050565b5f601f19601f8301169050919050565b5f6119b282611970565b6119bc818561197a565b93506119cc81856020860161198a565b6119d581611998565b840191505092915050565b5f8115159050919050565b6119f4816119e0565b82525050565b5f60a083015f830151611a0f5f860182611961565b506020830151611a226020860182611961565b5060408301518482036040860152611a3a82826119a8565b9150506060830151611a4f6060860182611961565b506080830151611a6260808601826119eb565b508091505092915050565b5f611a7883836119fa565b905092915050565b5f602082019050919050565b5f611a9682611938565b611aa08185611942565b935083602082028501611ab285611952565b805f5b85811015611aed5784840389528151611ace8582611a6d565b9450611ad983611a80565b925060208a01995050600181019050611ab5565b50829750879550505050505092915050565b5f6020820190508181035f830152611b178184611a8c565b905092915050565b5f5f5f60608486031215611b3657611b356118d2565b5b5f611b43868287016118f9565b9350506020611b54868287016118f9565b9250506040611b65868287016118f9565b9150509250925092565b5f81519050919050565b5f82825260208201905092915050565b5f819050602082019050919050565b5f60c083015f830151611bad5f860182611961565b506020830151611bc06020860182611961565b506040830151611bd36040860182611961565b5060608301518482036060860152611beb82826119a8565b9150506080830151611c006080860182611961565b5060a0830151611c1360a08601826119eb565b508091505092915050565b5f611c298383611b98565b905092915050565b5f602082019050919050565b5f611c4782611b6f565b611c518185611b79565b935083602082028501611c6385611b89565b805f5b85811015611c9e5784840389528151611c7f8582611c1e565b9450611c8a83611c31565b925060208a01995050600181019050611c66565b50829750879550505050505092915050565b5f6020820190508181035f830152611cc88184611c3d565b905092915050565b5f5ffd5b5f5ffd5b5f5ffd5b5f5f83601f840112611cf157611cf0611cd0565b5b8235905067ffffffffffffffff811115611d0e57611d0d611cd4565b5b602083019150836001820283011115611d2a57611d29611cd8565b5b9250929050565b5f5f5f60408486031215611d4857611d476118d2565b5b5f611d55868287016118f9565b935050602084013567ffffffffffffffff811115611d7657611d756118d6565b5b611d8286828701611cdc565b92509250509250925092565b5f60a083015f830151611da35f860182611961565b506020830151611db66020860182611961565b5060408301518482036040860152611dce82826119a8565b9150506060830151611de36060860182611961565b506080830151611df660808601826119eb565b508091505092915050565b5f6020820190508181035f830152611e198184611d8e565b905092915050565b5f5f60408385031215611e3757611e366118d2565b5b5f611e44858286016118f9565b9250506020611e55858286016118f9565b9150509250929050565b611e68816119e0565b82525050565b5f602082019050611e815f830184611e5f565b92915050565b5f5f60208385031215611e9d57611e9c6118d2565b5b5f83013567ffffffffffffffff811115611eba57611eb96118d6565b5b611ec685828601611cdc565b92509250509250929050565b611edb816118da565b82525050565b5f602082019050611ef45f830184611ed2565b92915050565b5f73ffffffffffffffffffffffffffffffffffffffff82169050919050565b5f611f2382611efa565b9050919050565b611f3381611f19565b82525050565b5f602082019050611f4c5f830184611f2a565b92915050565b5f81519050611f60816118e3565b92915050565b5f60208284031215611f7b57611f7a6118d2565b5b5f611f8884828501611f52565b91505092915050565b5f82825260208201905092915050565b7f506f737420646f6573206e6f74206578697374000000000000000000000000005f82015250565b5f611fd5601383611f91565b9150611fe082611fa1565b602082019050919050565b5f6020820190508181035f83015261200281611fc9565b9050919050565b7f4e6f7420706f7374206f776e65720000000000000000000000000000000000005f82015250565b5f61203d600e83611f91565b915061204882612009565b602082019050919050565b5f6020820190508181035f83015261206a81612031565b9050919050565b7f4e487b71000000000000000000000000000000000000000000000000000000005f52603260045260245ffd5b7f416c72656164792064656c6574656400000000000000000000000000000000005f82015250565b5f6120d2600f83611f91565b91506120dd8261209e565b602082019050919050565b5f6020820190508181035f8301526120ff816120c6565b9050919050565b7f4e487b71000000000000000000000000000000000000000000000000000000005f52604160045260245ffd5b7f4e487b71000000000000000000000000000000000000000000000000000000005f52602260045260245ffd5b5f600282049050600182168061217757607f821691505b60208210810361218a57612189612133565b5b50919050565b7f4e487b71000000000000000000000000000000000000000000000000000000005f52601160045260245ffd5b5f6121c7826118da565b91506121d2836118da565b92508282019050808211156121ea576121e9612190565b5b92915050565b5f6121fa826118da565b9150612205836118da565b925082820390508181111561221d5761221c612190565b5b92915050565b5f61222d826118da565b91507fffffffffffffffffffffffffffffffffffffffffffffffffffffffffffffffff820361225f5761225e612190565b5b600182019050919050565b7f456d70747920636f6d6d656e74000000000000000000000000000000000000005f82015250565b5f61229e600d83611f91565b91506122a98261226a565b602082019050919050565b5f6020820190508181035f8301526122cb81612292565b9050919050565b5f819050815f5260205f209050919050565b5f6020601f8301049050919050565b5f82821b905092915050565b5f6008830261232e7fffffffffffffffffffffffffffffffffffffffffffffffffffffffffffffffff826122f3565b61233886836122f3565b95508019841693508086168417925050509392505050565b5f819050919050565b5f61237361236e612369846118da565b612350565b6118da565b9050919050565b5f819050919050565b61238c83612359565b6123a06123988261237a565b8484546122ff565b825550505050565b5f5f905090565b6123b76123a8565b6123c2818484612383565b505050565b5b818110156123e5576123da5f826123af565b6001810190506123c8565b5050565b601f82111561242a576123fb816122d2565b612404846122e4565b81016020851015612413578190505b61242761241f856122e4565b8301826123c7565b50505b505050565b5f82821c905092915050565b5f61244a5f198460080261242f565b1980831691505092915050565b5f612462838361243b565b9150826002028217905092915050565b61247b82611970565b67ffffffffffffffff81111561249457612493612106565b5b61249e8254612160565b6124a98282856123e9565b5f60209050601f8311600181146124da575f84156124c8578287015190505b6124d28582612457565b865550612539565b601f1984166124e8866122d2565b5f5b8281101561250f578489015182556001820191506020850194506020810190506124ea565b8683101561252c5784890151612528601f89168261243b565b8355505b6001600288020188555050505b505050505050565b7f506f737420646f65736e277420657869737400000000000000000000000000005f82015250565b5f612575601283611f91565b915061258082612541565b602082019050919050565b5f6020820190508181035f8301526125a281612569565b9050919050565b7f596f7520646f6e2774206f776e207468697320636f6d6d656e740000000000005f82015250565b5f6125dd601a83611f91565b91506125e8826125a9565b602082019050919050565b5f6020820190508181035f83015261260a816125d1565b9050919050565b7f436f6d6d656e7420646f6573206e6f74206578736973740000000000000000005f82015250565b5f612645601783611f91565b915061265082612611565b602082019050919050565b5f6020820190508181035f83015261267281612639565b9050919050565b5f612683826118da565b91505f820361269557612694612190565b5b600182039050919050565b5f82905092915050565b6126b483836126a0565b67ffffffffffffffff8111156126cd576126cc612106565b5b6126d78254612160565b6126e28282856123e9565b5f601f83116001811461270f575f84156126fd578287013590505b6127078582612457565b86555061276e565b601f19841661271d866122d2565b5f5b828110156127445784890135825560018201915060208501945060208101905061271f565b86831015612761578489013561275d601f89168261243b565b8355505b6001600288020188555050505b50505050505050565b7f636f6e74656e742073686f756c642062652061746c65617374206c65747465725f8201527f2033000000000000000000000000000000000000000000000000000000000000602082015250565b5f6127d1602283611f91565b91506127dc82612777565b604082019050919050565b5f6020820190508181035f8301526127fe816127c5565b9050919050565b828183375f83830152505050565b5f61281e8385611f91565b935061282b838584612805565b61283483611998565b840190509392505050565b5f6040820190508181035f830152612858818587612813565b90506128676020830184611ed2565b949350505050565b7f796f7520646f6e27742068617665207468697320706f737400000000000000005f82015250565b5f6128a3601883611f91565b91506128ae8261286f565b602082019050919050565b5f6020820190508181035f8301526128d081612897565b905091905056fea2646970667358221220e87bfd86d40902d43dabde963c5052406397561413c3f265a3aefdb4f66b32fe64736f6c634300081e0033",
			"opcodes": "PUSH1 0x80 PUSH1 0x40 MSTORE CALLVALUE DUP1 ISZERO PUSH2 0xF JUMPI PUSH0 PUSH0 REVERT JUMPDEST POP PUSH1 0x40 MLOAD PUSH2 0x2A1A CODESIZE SUB DUP1 PUSH2 0x2A1A DUP4 CODECOPY DUP2 DUP2 ADD PUSH1 0x40 MSTORE DUP2 ADD SWAP1 PUSH2 0x31 SWAP2 SWAP1 PUSH2 0xD5 JUMP JUMPDEST DUP1 PUSH1 0x2 PUSH0 PUSH2 0x100 EXP DUP2 SLOAD DUP2 PUSH20 0xFFFFFFFFFFFFFFFFFFFFFFFFFFFFFFFFFFFFFFFF MUL NOT AND SWAP1 DUP4 PUSH20 0xFFFFFFFFFFFFFFFFFFFFFFFFFFFFFFFFFFFFFFFF AND MUL OR SWAP1 SSTORE POP POP PUSH2 0x100 JUMP JUMPDEST PUSH0 PUSH0 REVERT JUMPDEST PUSH0 PUSH20 0xFFFFFFFFFFFFFFFFFFFFFFFFFFFFFFFFFFFFFFFF DUP3 AND SWAP1 POP SWAP2 SWAP1 POP JUMP JUMPDEST PUSH0 PUSH2 0xA4 DUP3 PUSH2 0x7B JUMP JUMPDEST SWAP1 POP SWAP2 SWAP1 POP JUMP JUMPDEST PUSH2 0xB4 DUP2 PUSH2 0x9A JUMP JUMPDEST DUP2 EQ PUSH2 0xBE JUMPI PUSH0 PUSH0 REVERT JUMPDEST POP JUMP JUMPDEST PUSH0 DUP2 MLOAD SWAP1 POP PUSH2 0xCF DUP2 PUSH2 0xAB JUMP JUMPDEST SWAP3 SWAP2 POP POP JUMP JUMPDEST PUSH0 PUSH1 0x20 DUP3 DUP5 SUB SLT ISZERO PUSH2 0xEA JUMPI PUSH2 0xE9 PUSH2 0x77 JUMP JUMPDEST JUMPDEST PUSH0 PUSH2 0xF7 DUP5 DUP3 DUP6 ADD PUSH2 0xC1 JUMP JUMPDEST SWAP2 POP POP SWAP3 SWAP2 POP POP JUMP JUMPDEST PUSH2 0x290D DUP1 PUSH2 0x10D PUSH0 CODECOPY PUSH0 RETURN INVALID PUSH1 0x80 PUSH1 0x40 MSTORE CALLVALUE DUP1 ISZERO PUSH2 0xF JUMPI PUSH0 PUSH0 REVERT JUMPDEST POP PUSH1 0x4 CALLDATASIZE LT PUSH2 0xE8 JUMPI PUSH0 CALLDATALOAD PUSH1 0xE0 SHR DUP1 PUSH4 0x96F25073 GT PUSH2 0x8A JUMPI DUP1 PUSH4 0xD0446C41 GT PUSH2 0x64 JUMPI DUP1 PUSH4 0xD0446C41 EQ PUSH2 0x254 JUMPI DUP1 PUSH4 0xD6E93896 EQ PUSH2 0x284 JUMPI DUP1 PUSH4 0xEFBE8469 EQ PUSH2 0x2B4 JUMPI DUP1 PUSH4 0xFA99654A EQ PUSH2 0x2D2 JUMPI PUSH2 0xE8 JUMP JUMPDEST DUP1 PUSH4 0x96F25073 EQ PUSH2 0x200 JUMPI DUP1 PUSH4 0xAD816029 EQ PUSH2 0x21C JUMPI DUP1 PUSH4 0xC7303C61 EQ PUSH2 0x238 JUMPI PUSH2 0xE8 JUMP JUMPDEST DUP1 PUSH4 0x64732154 GT PUSH2 0xC6 JUMPI DUP1 PUSH4 0x64732154 EQ PUSH2 0x168 JUMPI DUP1 PUSH4 0x64E95895 EQ PUSH2 0x184 JUMPI DUP1 PUSH4 0x65AA1ED9 EQ PUSH2 0x1B4 JUMPI DUP1 PUSH4 0x7D0B1026 EQ PUSH2 0x1E4 JUMPI PUSH2 0xE8 JUMP JUMPDEST DUP1 PUSH4 0x94CD5EE EQ PUSH2 0xEC JUMPI DUP1 PUSH4 0x211117FF EQ PUSH2 0x108 JUMPI DUP1 PUSH4 0x60F74377 EQ PUSH2 0x138 JUMPI JUMPDEST PUSH0 PUSH0 REVERT JUMPDEST PUSH2 0x106 PUSH1 0x4 DUP1 CALLDATASIZE SUB DUP2 ADD SWAP1 PUSH2 0x101 SWAP2 SWAP1 PUSH2 0x190D JUMP JUMPDEST PUSH2 0x2EE JUMP JUMPDEST STOP JUMPDEST PUSH2 0x122 PUSH1 0x4 DUP1 CALLDATASIZE SUB DUP2 ADD SWAP1 PUSH2 0x11D SWAP2 SWAP1 PUSH2 0x190D JUMP JUMPDEST PUSH2 0x4E3 JUMP JUMPDEST PUSH1 0x40 MLOAD PUSH2 0x12F SWAP2 SWAP1 PUSH2 0x1AFF JUMP JUMPDEST PUSH1 0x40 MLOAD DUP1 SWAP2 SUB SWAP1 RETURN JUMPDEST PUSH2 0x152 PUSH1 0x4 DUP1 CALLDATASIZE SUB DUP2 ADD SWAP1 PUSH2 0x14D SWAP2 SWAP1 PUSH2 0x1B1F JUMP JUMPDEST PUSH2 0x6EE JUMP JUMPDEST PUSH1 0x40 MLOAD PUSH2 0x15F SWAP2 SWAP1 PUSH2 0x1CB0 JUMP JUMPDEST PUSH1 0x40 MLOAD DUP1 SWAP2 SUB SWAP1 RETURN JUMPDEST PUSH2 0x182 PUSH1 0x4 DUP1 CALLDATASIZE SUB DUP2 ADD SWAP1 PUSH2 0x17D SWAP2 SWAP1 PUSH2 0x1D31 JUMP JUMPDEST PUSH2 0x9AC JUMP JUMPDEST STOP JUMPDEST PUSH2 0x19E PUSH1 0x4 DUP1 CALLDATASIZE SUB DUP2 ADD SWAP1 PUSH2 0x199 SWAP2 SWAP1 PUSH2 0x190D JUMP JUMPDEST PUSH2 0xC0F JUMP JUMPDEST PUSH1 0x40 MLOAD PUSH2 0x1AB SWAP2 SWAP1 PUSH2 0x1E01 JUMP JUMPDEST PUSH1 0x40 MLOAD DUP1 SWAP2 SUB SWAP1 RETURN JUMPDEST PUSH2 0x1CE PUSH1 0x4 DUP1 CALLDATASIZE SUB DUP2 ADD SWAP1 PUSH2 0x1C9 SWAP2 SWAP1 PUSH2 0x1E21 JUMP JUMPDEST PUSH2 0xD8F JUMP JUMPDEST PUSH1 0x40 MLOAD PUSH2 0x1DB SWAP2 SWAP1 PUSH2 0x1E6E JUMP JUMPDEST PUSH1 0x40 MLOAD DUP1 SWAP2 SUB SWAP1 RETURN JUMPDEST PUSH2 0x1FE PUSH1 0x4 DUP1 CALLDATASIZE SUB DUP2 ADD SWAP1 PUSH2 0x1F9 SWAP2 SWAP1 PUSH2 0x190D JUMP JUMPDEST PUSH2 0xE0D JUMP JUMPDEST STOP JUMPDEST PUSH2 0x21A PUSH1 0x4 DUP1 CALLDATASIZE SUB DUP2 ADD SWAP1 PUSH2 0x215 SWAP2 SWAP1 PUSH2 0x190D JUMP JUMPDEST PUSH2 0xF8A JUMP JUMPDEST STOP JUMPDEST PUSH2 0x236 PUSH1 0x4 DUP1 CALLDATASIZE SUB DUP2 ADD SWAP1 PUSH2 0x231 SWAP2 SWAP1 PUSH2 0x1D31 JUMP JUMPDEST PUSH2 0x1165 JUMP JUMPDEST STOP JUMPDEST PUSH2 0x252 PUSH1 0x4 DUP1 CALLDATASIZE SUB DUP2 ADD SWAP1 PUSH2 0x24D SWAP2 SWAP1 PUSH2 0x1E87 JUMP JUMPDEST PUSH2 0x12DC JUMP JUMPDEST STOP JUMPDEST PUSH2 0x26E PUSH1 0x4 DUP1 CALLDATASIZE SUB DUP2 ADD SWAP1 PUSH2 0x269 SWAP2 SWAP1 PUSH2 0x190D JUMP JUMPDEST PUSH2 0x1510 JUMP JUMPDEST PUSH1 0x40 MLOAD PUSH2 0x27B SWAP2 SWAP1 PUSH2 0x1EE1 JUMP JUMPDEST PUSH1 0x40 MLOAD DUP1 SWAP2 SUB SWAP1 RETURN JUMPDEST PUSH2 0x29E PUSH1 0x4 DUP1 CALLDATASIZE SUB DUP2 ADD SWAP1 PUSH2 0x299 SWAP2 SWAP1 PUSH2 0x190D JUMP JUMPDEST PUSH2 0x1575 JUMP JUMPDEST PUSH1 0x40 MLOAD PUSH2 0x2AB SWAP2 SWAP1 PUSH2 0x1EE1 JUMP JUMPDEST PUSH1 0x40 MLOAD DUP1 SWAP2 SUB SWAP1 RETURN JUMPDEST PUSH2 0x2BC PUSH2 0x15D7 JUMP JUMPDEST PUSH1 0x40 MLOAD PUSH2 0x2C9 SWAP2 SWAP1 PUSH2 0x1EE1 JUMP JUMPDEST PUSH1 0x40 MLOAD DUP1 SWAP2 SUB SWAP1 RETURN JUMPDEST PUSH2 0x2EC PUSH1 0x4 DUP1 CALLDATASIZE SUB DUP2 ADD SWAP1 PUSH2 0x2E7 SWAP2 SWAP1 PUSH2 0x1D31 JUMP JUMPDEST PUSH2 0x15E3 JUMP JUMPDEST STOP JUMPDEST PUSH0 PUSH1 0x2 PUSH0 SWAP1 SLOAD SWAP1 PUSH2 0x100 EXP SWAP1 DIV PUSH20 0xFFFFFFFFFFFFFFFFFFFFFFFFFFFFFFFFFFFFFFFF AND PUSH20 0xFFFFFFFFFFFFFFFFFFFFFFFFFFFFFFFFFFFFFFFF AND PUSH4 0x26567EEC CALLER PUSH1 0x40 MLOAD DUP3 PUSH4 0xFFFFFFFF AND PUSH1 0xE0 SHL DUP2 MSTORE PUSH1 0x4 ADD PUSH2 0x349 SWAP2 SWAP1 PUSH2 0x1F39 JUMP JUMPDEST PUSH1 0x20 PUSH1 0x40 MLOAD DUP1 DUP4 SUB DUP2 DUP7 GAS STATICCALL ISZERO DUP1 ISZERO PUSH2 0x364 JUMPI RETURNDATASIZE PUSH0 PUSH0 RETURNDATACOPY RETURNDATASIZE PUSH0 REVERT JUMPDEST POP POP POP POP PUSH1 0x40 MLOAD RETURNDATASIZE PUSH1 0x1F NOT PUSH1 0x1F DUP3 ADD AND DUP3 ADD DUP1 PUSH1 0x40 MSTORE POP DUP2 ADD SWAP1 PUSH2 0x388 SWAP2 SWAP1 PUSH2 0x1F66 JUMP JUMPDEST SWAP1 POP PUSH2 0x393 DUP3 PUSH2 0x17C2 JUMP JUMPDEST PUSH2 0x3D2 JUMPI PUSH1 0x40 MLOAD PUSH32 0x8C379A000000000000000000000000000000000000000000000000000000000 DUP2 MSTORE PUSH1 0x4 ADD PUSH2 0x3C9 SWAP1 PUSH2 0x1FEB JUMP JUMPDEST PUSH1 0x40 MLOAD DUP1 SWAP2 SUB SWAP1 REVERT JUMPDEST PUSH0 PUSH1 0x4 PUSH0 DUP5 DUP2 MSTORE PUSH1 0x20 ADD SWAP1 DUP2 MSTORE PUSH1 0x20 ADD PUSH0 KECCAK256 PUSH1 0x40 MLOAD DUP1 PUSH1 0x40 ADD PUSH1 0x40 MSTORE SWAP1 DUP2 PUSH0 DUP3 ADD SLOAD DUP2 MSTORE PUSH1 0x20 ADD PUSH1 0x1 DUP3 ADD SLOAD DUP2 MSTORE POP POP SWAP1 POP DUP2 DUP2 PUSH0 ADD MLOAD EQ PUSH2 0x449 JUMPI PUSH1 0x40 MLOAD PUSH32 0x8C379A000000000000000000000000000000000000000000000000000000000 DUP2 MSTORE PUSH1 0x4 ADD PUSH2 0x440 SWAP1 PUSH2 0x2053 JUMP JUMPDEST PUSH1 0x40 MLOAD DUP1 SWAP2 SUB SWAP1 REVERT JUMPDEST PUSH0 PUSH1 0x9 DUP3 PUSH1 0x20 ADD MLOAD DUP2 SLOAD DUP2 LT PUSH2 0x462 JUMPI PUSH2 0x461 PUSH2 0x2071 JUMP JUMPDEST JUMPDEST SWAP1 PUSH0 MSTORE PUSH1 0x20 PUSH0 KECCAK256 SWAP1 PUSH1 0x5 MUL ADD SWAP1 POP DUP1 PUSH1 0x4 ADD PUSH0 SWAP1 SLOAD SWAP1 PUSH2 0x100 EXP SWAP1 DIV PUSH1 0xFF AND ISZERO PUSH2 0x4C1 JUMPI PUSH1 0x40 MLOAD PUSH32 0x8C379A000000000000000000000000000000000000000000000000000000000 DUP2 MSTORE PUSH1 0x4 ADD PUSH2 0x4B8 SWAP1 PUSH2 0x20E8 JUMP JUMPDEST PUSH1 0x40 MLOAD DUP1 SWAP2 SUB SWAP1 REVERT JUMPDEST PUSH1 0x1 DUP2 PUSH1 0x4 ADD PUSH0 PUSH2 0x100 EXP DUP2 SLOAD DUP2 PUSH1 0xFF MUL NOT AND SWAP1 DUP4 ISZERO ISZERO MUL OR SWAP1 SSTORE POP POP POP POP POP JUMP JUMPDEST PUSH1 0x60 PUSH0 PUSH1 0x3 PUSH0 DUP5 DUP2 MSTORE PUSH1 0x20 ADD SWAP1 DUP2 MSTORE PUSH1 0x20 ADD PUSH0 KECCAK256 DUP1 SLOAD DUP1 PUSH1 0x20 MUL PUSH1 0x20 ADD PUSH1 0x40 MLOAD SWAP1 DUP2 ADD PUSH1 0x40 MSTORE DUP1 SWAP3 SWAP2 SWAP1 DUP2 DUP2 MSTORE PUSH1 0x20 ADD DUP3 DUP1 SLOAD DUP1 ISZERO PUSH2 0x53F JUMPI PUSH1 0x20 MUL DUP3 ADD SWAP2 SWAP1 PUSH0 MSTORE PUSH1 0x20 PUSH0 KECCAK256 SWAP1 JUMPDEST DUP2 SLOAD DUP2 MSTORE PUSH1 0x20 ADD SWAP1 PUSH1 0x1 ADD SWAP1 DUP1 DUP4 GT PUSH2 0x52B JUMPI JUMPDEST POP POP POP POP POP SWAP1 POP PUSH0 DUP2 MLOAD PUSH8 0xFFFFFFFFFFFFFFFF DUP2 GT ISZERO PUSH2 0x562 JUMPI PUSH2 0x561 PUSH2 0x2106 JUMP JUMPDEST JUMPDEST PUSH1 0x40 MLOAD SWAP1 DUP1 DUP3 MSTORE DUP1 PUSH1 0x20 MUL PUSH1 0x20 ADD DUP3 ADD PUSH1 0x40 MSTORE DUP1 ISZERO PUSH2 0x59B JUMPI DUP2 PUSH1 0x20 ADD JUMPDEST PUSH2 0x588 PUSH2 0x1872 JUMP JUMPDEST DUP2 MSTORE PUSH1 0x20 ADD SWAP1 PUSH1 0x1 SWAP1 SUB SWAP1 DUP2 PUSH2 0x580 JUMPI SWAP1 POP JUMPDEST POP SWAP1 POP PUSH0 PUSH0 SWAP1 POP JUMPDEST DUP3 MLOAD DUP2 LT ISZERO PUSH2 0x6E3 JUMPI PUSH1 0x9 DUP4 DUP3 DUP2 MLOAD DUP2 LT PUSH2 0x5C1 JUMPI PUSH2 0x5C0 PUSH2 0x2071 JUMP JUMPDEST JUMPDEST PUSH1 0x20 MUL PUSH1 0x20 ADD ADD MLOAD DUP2 SLOAD DUP2 LT PUSH2 0x5DA JUMPI PUSH2 0x5D9 PUSH2 0x2071 JUMP JUMPDEST JUMPDEST SWAP1 PUSH0 MSTORE PUSH1 0x20 PUSH0 KECCAK256 SWAP1 PUSH1 0x5 MUL ADD PUSH1 0x40 MLOAD DUP1 PUSH1 0xA0 ADD PUSH1 0x40 MSTORE SWAP1 DUP2 PUSH0 DUP3 ADD SLOAD DUP2 MSTORE PUSH1 0x20 ADD PUSH1 0x1 DUP3 ADD SLOAD DUP2 MSTORE PUSH1 0x20 ADD PUSH1 0x2 DUP3 ADD DUP1 SLOAD PUSH2 0x614 SWAP1 PUSH2 0x2160 JUMP JUMPDEST DUP1 PUSH1 0x1F ADD PUSH1 0x20 DUP1 SWAP2 DIV MUL PUSH1 0x20 ADD PUSH1 0x40 MLOAD SWAP1 DUP2 ADD PUSH1 0x40 MSTORE DUP1 SWAP3 SWAP2 SWAP1 DUP2 DUP2 MSTORE PUSH1 0x20 ADD DUP3 DUP1 SLOAD PUSH2 0x640 SWAP1 PUSH2 0x2160 JUMP JUMPDEST DUP1 ISZERO PUSH2 0x68B JUMPI DUP1 PUSH1 0x1F LT PUSH2 0x662 JUMPI PUSH2 0x100 DUP1 DUP4 SLOAD DIV MUL DUP4 MSTORE SWAP2 PUSH1 0x20 ADD SWAP2 PUSH2 0x68B JUMP JUMPDEST DUP3 ADD SWAP2 SWAP1 PUSH0 MSTORE PUSH1 0x20 PUSH0 KECCAK256 SWAP1 JUMPDEST DUP2 SLOAD DUP2 MSTORE SWAP1 PUSH1 0x1 ADD SWAP1 PUSH1 0x20 ADD DUP1 DUP4 GT PUSH2 0x66E JUMPI DUP3 SWAP1 SUB PUSH1 0x1F AND DUP3 ADD SWAP2 JUMPDEST POP POP POP POP POP DUP2 MSTORE PUSH1 0x20 ADD PUSH1 0x3 DUP3 ADD SLOAD DUP2 MSTORE PUSH1 0x20 ADD PUSH1 0x4 DUP3 ADD PUSH0 SWAP1 SLOAD SWAP1 PUSH2 0x100 EXP SWAP1 DIV PUSH1 0xFF AND ISZERO ISZERO ISZERO ISZERO DUP2 MSTORE POP POP DUP3 DUP3 DUP2 MLOAD DUP2 LT PUSH2 0x6CB JUMPI PUSH2 0x6CA PUSH2 0x2071 JUMP JUMPDEST JUMPDEST PUSH1 0x20 MUL PUSH1 0x20 ADD ADD DUP2 SWAP1 MSTORE POP DUP1 DUP1 PUSH1 0x1 ADD SWAP2 POP POP PUSH2 0x5A3 JUMP JUMPDEST POP DUP1 SWAP3 POP POP POP SWAP2 SWAP1 POP JUMP JUMPDEST PUSH1 0x60 PUSH2 0x6F9 DUP5 PUSH2 0x17C2 JUMP JUMPDEST PUSH2 0x738 JUMPI PUSH1 0x40 MLOAD PUSH32 0x8C379A000000000000000000000000000000000000000000000000000000000 DUP2 MSTORE PUSH1 0x4 ADD PUSH2 0x72F SWAP1 PUSH2 0x1FEB JUMP JUMPDEST PUSH1 0x40 MLOAD DUP1 SWAP2 SUB SWAP1 REVERT JUMPDEST PUSH0 PUSH1 0x8 PUSH0 DUP7 DUP2 MSTORE PUSH1 0x20 ADD SWAP1 DUP2 MSTORE PUSH1 0x20 ADD PUSH0 KECCAK256 DUP1 SLOAD SWAP1 POP SWAP1 POP DUP1 DUP5 LT PUSH2 0x7B3 JUMPI PUSH0 PUSH8 0xFFFFFFFFFFFFFFFF DUP2 GT ISZERO PUSH2 0x771 JUMPI PUSH2 0x770 PUSH2 0x2106 JUMP JUMPDEST JUMPDEST PUSH1 0x40 MLOAD SWAP1 DUP1 DUP3 MSTORE DUP1 PUSH1 0x20 MUL PUSH1 0x20 ADD DUP3 ADD PUSH1 0x40 MSTORE DUP1 ISZERO PUSH2 0x7AA JUMPI DUP2 PUSH1 0x20 ADD JUMPDEST PUSH2 0x797 PUSH2 0x189F JUMP JUMPDEST DUP2 MSTORE PUSH1 0x20 ADD SWAP1 PUSH1 0x1 SWAP1 SUB SWAP1 DUP2 PUSH2 0x78F JUMPI SWAP1 POP JUMPDEST POP SWAP2 POP POP PUSH2 0x9A5 JUMP JUMPDEST PUSH0 DUP4 DUP6 PUSH2 0x7C0 SWAP2 SWAP1 PUSH2 0x21BD JUMP JUMPDEST SWAP1 POP DUP2 DUP2 GT ISZERO PUSH2 0x7CE JUMPI DUP2 SWAP1 POP JUMPDEST PUSH0 DUP6 DUP3 PUSH2 0x7DB SWAP2 SWAP1 PUSH2 0x21F0 JUMP JUMPDEST SWAP1 POP PUSH0 DUP2 PUSH8 0xFFFFFFFFFFFFFFFF DUP2 GT ISZERO PUSH2 0x7F8 JUMPI PUSH2 0x7F7 PUSH2 0x2106 JUMP JUMPDEST JUMPDEST PUSH1 0x40 MLOAD SWAP1 DUP1 DUP3 MSTORE DUP1 PUSH1 0x20 MUL PUSH1 0x20 ADD DUP3 ADD PUSH1 0x40 MSTORE DUP1 ISZERO PUSH2 0x831 JUMPI DUP2 PUSH1 0x20 ADD JUMPDEST PUSH2 0x81E PUSH2 0x189F JUMP JUMPDEST DUP2 MSTORE PUSH1 0x20 ADD SWAP1 PUSH1 0x1 SWAP1 SUB SWAP1 DUP2 PUSH2 0x816 JUMPI SWAP1 POP JUMPDEST POP SWAP1 POP PUSH0 PUSH0 SWAP1 POP PUSH0 DUP9 SWAP1 POP JUMPDEST DUP5 DUP2 LT ISZERO PUSH2 0x99B JUMPI PUSH0 PUSH1 0x8 PUSH0 DUP13 DUP2 MSTORE PUSH1 0x20 ADD SWAP1 DUP2 MSTORE PUSH1 0x20 ADD PUSH0 KECCAK256 DUP3 DUP2 SLOAD DUP2 LT PUSH2 0x869 JUMPI PUSH2 0x868 PUSH2 0x2071 JUMP JUMPDEST JUMPDEST SWAP1 PUSH0 MSTORE PUSH1 0x20 PUSH0 KECCAK256 ADD SLOAD SWAP1 POP PUSH1 0x7 PUSH0 DUP3 DUP2 MSTORE PUSH1 0x20 ADD SWAP1 DUP2 MSTORE PUSH1 0x20 ADD PUSH0 KECCAK256 PUSH1 0x40 MLOAD DUP1 PUSH1 0xC0 ADD PUSH1 0x40 MSTORE SWAP1 DUP2 PUSH0 DUP3 ADD SLOAD DUP2 MSTORE PUSH1 0x20 ADD PUSH1 0x1 DUP3 ADD SLOAD DUP2 MSTORE PUSH1 0x20 ADD PUSH1 0x2 DUP3 ADD SLOAD DUP2 MSTORE PUSH1 0x20 ADD PUSH1 0x3 DUP3 ADD DUP1 SLOAD PUSH2 0x8BD SWAP1 PUSH2 0x2160 JUMP JUMPDEST DUP1 PUSH1 0x1F ADD PUSH1 0x20 DUP1 SWAP2 DIV MUL PUSH1 0x20 ADD PUSH1 0x40 MLOAD SWAP1 DUP2 ADD PUSH1 0x40 MSTORE DUP1 SWAP3 SWAP2 SWAP1 DUP2 DUP2 MSTORE PUSH1 0x20 ADD DUP3 DUP1 SLOAD PUSH2 0x8E9 SWAP1 PUSH2 0x2160 JUMP JUMPDEST DUP1 ISZERO PUSH2 0x934 JUMPI DUP1 PUSH1 0x1F LT PUSH2 0x90B JUMPI PUSH2 0x100 DUP1 DUP4 SLOAD DIV MUL DUP4 MSTORE SWAP2 PUSH1 0x20 ADD SWAP2 PUSH2 0x934 JUMP JUMPDEST DUP3 ADD SWAP2 SWAP1 PUSH0 MSTORE PUSH1 0x20 PUSH0 KECCAK256 SWAP1 JUMPDEST DUP2 SLOAD DUP2 MSTORE SWAP1 PUSH1 0x1 ADD SWAP1 PUSH1 0x20 ADD DUP1 DUP4 GT PUSH2 0x917 JUMPI DUP3 SWAP1 SUB PUSH1 0x1F AND DUP3 ADD SWAP2 JUMPDEST POP POP POP POP POP DUP2 MSTORE PUSH1 0x20 ADD PUSH1 0x4 DUP3 ADD SLOAD DUP2 MSTORE PUSH1 0x20 ADD PUSH1 0x5 DUP3 ADD PUSH0 SWAP1 SLOAD SWAP1 PUSH2 0x100 EXP SWAP1 DIV PUSH1 0xFF AND ISZERO ISZERO ISZERO ISZERO DUP2 MSTORE POP POP DUP5 DUP5 DUP2 MLOAD DUP2 LT PUSH2 0x974 JUMPI PUSH2 0x973 PUSH2 0x2071 JUMP JUMPDEST JUMPDEST PUSH1 0x20 MUL PUSH1 0x20 ADD ADD DUP2 SWAP1 MSTORE POP DUP3 DUP1 PUSH2 0x98A SWAP1 PUSH2 0x2223 JUMP JUMPDEST SWAP4 POP POP POP DUP1 DUP1 PUSH1 0x1 ADD SWAP2 POP POP PUSH2 0x83D JUMP JUMPDEST POP DUP2 SWAP6 POP POP POP POP POP POP JUMPDEST SWAP4 SWAP3 POP POP POP JUMP JUMPDEST PUSH0 PUSH1 0x2 PUSH0 SWAP1 SLOAD SWAP1 PUSH2 0x100 EXP SWAP1 DIV PUSH20 0xFFFFFFFFFFFFFFFFFFFFFFFFFFFFFFFFFFFFFFFF AND PUSH20 0xFFFFFFFFFFFFFFFFFFFFFFFFFFFFFFFFFFFFFFFF AND PUSH4 0x26567EEC CALLER PUSH1 0x40 MLOAD DUP3 PUSH4 0xFFFFFFFF AND PUSH1 0xE0 SHL DUP2 MSTORE PUSH1 0x4 ADD PUSH2 0xA07 SWAP2 SWAP1 PUSH2 0x1F39 JUMP JUMPDEST PUSH1 0x20 PUSH1 0x40 MLOAD DUP1 DUP4 SUB DUP2 DUP7 GAS STATICCALL ISZERO DUP1 ISZERO PUSH2 0xA22 JUMPI RETURNDATASIZE PUSH0 PUSH0 RETURNDATACOPY RETURNDATASIZE PUSH0 REVERT JUMPDEST POP POP POP POP PUSH1 0x40 MLOAD RETURNDATASIZE PUSH1 0x1F NOT PUSH1 0x1F DUP3 ADD AND DUP3 ADD DUP1 PUSH1 0x40 MSTORE POP DUP2 ADD SWAP1 PUSH2 0xA46 SWAP2 SWAP1 PUSH2 0x1F66 JUMP JUMPDEST SWAP1 POP PUSH2 0xA51 DUP5 PUSH2 0x17C2 JUMP JUMPDEST PUSH2 0xA90 JUMPI PUSH1 0x40 MLOAD PUSH32 0x8C379A000000000000000000000000000000000000000000000000000000000 DUP2 MSTORE PUSH1 0x4 ADD PUSH2 0xA87 SWAP1 PUSH2 0x1FEB JUMP JUMPDEST PUSH1 0x40 MLOAD DUP1 SWAP2 SUB SWAP1 REVERT JUMPDEST PUSH0 DUP4 DUP4 SWAP1 POP GT PUSH2 0xAD5 JUMPI PUSH1 0x40 MLOAD PUSH32 0x8C379A000000000000000000000000000000000000000000000000000000000 DUP2 MSTORE PUSH1 0x4 ADD PUSH2 0xACC SWAP1 PUSH2 0x22B4 JUMP JUMPDEST PUSH1 0x40 MLOAD DUP1 SWAP2 SUB SWAP1 REVERT JUMPDEST PUSH1 0x1 PUSH0 DUP2 SLOAD DUP1 SWAP3 SWAP2 SWAP1 PUSH2 0xAE7 SWAP1 PUSH2 0x2223 JUMP JUMPDEST SWAP2 SWAP1 POP SSTORE POP PUSH0 PUSH1 0x1 SLOAD SWAP1 POP PUSH1 0x40 MLOAD DUP1 PUSH1 0xC0 ADD PUSH1 0x40 MSTORE DUP1 DUP3 DUP2 MSTORE PUSH1 0x20 ADD DUP7 DUP2 MSTORE PUSH1 0x20 ADD DUP4 DUP2 MSTORE PUSH1 0x20 ADD DUP6 DUP6 DUP1 DUP1 PUSH1 0x1F ADD PUSH1 0x20 DUP1 SWAP2 DIV MUL PUSH1 0x20 ADD PUSH1 0x40 MLOAD SWAP1 DUP2 ADD PUSH1 0x40 MSTORE DUP1 SWAP4 SWAP3 SWAP2 SWAP1 DUP2 DUP2 MSTORE PUSH1 0x20 ADD DUP4 DUP4 DUP1 DUP3 DUP5 CALLDATACOPY PUSH0 DUP2 DUP5 ADD MSTORE PUSH1 0x1F NOT PUSH1 0x1F DUP3 ADD AND SWAP1 POP DUP1 DUP4 ADD SWAP3 POP POP POP POP POP POP POP DUP2 MSTORE PUSH1 0x20 ADD TIMESTAMP DUP2 MSTORE PUSH1 0x20 ADD PUSH0 ISZERO ISZERO DUP2 MSTORE POP PUSH1 0x7 PUSH0 DUP4 DUP2 MSTORE PUSH1 0x20 ADD SWAP1 DUP2 MSTORE PUSH1 0x20 ADD PUSH0 KECCAK256 PUSH0 DUP3 ADD MLOAD DUP2 PUSH0 ADD SSTORE PUSH1 0x20 DUP3 ADD MLOAD DUP2 PUSH1 0x1 ADD SSTORE PUSH1 0x40 DUP3 ADD MLOAD DUP2 PUSH1 0x2 ADD SSTORE PUSH1 0x60 DUP3 ADD MLOAD DUP2 PUSH1 0x3 ADD SWAP1 DUP2 PUSH2 0xBA6 SWAP2 SWAP1 PUSH2 0x2472 JUMP JUMPDEST POP PUSH1 0x80 DUP3 ADD MLOAD DUP2 PUSH1 0x4 ADD SSTORE PUSH1 0xA0 DUP3 ADD MLOAD DUP2 PUSH1 0x5 ADD PUSH0 PUSH2 0x100 EXP DUP2 SLOAD DUP2 PUSH1 0xFF MUL NOT AND SWAP1 DUP4 ISZERO ISZERO MUL OR SWAP1 SSTORE POP SWAP1 POP POP PUSH1 0x8 PUSH0 DUP7 DUP2 MSTORE PUSH1 0x20 ADD SWAP1 DUP2 MSTORE PUSH1 0x20 ADD PUSH0 KECCAK256 DUP2 SWAP1 DUP1 PUSH1 0x1 DUP2 SLOAD ADD DUP1 DUP3 SSTORE DUP1 SWAP2 POP POP PUSH1 0x1 SWAP1 SUB SWAP1 PUSH0 MSTORE PUSH1 0x20 PUSH0 KECCAK256 ADD PUSH0 SWAP1 SWAP2 SWAP1 SWAP2 SWAP1 SWAP2 POP SSTORE POP POP POP POP POP JUMP JUMPDEST PUSH2 0xC17 PUSH2 0x1872 JUMP JUMPDEST PUSH2 0xC20 DUP3 PUSH2 0x17C2 JUMP JUMPDEST PUSH2 0xC5F JUMPI PUSH1 0x40 MLOAD PUSH32 0x8C379A000000000000000000000000000000000000000000000000000000000 DUP2 MSTORE PUSH1 0x4 ADD PUSH2 0xC56 SWAP1 PUSH2 0x258B JUMP JUMPDEST PUSH1 0x40 MLOAD DUP1 SWAP2 SUB SWAP1 REVERT JUMPDEST PUSH0 PUSH1 0x4 PUSH0 DUP5 DUP2 MSTORE PUSH1 0x20 ADD SWAP1 DUP2 MSTORE PUSH1 0x20 ADD PUSH0 KECCAK256 PUSH1 0x40 MLOAD DUP1 PUSH1 0x40 ADD PUSH1 0x40 MSTORE SWAP1 DUP2 PUSH0 DUP3 ADD SLOAD DUP2 MSTORE PUSH1 0x20 ADD PUSH1 0x1 DUP3 ADD SLOAD DUP2 MSTORE POP POP SWAP1 POP PUSH1 0x9 DUP2 PUSH1 0x20 ADD MLOAD DUP2 SLOAD DUP2 LT PUSH2 0xCA9 JUMPI PUSH2 0xCA8 PUSH2 0x2071 JUMP JUMPDEST JUMPDEST SWAP1 PUSH0 MSTORE PUSH1 0x20 PUSH0 KECCAK256 SWAP1 PUSH1 0x5 MUL ADD PUSH1 0x40 MLOAD DUP1 PUSH1 0xA0 ADD PUSH1 0x40 MSTORE SWAP1 DUP2 PUSH0 DUP3 ADD SLOAD DUP2 MSTORE PUSH1 0x20 ADD PUSH1 0x1 DUP3 ADD SLOAD DUP2 MSTORE PUSH1 0x20 ADD PUSH1 0x2 DUP3 ADD DUP1 SLOAD PUSH2 0xCE3 SWAP1 PUSH2 0x2160 JUMP JUMPDEST DUP1 PUSH1 0x1F ADD PUSH1 0x20 DUP1 SWAP2 DIV MUL PUSH1 0x20 ADD PUSH1 0x40 MLOAD SWAP1 DUP2 ADD PUSH1 0x40 MSTORE DUP1 SWAP3 SWAP2 SWAP1 DUP2 DUP2 MSTORE PUSH1 0x20 ADD DUP3 DUP1 SLOAD PUSH2 0xD0F SWAP1 PUSH2 0x2160 JUMP JUMPDEST DUP1 ISZERO PUSH2 0xD5A JUMPI DUP1 PUSH1 0x1F LT PUSH2 0xD31 JUMPI PUSH2 0x100 DUP1 DUP4 SLOAD DIV MUL DUP4 MSTORE SWAP2 PUSH1 0x20 ADD SWAP2 PUSH2 0xD5A JUMP JUMPDEST DUP3 ADD SWAP2 SWAP1 PUSH0 MSTORE PUSH1 0x20 PUSH0 KECCAK256 SWAP1 JUMPDEST DUP2 SLOAD DUP2 MSTORE SWAP1 PUSH1 0x1 ADD SWAP1 PUSH1 0x20 ADD DUP1 DUP4 GT PUSH2 0xD3D JUMPI DUP3 SWAP1 SUB PUSH1 0x1F AND DUP3 ADD SWAP2 JUMPDEST POP POP POP POP POP DUP2 MSTORE PUSH1 0x20 ADD PUSH1 0x3 DUP3 ADD SLOAD DUP2 MSTORE PUSH1 0x20 ADD PUSH1 0x4 DUP3 ADD PUSH0 SWAP1 SLOAD SWAP1 PUSH2 0x100 EXP SWAP1 DIV PUSH1 0xFF AND ISZERO ISZERO ISZERO ISZERO DUP2 MSTORE POP POP SWAP2 POP POP SWAP2 SWAP1 POP JUMP JUMPDEST PUSH0 PUSH2 0xD99 DUP4 PUSH2 0x17C2 JUMP JUMPDEST PUSH2 0xDD8 JUMPI PUSH1 0x40 MLOAD PUSH32 0x8C379A000000000000000000000000000000000000000000000000000000000 DUP2 MSTORE PUSH1 0x4 ADD PUSH2 0xDCF SWAP1 PUSH2 0x258B JUMP JUMPDEST PUSH1 0x40 MLOAD DUP1 SWAP2 SUB SWAP1 REVERT JUMPDEST PUSH1 0x5 PUSH0 DUP5 DUP2 MSTORE PUSH1 0x20 ADD SWAP1 DUP2 MSTORE PUSH1 0x20 ADD PUSH0 KECCAK256 PUSH0 DUP4 DUP2 MSTORE PUSH1 0x20 ADD SWAP1 DUP2 MSTORE PUSH1 0x20 ADD PUSH0 KECCAK256 PUSH0 SWAP1 SLOAD SWAP1 PUSH2 0x100 EXP SWAP1 DIV PUSH1 0xFF AND SWAP1 POP SWAP3 SWAP2 POP POP JUMP JUMPDEST PUSH0 PUSH1 0x2 PUSH0 SWAP1 SLOAD SWAP1 PUSH2 0x100 EXP SWAP1 DIV PUSH20 0xFFFFFFFFFFFFFFFFFFFFFFFFFFFFFFFFFFFFFFFF AND PUSH20 0xFFFFFFFFFFFFFFFFFFFFFFFFFFFFFFFFFFFFFFFF AND PUSH4 0x26567EEC CALLER PUSH1 0x40 MLOAD DUP3 PUSH4 0xFFFFFFFF AND PUSH1 0xE0 SHL DUP2 MSTORE PUSH1 0x4 ADD PUSH2 0xE68 SWAP2 SWAP1 PUSH2 0x1F39 JUMP JUMPDEST PUSH1 0x20 PUSH1 0x40 MLOAD DUP1 DUP4 SUB DUP2 DUP7 GAS STATICCALL ISZERO DUP1 ISZERO PUSH2 0xE83 JUMPI RETURNDATASIZE PUSH0 PUSH0 RETURNDATACOPY RETURNDATASIZE PUSH0 REVERT JUMPDEST POP POP POP POP PUSH1 0x40 MLOAD RETURNDATASIZE PUSH1 0x1F NOT PUSH1 0x1F DUP3 ADD AND DUP3 ADD DUP1 PUSH1 0x40 MSTORE POP DUP2 ADD SWAP1 PUSH2 0xEA7 SWAP2 SWAP1 PUSH2 0x1F66 JUMP JUMPDEST SWAP1 POP PUSH0 PUSH1 0x7 PUSH0 DUP5 DUP2 MSTORE PUSH1 0x20 ADD SWAP1 DUP2 MSTORE PUSH1 0x20 ADD PUSH0 KECCAK256 PUSH1 0x2 ADD SLOAD SWAP1 POP DUP1 DUP3 EQ PUSH2 0xF03 JUMPI PUSH1 0x40 MLOAD PUSH32 0x8C379A000000000000000000000000000000000000000000000000000000000 DUP2 MSTORE PUSH1 0x4 ADD PUSH2 0xEFA SWAP1 PUSH2 0x25F3 JUMP JUMPDEST PUSH1 0x40 MLOAD DUP1 SWAP2 SUB SWAP1 REVERT JUMPDEST PUSH0 PUSH1 0x7 PUSH0 DUP6 DUP2 MSTORE PUSH1 0x20 ADD SWAP1 DUP2 MSTORE PUSH1 0x20 ADD PUSH0 KECCAK256 SWAP1 POP DUP1 PUSH1 0x5 ADD PUSH0 SWAP1 SLOAD SWAP1 PUSH2 0x100 EXP SWAP1 DIV PUSH1 0xFF AND ISZERO PUSH2 0xF68 JUMPI PUSH1 0x40 MLOAD PUSH32 0x8C379A000000000000000000000000000000000000000000000000000000000 DUP2 MSTORE PUSH1 0x4 ADD PUSH2 0xF5F SWAP1 PUSH2 0x265B JUMP JUMPDEST PUSH1 0x40 MLOAD DUP1 SWAP2 SUB SWAP1 REVERT JUMPDEST PUSH1 0x1 DUP2 PUSH1 0x5 ADD PUSH0 PUSH2 0x100 EXP DUP2 SLOAD DUP2 PUSH1 0xFF MUL NOT AND SWAP1 DUP4 ISZERO ISZERO MUL OR SWAP1 SSTORE POP POP POP POP POP JUMP JUMPDEST PUSH0 PUSH1 0x2 PUSH0 SWAP1 SLOAD SWAP1 PUSH2 0x100 EXP SWAP1 DIV PUSH20 0xFFFFFFFFFFFFFFFFFFFFFFFFFFFFFFFFFFFFFFFF AND PUSH20 0xFFFFFFFFFFFFFFFFFFFFFFFFFFFFFFFFFFFFFFFF AND PUSH4 0x26567EEC CALLER PUSH1 0x40 MLOAD DUP3 PUSH4 0xFFFFFFFF AND PUSH1 0xE0 SHL DUP2 MSTORE PUSH1 0x4 ADD PUSH2 0xFE5 SWAP2 SWAP1 PUSH2 0x1F39 JUMP JUMPDEST PUSH1 0x20 PUSH1 0x40 MLOAD DUP1 DUP4 SUB DUP2 DUP7 GAS STATICCALL ISZERO DUP1 ISZERO PUSH2 0x1000 JUMPI RETURNDATASIZE PUSH0 PUSH0 RETURNDATACOPY RETURNDATASIZE PUSH0 REVERT JUMPDEST POP POP POP POP PUSH1 0x40 MLOAD RETURNDATASIZE PUSH1 0x1F NOT PUSH1 0x1F DUP3 ADD AND DUP3 ADD DUP1 PUSH1 0x40 MSTORE POP DUP2 ADD SWAP1 PUSH2 0x1024 SWAP2 SWAP1 PUSH2 0x1F66 JUMP JUMPDEST SWAP1 POP PUSH2 0x102F DUP3 PUSH2 0x17C2 JUMP JUMPDEST PUSH2 0x106E JUMPI PUSH1 0x40 MLOAD PUSH32 0x8C379A000000000000000000000000000000000000000000000000000000000 DUP2 MSTORE PUSH1 0x4 ADD PUSH2 0x1065 SWAP1 PUSH2 0x258B JUMP JUMPDEST PUSH1 0x40 MLOAD DUP1 SWAP2 SUB SWAP1 REVERT JUMPDEST PUSH1 0x5 PUSH0 DUP4 DUP2 MSTORE PUSH1 0x20 ADD SWAP1 DUP2 MSTORE PUSH1 0x20 ADD PUSH0 KECCAK256 PUSH0 DUP3 DUP2 MSTORE PUSH1 0x20 ADD SWAP1 DUP2 MSTORE PUSH1 0x20 ADD PUSH0 KECCAK256 PUSH0 SWAP1 SLOAD SWAP1 PUSH2 0x100 EXP SWAP1 DIV PUSH1 0xFF AND ISZERO PUSH2 0x1102 JUMPI PUSH0 PUSH1 0x5 PUSH0 DUP5 DUP2 MSTORE PUSH1 0x20 ADD SWAP1 DUP2 MSTORE PUSH1 0x20 ADD PUSH0 KECCAK256 PUSH0 DUP4 DUP2 MSTORE PUSH1 0x20 ADD SWAP1 DUP2 MSTORE PUSH1 0x20 ADD PUSH0 KECCAK256 PUSH0 PUSH2 0x100 EXP DUP2 SLOAD DUP2 PUSH1 0xFF MUL NOT AND SWAP1 DUP4 ISZERO ISZERO MUL OR SWAP1 SSTORE POP PUSH1 0x6 PUSH0 DUP4 DUP2 MSTORE PUSH1 0x20 ADD SWAP1 DUP2 MSTORE PUSH1 0x20 ADD PUSH0 KECCAK256 PUSH0 DUP2 SLOAD DUP1 SWAP3 SWAP2 SWAP1 PUSH2 0x10F8 SWAP1 PUSH2 0x2679 JUMP JUMPDEST SWAP2 SWAP1 POP SSTORE POP PUSH2 0x1161 JUMP JUMPDEST PUSH1 0x1 PUSH1 0x5 PUSH0 DUP5 DUP2 MSTORE PUSH1 0x20 ADD SWAP1 DUP2 MSTORE PUSH1 0x20 ADD PUSH0 KECCAK256 PUSH0 DUP4 DUP2 MSTORE PUSH1 0x20 ADD SWAP1 DUP2 MSTORE PUSH1 0x20 ADD PUSH0 KECCAK256 PUSH0 PUSH2 0x100 EXP DUP2 SLOAD DUP2 PUSH1 0xFF MUL NOT AND SWAP1 DUP4 ISZERO ISZERO MUL OR SWAP1 SSTORE POP PUSH1 0x6 PUSH0 DUP4 DUP2 MSTORE PUSH1 0x20 ADD SWAP1 DUP2 MSTORE PUSH1 0x20 ADD PUSH0 KECCAK256 PUSH0 DUP2 SLOAD DUP1 SWAP3 SWAP2 SWAP1 PUSH2 0x115B SWAP1 PUSH2 0x2223 JUMP JUMPDEST SWAP2 SWAP1 POP SSTORE POP JUMPDEST POP POP JUMP JUMPDEST PUSH0 PUSH1 0x2 PUSH0 SWAP1 SLOAD SWAP1 PUSH2 0x100 EXP SWAP1 DIV PUSH20 0xFFFFFFFFFFFFFFFFFFFFFFFFFFFFFFFFFFFFFFFF AND PUSH20 0xFFFFFFFFFFFFFFFFFFFFFFFFFFFFFFFFFFFFFFFF AND PUSH4 0x26567EEC CALLER PUSH1 0x40 MLOAD DUP3 PUSH4 0xFFFFFFFF AND PUSH1 0xE0 SHL DUP2 MSTORE PUSH1 0x4 ADD PUSH2 0x11C0 SWAP2 SWAP1 PUSH2 0x1F39 JUMP JUMPDEST PUSH1 0x20 PUSH1 0x40 MLOAD DUP1 DUP4 SUB DUP2 DUP7 GAS STATICCALL ISZERO DUP1 ISZERO PUSH2 0x11DB JUMPI RETURNDATASIZE PUSH0 PUSH0 RETURNDATACOPY RETURNDATASIZE PUSH0 REVERT JUMPDEST POP POP POP POP PUSH1 0x40 MLOAD RETURNDATASIZE PUSH1 0x1F NOT PUSH1 0x1F DUP3 ADD AND DUP3 ADD DUP1 PUSH1 0x40 MSTORE POP DUP2 ADD SWAP1 PUSH2 0x11FF SWAP2 SWAP1 PUSH2 0x1F66 JUMP JUMPDEST SWAP1 POP PUSH0 PUSH1 0x7 PUSH0 DUP7 DUP2 MSTORE PUSH1 0x20 ADD SWAP1 DUP2 MSTORE PUSH1 0x20 ADD PUSH0 KECCAK256 PUSH1 0x2 ADD SLOAD SWAP1 POP DUP1 DUP3 EQ PUSH2 0x125B JUMPI PUSH1 0x40 MLOAD PUSH32 0x8C379A000000000000000000000000000000000000000000000000000000000 DUP2 MSTORE PUSH1 0x4 ADD PUSH2 0x1252 SWAP1 PUSH2 0x25F3 JUMP JUMPDEST PUSH1 0x40 MLOAD DUP1 SWAP2 SUB SWAP1 REVERT JUMPDEST PUSH0 PUSH1 0x7 PUSH0 DUP8 DUP2 MSTORE PUSH1 0x20 ADD SWAP1 DUP2 MSTORE PUSH1 0x20 ADD PUSH0 KECCAK256 SWAP1 POP DUP1 PUSH1 0x5 ADD PUSH0 SWAP1 SLOAD SWAP1 PUSH2 0x100 EXP SWAP1 DIV PUSH1 0xFF AND ISZERO PUSH2 0x12C0 JUMPI PUSH1 0x40 MLOAD PUSH32 0x8C379A000000000000000000000000000000000000000000000000000000000 DUP2 MSTORE PUSH1 0x4 ADD PUSH2 0x12B7 SWAP1 PUSH2 0x265B JUMP JUMPDEST PUSH1 0x40 MLOAD DUP1 SWAP2 SUB SWAP1 REVERT JUMPDEST DUP5 DUP5 DUP3 PUSH1 0x3 ADD SWAP2 DUP3 PUSH2 0x12D3 SWAP3 SWAP2 SWAP1 PUSH2 0x26AA JUMP JUMPDEST POP POP POP POP POP POP POP JUMP JUMPDEST PUSH1 0x3 DUP3 DUP3 SWAP1 POP GT PUSH2 0x1322 JUMPI PUSH1 0x40 MLOAD PUSH32 0x8C379A000000000000000000000000000000000000000000000000000000000 DUP2 MSTORE PUSH1 0x4 ADD PUSH2 0x1319 SWAP1 PUSH2 0x27E7 JUMP JUMPDEST PUSH1 0x40 MLOAD DUP1 SWAP2 SUB SWAP1 REVERT JUMPDEST PUSH0 PUSH1 0x2 PUSH0 SWAP1 SLOAD SWAP1 PUSH2 0x100 EXP SWAP1 DIV PUSH20 0xFFFFFFFFFFFFFFFFFFFFFFFFFFFFFFFFFFFFFFFF AND PUSH20 0xFFFFFFFFFFFFFFFFFFFFFFFFFFFFFFFFFFFFFFFF AND PUSH4 0x26567EEC CALLER PUSH1 0x40 MLOAD DUP3 PUSH4 0xFFFFFFFF AND PUSH1 0xE0 SHL DUP2 MSTORE PUSH1 0x4 ADD PUSH2 0x137D SWAP2 SWAP1 PUSH2 0x1F39 JUMP JUMPDEST PUSH1 0x20 PUSH1 0x40 MLOAD DUP1 DUP4 SUB DUP2 DUP7 GAS STATICCALL ISZERO DUP1 ISZERO PUSH2 0x1398 JUMPI RETURNDATASIZE PUSH0 PUSH0 RETURNDATACOPY RETURNDATASIZE PUSH0 REVERT JUMPDEST POP POP POP POP PUSH1 0x40 MLOAD RETURNDATASIZE PUSH1 0x1F NOT PUSH1 0x1F DUP3 ADD AND DUP3 ADD DUP1 PUSH1 0x40 MSTORE POP DUP2 ADD SWAP1 PUSH2 0x13BC SWAP2 SWAP1 PUSH2 0x1F66 JUMP JUMPDEST SWAP1 POP PUSH0 PUSH0 DUP2 SLOAD DUP1 SWAP3 SWAP2 SWAP1 PUSH2 0x13CF SWAP1 PUSH2 0x2223 JUMP JUMPDEST SWAP2 SWAP1 POP SSTORE POP PUSH0 PUSH0 SLOAD SWAP1 POP PUSH1 0x9 PUSH1 0x1 DUP2 PUSH1 0x1 DUP2 SLOAD ADD DUP1 DUP3 SSTORE DUP1 SWAP2 POP POP SUB SWAP1 PUSH0 MSTORE PUSH1 0x20 PUSH0 KECCAK256 SWAP1 POP POP PUSH0 PUSH1 0x1 PUSH1 0x9 DUP1 SLOAD SWAP1 POP PUSH2 0x1408 SWAP2 SWAP1 PUSH2 0x21F0 JUMP JUMPDEST SWAP1 POP PUSH0 PUSH1 0x9 DUP3 DUP2 SLOAD DUP2 LT PUSH2 0x141F JUMPI PUSH2 0x141E PUSH2 0x2071 JUMP JUMPDEST JUMPDEST SWAP1 PUSH0 MSTORE PUSH1 0x20 PUSH0 KECCAK256 SWAP1 PUSH1 0x5 MUL ADD SWAP1 POP DUP4 DUP2 PUSH0 ADD DUP2 SWAP1 SSTORE POP DUP3 DUP2 PUSH1 0x1 ADD DUP2 SWAP1 SSTORE POP DUP6 DUP6 DUP3 PUSH1 0x2 ADD SWAP2 DUP3 PUSH2 0x1451 SWAP3 SWAP2 SWAP1 PUSH2 0x26AA JUMP JUMPDEST POP TIMESTAMP DUP2 PUSH1 0x3 ADD DUP2 SWAP1 SSTORE POP PUSH1 0x3 PUSH0 DUP6 DUP2 MSTORE PUSH1 0x20 ADD SWAP1 DUP2 MSTORE PUSH1 0x20 ADD PUSH0 KECCAK256 DUP3 SWAP1 DUP1 PUSH1 0x1 DUP2 SLOAD ADD DUP1 DUP3 SSTORE DUP1 SWAP2 POP POP PUSH1 0x1 SWAP1 SUB SWAP1 PUSH0 MSTORE PUSH1 0x20 PUSH0 KECCAK256 ADD PUSH0 SWAP1 SWAP2 SWAP1 SWAP2 SWAP1 SWAP2 POP SSTORE PUSH1 0x40 MLOAD DUP1 PUSH1 0x40 ADD PUSH1 0x40 MSTORE DUP1 DUP6 DUP2 MSTORE PUSH1 0x20 ADD DUP4 DUP2 MSTORE POP PUSH1 0x4 PUSH0 DUP6 DUP2 MSTORE PUSH1 0x20 ADD SWAP1 DUP2 MSTORE PUSH1 0x20 ADD PUSH0 KECCAK256 PUSH0 DUP3 ADD MLOAD DUP2 PUSH0 ADD SSTORE PUSH1 0x20 DUP3 ADD MLOAD DUP2 PUSH1 0x1 ADD SSTORE SWAP1 POP POP DUP4 DUP4 PUSH32 0x9D8BA7605D631183923C2B8E95CD748A3F7BAD1C3CAB55DF446FEA93C84980EF DUP9 DUP9 TIMESTAMP PUSH1 0x40 MLOAD PUSH2 0x1500 SWAP4 SWAP3 SWAP2 SWAP1 PUSH2 0x283F JUMP JUMPDEST PUSH1 0x40 MLOAD DUP1 SWAP2 SUB SWAP1 LOG3 POP POP POP POP POP POP JUMP JUMPDEST PUSH0 PUSH2 0x151A DUP3 PUSH2 0x17C2 JUMP JUMPDEST PUSH2 0x1559 JUMPI PUSH1 0x40 MLOAD PUSH32 0x8C379A000000000000000000000000000000000000000000000000000000000 DUP2 MSTORE PUSH1 0x4 ADD PUSH2 0x1550 SWAP1 PUSH2 0x1FEB JUMP JUMPDEST PUSH1 0x40 MLOAD DUP1 SWAP2 SUB SWAP1 REVERT JUMPDEST PUSH1 0x8 PUSH0 DUP4 DUP2 MSTORE PUSH1 0x20 ADD SWAP1 DUP2 MSTORE PUSH1 0x20 ADD PUSH0 KECCAK256 DUP1 SLOAD SWAP1 POP SWAP1 POP SWAP2 SWAP1 POP JUMP JUMPDEST PUSH0 PUSH2 0x157F DUP3 PUSH2 0x17C2 JUMP JUMPDEST PUSH2 0x15BE JUMPI PUSH1 0x40 MLOAD PUSH32 0x8C379A000000000000000000000000000000000000000000000000000000000 DUP2 MSTORE PUSH1 0x4 ADD PUSH2 0x15B5 SWAP1 PUSH2 0x258B JUMP JUMPDEST PUSH1 0x40 MLOAD DUP1 SWAP2 SUB SWAP1 REVERT JUMPDEST PUSH1 0x6 PUSH0 DUP4 DUP2 MSTORE PUSH1 0x20 ADD SWAP1 DUP2 MSTORE PUSH1 0x20 ADD PUSH0 KECCAK256 SLOAD SWAP1 POP SWAP2 SWAP1 POP JUMP JUMPDEST PUSH0 PUSH1 0x9 DUP1 SLOAD SWAP1 POP SWAP1 POP SWAP1 JUMP JUMPDEST PUSH0 PUSH1 0x2 PUSH0 SWAP1 SLOAD SWAP1 PUSH2 0x100 EXP SWAP1 DIV PUSH20 0xFFFFFFFFFFFFFFFFFFFFFFFFFFFFFFFFFFFFFFFF AND PUSH20 0xFFFFFFFFFFFFFFFFFFFFFFFFFFFFFFFFFFFFFFFF AND PUSH4 0x26567EEC CALLER PUSH1 0x40 MLOAD DUP3 PUSH4 0xFFFFFFFF AND PUSH1 0xE0 SHL DUP2 MSTORE PUSH1 0x4 ADD PUSH2 0x163E SWAP2 SWAP1 PUSH2 0x1F39 JUMP JUMPDEST PUSH1 0x20 PUSH1 0x40 MLOAD DUP1 DUP4 SUB DUP2 DUP7 GAS STATICCALL ISZERO DUP1 ISZERO PUSH2 0x1659 JUMPI RETURNDATASIZE PUSH0 PUSH0 RETURNDATACOPY RETURNDATASIZE PUSH0 REVERT JUMPDEST POP POP POP POP PUSH1 0x40 MLOAD RETURNDATASIZE PUSH1 0x1F NOT PUSH1 0x1F DUP3 ADD AND DUP3 ADD DUP1 PUSH1 0x40 MSTORE POP DUP2 ADD SWAP1 PUSH2 0x167D SWAP2 SWAP1 PUSH2 0x1F66 JUMP JUMPDEST SWAP1 POP PUSH2 0x1688 DUP5 PUSH2 0x17C2 JUMP JUMPDEST PUSH2 0x16C7 JUMPI PUSH1 0x40 MLOAD PUSH32 0x8C379A000000000000000000000000000000000000000000000000000000000 DUP2 MSTORE PUSH1 0x4 ADD PUSH2 0x16BE SWAP1 PUSH2 0x258B JUMP JUMPDEST PUSH1 0x40 MLOAD DUP1 SWAP2 SUB SWAP1 REVERT JUMPDEST PUSH0 PUSH1 0x4 PUSH0 DUP7 DUP2 MSTORE PUSH1 0x20 ADD SWAP1 DUP2 MSTORE PUSH1 0x20 ADD PUSH0 KECCAK256 PUSH1 0x40 MLOAD DUP1 PUSH1 0x40 ADD PUSH1 0x40 MSTORE SWAP1 DUP2 PUSH0 DUP3 ADD SLOAD DUP2 MSTORE PUSH1 0x20 ADD PUSH1 0x1 DUP3 ADD SLOAD DUP2 MSTORE POP POP SWAP1 POP DUP2 DUP2 PUSH0 ADD MLOAD EQ PUSH2 0x173E JUMPI PUSH1 0x40 MLOAD PUSH32 0x8C379A000000000000000000000000000000000000000000000000000000000 DUP2 MSTORE PUSH1 0x4 ADD PUSH2 0x1735 SWAP1 PUSH2 0x28B9 JUMP JUMPDEST PUSH1 0x40 MLOAD DUP1 SWAP2 SUB SWAP1 REVERT JUMPDEST PUSH1 0x3 DUP5 DUP5 SWAP1 POP GT PUSH2 0x1784 JUMPI PUSH1 0x40 MLOAD PUSH32 0x8C379A000000000000000000000000000000000000000000000000000000000 DUP2 MSTORE PUSH1 0x4 ADD PUSH2 0x177B SWAP1 PUSH2 0x27E7 JUMP JUMPDEST PUSH1 0x40 MLOAD DUP1 SWAP2 SUB SWAP1 REVERT JUMPDEST DUP4 DUP4 PUSH1 0x9 DUP4 PUSH1 0x20 ADD MLOAD DUP2 SLOAD DUP2 LT PUSH2 0x179E JUMPI PUSH2 0x179D PUSH2 0x2071 JUMP JUMPDEST JUMPDEST SWAP1 PUSH0 MSTORE PUSH1 0x20 PUSH0 KECCAK256 SWAP1 PUSH1 0x5 MUL ADD PUSH1 0x2 ADD SWAP2 DUP3 PUSH2 0x17BA SWAP3 SWAP2 SWAP1 PUSH2 0x26AA JUMP JUMPDEST POP POP POP POP POP POP JUMP JUMPDEST PUSH0 PUSH0 PUSH1 0x4 PUSH0 DUP5 DUP2 MSTORE PUSH1 0x20 ADD SWAP1 DUP2 MSTORE PUSH1 0x20 ADD PUSH0 KECCAK256 PUSH0 ADD SLOAD EQ ISZERO DUP1 ISZERO PUSH2 0x17EC JUMPI POP PUSH2 0x17EA DUP3 PUSH2 0x1803 JUMP JUMPDEST ISZERO JUMPDEST ISZERO PUSH2 0x17FA JUMPI PUSH1 0x1 SWAP1 POP PUSH2 0x17FE JUMP JUMPDEST PUSH0 SWAP1 POP JUMPDEST SWAP2 SWAP1 POP JUMP JUMPDEST PUSH0 PUSH0 PUSH1 0x4 PUSH0 DUP5 DUP2 MSTORE PUSH1 0x20 ADD SWAP1 DUP2 MSTORE PUSH1 0x20 ADD PUSH0 KECCAK256 PUSH1 0x40 MLOAD DUP1 PUSH1 0x40 ADD PUSH1 0x40 MSTORE SWAP1 DUP2 PUSH0 DUP3 ADD SLOAD DUP2 MSTORE PUSH1 0x20 ADD PUSH1 0x1 DUP3 ADD SLOAD DUP2 MSTORE POP POP SWAP1 POP PUSH1 0x9 DUP2 PUSH1 0x20 ADD MLOAD DUP2 SLOAD DUP2 LT PUSH2 0x184E JUMPI PUSH2 0x184D PUSH2 0x2071 JUMP JUMPDEST JUMPDEST SWAP1 PUSH0 MSTORE PUSH1 0x20 PUSH0 KECCAK256 SWAP1 PUSH1 0x5 MUL ADD PUSH1 0x4 ADD PUSH0 SWAP1 SLOAD SWAP1 PUSH2 0x100 EXP SWAP1 DIV PUSH1 0xFF AND SWAP2 POP POP SWAP2 SWAP1 POP JUMP JUMPDEST PUSH1 0x40 MLOAD DUP1 PUSH1 0xA0 ADD PUSH1 0x40 MSTORE DUP1 PUSH0 DUP2 MSTORE PUSH1 0x20 ADD PUSH0 DUP2 MSTORE PUSH1 0x20 ADD PUSH1 0x60 DUP2 MSTORE PUSH1 0x20 ADD PUSH0 DUP2 MSTORE PUSH1 0x20 ADD PUSH0 ISZERO ISZERO DUP2 MSTORE POP SWAP1 JUMP JUMPDEST PUSH1 0x40 MLOAD DUP1 PUSH1 0xC0 ADD PUSH1 0x40 MSTORE DUP1 PUSH0 DUP2 MSTORE PUSH1 0x20 ADD PUSH0 DUP2 MSTORE PUSH1 0x20 ADD PUSH0 DUP2 MSTORE PUSH1 0x20 ADD PUSH1 0x60 DUP2 MSTORE PUSH1 0x20 ADD PUSH0 DUP2 MSTORE PUSH1 0x20 ADD PUSH0 ISZERO ISZERO DUP2 MSTORE POP SWAP1 JUMP JUMPDEST PUSH0 PUSH0 REVERT JUMPDEST PUSH0 PUSH0 REVERT JUMPDEST PUSH0 DUP2 SWAP1 POP SWAP2 SWAP1 POP JUMP JUMPDEST PUSH2 0x18EC DUP2 PUSH2 0x18DA JUMP JUMPDEST DUP2 EQ PUSH2 0x18F6 JUMPI PUSH0 PUSH0 REVERT JUMPDEST POP JUMP JUMPDEST PUSH0 DUP2 CALLDATALOAD SWAP1 POP PUSH2 0x1907 DUP2 PUSH2 0x18E3 JUMP JUMPDEST SWAP3 SWAP2 POP POP JUMP JUMPDEST PUSH0 PUSH1 0x20 DUP3 DUP5 SUB SLT ISZERO PUSH2 0x1922 JUMPI PUSH2 0x1921 PUSH2 0x18D2 JUMP JUMPDEST JUMPDEST PUSH0 PUSH2 0x192F DUP5 DUP3 DUP6 ADD PUSH2 0x18F9 JUMP JUMPDEST SWAP2 POP POP SWAP3 SWAP2 POP POP JUMP JUMPDEST PUSH0 DUP2 MLOAD SWAP1 POP SWAP2 SWAP1 POP JUMP JUMPDEST PUSH0 DUP3 DUP3 MSTORE PUSH1 0x20 DUP3 ADD SWAP1 POP SWAP3 SWAP2 POP POP JUMP JUMPDEST PUSH0 DUP2 SWAP1 POP PUSH1 0x20 DUP3 ADD SWAP1 POP SWAP2 SWAP1 POP JUMP JUMPDEST PUSH2 0x196A DUP2 PUSH2 0x18DA JUMP JUMPDEST DUP3 MSTORE POP POP JUMP JUMPDEST PUSH0 DUP2 MLOAD SWAP1 POP SWAP2 SWAP1 POP JUMP JUMPDEST PUSH0 DUP3 DUP3 MSTORE PUSH1 0x20 DUP3 ADD SWAP1 POP SWAP3 SWAP2 POP POP JUMP JUMPDEST DUP3 DUP2 DUP4 MCOPY PUSH0 DUP4 DUP4 ADD MSTORE POP POP POP JUMP JUMPDEST PUSH0 PUSH1 0x1F NOT PUSH1 0x1F DUP4 ADD AND SWAP1 POP SWAP2 SWAP1 POP JUMP JUMPDEST PUSH0 PUSH2 0x19B2 DUP3 PUSH2 0x1970 JUMP JUMPDEST PUSH2 0x19BC DUP2 DUP6 PUSH2 0x197A JUMP JUMPDEST SWAP4 POP PUSH2 0x19CC DUP2 DUP6 PUSH1 0x20 DUP7 ADD PUSH2 0x198A JUMP JUMPDEST PUSH2 0x19D5 DUP2 PUSH2 0x1998 JUMP JUMPDEST DUP5 ADD SWAP2 POP POP SWAP3 SWAP2 POP POP JUMP JUMPDEST PUSH0 DUP2 ISZERO ISZERO SWAP1 POP SWAP2 SWAP1 POP JUMP JUMPDEST PUSH2 0x19F4 DUP2 PUSH2 0x19E0 JUMP JUMPDEST DUP3 MSTORE POP POP JUMP JUMPDEST PUSH0 PUSH1 0xA0 DUP4 ADD PUSH0 DUP4 ADD MLOAD PUSH2 0x1A0F PUSH0 DUP7 ADD DUP3 PUSH2 0x1961 JUMP JUMPDEST POP PUSH1 0x20 DUP4 ADD MLOAD PUSH2 0x1A22 PUSH1 0x20 DUP7 ADD DUP3 PUSH2 0x1961 JUMP JUMPDEST POP PUSH1 0x40 DUP4 ADD MLOAD DUP5 DUP3 SUB PUSH1 0x40 DUP7 ADD MSTORE PUSH2 0x1A3A DUP3 DUP3 PUSH2 0x19A8 JUMP JUMPDEST SWAP2 POP POP PUSH1 0x60 DUP4 ADD MLOAD PUSH2 0x1A4F PUSH1 0x60 DUP7 ADD DUP3 PUSH2 0x1961 JUMP JUMPDEST POP PUSH1 0x80 DUP4 ADD MLOAD PUSH2 0x1A62 PUSH1 0x80 DUP7 ADD DUP3 PUSH2 0x19EB JUMP JUMPDEST POP DUP1 SWAP2 POP POP SWAP3 SWAP2 POP POP JUMP JUMPDEST PUSH0 PUSH2 0x1A78 DUP4 DUP4 PUSH2 0x19FA JUMP JUMPDEST SWAP1 POP SWAP3 SWAP2 POP POP JUMP JUMPDEST PUSH0 PUSH1 0x20 DUP3 ADD SWAP1 POP SWAP2 SWAP1 POP JUMP JUMPDEST PUSH0 PUSH2 0x1A96 DUP3 PUSH2 0x1938 JUMP JUMPDEST PUSH2 0x1AA0 DUP2 DUP6 PUSH2 0x1942 JUMP JUMPDEST SWAP4 POP DUP4 PUSH1 0x20 DUP3 MUL DUP6 ADD PUSH2 0x1AB2 DUP6 PUSH2 0x1952 JUMP JUMPDEST DUP1 PUSH0 JUMPDEST DUP6 DUP2 LT ISZERO PUSH2 0x1AED JUMPI DUP5 DUP5 SUB DUP10 MSTORE DUP2 MLOAD PUSH2 0x1ACE DUP6 DUP3 PUSH2 0x1A6D JUMP JUMPDEST SWAP5 POP PUSH2 0x1AD9 DUP4 PUSH2 0x1A80 JUMP JUMPDEST SWAP3 POP PUSH1 0x20 DUP11 ADD SWAP10 POP POP PUSH1 0x1 DUP2 ADD SWAP1 POP PUSH2 0x1AB5 JUMP JUMPDEST POP DUP3 SWAP8 POP DUP8 SWAP6 POP POP POP POP POP POP SWAP3 SWAP2 POP POP JUMP JUMPDEST PUSH0 PUSH1 0x20 DUP3 ADD SWAP1 POP DUP2 DUP2 SUB PUSH0 DUP4 ADD MSTORE PUSH2 0x1B17 DUP2 DUP5 PUSH2 0x1A8C JUMP JUMPDEST SWAP1 POP SWAP3 SWAP2 POP POP JUMP JUMPDEST PUSH0 PUSH0 PUSH0 PUSH1 0x60 DUP5 DUP7 SUB SLT ISZERO PUSH2 0x1B36 JUMPI PUSH2 0x1B35 PUSH2 0x18D2 JUMP JUMPDEST JUMPDEST PUSH0 PUSH2 0x1B43 DUP7 DUP3 DUP8 ADD PUSH2 0x18F9 JUMP JUMPDEST SWAP4 POP POP PUSH1 0x20 PUSH2 0x1B54 DUP7 DUP3 DUP8 ADD PUSH2 0x18F9 JUMP JUMPDEST SWAP3 POP POP PUSH1 0x40 PUSH2 0x1B65 DUP7 DUP3 DUP8 ADD PUSH2 0x18F9 JUMP JUMPDEST SWAP2 POP POP SWAP3 POP SWAP3 POP SWAP3 JUMP JUMPDEST PUSH0 DUP2 MLOAD SWAP1 POP SWAP2 SWAP1 POP JUMP JUMPDEST PUSH0 DUP3 DUP3 MSTORE PUSH1 0x20 DUP3 ADD SWAP1 POP SWAP3 SWAP2 POP POP JUMP JUMPDEST PUSH0 DUP2 SWAP1 POP PUSH1 0x20 DUP3 ADD SWAP1 POP SWAP2 SWAP1 POP JUMP JUMPDEST PUSH0 PUSH1 0xC0 DUP4 ADD PUSH0 DUP4 ADD MLOAD PUSH2 0x1BAD PUSH0 DUP7 ADD DUP3 PUSH2 0x1961 JUMP JUMPDEST POP PUSH1 0x20 DUP4 ADD MLOAD PUSH2 0x1BC0 PUSH1 0x20 DUP7 ADD DUP3 PUSH2 0x1961 JUMP JUMPDEST POP PUSH1 0x40 DUP4 ADD MLOAD PUSH2 0x1BD3 PUSH1 0x40 DUP7 ADD DUP3 PUSH2 0x1961 JUMP JUMPDEST POP PUSH1 0x60 DUP4 ADD MLOAD DUP5 DUP3 SUB PUSH1 0x60 DUP7 ADD MSTORE PUSH2 0x1BEB DUP3 DUP3 PUSH2 0x19A8 JUMP JUMPDEST SWAP2 POP POP PUSH1 0x80 DUP4 ADD MLOAD PUSH2 0x1C00 PUSH1 0x80 DUP7 ADD DUP3 PUSH2 0x1961 JUMP JUMPDEST POP PUSH1 0xA0 DUP4 ADD MLOAD PUSH2 0x1C13 PUSH1 0xA0 DUP7 ADD DUP3 PUSH2 0x19EB JUMP JUMPDEST POP DUP1 SWAP2 POP POP SWAP3 SWAP2 POP POP JUMP JUMPDEST PUSH0 PUSH2 0x1C29 DUP4 DUP4 PUSH2 0x1B98 JUMP JUMPDEST SWAP1 POP SWAP3 SWAP2 POP POP JUMP JUMPDEST PUSH0 PUSH1 0x20 DUP3 ADD SWAP1 POP SWAP2 SWAP1 POP JUMP JUMPDEST PUSH0 PUSH2 0x1C47 DUP3 PUSH2 0x1B6F JUMP JUMPDEST PUSH2 0x1C51 DUP2 DUP6 PUSH2 0x1B79 JUMP JUMPDEST SWAP4 POP DUP4 PUSH1 0x20 DUP3 MUL DUP6 ADD PUSH2 0x1C63 DUP6 PUSH2 0x1B89 JUMP JUMPDEST DUP1 PUSH0 JUMPDEST DUP6 DUP2 LT ISZERO PUSH2 0x1C9E JUMPI DUP5 DUP5 SUB DUP10 MSTORE DUP2 MLOAD PUSH2 0x1C7F DUP6 DUP3 PUSH2 0x1C1E JUMP JUMPDEST SWAP5 POP PUSH2 0x1C8A DUP4 PUSH2 0x1C31 JUMP JUMPDEST SWAP3 POP PUSH1 0x20 DUP11 ADD SWAP10 POP POP PUSH1 0x1 DUP2 ADD SWAP1 POP PUSH2 0x1C66 JUMP JUMPDEST POP DUP3 SWAP8 POP DUP8 SWAP6 POP POP POP POP POP POP SWAP3 SWAP2 POP POP JUMP JUMPDEST PUSH0 PUSH1 0x20 DUP3 ADD SWAP1 POP DUP2 DUP2 SUB PUSH0 DUP4 ADD MSTORE PUSH2 0x1CC8 DUP2 DUP5 PUSH2 0x1C3D JUMP JUMPDEST SWAP1 POP SWAP3 SWAP2 POP POP JUMP JUMPDEST PUSH0 PUSH0 REVERT JUMPDEST PUSH0 PUSH0 REVERT JUMPDEST PUSH0 PUSH0 REVERT JUMPDEST PUSH0 PUSH0 DUP4 PUSH1 0x1F DUP5 ADD SLT PUSH2 0x1CF1 JUMPI PUSH2 0x1CF0 PUSH2 0x1CD0 JUMP JUMPDEST JUMPDEST DUP3 CALLDATALOAD SWAP1 POP PUSH8 0xFFFFFFFFFFFFFFFF DUP2 GT ISZERO PUSH2 0x1D0E JUMPI PUSH2 0x1D0D PUSH2 0x1CD4 JUMP JUMPDEST JUMPDEST PUSH1 0x20 DUP4 ADD SWAP2 POP DUP4 PUSH1 0x1 DUP3 MUL DUP4 ADD GT ISZERO PUSH2 0x1D2A JUMPI PUSH2 0x1D29 PUSH2 0x1CD8 JUMP JUMPDEST JUMPDEST SWAP3 POP SWAP3 SWAP1 POP JUMP JUMPDEST PUSH0 PUSH0 PUSH0 PUSH1 0x40 DUP5 DUP7 SUB SLT ISZERO PUSH2 0x1D48 JUMPI PUSH2 0x1D47 PUSH2 0x18D2 JUMP JUMPDEST JUMPDEST PUSH0 PUSH2 0x1D55 DUP7 DUP3 DUP8 ADD PUSH2 0x18F9 JUMP JUMPDEST SWAP4 POP POP PUSH1 0x20 DUP5 ADD CALLDATALOAD PUSH8 0xFFFFFFFFFFFFFFFF DUP2 GT ISZERO PUSH2 0x1D76 JUMPI PUSH2 0x1D75 PUSH2 0x18D6 JUMP JUMPDEST JUMPDEST PUSH2 0x1D82 DUP7 DUP3 DUP8 ADD PUSH2 0x1CDC JUMP JUMPDEST SWAP3 POP SWAP3 POP POP SWAP3 POP SWAP3 POP SWAP3 JUMP JUMPDEST PUSH0 PUSH1 0xA0 DUP4 ADD PUSH0 DUP4 ADD MLOAD PUSH2 0x1DA3 PUSH0 DUP7 ADD DUP3 PUSH2 0x1961 JUMP JUMPDEST POP PUSH1 0x20 DUP4 ADD MLOAD PUSH2 0x1DB6 PUSH1 0x20 DUP7 ADD DUP3 PUSH2 0x1961 JUMP JUMPDEST POP PUSH1 0x40 DUP4 ADD MLOAD DUP5 DUP3 SUB PUSH1 0x40 DUP7 ADD MSTORE PUSH2 0x1DCE DUP3 DUP3 PUSH2 0x19A8 JUMP JUMPDEST SWAP2 POP POP PUSH1 0x60 DUP4 ADD MLOAD PUSH2 0x1DE3 PUSH1 0x60 DUP7 ADD DUP3 PUSH2 0x1961 JUMP JUMPDEST POP PUSH1 0x80 DUP4 ADD MLOAD PUSH2 0x1DF6 PUSH1 0x80 DUP7 ADD DUP3 PUSH2 0x19EB JUMP JUMPDEST POP DUP1 SWAP2 POP POP SWAP3 SWAP2 POP POP JUMP JUMPDEST PUSH0 PUSH1 0x20 DUP3 ADD SWAP1 POP DUP2 DUP2 SUB PUSH0 DUP4 ADD MSTORE PUSH2 0x1E19 DUP2 DUP5 PUSH2 0x1D8E JUMP JUMPDEST SWAP1 POP SWAP3 SWAP2 POP POP JUMP JUMPDEST PUSH0 PUSH0 PUSH1 0x40 DUP4 DUP6 SUB SLT ISZERO PUSH2 0x1E37 JUMPI PUSH2 0x1E36 PUSH2 0x18D2 JUMP JUMPDEST JUMPDEST PUSH0 PUSH2 0x1E44 DUP6 DUP3 DUP7 ADD PUSH2 0x18F9 JUMP JUMPDEST SWAP3 POP POP PUSH1 0x20 PUSH2 0x1E55 DUP6 DUP3 DUP7 ADD PUSH2 0x18F9 JUMP JUMPDEST SWAP2 POP POP SWAP3 POP SWAP3 SWAP1 POP JUMP JUMPDEST PUSH2 0x1E68 DUP2 PUSH2 0x19E0 JUMP JUMPDEST DUP3 MSTORE POP POP JUMP JUMPDEST PUSH0 PUSH1 0x20 DUP3 ADD SWAP1 POP PUSH2 0x1E81 PUSH0 DUP4 ADD DUP5 PUSH2 0x1E5F JUMP JUMPDEST SWAP3 SWAP2 POP POP JUMP JUMPDEST PUSH0 PUSH0 PUSH1 0x20 DUP4 DUP6 SUB SLT ISZERO PUSH2 0x1E9D JUMPI PUSH2 0x1E9C PUSH2 0x18D2 JUMP JUMPDEST JUMPDEST PUSH0 DUP4 ADD CALLDATALOAD PUSH8 0xFFFFFFFFFFFFFFFF DUP2 GT ISZERO PUSH2 0x1EBA JUMPI PUSH2 0x1EB9 PUSH2 0x18D6 JUMP JUMPDEST JUMPDEST PUSH2 0x1EC6 DUP6 DUP3 DUP7 ADD PUSH2 0x1CDC JUMP JUMPDEST SWAP3 POP SWAP3 POP POP SWAP3 POP SWAP3 SWAP1 POP JUMP JUMPDEST PUSH2 0x1EDB DUP2 PUSH2 0x18DA JUMP JUMPDEST DUP3 MSTORE POP POP JUMP JUMPDEST PUSH0 PUSH1 0x20 DUP3 ADD SWAP1 POP PUSH2 0x1EF4 PUSH0 DUP4 ADD DUP5 PUSH2 0x1ED2 JUMP JUMPDEST SWAP3 SWAP2 POP POP JUMP JUMPDEST PUSH0 PUSH20 0xFFFFFFFFFFFFFFFFFFFFFFFFFFFFFFFFFFFFFFFF DUP3 AND SWAP1 POP SWAP2 SWAP1 POP JUMP JUMPDEST PUSH0 PUSH2 0x1F23 DUP3 PUSH2 0x1EFA JUMP JUMPDEST SWAP1 POP SWAP2 SWAP1 POP JUMP JUMPDEST PUSH2 0x1F33 DUP2 PUSH2 0x1F19 JUMP JUMPDEST DUP3 MSTORE POP POP JUMP JUMPDEST PUSH0 PUSH1 0x20 DUP3 ADD SWAP1 POP PUSH2 0x1F4C PUSH0 DUP4 ADD DUP5 PUSH2 0x1F2A JUMP JUMPDEST SWAP3 SWAP2 POP POP JUMP JUMPDEST PUSH0 DUP2 MLOAD SWAP1 POP PUSH2 0x1F60 DUP2 PUSH2 0x18E3 JUMP JUMPDEST SWAP3 SWAP2 POP POP JUMP JUMPDEST PUSH0 PUSH1 0x20 DUP3 DUP5 SUB SLT ISZERO PUSH2 0x1F7B JUMPI PUSH2 0x1F7A PUSH2 0x18D2 JUMP JUMPDEST JUMPDEST PUSH0 PUSH2 0x1F88 DUP5 DUP3 DUP6 ADD PUSH2 0x1F52 JUMP JUMPDEST SWAP2 POP POP SWAP3 SWAP2 POP POP JUMP JUMPDEST PUSH0 DUP3 DUP3 MSTORE PUSH1 0x20 DUP3 ADD SWAP1 POP SWAP3 SWAP2 POP POP JUMP JUMPDEST PUSH32 0x506F737420646F6573206E6F7420657869737400000000000000000000000000 PUSH0 DUP3 ADD MSTORE POP JUMP JUMPDEST PUSH0 PUSH2 0x1FD5 PUSH1 0x13 DUP4 PUSH2 0x1F91 JUMP JUMPDEST SWAP2 POP PUSH2 0x1FE0 DUP3 PUSH2 0x1FA1 JUMP JUMPDEST PUSH1 0x20 DUP3 ADD SWAP1 POP SWAP2 SWAP1 POP JUMP JUMPDEST PUSH0 PUSH1 0x20 DUP3 ADD SWAP1 POP DUP2 DUP2 SUB PUSH0 DUP4 ADD MSTORE PUSH2 0x2002 DUP2 PUSH2 0x1FC9 JUMP JUMPDEST SWAP1 POP SWAP2 SWAP1 POP JUMP JUMPDEST PUSH32 0x4E6F7420706F7374206F776E6572000000000000000000000000000000000000 PUSH0 DUP3 ADD MSTORE POP JUMP JUMPDEST PUSH0 PUSH2 0x203D PUSH1 0xE DUP4 PUSH2 0x1F91 JUMP JUMPDEST SWAP2 POP PUSH2 0x2048 DUP3 PUSH2 0x2009 JUMP JUMPDEST PUSH1 0x20 DUP3 ADD SWAP1 POP SWAP2 SWAP1 POP JUMP JUMPDEST PUSH0 PUSH1 0x20 DUP3 ADD SWAP1 POP DUP2 DUP2 SUB PUSH0 DUP4 ADD MSTORE PUSH2 0x206A DUP2 PUSH2 0x2031 JUMP JUMPDEST SWAP1 POP SWAP2 SWAP1 POP JUMP JUMPDEST PUSH32 0x4E487B7100000000000000000000000000000000000000000000000000000000 PUSH0 MSTORE PUSH1 0x32 PUSH1 0x4 MSTORE PUSH1 0x24 PUSH0 REVERT JUMPDEST PUSH32 0x416C72656164792064656C657465640000000000000000000000000000000000 PUSH0 DUP3 ADD MSTORE POP JUMP JUMPDEST PUSH0 PUSH2 0x20D2 PUSH1 0xF DUP4 PUSH2 0x1F91 JUMP JUMPDEST SWAP2 POP PUSH2 0x20DD DUP3 PUSH2 0x209E JUMP JUMPDEST PUSH1 0x20 DUP3 ADD SWAP1 POP SWAP2 SWAP1 POP JUMP JUMPDEST PUSH0 PUSH1 0x20 DUP3 ADD SWAP1 POP DUP2 DUP2 SUB PUSH0 DUP4 ADD MSTORE PUSH2 0x20FF DUP2 PUSH2 0x20C6 JUMP JUMPDEST SWAP1 POP SWAP2 SWAP1 POP JUMP JUMPDEST PUSH32 0x4E487B7100000000000000000000000000000000000000000000000000000000 PUSH0 MSTORE PUSH1 0x41 PUSH1 0x4 MSTORE PUSH1 0x24 PUSH0 REVERT JUMPDEST PUSH32 0x4E487B7100000000000000000000000000000000000000000000000000000000 PUSH0 MSTORE PUSH1 0x22 PUSH1 0x4 MSTORE PUSH1 0x24 PUSH0 REVERT JUMPDEST PUSH0 PUSH1 0x2 DUP3 DIV SWAP1 POP PUSH1 0x1 DUP3 AND DUP1 PUSH2 0x2177 JUMPI PUSH1 0x7F DUP3 AND SWAP2 POP JUMPDEST PUSH1 0x20 DUP3 LT DUP2 SUB PUSH2 0x218A JUMPI PUSH2 0x2189 PUSH2 0x2133 JUMP JUMPDEST JUMPDEST POP SWAP2 SWAP1 POP JUMP JUMPDEST PUSH32 0x4E487B7100000000000000000000000000000000000000000000000000000000 PUSH0 MSTORE PUSH1 0x11 PUSH1 0x4 MSTORE PUSH1 0x24 PUSH0 REVERT JUMPDEST PUSH0 PUSH2 0x21C7 DUP3 PUSH2 0x18DA JUMP JUMPDEST SWAP2 POP PUSH2 0x21D2 DUP4 PUSH2 0x18DA JUMP JUMPDEST SWAP3 POP DUP3 DUP3 ADD SWAP1 POP DUP1 DUP3 GT ISZERO PUSH2 0x21EA JUMPI PUSH2 0x21E9 PUSH2 0x2190 JUMP JUMPDEST JUMPDEST SWAP3 SWAP2 POP POP JUMP JUMPDEST PUSH0 PUSH2 0x21FA DUP3 PUSH2 0x18DA JUMP JUMPDEST SWAP2 POP PUSH2 0x2205 DUP4 PUSH2 0x18DA JUMP JUMPDEST SWAP3 POP DUP3 DUP3 SUB SWAP1 POP DUP2 DUP2 GT ISZERO PUSH2 0x221D JUMPI PUSH2 0x221C PUSH2 0x2190 JUMP JUMPDEST JUMPDEST SWAP3 SWAP2 POP POP JUMP JUMPDEST PUSH0 PUSH2 0x222D DUP3 PUSH2 0x18DA JUMP JUMPDEST SWAP2 POP PUSH32 0xFFFFFFFFFFFFFFFFFFFFFFFFFFFFFFFFFFFFFFFFFFFFFFFFFFFFFFFFFFFFFFFF DUP3 SUB PUSH2 0x225F JUMPI PUSH2 0x225E PUSH2 0x2190 JUMP JUMPDEST JUMPDEST PUSH1 0x1 DUP3 ADD SWAP1 POP SWAP2 SWAP1 POP JUMP JUMPDEST PUSH32 0x456D70747920636F6D6D656E7400000000000000000000000000000000000000 PUSH0 DUP3 ADD MSTORE POP JUMP JUMPDEST PUSH0 PUSH2 0x229E PUSH1 0xD DUP4 PUSH2 0x1F91 JUMP JUMPDEST SWAP2 POP PUSH2 0x22A9 DUP3 PUSH2 0x226A JUMP JUMPDEST PUSH1 0x20 DUP3 ADD SWAP1 POP SWAP2 SWAP1 POP JUMP JUMPDEST PUSH0 PUSH1 0x20 DUP3 ADD SWAP1 POP DUP2 DUP2 SUB PUSH0 DUP4 ADD MSTORE PUSH2 0x22CB DUP2 PUSH2 0x2292 JUMP JUMPDEST SWAP1 POP SWAP2 SWAP1 POP JUMP JUMPDEST PUSH0 DUP2 SWAP1 POP DUP2 PUSH0 MSTORE PUSH1 0x20 PUSH0 KECCAK256 SWAP1 POP SWAP2 SWAP1 POP JUMP JUMPDEST PUSH0 PUSH1 0x20 PUSH1 0x1F DUP4 ADD DIV SWAP1 POP SWAP2 SWAP1 POP JUMP JUMPDEST PUSH0 DUP3 DUP3 SHL SWAP1 POP SWAP3 SWAP2 POP POP JUMP JUMPDEST PUSH0 PUSH1 0x8 DUP4 MUL PUSH2 0x232E PUSH32 0xFFFFFFFFFFFFFFFFFFFFFFFFFFFFFFFFFFFFFFFFFFFFFFFFFFFFFFFFFFFFFFFF DUP3 PUSH2 0x22F3 JUMP JUMPDEST PUSH2 0x2338 DUP7 DUP4 PUSH2 0x22F3 JUMP JUMPDEST SWAP6 POP DUP1 NOT DUP5 AND SWAP4 POP DUP1 DUP7 AND DUP5 OR SWAP3 POP POP POP SWAP4 SWAP3 POP POP POP JUMP JUMPDEST PUSH0 DUP2 SWAP1 POP SWAP2 SWAP1 POP JUMP JUMPDEST PUSH0 PUSH2 0x2373 PUSH2 0x236E PUSH2 0x2369 DUP5 PUSH2 0x18DA JUMP JUMPDEST PUSH2 0x2350 JUMP JUMPDEST PUSH2 0x18DA JUMP JUMPDEST SWAP1 POP SWAP2 SWAP1 POP JUMP JUMPDEST PUSH0 DUP2 SWAP1 POP SWAP2 SWAP1 POP JUMP JUMPDEST PUSH2 0x238C DUP4 PUSH2 0x2359 JUMP JUMPDEST PUSH2 0x23A0 PUSH2 0x2398 DUP3 PUSH2 0x237A JUMP JUMPDEST DUP5 DUP5 SLOAD PUSH2 0x22FF JUMP JUMPDEST DUP3 SSTORE POP POP POP POP JUMP JUMPDEST PUSH0 PUSH0 SWAP1 POP SWAP1 JUMP JUMPDEST PUSH2 0x23B7 PUSH2 0x23A8 JUMP JUMPDEST PUSH2 0x23C2 DUP2 DUP5 DUP5 PUSH2 0x2383 JUMP JUMPDEST POP POP POP JUMP JUMPDEST JUMPDEST DUP2 DUP2 LT ISZERO PUSH2 0x23E5 JUMPI PUSH2 0x23DA PUSH0 DUP3 PUSH2 0x23AF JUMP JUMPDEST PUSH1 0x1 DUP2 ADD SWAP1 POP PUSH2 0x23C8 JUMP JUMPDEST POP POP JUMP JUMPDEST PUSH1 0x1F DUP3 GT ISZERO PUSH2 0x242A JUMPI PUSH2 0x23FB DUP2 PUSH2 0x22D2 JUMP JUMPDEST PUSH2 0x2404 DUP5 PUSH2 0x22E4 JUMP JUMPDEST DUP2 ADD PUSH1 0x20 DUP6 LT ISZERO PUSH2 0x2413 JUMPI DUP2 SWAP1 POP JUMPDEST PUSH2 0x2427 PUSH2 0x241F DUP6 PUSH2 0x22E4 JUMP JUMPDEST DUP4 ADD DUP3 PUSH2 0x23C7 JUMP JUMPDEST POP POP JUMPDEST POP POP POP JUMP JUMPDEST PUSH0 DUP3 DUP3 SHR SWAP1 POP SWAP3 SWAP2 POP POP JUMP JUMPDEST PUSH0 PUSH2 0x244A PUSH0 NOT DUP5 PUSH1 0x8 MUL PUSH2 0x242F JUMP JUMPDEST NOT DUP1 DUP4 AND SWAP2 POP POP SWAP3 SWAP2 POP POP JUMP JUMPDEST PUSH0 PUSH2 0x2462 DUP4 DUP4 PUSH2 0x243B JUMP JUMPDEST SWAP2 POP DUP3 PUSH1 0x2 MUL DUP3 OR SWAP1 POP SWAP3 SWAP2 POP POP JUMP JUMPDEST PUSH2 0x247B DUP3 PUSH2 0x1970 JUMP JUMPDEST PUSH8 0xFFFFFFFFFFFFFFFF DUP2 GT ISZERO PUSH2 0x2494 JUMPI PUSH2 0x2493 PUSH2 0x2106 JUMP JUMPDEST JUMPDEST PUSH2 0x249E DUP3 SLOAD PUSH2 0x2160 JUMP JUMPDEST PUSH2 0x24A9 DUP3 DUP3 DUP6 PUSH2 0x23E9 JUMP JUMPDEST PUSH0 PUSH1 0x20 SWAP1 POP PUSH1 0x1F DUP4 GT PUSH1 0x1 DUP2 EQ PUSH2 0x24DA JUMPI PUSH0 DUP5 ISZERO PUSH2 0x24C8 JUMPI DUP3 DUP8 ADD MLOAD SWAP1 POP JUMPDEST PUSH2 0x24D2 DUP6 DUP3 PUSH2 0x2457 JUMP JUMPDEST DUP7 SSTORE POP PUSH2 0x2539 JUMP JUMPDEST PUSH1 0x1F NOT DUP5 AND PUSH2 0x24E8 DUP7 PUSH2 0x22D2 JUMP JUMPDEST PUSH0 JUMPDEST DUP3 DUP2 LT ISZERO PUSH2 0x250F JUMPI DUP5 DUP10 ADD MLOAD DUP3 SSTORE PUSH1 0x1 DUP3 ADD SWAP2 POP PUSH1 0x20 DUP6 ADD SWAP5 POP PUSH1 0x20 DUP2 ADD SWAP1 POP PUSH2 0x24EA JUMP JUMPDEST DUP7 DUP4 LT ISZERO PUSH2 0x252C JUMPI DUP5 DUP10 ADD MLOAD PUSH2 0x2528 PUSH1 0x1F DUP10 AND DUP3 PUSH2 0x243B JUMP JUMPDEST DUP4 SSTORE POP JUMPDEST PUSH1 0x1 PUSH1 0x2 DUP9 MUL ADD DUP9 SSTORE POP POP POP JUMPDEST POP POP POP POP POP POP JUMP JUMPDEST PUSH32 0x506F737420646F65736E27742065786973740000000000000000000000000000 PUSH0 DUP3 ADD MSTORE POP JUMP JUMPDEST PUSH0 PUSH2 0x2575 PUSH1 0x12 DUP4 PUSH2 0x1F91 JUMP JUMPDEST SWAP2 POP PUSH2 0x2580 DUP3 PUSH2 0x2541 JUMP JUMPDEST PUSH1 0x20 DUP3 ADD SWAP1 POP SWAP2 SWAP1 POP JUMP JUMPDEST PUSH0 PUSH1 0x20 DUP3 ADD SWAP1 POP DUP2 DUP2 SUB PUSH0 DUP4 ADD MSTORE PUSH2 0x25A2 DUP2 PUSH2 0x2569 JUMP JUMPDEST SWAP1 POP SWAP2 SWAP1 POP JUMP JUMPDEST PUSH32 0x596F7520646F6E2774206F776E207468697320636F6D6D656E74000000000000 PUSH0 DUP3 ADD MSTORE POP JUMP JUMPDEST PUSH0 PUSH2 0x25DD PUSH1 0x1A DUP4 PUSH2 0x1F91 JUMP JUMPDEST SWAP2 POP PUSH2 0x25E8 DUP3 PUSH2 0x25A9 JUMP JUMPDEST PUSH1 0x20 DUP3 ADD SWAP1 POP SWAP2 SWAP1 POP JUMP JUMPDEST PUSH0 PUSH1 0x20 DUP3 ADD SWAP1 POP DUP2 DUP2 SUB PUSH0 DUP4 ADD MSTORE PUSH2 0x260A DUP2 PUSH2 0x25D1 JUMP JUMPDEST SWAP1 POP SWAP2 SWAP1 POP JUMP JUMPDEST PUSH32 0x436F6D6D656E7420646F6573206E6F7420657873697374000000000000000000 PUSH0 DUP3 ADD MSTORE POP JUMP JUMPDEST PUSH0 PUSH2 0x2645 PUSH1 0x17 DUP4 PUSH2 0x1F91 JUMP JUMPDEST SWAP2 POP PUSH2 0x2650 DUP3 PUSH2 0x2611 JUMP JUMPDEST PUSH1 0x20 DUP3 ADD SWAP1 POP SWAP2 SWAP1 POP JUMP JUMPDEST PUSH0 PUSH1 0x20 DUP3 ADD SWAP1 POP DUP2 DUP2 SUB PUSH0 DUP4 ADD MSTORE PUSH2 0x2672 DUP2 PUSH2 0x2639 JUMP JUMPDEST SWAP1 POP SWAP2 SWAP1 POP JUMP JUMPDEST PUSH0 PUSH2 0x2683 DUP3 PUSH2 0x18DA JUMP JUMPDEST SWAP2 POP PUSH0 DUP3 SUB PUSH2 0x2695 JUMPI PUSH2 0x2694 PUSH2 0x2190 JUMP JUMPDEST JUMPDEST PUSH1 0x1 DUP3 SUB SWAP1 POP SWAP2 SWAP1 POP JUMP JUMPDEST PUSH0 DUP3 SWAP1 POP SWAP3 SWAP2 POP POP JUMP JUMPDEST PUSH2 0x26B4 DUP4 DUP4 PUSH2 0x26A0 JUMP JUMPDEST PUSH8 0xFFFFFFFFFFFFFFFF DUP2 GT ISZERO PUSH2 0x26CD JUMPI PUSH2 0x26CC PUSH2 0x2106 JUMP JUMPDEST JUMPDEST PUSH2 0x26D7 DUP3 SLOAD PUSH2 0x2160 JUMP JUMPDEST PUSH2 0x26E2 DUP3 DUP3 DUP6 PUSH2 0x23E9 JUMP JUMPDEST PUSH0 PUSH1 0x1F DUP4 GT PUSH1 0x1 DUP2 EQ PUSH2 0x270F JUMPI PUSH0 DUP5 ISZERO PUSH2 0x26FD JUMPI DUP3 DUP8 ADD CALLDATALOAD SWAP1 POP JUMPDEST PUSH2 0x2707 DUP6 DUP3 PUSH2 0x2457 JUMP JUMPDEST DUP7 SSTORE POP PUSH2 0x276E JUMP JUMPDEST PUSH1 0x1F NOT DUP5 AND PUSH2 0x271D DUP7 PUSH2 0x22D2 JUMP JUMPDEST PUSH0 JUMPDEST DUP3 DUP2 LT ISZERO PUSH2 0x2744 JUMPI DUP5 DUP10 ADD CALLDATALOAD DUP3 SSTORE PUSH1 0x1 DUP3 ADD SWAP2 POP PUSH1 0x20 DUP6 ADD SWAP5 POP PUSH1 0x20 DUP2 ADD SWAP1 POP PUSH2 0x271F JUMP JUMPDEST DUP7 DUP4 LT ISZERO PUSH2 0x2761 JUMPI DUP5 DUP10 ADD CALLDATALOAD PUSH2 0x275D PUSH1 0x1F DUP10 AND DUP3 PUSH2 0x243B JUMP JUMPDEST DUP4 SSTORE POP JUMPDEST PUSH1 0x1 PUSH1 0x2 DUP9 MUL ADD DUP9 SSTORE POP POP POP JUMPDEST POP POP POP POP POP POP POP JUMP JUMPDEST PUSH32 0x636F6E74656E742073686F756C642062652061746C65617374206C6574746572 PUSH0 DUP3 ADD MSTORE PUSH32 0x2033000000000000000000000000000000000000000000000000000000000000 PUSH1 0x20 DUP3 ADD MSTORE POP JUMP JUMPDEST PUSH0 PUSH2 0x27D1 PUSH1 0x22 DUP4 PUSH2 0x1F91 JUMP JUMPDEST SWAP2 POP PUSH2 0x27DC DUP3 PUSH2 0x2777 JUMP JUMPDEST PUSH1 0x40 DUP3 ADD SWAP1 POP SWAP2 SWAP1 POP JUMP JUMPDEST PUSH0 PUSH1 0x20 DUP3 ADD SWAP1 POP DUP2 DUP2 SUB PUSH0 DUP4 ADD MSTORE PUSH2 0x27FE DUP2 PUSH2 0x27C5 JUMP JUMPDEST SWAP1 POP SWAP2 SWAP1 POP JUMP JUMPDEST DUP3 DUP2 DUP4 CALLDATACOPY PUSH0 DUP4 DUP4 ADD MSTORE POP POP POP JUMP JUMPDEST PUSH0 PUSH2 0x281E DUP4 DUP6 PUSH2 0x1F91 JUMP JUMPDEST SWAP4 POP PUSH2 0x282B DUP4 DUP6 DUP5 PUSH2 0x2805 JUMP JUMPDEST PUSH2 0x2834 DUP4 PUSH2 0x1998 JUMP JUMPDEST DUP5 ADD SWAP1 POP SWAP4 SWAP3 POP POP POP JUMP JUMPDEST PUSH0 PUSH1 0x40 DUP3 ADD SWAP1 POP DUP2 DUP2 SUB PUSH0 DUP4 ADD MSTORE PUSH2 0x2858 DUP2 DUP6 DUP8 PUSH2 0x2813 JUMP JUMPDEST SWAP1 POP PUSH2 0x2867 PUSH1 0x20 DUP4 ADD DUP5 PUSH2 0x1ED2 JUMP JUMPDEST SWAP5 SWAP4 POP POP POP POP JUMP JUMPDEST PUSH32 0x796F7520646F6E27742068617665207468697320706F73740000000000000000 PUSH0 DUP3 ADD MSTORE POP JUMP JUMPDEST PUSH0 PUSH2 0x28A3 PUSH1 0x18 DUP4 PUSH2 0x1F91 JUMP JUMPDEST SWAP2 POP PUSH2 0x28AE DUP3 PUSH2 0x286F JUMP JUMPDEST PUSH1 0x20 DUP3 ADD SWAP1 POP SWAP2 SWAP1 POP JUMP JUMPDEST PUSH0 PUSH1 0x20 DUP3 ADD SWAP1 POP DUP2 DUP2 SUB PUSH0 DUP4 ADD MSTORE PUSH2 0x28D0 DUP2 PUSH2 0x2897 JUMP JUMPDEST SWAP1 POP SWAP2 SWAP1 POP JUMP INVALID LOG2 PUSH5 0x6970667358 0x22 SLT KECCAK256 0xE8 PUSH28 0xFD86D40902D43DABDE963C5052406397561413C3F265A3AEFDB4F66B ORIGIN INVALID PUSH5 0x736F6C6343 STOP ADDMOD 0x1E STOP CALLER "
		},
		"gasEstimates": {
			"creation": {
				"codeDepositCost": "2101800",
				"executionCost": "infinite",
				"totalCost": "infinite"
			},
			"external": {
				"commentOnPost(uint256,string)": "infinite",
				"createPost(string)": "infinite",
				"deleteComment(uint256)": "infinite",
				"deletePost(uint256)": "infinite",
				"editComment(uint256,string)": "infinite",
				"editPost(uint256,string)": "infinite",
				"getCommentsByPost(uint256,uint256,uint256)": "infinite",
				"getPostById(uint256)": "infinite",
				"getPostCommentCount(uint256)": "infinite",
				"getPostLikeCount(uint256)": "infinite",
				"getPostsByUser(uint256)": "infinite",
				"getTotalPostCount()": "2506",
				"hasUserLikedPost(uint256,uint256)": "infinite",
				"togglePostLike(uint256)": "infinite"
			},
			"internal": {
				"_isPostDeleted(uint256)": "infinite",
				"_postExists(uint256)": "infinite"
			}
		},
		"methodIdentifiers": {
			"commentOnPost(uint256,string)": "64732154",
			"createPost(string)": "c7303c61",
			"deleteComment(uint256)": "7d0b1026",
			"deletePost(uint256)": "094cd5ee",
			"editComment(uint256,string)": "ad816029",
			"editPost(uint256,string)": "fa99654a",
			"getCommentsByPost(uint256,uint256,uint256)": "60f74377",
			"getPostById(uint256)": "64e95895",
			"getPostCommentCount(uint256)": "d0446c41",
			"getPostLikeCount(uint256)": "d6e93896",
			"getPostsByUser(uint256)": "211117ff",
			"getTotalPostCount()": "efbe8469",
			"hasUserLikedPost(uint256,uint256)": "65aa1ed9",
			"togglePostLike(uint256)": "96f25073"
		}
	},
	"abi": [
		{
			"inputs": [
				{
					"internalType": "address",
					"name": "_profileManagerAddress",
					"type": "address"
				}
			],
			"stateMutability": "nonpayable",
			"type": "constructor"
		},
		{
			"anonymous": false,
			"inputs": [
				{
					"indexed": true,
					"internalType": "uint256",
					"name": "postId",
					"type": "uint256"
				},
				{
					"indexed": true,
					"internalType": "uint256",
					"name": "ownerId",
					"type": "uint256"
				},
				{
					"indexed": false,
					"internalType": "string",
					"name": "content",
					"type": "string"
				},
				{
					"indexed": false,
					"internalType": "uint256",
					"name": "createdAt",
					"type": "uint256"
				}
			],
			"name": "PostCreated",
			"type": "event"
		},
		{
			"inputs": [
				{
					"internalType": "uint256",
					"name": "_postId",
					"type": "uint256"
				},
				{
					"internalType": "string",
					"name": "_content",
					"type": "string"
				}
			],
			"name": "commentOnPost",
			"outputs": [],
			"stateMutability": "nonpayable",
			"type": "function"
		},
		{
			"inputs": [
				{
					"internalType": "string",
					"name": "_content",
					"type": "string"
				}
			],
			"name": "createPost",
			"outputs": [],
			"stateMutability": "nonpayable",
			"type": "function"
		},
		{
			"inputs": [
				{
					"internalType": "uint256",
					"name": "_commentId",
					"type": "uint256"
				}
			],
			"name": "deleteComment",
			"outputs": [],
			"stateMutability": "nonpayable",
			"type": "function"
		},
		{
			"inputs": [
				{
					"internalType": "uint256",
					"name": "_postId",
					"type": "uint256"
				}
			],
			"name": "deletePost",
			"outputs": [],
			"stateMutability": "nonpayable",
			"type": "function"
		},
		{
			"inputs": [
				{
					"internalType": "uint256",
					"name": "_commentId",
					"type": "uint256"
				},
				{
					"internalType": "string",
					"name": "newContent",
					"type": "string"
				}
			],
			"name": "editComment",
			"outputs": [],
			"stateMutability": "nonpayable",
			"type": "function"
		},
		{
			"inputs": [
				{
					"internalType": "uint256",
					"name": "_postId",
					"type": "uint256"
				},
				{
					"internalType": "string",
					"name": "_content",
					"type": "string"
				}
			],
			"name": "editPost",
			"outputs": [],
			"stateMutability": "nonpayable",
			"type": "function"
		},
		{
			"inputs": [
				{
					"internalType": "uint256",
					"name": "_postId",
					"type": "uint256"
				},
				{
					"internalType": "uint256",
					"name": "_offset",
					"type": "uint256"
				},
				{
					"internalType": "uint256",
					"name": "_limit",
					"type": "uint256"
				}
			],
			"name": "getCommentsByPost",
			"outputs": [
				{
					"components": [
						{
							"internalType": "uint256",
							"name": "commentId",
							"type": "uint256"
						},
						{
							"internalType": "uint256",
							"name": "postId",
							"type": "uint256"
						},
						{
							"internalType": "uint256",
							"name": "authorId",
							"type": "uint256"
						},
						{
							"internalType": "string",
							"name": "content",
							"type": "string"
						},
						{
							"internalType": "uint256",
							"name": "createdAt",
							"type": "uint256"
						},
						{
							"internalType": "bool",
							"name": "isDeleted",
							"type": "bool"
						}
					],
					"internalType": "struct PostManager.Comment[]",
					"name": "",
					"type": "tuple[]"
				}
			],
			"stateMutability": "view",
			"type": "function"
		},
		{
			"inputs": [
				{
					"internalType": "uint256",
					"name": "_postId",
					"type": "uint256"
				}
			],
			"name": "getPostById",
			"outputs": [
				{
					"components": [
						{
							"internalType": "uint256",
							"name": "ownerId",
							"type": "uint256"
						},
						{
							"internalType": "uint256",
							"name": "postId",
							"type": "uint256"
						},
						{
							"internalType": "string",
							"name": "content",
							"type": "string"
						},
						{
							"internalType": "uint256",
							"name": "createdAt",
							"type": "uint256"
						},
						{
							"internalType": "bool",
							"name": "isDeleted",
							"type": "bool"
						}
					],
					"internalType": "struct PostManager.Post",
					"name": "",
					"type": "tuple"
				}
			],
			"stateMutability": "view",
			"type": "function"
		},
		{
			"inputs": [
				{
					"internalType": "uint256",
					"name": "_postId",
					"type": "uint256"
				}
			],
			"name": "getPostCommentCount",
			"outputs": [
				{
					"internalType": "uint256",
					"name": "",
					"type": "uint256"
				}
			],
			"stateMutability": "view",
			"type": "function"
		},
		{
			"inputs": [
				{
					"internalType": "uint256",
					"name": "_postId",
					"type": "uint256"
				}
			],
			"name": "getPostLikeCount",
			"outputs": [
				{
					"internalType": "uint256",
					"name": "",
					"type": "uint256"
				}
			],
			"stateMutability": "view",
			"type": "function"
		},
		{
			"inputs": [
				{
					"internalType": "uint256",
					"name": "userId",
					"type": "uint256"
				}
			],
			"name": "getPostsByUser",
			"outputs": [
				{
					"components": [
						{
							"internalType": "uint256",
							"name": "ownerId",
							"type": "uint256"
						},
						{
							"internalType": "uint256",
							"name": "postId",
							"type": "uint256"
						},
						{
							"internalType": "string",
							"name": "content",
							"type": "string"
						},
						{
							"internalType": "uint256",
							"name": "createdAt",
							"type": "uint256"
						},
						{
							"internalType": "bool",
							"name": "isDeleted",
							"type": "bool"
						}
					],
					"internalType": "struct PostManager.Post[]",
					"name": "",
					"type": "tuple[]"
				}
			],
			"stateMutability": "view",
			"type": "function"
		},
		{
			"inputs": [],
			"name": "getTotalPostCount",
			"outputs": [
				{
					"internalType": "uint256",
					"name": "",
					"type": "uint256"
				}
			],
			"stateMutability": "view",
			"type": "function"
		},
		{
			"inputs": [
				{
					"internalType": "uint256",
					"name": "_postId",
					"type": "uint256"
				},
				{
					"internalType": "uint256",
					"name": "_userId",
					"type": "uint256"
				}
			],
			"name": "hasUserLikedPost",
			"outputs": [
				{
					"internalType": "bool",
					"name": "",
					"type": "bool"
				}
			],
			"stateMutability": "view",
			"type": "function"
		},
		{
			"inputs": [
				{
					"internalType": "uint256",
					"name": "_postId",
					"type": "uint256"
				}
			],
			"name": "togglePostLike",
			"outputs": [],
			"stateMutability": "nonpayable",
			"type": "function"
		}
	]
}