{
	"data": {
		"bytecode": {
			"linkReferences": {},
			"object": "608060405234801561000f575f5ffd5b50604051612c73380380612c73833981810160405281019061003191906100d5565b8060025f6101000a81548173ffffffffffffffffffffffffffffffffffffffff021916908373ffffffffffffffffffffffffffffffffffffffff16021790555050610100565b5f5ffd5b5f73ffffffffffffffffffffffffffffffffffffffff82169050919050565b5f6100a48261007b565b9050919050565b6100b48161009a565b81146100be575f5ffd5b50565b5f815190506100cf816100ab565b92915050565b5f602082840312156100ea576100e9610077565b5b5f6100f7848285016100c1565b91505092915050565b612b668061010d5f395ff3fe608060405234801561000f575f5ffd5b50600436106100e8575f3560e01c806396f250731161008a578063d0446c4111610064578063d0446c4114610254578063d6e9389614610284578063efbe8469146102b4578063fa99654a146102d2576100e8565b806396f2507314610200578063ad8160291461021c578063c7303c6114610238576100e8565b806364732154116100c6578063647321541461016857806364e958951461018457806365aa1ed9146101b45780637d0b1026146101e4576100e8565b8063094cd5ee146100ec578063211117ff1461010857806360f7437714610138575b5f5ffd5b61010660048036038101906101019190611b28565b6102ee565b005b610122600480360381019061011d9190611b28565b61051b565b60405161012f9190611d1a565b60405180910390f35b610152600480360381019061014d9190611d3a565b610726565b60405161015f9190611ecb565b60405180910390f35b610182600480360381019061017d9190611f4c565b6109e4565b005b61019e60048036038101906101999190611b28565b610c9b565b6040516101ab919061201c565b60405180910390f35b6101ce60048036038101906101c9919061203c565b610e1b565b6040516101db9190612089565b60405180910390f35b6101fe60048036038101906101f99190611b28565b610e99565b005b61021a60048036038101906102159190611b28565b61104e565b005b61023660048036038101906102319190611f4c565b6112c9565b005b610252600480360381019061024d91906120a2565b61147c565b005b61026e60048036038101906102699190611b28565b6116cb565b60405161027b91906120fc565b60405180910390f35b61029e60048036038101906102999190611b28565b611730565b6040516102ab91906120fc565b60405180910390f35b6102bc611792565b6040516102c991906120fc565b60405180910390f35b6102ec60048036038101906102e79190611f4c565b61179e565b005b5f60025f9054906101000a900473ffffffffffffffffffffffffffffffffffffffff1673ffffffffffffffffffffffffffffffffffffffff166326567eec336040518263ffffffff1660e01b81526004016103499190612154565b602060405180830381865afa158015610364573d5f5f3e3d5ffd5b505050506040513d601f19601f820116820180604052508101906103889190612181565b9050610393826119b9565b6103d2576040517f08c379a00000000000000000000000000000000000000000000000000000000081526004016103c990612206565b60405180910390fd5b5f60045f8481526020019081526020015f206040518060400160405290815f8201548152602001600182015481525050905081815f015114610449576040517f08c379a00000000000000000000000000000000000000000000000000000000081526004016104409061226e565b60405180910390fd5b5f60098260200151815481106104625761046161228c565b5b905f5260205f2090600502019050806004015f9054906101000a900460ff16156104c1576040517f08c379a00000000000000000000000000000000000000000000000000000000081526004016104b890612303565b60405180910390fd5b6001816004015f6101000a81548160ff021916908315150217905550837fbcb5aed86bc918a3d0afb8c2b27a94547e8abdf185104d885f0a7c7d221810bb4260405161050d91906120fc565b60405180910390a250505050565b60605f60035f8481526020019081526020015f2080548060200260200160405190810160405280929190818152602001828054801561057757602002820191905f5260205f20905b815481526020019060010190808311610563575b505050505090505f815167ffffffffffffffff81111561059a57610599612321565b5b6040519080825280602002602001820160405280156105d357816020015b6105c0611a8d565b8152602001906001900390816105b85790505b5090505f5f90505b825181101561071b5760098382815181106105f9576105f861228c565b5b6020026020010151815481106106125761061161228c565b5b905f5260205f2090600502016040518060a00160405290815f82015481526020016001820154815260200160028201805461064c9061237b565b80601f01602080910402602001604051908101604052809291908181526020018280546106789061237b565b80156106c35780601f1061069a576101008083540402835291602001916106c3565b820191905f5260205f20905b8154815290600101906020018083116106a657829003601f168201915b5050505050815260200160038201548152602001600482015f9054906101000a900460ff1615151515815250508282815181106107035761070261228c565b5b602002602001018190525080806001019150506105db565b508092505050919050565b6060610731846119b9565b610770576040517f08c379a000000000000000000000000000000000000000000000000000000000815260040161076790612206565b60405180910390fd5b5f60085f8681526020019081526020015f208054905090508084106107eb575f67ffffffffffffffff8111156107a9576107a8612321565b5b6040519080825280602002602001820160405280156107e257816020015b6107cf611aba565b8152602001906001900390816107c75790505b509150506109dd565b5f83856107f891906123d8565b905081811115610806578190505b5f8582610813919061240b565b90505f8167ffffffffffffffff8111156108305761082f612321565b5b60405190808252806020026020018201604052801561086957816020015b610856611aba565b81526020019060019003908161084e5790505b5090505f5f90505f8890505b848110156109d3575f60085f8c81526020019081526020015f2082815481106108a1576108a061228c565b5b905f5260205f200154905060075f8281526020019081526020015f206040518060c00160405290815f820154815260200160018201548152602001600282015481526020016003820180546108f59061237b565b80601f01602080910402602001604051908101604052809291908181526020018280546109219061237b565b801561096c5780601f106109435761010080835404028352916020019161096c565b820191905f5260205f20905b81548152906001019060200180831161094f57829003601f168201915b5050505050815260200160048201548152602001600582015f9054906101000a900460ff1615151515815250508484815181106109ac576109ab61228c565b5b602002602001018190525082806109c29061243e565b935050508080600101915050610875565b5081955050505050505b9392505050565b5f60025f9054906101000a900473ffffffffffffffffffffffffffffffffffffffff1673ffffffffffffffffffffffffffffffffffffffff166326567eec336040518263ffffffff1660e01b8152600401610a3f9190612154565b602060405180830381865afa158015610a5a573d5f5f3e3d5ffd5b505050506040513d601f19601f82011682018060405250810190610a7e9190612181565b9050610a89846119b9565b610ac8576040517f08c379a0000000000000000000000000000000000000000000000000000000008152600401610abf90612206565b60405180910390fd5b5f8383905011610b0d576040517f08c379a0000000000000000000000000000000000000000000000000000000008152600401610b04906124cf565b60405180910390fd5b60015f815480929190610b1f9061243e565b91905055505f60015490506040518060c0016040528082815260200186815260200183815260200185858080601f0160208091040260200160405190810160405280939291908181526020018383808284375f81840152601f19601f8201169050808301925050505050505081526020014281526020015f151581525060075f8381526020019081526020015f205f820151815f015560208201518160010155604082015181600201556060820151816003019081610bde919061268d565b506080820151816004015560a0820151816005015f6101000a81548160ff02191690831515021790555090505060085f8681526020019081526020015f2081908060018154018082558091505060019003905f5260205f20015f90919091909150558185827f8d9db0b0183d06185d5f8b29021696ef16367ded34bfb923fa3f8d431ef83c8833888860075f8981526020019081526020015f2060040154604051610c8c9493929190612796565b60405180910390a45050505050565b610ca3611a8d565b610cac826119b9565b610ceb576040517f08c379a0000000000000000000000000000000000000000000000000000000008152600401610ce29061281e565b60405180910390fd5b5f60045f8481526020019081526020015f206040518060400160405290815f820154815260200160018201548152505090506009816020015181548110610d3557610d3461228c565b5b905f5260205f2090600502016040518060a00160405290815f820154815260200160018201548152602001600282018054610d6f9061237b565b80601f0160208091040260200160405190810160405280929190818152602001828054610d9b9061237b565b8015610de65780601f10610dbd57610100808354040283529160200191610de6565b820191905f5260205f20905b815481529060010190602001808311610dc957829003601f168201915b5050505050815260200160038201548152602001600482015f9054906101000a900460ff161515151581525050915050919050565b5f610e25836119b9565b610e64576040517f08c379a0000000000000000000000000000000000000000000000000000000008152600401610e5b9061281e565b60405180910390fd5b60055f8481526020019081526020015f205f8381526020019081526020015f205f9054906101000a900460ff16905092915050565b5f60025f9054906101000a900473ffffffffffffffffffffffffffffffffffffffff1673ffffffffffffffffffffffffffffffffffffffff166326567eec336040518263ffffffff1660e01b8152600401610ef49190612154565b602060405180830381865afa158015610f0f573d5f5f3e3d5ffd5b505050506040513d601f19601f82011682018060405250810190610f339190612181565b90505f60075f8481526020019081526020015f20600201549050808214610f8f576040517f08c379a0000000000000000000000000000000000000000000000000000000008152600401610f8690612886565b60405180910390fd5b5f60075f8581526020019081526020015f209050806005015f9054906101000a900460ff1615610ff4576040517f08c379a0000000000000000000000000000000000000000000000000000000008152600401610feb906128ee565b60405180910390fd5b6001816005015f6101000a81548160ff021916908315150217905550837fc6b2d4e6419b51b39d2ad53d5a6a61d41ce28ebe9867877d8c3a95a0602614f34260405161104091906120fc565b60405180910390a250505050565b5f60025f9054906101000a900473ffffffffffffffffffffffffffffffffffffffff1673ffffffffffffffffffffffffffffffffffffffff166326567eec336040518263ffffffff1660e01b81526004016110a99190612154565b602060405180830381865afa1580156110c4573d5f5f3e3d5ffd5b505050506040513d601f19601f820116820180604052508101906110e89190612181565b90506110f3826119b9565b611132576040517f08c379a00000000000000000000000000000000000000000000000000000000081526004016111299061281e565b60405180910390fd5b60055f8381526020019081526020015f205f8281526020019081526020015f205f9054906101000a900460ff1615611216575f60055f8481526020019081526020015f205f8381526020019081526020015f205f6101000a81548160ff02191690831515021790555060065f8381526020019081526020015f205f8154809291906111bc9061290c565b91905055503373ffffffffffffffffffffffffffffffffffffffff1681837f5bc6189495b7f2bc68900400503297ad34f3127f1721d3e92bde12e8618193bb4260405161120991906120fc565b60405180910390a46112c5565b600160055f8481526020019081526020015f205f8381526020019081526020015f205f6101000a81548160ff02191690831515021790555060065f8381526020019081526020015f205f81548092919061126f9061243e565b91905055503373ffffffffffffffffffffffffffffffffffffffff1681837fec7956f370c9a5a9aa87aac9b7b8b5229b40b9e0868bf16e66a7577ca7364254426040516112bc91906120fc565b60405180910390a45b5050565b5f60025f9054906101000a900473ffffffffffffffffffffffffffffffffffffffff1673ffffffffffffffffffffffffffffffffffffffff166326567eec336040518263ffffffff1660e01b81526004016113249190612154565b602060405180830381865afa15801561133f573d5f5f3e3d5ffd5b505050506040513d601f19601f820116820180604052508101906113639190612181565b90505f60075f8681526020019081526020015f206002015490508082146113bf576040517f08c379a00000000000000000000000000000000000000000000000000000000081526004016113b690612886565b60405180910390fd5b5f60075f8781526020019081526020015f209050806005015f9054906101000a900460ff1615611424576040517f08c379a000000000000000000000000000000000000000000000000000000000815260040161141b906128ee565b60405180910390fd5b848482600301918261143792919061293d565b50857f615aa59906c333098ac96c2e83df6f9b09726588fb98fc975da66d1a54cc3e5786864260405161146c93929190612a0a565b60405180910390a2505050505050565b600382829050116114c2576040517f08c379a00000000000000000000000000000000000000000000000000000000081526004016114b990612aaa565b60405180910390fd5b5f60025f9054906101000a900473ffffffffffffffffffffffffffffffffffffffff1673ffffffffffffffffffffffffffffffffffffffff166326567eec336040518263ffffffff1660e01b815260040161151d9190612154565b602060405180830381865afa158015611538573d5f5f3e3d5ffd5b505050506040513d601f19601f8201168201806040525081019061155c9190612181565b90505f5f81548092919061156f9061243e565b91905055505f5f549050600960018160018154018082558091505003905f5260205f209050505f60016009805490506115a8919061240b565b90505f600982815481106115bf576115be61228c565b5b905f5260205f209060050201905083815f018190555082816001018190555085858260020191826115f192919061293d565b5042816003018190555060035f8581526020019081526020015f2082908060018154018082558091505060019003905f5260205f20015f909190919091505560405180604001604052808581526020018381525060045f8581526020019081526020015f205f820151815f0155602082015181600101559050503373ffffffffffffffffffffffffffffffffffffffff1684847f557a532d3861a9cfda27acad95b746ceb9d998ebe757a64af43f6b37e68dcbb0898986600301546040516116bb93929190612a0a565b60405180910390a4505050505050565b5f6116d5826119b9565b611714576040517f08c379a000000000000000000000000000000000000000000000000000000000815260040161170b90612206565b60405180910390fd5b60085f8381526020019081526020015f20805490509050919050565b5f61173a826119b9565b611779576040517f08c379a00000000000000000000000000000000000000000000000000000000081526004016117709061281e565b60405180910390fd5b60065f8381526020019081526020015f20549050919050565b5f600980549050905090565b5f60025f9054906101000a900473ffffffffffffffffffffffffffffffffffffffff1673ffffffffffffffffffffffffffffffffffffffff166326567eec336040518263ffffffff1660e01b81526004016117f99190612154565b602060405180830381865afa158015611814573d5f5f3e3d5ffd5b505050506040513d601f19601f820116820180604052508101906118389190612181565b9050611843846119b9565b611882576040517f08c379a00000000000000000000000000000000000000000000000000000000081526004016118799061281e565b60405180910390fd5b5f60045f8681526020019081526020015f206040518060400160405290815f8201548152602001600182015481525050905081815f0151146118f9576040517f08c379a00000000000000000000000000000000000000000000000000000000081526004016118f090612b12565b60405180910390fd5b6003848490501161193f576040517f08c379a000000000000000000000000000000000000000000000000000000000815260040161193690612aaa565b60405180910390fd5b838360098360200151815481106119595761195861228c565b5b905f5260205f209060050201600201918261197592919061293d565b50847f34d923a5dcb2c58099b0f196db697aa8ba83a64c244bc8c0cfd3c10bc098dfed8585426040516119aa93929190612a0a565b60405180910390a25050505050565b5f5f60045f8481526020019081526020015f206040518060400160405290815f820154815260200160018201548152505090505f815f015114158015611a055750611a0383611a1e565b155b15611a14576001915050611a19565b5f9150505b919050565b5f5f60045f8481526020019081526020015f206040518060400160405290815f820154815260200160018201548152505090506009816020015181548110611a6957611a6861228c565b5b905f5260205f2090600502016004015f9054906101000a900460ff16915050919050565b6040518060a001604052805f81526020015f8152602001606081526020015f81526020015f151581525090565b6040518060c001604052805f81526020015f81526020015f8152602001606081526020015f81526020015f151581525090565b5f5ffd5b5f5ffd5b5f819050919050565b611b0781611af5565b8114611b11575f5ffd5b50565b5f81359050611b2281611afe565b92915050565b5f60208284031215611b3d57611b3c611aed565b5b5f611b4a84828501611b14565b91505092915050565b5f81519050919050565b5f82825260208201905092915050565b5f819050602082019050919050565b611b8581611af5565b82525050565b5f81519050919050565b5f82825260208201905092915050565b8281835e5f83830152505050565b5f601f19601f8301169050919050565b5f611bcd82611b8b565b611bd78185611b95565b9350611be7818560208601611ba5565b611bf081611bb3565b840191505092915050565b5f8115159050919050565b611c0f81611bfb565b82525050565b5f60a083015f830151611c2a5f860182611b7c565b506020830151611c3d6020860182611b7c565b5060408301518482036040860152611c558282611bc3565b9150506060830151611c6a6060860182611b7c565b506080830151611c7d6080860182611c06565b508091505092915050565b5f611c938383611c15565b905092915050565b5f602082019050919050565b5f611cb182611b53565b611cbb8185611b5d565b935083602082028501611ccd85611b6d565b805f5b85811015611d085784840389528151611ce98582611c88565b9450611cf483611c9b565b925060208a01995050600181019050611cd0565b50829750879550505050505092915050565b5f6020820190508181035f830152611d328184611ca7565b905092915050565b5f5f5f60608486031215611d5157611d50611aed565b5b5f611d5e86828701611b14565b9350506020611d6f86828701611b14565b9250506040611d8086828701611b14565b9150509250925092565b5f81519050919050565b5f82825260208201905092915050565b5f819050602082019050919050565b5f60c083015f830151611dc85f860182611b7c565b506020830151611ddb6020860182611b7c565b506040830151611dee6040860182611b7c565b5060608301518482036060860152611e068282611bc3565b9150506080830151611e1b6080860182611b7c565b5060a0830151611e2e60a0860182611c06565b508091505092915050565b5f611e448383611db3565b905092915050565b5f602082019050919050565b5f611e6282611d8a565b611e6c8185611d94565b935083602082028501611e7e85611da4565b805f5b85811015611eb95784840389528151611e9a8582611e39565b9450611ea583611e4c565b925060208a01995050600181019050611e81565b50829750879550505050505092915050565b5f6020820190508181035f830152611ee38184611e58565b905092915050565b5f5ffd5b5f5ffd5b5f5ffd5b5f5f83601f840112611f0c57611f0b611eeb565b5b8235905067ffffffffffffffff811115611f2957611f28611eef565b5b602083019150836001820283011115611f4557611f44611ef3565b5b9250929050565b5f5f5f60408486031215611f6357611f62611aed565b5b5f611f7086828701611b14565b935050602084013567ffffffffffffffff811115611f9157611f90611af1565b5b611f9d86828701611ef7565b92509250509250925092565b5f60a083015f830151611fbe5f860182611b7c565b506020830151611fd16020860182611b7c565b5060408301518482036040860152611fe98282611bc3565b9150506060830151611ffe6060860182611b7c565b5060808301516120116080860182611c06565b508091505092915050565b5f6020820190508181035f8301526120348184611fa9565b905092915050565b5f5f6040838503121561205257612051611aed565b5b5f61205f85828601611b14565b925050602061207085828601611b14565b9150509250929050565b61208381611bfb565b82525050565b5f60208201905061209c5f83018461207a565b92915050565b5f5f602083850312156120b8576120b7611aed565b5b5f83013567ffffffffffffffff8111156120d5576120d4611af1565b5b6120e185828601611ef7565b92509250509250929050565b6120f681611af5565b82525050565b5f60208201905061210f5f8301846120ed565b92915050565b5f73ffffffffffffffffffffffffffffffffffffffff82169050919050565b5f61213e82612115565b9050919050565b61214e81612134565b82525050565b5f6020820190506121675f830184612145565b92915050565b5f8151905061217b81611afe565b92915050565b5f6020828403121561219657612195611aed565b5b5f6121a38482850161216d565b91505092915050565b5f82825260208201905092915050565b7f506f737420646f6573206e6f74206578697374000000000000000000000000005f82015250565b5f6121f06013836121ac565b91506121fb826121bc565b602082019050919050565b5f6020820190508181035f83015261221d816121e4565b9050919050565b7f4e6f7420706f7374206f776e65720000000000000000000000000000000000005f82015250565b5f612258600e836121ac565b915061226382612224565b602082019050919050565b5f6020820190508181035f8301526122858161224c565b9050919050565b7f4e487b71000000000000000000000000000000000000000000000000000000005f52603260045260245ffd5b7f416c72656164792064656c6574656400000000000000000000000000000000005f82015250565b5f6122ed600f836121ac565b91506122f8826122b9565b602082019050919050565b5f6020820190508181035f83015261231a816122e1565b9050919050565b7f4e487b71000000000000000000000000000000000000000000000000000000005f52604160045260245ffd5b7f4e487b71000000000000000000000000000000000000000000000000000000005f52602260045260245ffd5b5f600282049050600182168061239257607f821691505b6020821081036123a5576123a461234e565b5b50919050565b7f4e487b71000000000000000000000000000000000000000000000000000000005f52601160045260245ffd5b5f6123e282611af5565b91506123ed83611af5565b9250828201905080821115612405576124046123ab565b5b92915050565b5f61241582611af5565b915061242083611af5565b9250828203905081811115612438576124376123ab565b5b92915050565b5f61244882611af5565b91507fffffffffffffffffffffffffffffffffffffffffffffffffffffffffffffffff820361247a576124796123ab565b5b600182019050919050565b7f456d70747920636f6d6d656e74000000000000000000000000000000000000005f82015250565b5f6124b9600d836121ac565b91506124c482612485565b602082019050919050565b5f6020820190508181035f8301526124e6816124ad565b9050919050565b5f819050815f5260205f209050919050565b5f6020601f8301049050919050565b5f82821b905092915050565b5f600883026125497fffffffffffffffffffffffffffffffffffffffffffffffffffffffffffffffff8261250e565b612553868361250e565b95508019841693508086168417925050509392505050565b5f819050919050565b5f61258e61258961258484611af5565b61256b565b611af5565b9050919050565b5f819050919050565b6125a783612574565b6125bb6125b382612595565b84845461251a565b825550505050565b5f5f905090565b6125d26125c3565b6125dd81848461259e565b505050565b5b81811015612600576125f55f826125ca565b6001810190506125e3565b5050565b601f82111561264557612616816124ed565b61261f846124ff565b8101602085101561262e578190505b61264261263a856124ff565b8301826125e2565b50505b505050565b5f82821c905092915050565b5f6126655f198460080261264a565b1980831691505092915050565b5f61267d8383612656565b9150826002028217905092915050565b61269682611b8b565b67ffffffffffffffff8111156126af576126ae612321565b5b6126b9825461237b565b6126c4828285612604565b5f60209050601f8311600181146126f5575f84156126e3578287015190505b6126ed8582612672565b865550612754565b601f198416612703866124ed565b5f5b8281101561272a57848901518255600182019150602085019450602081019050612705565b868310156127475784890151612743601f891682612656565b8355505b6001600288020188555050505b505050505050565b828183375f83830152505050565b5f61277583856121ac565b935061278283858461275c565b61278b83611bb3565b840190509392505050565b5f6060820190506127a95f830187612145565b81810360208301526127bc81858761276a565b90506127cb60408301846120ed565b95945050505050565b7f506f737420646f65736e277420657869737400000000000000000000000000005f82015250565b5f6128086012836121ac565b9150612813826127d4565b602082019050919050565b5f6020820190508181035f830152612835816127fc565b9050919050565b7f596f7520646f6e2774206f776e207468697320636f6d6d656e740000000000005f82015250565b5f612870601a836121ac565b915061287b8261283c565b602082019050919050565b5f6020820190508181035f83015261289d81612864565b9050919050565b7f436f6d6d656e7420646f6573206e6f74206578736973740000000000000000005f82015250565b5f6128d86017836121ac565b91506128e3826128a4565b602082019050919050565b5f6020820190508181035f830152612905816128cc565b9050919050565b5f61291682611af5565b91505f8203612928576129276123ab565b5b600182039050919050565b5f82905092915050565b6129478383612933565b67ffffffffffffffff8111156129605761295f612321565b5b61296a825461237b565b612975828285612604565b5f601f8311600181146129a2575f8415612990578287013590505b61299a8582612672565b865550612a01565b601f1984166129b0866124ed565b5f5b828110156129d7578489013582556001820191506020850194506020810190506129b2565b868310156129f457848901356129f0601f891682612656565b8355505b6001600288020188555050505b50505050505050565b5f6040820190508181035f830152612a2381858761276a565b9050612a3260208301846120ed565b949350505050565b7f636f6e74656e742073686f756c642062652061746c65617374206c65747465725f8201527f2033000000000000000000000000000000000000000000000000000000000000602082015250565b5f612a946022836121ac565b9150612a9f82612a3a565b604082019050919050565b5f6020820190508181035f830152612ac181612a88565b9050919050565b7f796f7520646f6e27742068617665207468697320706f737400000000000000005f82015250565b5f612afc6018836121ac565b9150612b0782612ac8565b602082019050919050565b5f6020820190508181035f830152612b2981612af0565b905091905056fea2646970667358221220ae5e7678c2863d49dbf8a61a4d7ce629dc38133b6cb8621f418f2d33381196b364736f6c634300081e0033",
			"opcodes": "PUSH1 0x80 PUSH1 0x40 MSTORE CALLVALUE DUP1 ISZERO PUSH2 0xF JUMPI PUSH0 PUSH0 REVERT JUMPDEST POP PUSH1 0x40 MLOAD PUSH2 0x2C73 CODESIZE SUB DUP1 PUSH2 0x2C73 DUP4 CODECOPY DUP2 DUP2 ADD PUSH1 0x40 MSTORE DUP2 ADD SWAP1 PUSH2 0x31 SWAP2 SWAP1 PUSH2 0xD5 JUMP JUMPDEST DUP1 PUSH1 0x2 PUSH0 PUSH2 0x100 EXP DUP2 SLOAD DUP2 PUSH20 0xFFFFFFFFFFFFFFFFFFFFFFFFFFFFFFFFFFFFFFFF MUL NOT AND SWAP1 DUP4 PUSH20 0xFFFFFFFFFFFFFFFFFFFFFFFFFFFFFFFFFFFFFFFF AND MUL OR SWAP1 SSTORE POP POP PUSH2 0x100 JUMP JUMPDEST PUSH0 PUSH0 REVERT JUMPDEST PUSH0 PUSH20 0xFFFFFFFFFFFFFFFFFFFFFFFFFFFFFFFFFFFFFFFF DUP3 AND SWAP1 POP SWAP2 SWAP1 POP JUMP JUMPDEST PUSH0 PUSH2 0xA4 DUP3 PUSH2 0x7B JUMP JUMPDEST SWAP1 POP SWAP2 SWAP1 POP JUMP JUMPDEST PUSH2 0xB4 DUP2 PUSH2 0x9A JUMP JUMPDEST DUP2 EQ PUSH2 0xBE JUMPI PUSH0 PUSH0 REVERT JUMPDEST POP JUMP JUMPDEST PUSH0 DUP2 MLOAD SWAP1 POP PUSH2 0xCF DUP2 PUSH2 0xAB JUMP JUMPDEST SWAP3 SWAP2 POP POP JUMP JUMPDEST PUSH0 PUSH1 0x20 DUP3 DUP5 SUB SLT ISZERO PUSH2 0xEA JUMPI PUSH2 0xE9 PUSH2 0x77 JUMP JUMPDEST JUMPDEST PUSH0 PUSH2 0xF7 DUP5 DUP3 DUP6 ADD PUSH2 0xC1 JUMP JUMPDEST SWAP2 POP POP SWAP3 SWAP2 POP POP JUMP JUMPDEST PUSH2 0x2B66 DUP1 PUSH2 0x10D PUSH0 CODECOPY PUSH0 RETURN INVALID PUSH1 0x80 PUSH1 0x40 MSTORE CALLVALUE DUP1 ISZERO PUSH2 0xF JUMPI PUSH0 PUSH0 REVERT JUMPDEST POP PUSH1 0x4 CALLDATASIZE LT PUSH2 0xE8 JUMPI PUSH0 CALLDATALOAD PUSH1 0xE0 SHR DUP1 PUSH4 0x96F25073 GT PUSH2 0x8A JUMPI DUP1 PUSH4 0xD0446C41 GT PUSH2 0x64 JUMPI DUP1 PUSH4 0xD0446C41 EQ PUSH2 0x254 JUMPI DUP1 PUSH4 0xD6E93896 EQ PUSH2 0x284 JUMPI DUP1 PUSH4 0xEFBE8469 EQ PUSH2 0x2B4 JUMPI DUP1 PUSH4 0xFA99654A EQ PUSH2 0x2D2 JUMPI PUSH2 0xE8 JUMP JUMPDEST DUP1 PUSH4 0x96F25073 EQ PUSH2 0x200 JUMPI DUP1 PUSH4 0xAD816029 EQ PUSH2 0x21C JUMPI DUP1 PUSH4 0xC7303C61 EQ PUSH2 0x238 JUMPI PUSH2 0xE8 JUMP JUMPDEST DUP1 PUSH4 0x64732154 GT PUSH2 0xC6 JUMPI DUP1 PUSH4 0x64732154 EQ PUSH2 0x168 JUMPI DUP1 PUSH4 0x64E95895 EQ PUSH2 0x184 JUMPI DUP1 PUSH4 0x65AA1ED9 EQ PUSH2 0x1B4 JUMPI DUP1 PUSH4 0x7D0B1026 EQ PUSH2 0x1E4 JUMPI PUSH2 0xE8 JUMP JUMPDEST DUP1 PUSH4 0x94CD5EE EQ PUSH2 0xEC JUMPI DUP1 PUSH4 0x211117FF EQ PUSH2 0x108 JUMPI DUP1 PUSH4 0x60F74377 EQ PUSH2 0x138 JUMPI JUMPDEST PUSH0 PUSH0 REVERT JUMPDEST PUSH2 0x106 PUSH1 0x4 DUP1 CALLDATASIZE SUB DUP2 ADD SWAP1 PUSH2 0x101 SWAP2 SWAP1 PUSH2 0x1B28 JUMP JUMPDEST PUSH2 0x2EE JUMP JUMPDEST STOP JUMPDEST PUSH2 0x122 PUSH1 0x4 DUP1 CALLDATASIZE SUB DUP2 ADD SWAP1 PUSH2 0x11D SWAP2 SWAP1 PUSH2 0x1B28 JUMP JUMPDEST PUSH2 0x51B JUMP JUMPDEST PUSH1 0x40 MLOAD PUSH2 0x12F SWAP2 SWAP1 PUSH2 0x1D1A JUMP JUMPDEST PUSH1 0x40 MLOAD DUP1 SWAP2 SUB SWAP1 RETURN JUMPDEST PUSH2 0x152 PUSH1 0x4 DUP1 CALLDATASIZE SUB DUP2 ADD SWAP1 PUSH2 0x14D SWAP2 SWAP1 PUSH2 0x1D3A JUMP JUMPDEST PUSH2 0x726 JUMP JUMPDEST PUSH1 0x40 MLOAD PUSH2 0x15F SWAP2 SWAP1 PUSH2 0x1ECB JUMP JUMPDEST PUSH1 0x40 MLOAD DUP1 SWAP2 SUB SWAP1 RETURN JUMPDEST PUSH2 0x182 PUSH1 0x4 DUP1 CALLDATASIZE SUB DUP2 ADD SWAP1 PUSH2 0x17D SWAP2 SWAP1 PUSH2 0x1F4C JUMP JUMPDEST PUSH2 0x9E4 JUMP JUMPDEST STOP JUMPDEST PUSH2 0x19E PUSH1 0x4 DUP1 CALLDATASIZE SUB DUP2 ADD SWAP1 PUSH2 0x199 SWAP2 SWAP1 PUSH2 0x1B28 JUMP JUMPDEST PUSH2 0xC9B JUMP JUMPDEST PUSH1 0x40 MLOAD PUSH2 0x1AB SWAP2 SWAP1 PUSH2 0x201C JUMP JUMPDEST PUSH1 0x40 MLOAD DUP1 SWAP2 SUB SWAP1 RETURN JUMPDEST PUSH2 0x1CE PUSH1 0x4 DUP1 CALLDATASIZE SUB DUP2 ADD SWAP1 PUSH2 0x1C9 SWAP2 SWAP1 PUSH2 0x203C JUMP JUMPDEST PUSH2 0xE1B JUMP JUMPDEST PUSH1 0x40 MLOAD PUSH2 0x1DB SWAP2 SWAP1 PUSH2 0x2089 JUMP JUMPDEST PUSH1 0x40 MLOAD DUP1 SWAP2 SUB SWAP1 RETURN JUMPDEST PUSH2 0x1FE PUSH1 0x4 DUP1 CALLDATASIZE SUB DUP2 ADD SWAP1 PUSH2 0x1F9 SWAP2 SWAP1 PUSH2 0x1B28 JUMP JUMPDEST PUSH2 0xE99 JUMP JUMPDEST STOP JUMPDEST PUSH2 0x21A PUSH1 0x4 DUP1 CALLDATASIZE SUB DUP2 ADD SWAP1 PUSH2 0x215 SWAP2 SWAP1 PUSH2 0x1B28 JUMP JUMPDEST PUSH2 0x104E JUMP JUMPDEST STOP JUMPDEST PUSH2 0x236 PUSH1 0x4 DUP1 CALLDATASIZE SUB DUP2 ADD SWAP1 PUSH2 0x231 SWAP2 SWAP1 PUSH2 0x1F4C JUMP JUMPDEST PUSH2 0x12C9 JUMP JUMPDEST STOP JUMPDEST PUSH2 0x252 PUSH1 0x4 DUP1 CALLDATASIZE SUB DUP2 ADD SWAP1 PUSH2 0x24D SWAP2 SWAP1 PUSH2 0x20A2 JUMP JUMPDEST PUSH2 0x147C JUMP JUMPDEST STOP JUMPDEST PUSH2 0x26E PUSH1 0x4 DUP1 CALLDATASIZE SUB DUP2 ADD SWAP1 PUSH2 0x269 SWAP2 SWAP1 PUSH2 0x1B28 JUMP JUMPDEST PUSH2 0x16CB JUMP JUMPDEST PUSH1 0x40 MLOAD PUSH2 0x27B SWAP2 SWAP1 PUSH2 0x20FC JUMP JUMPDEST PUSH1 0x40 MLOAD DUP1 SWAP2 SUB SWAP1 RETURN JUMPDEST PUSH2 0x29E PUSH1 0x4 DUP1 CALLDATASIZE SUB DUP2 ADD SWAP1 PUSH2 0x299 SWAP2 SWAP1 PUSH2 0x1B28 JUMP JUMPDEST PUSH2 0x1730 JUMP JUMPDEST PUSH1 0x40 MLOAD PUSH2 0x2AB SWAP2 SWAP1 PUSH2 0x20FC JUMP JUMPDEST PUSH1 0x40 MLOAD DUP1 SWAP2 SUB SWAP1 RETURN JUMPDEST PUSH2 0x2BC PUSH2 0x1792 JUMP JUMPDEST PUSH1 0x40 MLOAD PUSH2 0x2C9 SWAP2 SWAP1 PUSH2 0x20FC JUMP JUMPDEST PUSH1 0x40 MLOAD DUP1 SWAP2 SUB SWAP1 RETURN JUMPDEST PUSH2 0x2EC PUSH1 0x4 DUP1 CALLDATASIZE SUB DUP2 ADD SWAP1 PUSH2 0x2E7 SWAP2 SWAP1 PUSH2 0x1F4C JUMP JUMPDEST PUSH2 0x179E JUMP JUMPDEST STOP JUMPDEST PUSH0 PUSH1 0x2 PUSH0 SWAP1 SLOAD SWAP1 PUSH2 0x100 EXP SWAP1 DIV PUSH20 0xFFFFFFFFFFFFFFFFFFFFFFFFFFFFFFFFFFFFFFFF AND PUSH20 0xFFFFFFFFFFFFFFFFFFFFFFFFFFFFFFFFFFFFFFFF AND PUSH4 0x26567EEC CALLER PUSH1 0x40 MLOAD DUP3 PUSH4 0xFFFFFFFF AND PUSH1 0xE0 SHL DUP2 MSTORE PUSH1 0x4 ADD PUSH2 0x349 SWAP2 SWAP1 PUSH2 0x2154 JUMP JUMPDEST PUSH1 0x20 PUSH1 0x40 MLOAD DUP1 DUP4 SUB DUP2 DUP7 GAS STATICCALL ISZERO DUP1 ISZERO PUSH2 0x364 JUMPI RETURNDATASIZE PUSH0 PUSH0 RETURNDATACOPY RETURNDATASIZE PUSH0 REVERT JUMPDEST POP POP POP POP PUSH1 0x40 MLOAD RETURNDATASIZE PUSH1 0x1F NOT PUSH1 0x1F DUP3 ADD AND DUP3 ADD DUP1 PUSH1 0x40 MSTORE POP DUP2 ADD SWAP1 PUSH2 0x388 SWAP2 SWAP1 PUSH2 0x2181 JUMP JUMPDEST SWAP1 POP PUSH2 0x393 DUP3 PUSH2 0x19B9 JUMP JUMPDEST PUSH2 0x3D2 JUMPI PUSH1 0x40 MLOAD PUSH32 0x8C379A000000000000000000000000000000000000000000000000000000000 DUP2 MSTORE PUSH1 0x4 ADD PUSH2 0x3C9 SWAP1 PUSH2 0x2206 JUMP JUMPDEST PUSH1 0x40 MLOAD DUP1 SWAP2 SUB SWAP1 REVERT JUMPDEST PUSH0 PUSH1 0x4 PUSH0 DUP5 DUP2 MSTORE PUSH1 0x20 ADD SWAP1 DUP2 MSTORE PUSH1 0x20 ADD PUSH0 KECCAK256 PUSH1 0x40 MLOAD DUP1 PUSH1 0x40 ADD PUSH1 0x40 MSTORE SWAP1 DUP2 PUSH0 DUP3 ADD SLOAD DUP2 MSTORE PUSH1 0x20 ADD PUSH1 0x1 DUP3 ADD SLOAD DUP2 MSTORE POP POP SWAP1 POP DUP2 DUP2 PUSH0 ADD MLOAD EQ PUSH2 0x449 JUMPI PUSH1 0x40 MLOAD PUSH32 0x8C379A000000000000000000000000000000000000000000000000000000000 DUP2 MSTORE PUSH1 0x4 ADD PUSH2 0x440 SWAP1 PUSH2 0x226E JUMP JUMPDEST PUSH1 0x40 MLOAD DUP1 SWAP2 SUB SWAP1 REVERT JUMPDEST PUSH0 PUSH1 0x9 DUP3 PUSH1 0x20 ADD MLOAD DUP2 SLOAD DUP2 LT PUSH2 0x462 JUMPI PUSH2 0x461 PUSH2 0x228C JUMP JUMPDEST JUMPDEST SWAP1 PUSH0 MSTORE PUSH1 0x20 PUSH0 KECCAK256 SWAP1 PUSH1 0x5 MUL ADD SWAP1 POP DUP1 PUSH1 0x4 ADD PUSH0 SWAP1 SLOAD SWAP1 PUSH2 0x100 EXP SWAP1 DIV PUSH1 0xFF AND ISZERO PUSH2 0x4C1 JUMPI PUSH1 0x40 MLOAD PUSH32 0x8C379A000000000000000000000000000000000000000000000000000000000 DUP2 MSTORE PUSH1 0x4 ADD PUSH2 0x4B8 SWAP1 PUSH2 0x2303 JUMP JUMPDEST PUSH1 0x40 MLOAD DUP1 SWAP2 SUB SWAP1 REVERT JUMPDEST PUSH1 0x1 DUP2 PUSH1 0x4 ADD PUSH0 PUSH2 0x100 EXP DUP2 SLOAD DUP2 PUSH1 0xFF MUL NOT AND SWAP1 DUP4 ISZERO ISZERO MUL OR SWAP1 SSTORE POP DUP4 PUSH32 0xBCB5AED86BC918A3D0AFB8C2B27A94547E8ABDF185104D885F0A7C7D221810BB TIMESTAMP PUSH1 0x40 MLOAD PUSH2 0x50D SWAP2 SWAP1 PUSH2 0x20FC JUMP JUMPDEST PUSH1 0x40 MLOAD DUP1 SWAP2 SUB SWAP1 LOG2 POP POP POP POP JUMP JUMPDEST PUSH1 0x60 PUSH0 PUSH1 0x3 PUSH0 DUP5 DUP2 MSTORE PUSH1 0x20 ADD SWAP1 DUP2 MSTORE PUSH1 0x20 ADD PUSH0 KECCAK256 DUP1 SLOAD DUP1 PUSH1 0x20 MUL PUSH1 0x20 ADD PUSH1 0x40 MLOAD SWAP1 DUP2 ADD PUSH1 0x40 MSTORE DUP1 SWAP3 SWAP2 SWAP1 DUP2 DUP2 MSTORE PUSH1 0x20 ADD DUP3 DUP1 SLOAD DUP1 ISZERO PUSH2 0x577 JUMPI PUSH1 0x20 MUL DUP3 ADD SWAP2 SWAP1 PUSH0 MSTORE PUSH1 0x20 PUSH0 KECCAK256 SWAP1 JUMPDEST DUP2 SLOAD DUP2 MSTORE PUSH1 0x20 ADD SWAP1 PUSH1 0x1 ADD SWAP1 DUP1 DUP4 GT PUSH2 0x563 JUMPI JUMPDEST POP POP POP POP POP SWAP1 POP PUSH0 DUP2 MLOAD PUSH8 0xFFFFFFFFFFFFFFFF DUP2 GT ISZERO PUSH2 0x59A JUMPI PUSH2 0x599 PUSH2 0x2321 JUMP JUMPDEST JUMPDEST PUSH1 0x40 MLOAD SWAP1 DUP1 DUP3 MSTORE DUP1 PUSH1 0x20 MUL PUSH1 0x20 ADD DUP3 ADD PUSH1 0x40 MSTORE DUP1 ISZERO PUSH2 0x5D3 JUMPI DUP2 PUSH1 0x20 ADD JUMPDEST PUSH2 0x5C0 PUSH2 0x1A8D JUMP JUMPDEST DUP2 MSTORE PUSH1 0x20 ADD SWAP1 PUSH1 0x1 SWAP1 SUB SWAP1 DUP2 PUSH2 0x5B8 JUMPI SWAP1 POP JUMPDEST POP SWAP1 POP PUSH0 PUSH0 SWAP1 POP JUMPDEST DUP3 MLOAD DUP2 LT ISZERO PUSH2 0x71B JUMPI PUSH1 0x9 DUP4 DUP3 DUP2 MLOAD DUP2 LT PUSH2 0x5F9 JUMPI PUSH2 0x5F8 PUSH2 0x228C JUMP JUMPDEST JUMPDEST PUSH1 0x20 MUL PUSH1 0x20 ADD ADD MLOAD DUP2 SLOAD DUP2 LT PUSH2 0x612 JUMPI PUSH2 0x611 PUSH2 0x228C JUMP JUMPDEST JUMPDEST SWAP1 PUSH0 MSTORE PUSH1 0x20 PUSH0 KECCAK256 SWAP1 PUSH1 0x5 MUL ADD PUSH1 0x40 MLOAD DUP1 PUSH1 0xA0 ADD PUSH1 0x40 MSTORE SWAP1 DUP2 PUSH0 DUP3 ADD SLOAD DUP2 MSTORE PUSH1 0x20 ADD PUSH1 0x1 DUP3 ADD SLOAD DUP2 MSTORE PUSH1 0x20 ADD PUSH1 0x2 DUP3 ADD DUP1 SLOAD PUSH2 0x64C SWAP1 PUSH2 0x237B JUMP JUMPDEST DUP1 PUSH1 0x1F ADD PUSH1 0x20 DUP1 SWAP2 DIV MUL PUSH1 0x20 ADD PUSH1 0x40 MLOAD SWAP1 DUP2 ADD PUSH1 0x40 MSTORE DUP1 SWAP3 SWAP2 SWAP1 DUP2 DUP2 MSTORE PUSH1 0x20 ADD DUP3 DUP1 SLOAD PUSH2 0x678 SWAP1 PUSH2 0x237B JUMP JUMPDEST DUP1 ISZERO PUSH2 0x6C3 JUMPI DUP1 PUSH1 0x1F LT PUSH2 0x69A JUMPI PUSH2 0x100 DUP1 DUP4 SLOAD DIV MUL DUP4 MSTORE SWAP2 PUSH1 0x20 ADD SWAP2 PUSH2 0x6C3 JUMP JUMPDEST DUP3 ADD SWAP2 SWAP1 PUSH0 MSTORE PUSH1 0x20 PUSH0 KECCAK256 SWAP1 JUMPDEST DUP2 SLOAD DUP2 MSTORE SWAP1 PUSH1 0x1 ADD SWAP1 PUSH1 0x20 ADD DUP1 DUP4 GT PUSH2 0x6A6 JUMPI DUP3 SWAP1 SUB PUSH1 0x1F AND DUP3 ADD SWAP2 JUMPDEST POP POP POP POP POP DUP2 MSTORE PUSH1 0x20 ADD PUSH1 0x3 DUP3 ADD SLOAD DUP2 MSTORE PUSH1 0x20 ADD PUSH1 0x4 DUP3 ADD PUSH0 SWAP1 SLOAD SWAP1 PUSH2 0x100 EXP SWAP1 DIV PUSH1 0xFF AND ISZERO ISZERO ISZERO ISZERO DUP2 MSTORE POP POP DUP3 DUP3 DUP2 MLOAD DUP2 LT PUSH2 0x703 JUMPI PUSH2 0x702 PUSH2 0x228C JUMP JUMPDEST JUMPDEST PUSH1 0x20 MUL PUSH1 0x20 ADD ADD DUP2 SWAP1 MSTORE POP DUP1 DUP1 PUSH1 0x1 ADD SWAP2 POP POP PUSH2 0x5DB JUMP JUMPDEST POP DUP1 SWAP3 POP POP POP SWAP2 SWAP1 POP JUMP JUMPDEST PUSH1 0x60 PUSH2 0x731 DUP5 PUSH2 0x19B9 JUMP JUMPDEST PUSH2 0x770 JUMPI PUSH1 0x40 MLOAD PUSH32 0x8C379A000000000000000000000000000000000000000000000000000000000 DUP2 MSTORE PUSH1 0x4 ADD PUSH2 0x767 SWAP1 PUSH2 0x2206 JUMP JUMPDEST PUSH1 0x40 MLOAD DUP1 SWAP2 SUB SWAP1 REVERT JUMPDEST PUSH0 PUSH1 0x8 PUSH0 DUP7 DUP2 MSTORE PUSH1 0x20 ADD SWAP1 DUP2 MSTORE PUSH1 0x20 ADD PUSH0 KECCAK256 DUP1 SLOAD SWAP1 POP SWAP1 POP DUP1 DUP5 LT PUSH2 0x7EB JUMPI PUSH0 PUSH8 0xFFFFFFFFFFFFFFFF DUP2 GT ISZERO PUSH2 0x7A9 JUMPI PUSH2 0x7A8 PUSH2 0x2321 JUMP JUMPDEST JUMPDEST PUSH1 0x40 MLOAD SWAP1 DUP1 DUP3 MSTORE DUP1 PUSH1 0x20 MUL PUSH1 0x20 ADD DUP3 ADD PUSH1 0x40 MSTORE DUP1 ISZERO PUSH2 0x7E2 JUMPI DUP2 PUSH1 0x20 ADD JUMPDEST PUSH2 0x7CF PUSH2 0x1ABA JUMP JUMPDEST DUP2 MSTORE PUSH1 0x20 ADD SWAP1 PUSH1 0x1 SWAP1 SUB SWAP1 DUP2 PUSH2 0x7C7 JUMPI SWAP1 POP JUMPDEST POP SWAP2 POP POP PUSH2 0x9DD JUMP JUMPDEST PUSH0 DUP4 DUP6 PUSH2 0x7F8 SWAP2 SWAP1 PUSH2 0x23D8 JUMP JUMPDEST SWAP1 POP DUP2 DUP2 GT ISZERO PUSH2 0x806 JUMPI DUP2 SWAP1 POP JUMPDEST PUSH0 DUP6 DUP3 PUSH2 0x813 SWAP2 SWAP1 PUSH2 0x240B JUMP JUMPDEST SWAP1 POP PUSH0 DUP2 PUSH8 0xFFFFFFFFFFFFFFFF DUP2 GT ISZERO PUSH2 0x830 JUMPI PUSH2 0x82F PUSH2 0x2321 JUMP JUMPDEST JUMPDEST PUSH1 0x40 MLOAD SWAP1 DUP1 DUP3 MSTORE DUP1 PUSH1 0x20 MUL PUSH1 0x20 ADD DUP3 ADD PUSH1 0x40 MSTORE DUP1 ISZERO PUSH2 0x869 JUMPI DUP2 PUSH1 0x20 ADD JUMPDEST PUSH2 0x856 PUSH2 0x1ABA JUMP JUMPDEST DUP2 MSTORE PUSH1 0x20 ADD SWAP1 PUSH1 0x1 SWAP1 SUB SWAP1 DUP2 PUSH2 0x84E JUMPI SWAP1 POP JUMPDEST POP SWAP1 POP PUSH0 PUSH0 SWAP1 POP PUSH0 DUP9 SWAP1 POP JUMPDEST DUP5 DUP2 LT ISZERO PUSH2 0x9D3 JUMPI PUSH0 PUSH1 0x8 PUSH0 DUP13 DUP2 MSTORE PUSH1 0x20 ADD SWAP1 DUP2 MSTORE PUSH1 0x20 ADD PUSH0 KECCAK256 DUP3 DUP2 SLOAD DUP2 LT PUSH2 0x8A1 JUMPI PUSH2 0x8A0 PUSH2 0x228C JUMP JUMPDEST JUMPDEST SWAP1 PUSH0 MSTORE PUSH1 0x20 PUSH0 KECCAK256 ADD SLOAD SWAP1 POP PUSH1 0x7 PUSH0 DUP3 DUP2 MSTORE PUSH1 0x20 ADD SWAP1 DUP2 MSTORE PUSH1 0x20 ADD PUSH0 KECCAK256 PUSH1 0x40 MLOAD DUP1 PUSH1 0xC0 ADD PUSH1 0x40 MSTORE SWAP1 DUP2 PUSH0 DUP3 ADD SLOAD DUP2 MSTORE PUSH1 0x20 ADD PUSH1 0x1 DUP3 ADD SLOAD DUP2 MSTORE PUSH1 0x20 ADD PUSH1 0x2 DUP3 ADD SLOAD DUP2 MSTORE PUSH1 0x20 ADD PUSH1 0x3 DUP3 ADD DUP1 SLOAD PUSH2 0x8F5 SWAP1 PUSH2 0x237B JUMP JUMPDEST DUP1 PUSH1 0x1F ADD PUSH1 0x20 DUP1 SWAP2 DIV MUL PUSH1 0x20 ADD PUSH1 0x40 MLOAD SWAP1 DUP2 ADD PUSH1 0x40 MSTORE DUP1 SWAP3 SWAP2 SWAP1 DUP2 DUP2 MSTORE PUSH1 0x20 ADD DUP3 DUP1 SLOAD PUSH2 0x921 SWAP1 PUSH2 0x237B JUMP JUMPDEST DUP1 ISZERO PUSH2 0x96C JUMPI DUP1 PUSH1 0x1F LT PUSH2 0x943 JUMPI PUSH2 0x100 DUP1 DUP4 SLOAD DIV MUL DUP4 MSTORE SWAP2 PUSH1 0x20 ADD SWAP2 PUSH2 0x96C JUMP JUMPDEST DUP3 ADD SWAP2 SWAP1 PUSH0 MSTORE PUSH1 0x20 PUSH0 KECCAK256 SWAP1 JUMPDEST DUP2 SLOAD DUP2 MSTORE SWAP1 PUSH1 0x1 ADD SWAP1 PUSH1 0x20 ADD DUP1 DUP4 GT PUSH2 0x94F JUMPI DUP3 SWAP1 SUB PUSH1 0x1F AND DUP3 ADD SWAP2 JUMPDEST POP POP POP POP POP DUP2 MSTORE PUSH1 0x20 ADD PUSH1 0x4 DUP3 ADD SLOAD DUP2 MSTORE PUSH1 0x20 ADD PUSH1 0x5 DUP3 ADD PUSH0 SWAP1 SLOAD SWAP1 PUSH2 0x100 EXP SWAP1 DIV PUSH1 0xFF AND ISZERO ISZERO ISZERO ISZERO DUP2 MSTORE POP POP DUP5 DUP5 DUP2 MLOAD DUP2 LT PUSH2 0x9AC JUMPI PUSH2 0x9AB PUSH2 0x228C JUMP JUMPDEST JUMPDEST PUSH1 0x20 MUL PUSH1 0x20 ADD ADD DUP2 SWAP1 MSTORE POP DUP3 DUP1 PUSH2 0x9C2 SWAP1 PUSH2 0x243E JUMP JUMPDEST SWAP4 POP POP POP DUP1 DUP1 PUSH1 0x1 ADD SWAP2 POP POP PUSH2 0x875 JUMP JUMPDEST POP DUP2 SWAP6 POP POP POP POP POP POP JUMPDEST SWAP4 SWAP3 POP POP POP JUMP JUMPDEST PUSH0 PUSH1 0x2 PUSH0 SWAP1 SLOAD SWAP1 PUSH2 0x100 EXP SWAP1 DIV PUSH20 0xFFFFFFFFFFFFFFFFFFFFFFFFFFFFFFFFFFFFFFFF AND PUSH20 0xFFFFFFFFFFFFFFFFFFFFFFFFFFFFFFFFFFFFFFFF AND PUSH4 0x26567EEC CALLER PUSH1 0x40 MLOAD DUP3 PUSH4 0xFFFFFFFF AND PUSH1 0xE0 SHL DUP2 MSTORE PUSH1 0x4 ADD PUSH2 0xA3F SWAP2 SWAP1 PUSH2 0x2154 JUMP JUMPDEST PUSH1 0x20 PUSH1 0x40 MLOAD DUP1 DUP4 SUB DUP2 DUP7 GAS STATICCALL ISZERO DUP1 ISZERO PUSH2 0xA5A JUMPI RETURNDATASIZE PUSH0 PUSH0 RETURNDATACOPY RETURNDATASIZE PUSH0 REVERT JUMPDEST POP POP POP POP PUSH1 0x40 MLOAD RETURNDATASIZE PUSH1 0x1F NOT PUSH1 0x1F DUP3 ADD AND DUP3 ADD DUP1 PUSH1 0x40 MSTORE POP DUP2 ADD SWAP1 PUSH2 0xA7E SWAP2 SWAP1 PUSH2 0x2181 JUMP JUMPDEST SWAP1 POP PUSH2 0xA89 DUP5 PUSH2 0x19B9 JUMP JUMPDEST PUSH2 0xAC8 JUMPI PUSH1 0x40 MLOAD PUSH32 0x8C379A000000000000000000000000000000000000000000000000000000000 DUP2 MSTORE PUSH1 0x4 ADD PUSH2 0xABF SWAP1 PUSH2 0x2206 JUMP JUMPDEST PUSH1 0x40 MLOAD DUP1 SWAP2 SUB SWAP1 REVERT JUMPDEST PUSH0 DUP4 DUP4 SWAP1 POP GT PUSH2 0xB0D JUMPI PUSH1 0x40 MLOAD PUSH32 0x8C379A000000000000000000000000000000000000000000000000000000000 DUP2 MSTORE PUSH1 0x4 ADD PUSH2 0xB04 SWAP1 PUSH2 0x24CF JUMP JUMPDEST PUSH1 0x40 MLOAD DUP1 SWAP2 SUB SWAP1 REVERT JUMPDEST PUSH1 0x1 PUSH0 DUP2 SLOAD DUP1 SWAP3 SWAP2 SWAP1 PUSH2 0xB1F SWAP1 PUSH2 0x243E JUMP JUMPDEST SWAP2 SWAP1 POP SSTORE POP PUSH0 PUSH1 0x1 SLOAD SWAP1 POP PUSH1 0x40 MLOAD DUP1 PUSH1 0xC0 ADD PUSH1 0x40 MSTORE DUP1 DUP3 DUP2 MSTORE PUSH1 0x20 ADD DUP7 DUP2 MSTORE PUSH1 0x20 ADD DUP4 DUP2 MSTORE PUSH1 0x20 ADD DUP6 DUP6 DUP1 DUP1 PUSH1 0x1F ADD PUSH1 0x20 DUP1 SWAP2 DIV MUL PUSH1 0x20 ADD PUSH1 0x40 MLOAD SWAP1 DUP2 ADD PUSH1 0x40 MSTORE DUP1 SWAP4 SWAP3 SWAP2 SWAP1 DUP2 DUP2 MSTORE PUSH1 0x20 ADD DUP4 DUP4 DUP1 DUP3 DUP5 CALLDATACOPY PUSH0 DUP2 DUP5 ADD MSTORE PUSH1 0x1F NOT PUSH1 0x1F DUP3 ADD AND SWAP1 POP DUP1 DUP4 ADD SWAP3 POP POP POP POP POP POP POP DUP2 MSTORE PUSH1 0x20 ADD TIMESTAMP DUP2 MSTORE PUSH1 0x20 ADD PUSH0 ISZERO ISZERO DUP2 MSTORE POP PUSH1 0x7 PUSH0 DUP4 DUP2 MSTORE PUSH1 0x20 ADD SWAP1 DUP2 MSTORE PUSH1 0x20 ADD PUSH0 KECCAK256 PUSH0 DUP3 ADD MLOAD DUP2 PUSH0 ADD SSTORE PUSH1 0x20 DUP3 ADD MLOAD DUP2 PUSH1 0x1 ADD SSTORE PUSH1 0x40 DUP3 ADD MLOAD DUP2 PUSH1 0x2 ADD SSTORE PUSH1 0x60 DUP3 ADD MLOAD DUP2 PUSH1 0x3 ADD SWAP1 DUP2 PUSH2 0xBDE SWAP2 SWAP1 PUSH2 0x268D JUMP JUMPDEST POP PUSH1 0x80 DUP3 ADD MLOAD DUP2 PUSH1 0x4 ADD SSTORE PUSH1 0xA0 DUP3 ADD MLOAD DUP2 PUSH1 0x5 ADD PUSH0 PUSH2 0x100 EXP DUP2 SLOAD DUP2 PUSH1 0xFF MUL NOT AND SWAP1 DUP4 ISZERO ISZERO MUL OR SWAP1 SSTORE POP SWAP1 POP POP PUSH1 0x8 PUSH0 DUP7 DUP2 MSTORE PUSH1 0x20 ADD SWAP1 DUP2 MSTORE PUSH1 0x20 ADD PUSH0 KECCAK256 DUP2 SWAP1 DUP1 PUSH1 0x1 DUP2 SLOAD ADD DUP1 DUP3 SSTORE DUP1 SWAP2 POP POP PUSH1 0x1 SWAP1 SUB SWAP1 PUSH0 MSTORE PUSH1 0x20 PUSH0 KECCAK256 ADD PUSH0 SWAP1 SWAP2 SWAP1 SWAP2 SWAP1 SWAP2 POP SSTORE DUP2 DUP6 DUP3 PUSH32 0x8D9DB0B0183D06185D5F8B29021696EF16367DED34BFB923FA3F8D431EF83C88 CALLER DUP9 DUP9 PUSH1 0x7 PUSH0 DUP10 DUP2 MSTORE PUSH1 0x20 ADD SWAP1 DUP2 MSTORE PUSH1 0x20 ADD PUSH0 KECCAK256 PUSH1 0x4 ADD SLOAD PUSH1 0x40 MLOAD PUSH2 0xC8C SWAP5 SWAP4 SWAP3 SWAP2 SWAP1 PUSH2 0x2796 JUMP JUMPDEST PUSH1 0x40 MLOAD DUP1 SWAP2 SUB SWAP1 LOG4 POP POP POP POP POP JUMP JUMPDEST PUSH2 0xCA3 PUSH2 0x1A8D JUMP JUMPDEST PUSH2 0xCAC DUP3 PUSH2 0x19B9 JUMP JUMPDEST PUSH2 0xCEB JUMPI PUSH1 0x40 MLOAD PUSH32 0x8C379A000000000000000000000000000000000000000000000000000000000 DUP2 MSTORE PUSH1 0x4 ADD PUSH2 0xCE2 SWAP1 PUSH2 0x281E JUMP JUMPDEST PUSH1 0x40 MLOAD DUP1 SWAP2 SUB SWAP1 REVERT JUMPDEST PUSH0 PUSH1 0x4 PUSH0 DUP5 DUP2 MSTORE PUSH1 0x20 ADD SWAP1 DUP2 MSTORE PUSH1 0x20 ADD PUSH0 KECCAK256 PUSH1 0x40 MLOAD DUP1 PUSH1 0x40 ADD PUSH1 0x40 MSTORE SWAP1 DUP2 PUSH0 DUP3 ADD SLOAD DUP2 MSTORE PUSH1 0x20 ADD PUSH1 0x1 DUP3 ADD SLOAD DUP2 MSTORE POP POP SWAP1 POP PUSH1 0x9 DUP2 PUSH1 0x20 ADD MLOAD DUP2 SLOAD DUP2 LT PUSH2 0xD35 JUMPI PUSH2 0xD34 PUSH2 0x228C JUMP JUMPDEST JUMPDEST SWAP1 PUSH0 MSTORE PUSH1 0x20 PUSH0 KECCAK256 SWAP1 PUSH1 0x5 MUL ADD PUSH1 0x40 MLOAD DUP1 PUSH1 0xA0 ADD PUSH1 0x40 MSTORE SWAP1 DUP2 PUSH0 DUP3 ADD SLOAD DUP2 MSTORE PUSH1 0x20 ADD PUSH1 0x1 DUP3 ADD SLOAD DUP2 MSTORE PUSH1 0x20 ADD PUSH1 0x2 DUP3 ADD DUP1 SLOAD PUSH2 0xD6F SWAP1 PUSH2 0x237B JUMP JUMPDEST DUP1 PUSH1 0x1F ADD PUSH1 0x20 DUP1 SWAP2 DIV MUL PUSH1 0x20 ADD PUSH1 0x40 MLOAD SWAP1 DUP2 ADD PUSH1 0x40 MSTORE DUP1 SWAP3 SWAP2 SWAP1 DUP2 DUP2 MSTORE PUSH1 0x20 ADD DUP3 DUP1 SLOAD PUSH2 0xD9B SWAP1 PUSH2 0x237B JUMP JUMPDEST DUP1 ISZERO PUSH2 0xDE6 JUMPI DUP1 PUSH1 0x1F LT PUSH2 0xDBD JUMPI PUSH2 0x100 DUP1 DUP4 SLOAD DIV MUL DUP4 MSTORE SWAP2 PUSH1 0x20 ADD SWAP2 PUSH2 0xDE6 JUMP JUMPDEST DUP3 ADD SWAP2 SWAP1 PUSH0 MSTORE PUSH1 0x20 PUSH0 KECCAK256 SWAP1 JUMPDEST DUP2 SLOAD DUP2 MSTORE SWAP1 PUSH1 0x1 ADD SWAP1 PUSH1 0x20 ADD DUP1 DUP4 GT PUSH2 0xDC9 JUMPI DUP3 SWAP1 SUB PUSH1 0x1F AND DUP3 ADD SWAP2 JUMPDEST POP POP POP POP POP DUP2 MSTORE PUSH1 0x20 ADD PUSH1 0x3 DUP3 ADD SLOAD DUP2 MSTORE PUSH1 0x20 ADD PUSH1 0x4 DUP3 ADD PUSH0 SWAP1 SLOAD SWAP1 PUSH2 0x100 EXP SWAP1 DIV PUSH1 0xFF AND ISZERO ISZERO ISZERO ISZERO DUP2 MSTORE POP POP SWAP2 POP POP SWAP2 SWAP1 POP JUMP JUMPDEST PUSH0 PUSH2 0xE25 DUP4 PUSH2 0x19B9 JUMP JUMPDEST PUSH2 0xE64 JUMPI PUSH1 0x40 MLOAD PUSH32 0x8C379A000000000000000000000000000000000000000000000000000000000 DUP2 MSTORE PUSH1 0x4 ADD PUSH2 0xE5B SWAP1 PUSH2 0x281E JUMP JUMPDEST PUSH1 0x40 MLOAD DUP1 SWAP2 SUB SWAP1 REVERT JUMPDEST PUSH1 0x5 PUSH0 DUP5 DUP2 MSTORE PUSH1 0x20 ADD SWAP1 DUP2 MSTORE PUSH1 0x20 ADD PUSH0 KECCAK256 PUSH0 DUP4 DUP2 MSTORE PUSH1 0x20 ADD SWAP1 DUP2 MSTORE PUSH1 0x20 ADD PUSH0 KECCAK256 PUSH0 SWAP1 SLOAD SWAP1 PUSH2 0x100 EXP SWAP1 DIV PUSH1 0xFF AND SWAP1 POP SWAP3 SWAP2 POP POP JUMP JUMPDEST PUSH0 PUSH1 0x2 PUSH0 SWAP1 SLOAD SWAP1 PUSH2 0x100 EXP SWAP1 DIV PUSH20 0xFFFFFFFFFFFFFFFFFFFFFFFFFFFFFFFFFFFFFFFF AND PUSH20 0xFFFFFFFFFFFFFFFFFFFFFFFFFFFFFFFFFFFFFFFF AND PUSH4 0x26567EEC CALLER PUSH1 0x40 MLOAD DUP3 PUSH4 0xFFFFFFFF AND PUSH1 0xE0 SHL DUP2 MSTORE PUSH1 0x4 ADD PUSH2 0xEF4 SWAP2 SWAP1 PUSH2 0x2154 JUMP JUMPDEST PUSH1 0x20 PUSH1 0x40 MLOAD DUP1 DUP4 SUB DUP2 DUP7 GAS STATICCALL ISZERO DUP1 ISZERO PUSH2 0xF0F JUMPI RETURNDATASIZE PUSH0 PUSH0 RETURNDATACOPY RETURNDATASIZE PUSH0 REVERT JUMPDEST POP POP POP POP PUSH1 0x40 MLOAD RETURNDATASIZE PUSH1 0x1F NOT PUSH1 0x1F DUP3 ADD AND DUP3 ADD DUP1 PUSH1 0x40 MSTORE POP DUP2 ADD SWAP1 PUSH2 0xF33 SWAP2 SWAP1 PUSH2 0x2181 JUMP JUMPDEST SWAP1 POP PUSH0 PUSH1 0x7 PUSH0 DUP5 DUP2 MSTORE PUSH1 0x20 ADD SWAP1 DUP2 MSTORE PUSH1 0x20 ADD PUSH0 KECCAK256 PUSH1 0x2 ADD SLOAD SWAP1 POP DUP1 DUP3 EQ PUSH2 0xF8F JUMPI PUSH1 0x40 MLOAD PUSH32 0x8C379A000000000000000000000000000000000000000000000000000000000 DUP2 MSTORE PUSH1 0x4 ADD PUSH2 0xF86 SWAP1 PUSH2 0x2886 JUMP JUMPDEST PUSH1 0x40 MLOAD DUP1 SWAP2 SUB SWAP1 REVERT JUMPDEST PUSH0 PUSH1 0x7 PUSH0 DUP6 DUP2 MSTORE PUSH1 0x20 ADD SWAP1 DUP2 MSTORE PUSH1 0x20 ADD PUSH0 KECCAK256 SWAP1 POP DUP1 PUSH1 0x5 ADD PUSH0 SWAP1 SLOAD SWAP1 PUSH2 0x100 EXP SWAP1 DIV PUSH1 0xFF AND ISZERO PUSH2 0xFF4 JUMPI PUSH1 0x40 MLOAD PUSH32 0x8C379A000000000000000000000000000000000000000000000000000000000 DUP2 MSTORE PUSH1 0x4 ADD PUSH2 0xFEB SWAP1 PUSH2 0x28EE JUMP JUMPDEST PUSH1 0x40 MLOAD DUP1 SWAP2 SUB SWAP1 REVERT JUMPDEST PUSH1 0x1 DUP2 PUSH1 0x5 ADD PUSH0 PUSH2 0x100 EXP DUP2 SLOAD DUP2 PUSH1 0xFF MUL NOT AND SWAP1 DUP4 ISZERO ISZERO MUL OR SWAP1 SSTORE POP DUP4 PUSH32 0xC6B2D4E6419B51B39D2AD53D5A6A61D41CE28EBE9867877D8C3A95A0602614F3 TIMESTAMP PUSH1 0x40 MLOAD PUSH2 0x1040 SWAP2 SWAP1 PUSH2 0x20FC JUMP JUMPDEST PUSH1 0x40 MLOAD DUP1 SWAP2 SUB SWAP1 LOG2 POP POP POP POP JUMP JUMPDEST PUSH0 PUSH1 0x2 PUSH0 SWAP1 SLOAD SWAP1 PUSH2 0x100 EXP SWAP1 DIV PUSH20 0xFFFFFFFFFFFFFFFFFFFFFFFFFFFFFFFFFFFFFFFF AND PUSH20 0xFFFFFFFFFFFFFFFFFFFFFFFFFFFFFFFFFFFFFFFF AND PUSH4 0x26567EEC CALLER PUSH1 0x40 MLOAD DUP3 PUSH4 0xFFFFFFFF AND PUSH1 0xE0 SHL DUP2 MSTORE PUSH1 0x4 ADD PUSH2 0x10A9 SWAP2 SWAP1 PUSH2 0x2154 JUMP JUMPDEST PUSH1 0x20 PUSH1 0x40 MLOAD DUP1 DUP4 SUB DUP2 DUP7 GAS STATICCALL ISZERO DUP1 ISZERO PUSH2 0x10C4 JUMPI RETURNDATASIZE PUSH0 PUSH0 RETURNDATACOPY RETURNDATASIZE PUSH0 REVERT JUMPDEST POP POP POP POP PUSH1 0x40 MLOAD RETURNDATASIZE PUSH1 0x1F NOT PUSH1 0x1F DUP3 ADD AND DUP3 ADD DUP1 PUSH1 0x40 MSTORE POP DUP2 ADD SWAP1 PUSH2 0x10E8 SWAP2 SWAP1 PUSH2 0x2181 JUMP JUMPDEST SWAP1 POP PUSH2 0x10F3 DUP3 PUSH2 0x19B9 JUMP JUMPDEST PUSH2 0x1132 JUMPI PUSH1 0x40 MLOAD PUSH32 0x8C379A000000000000000000000000000000000000000000000000000000000 DUP2 MSTORE PUSH1 0x4 ADD PUSH2 0x1129 SWAP1 PUSH2 0x281E JUMP JUMPDEST PUSH1 0x40 MLOAD DUP1 SWAP2 SUB SWAP1 REVERT JUMPDEST PUSH1 0x5 PUSH0 DUP4 DUP2 MSTORE PUSH1 0x20 ADD SWAP1 DUP2 MSTORE PUSH1 0x20 ADD PUSH0 KECCAK256 PUSH0 DUP3 DUP2 MSTORE PUSH1 0x20 ADD SWAP1 DUP2 MSTORE PUSH1 0x20 ADD PUSH0 KECCAK256 PUSH0 SWAP1 SLOAD SWAP1 PUSH2 0x100 EXP SWAP1 DIV PUSH1 0xFF AND ISZERO PUSH2 0x1216 JUMPI PUSH0 PUSH1 0x5 PUSH0 DUP5 DUP2 MSTORE PUSH1 0x20 ADD SWAP1 DUP2 MSTORE PUSH1 0x20 ADD PUSH0 KECCAK256 PUSH0 DUP4 DUP2 MSTORE PUSH1 0x20 ADD SWAP1 DUP2 MSTORE PUSH1 0x20 ADD PUSH0 KECCAK256 PUSH0 PUSH2 0x100 EXP DUP2 SLOAD DUP2 PUSH1 0xFF MUL NOT AND SWAP1 DUP4 ISZERO ISZERO MUL OR SWAP1 SSTORE POP PUSH1 0x6 PUSH0 DUP4 DUP2 MSTORE PUSH1 0x20 ADD SWAP1 DUP2 MSTORE PUSH1 0x20 ADD PUSH0 KECCAK256 PUSH0 DUP2 SLOAD DUP1 SWAP3 SWAP2 SWAP1 PUSH2 0x11BC SWAP1 PUSH2 0x290C JUMP JUMPDEST SWAP2 SWAP1 POP SSTORE POP CALLER PUSH20 0xFFFFFFFFFFFFFFFFFFFFFFFFFFFFFFFFFFFFFFFF AND DUP2 DUP4 PUSH32 0x5BC6189495B7F2BC68900400503297AD34F3127F1721D3E92BDE12E8618193BB TIMESTAMP PUSH1 0x40 MLOAD PUSH2 0x1209 SWAP2 SWAP1 PUSH2 0x20FC JUMP JUMPDEST PUSH1 0x40 MLOAD DUP1 SWAP2 SUB SWAP1 LOG4 PUSH2 0x12C5 JUMP JUMPDEST PUSH1 0x1 PUSH1 0x5 PUSH0 DUP5 DUP2 MSTORE PUSH1 0x20 ADD SWAP1 DUP2 MSTORE PUSH1 0x20 ADD PUSH0 KECCAK256 PUSH0 DUP4 DUP2 MSTORE PUSH1 0x20 ADD SWAP1 DUP2 MSTORE PUSH1 0x20 ADD PUSH0 KECCAK256 PUSH0 PUSH2 0x100 EXP DUP2 SLOAD DUP2 PUSH1 0xFF MUL NOT AND SWAP1 DUP4 ISZERO ISZERO MUL OR SWAP1 SSTORE POP PUSH1 0x6 PUSH0 DUP4 DUP2 MSTORE PUSH1 0x20 ADD SWAP1 DUP2 MSTORE PUSH1 0x20 ADD PUSH0 KECCAK256 PUSH0 DUP2 SLOAD DUP1 SWAP3 SWAP2 SWAP1 PUSH2 0x126F SWAP1 PUSH2 0x243E JUMP JUMPDEST SWAP2 SWAP1 POP SSTORE POP CALLER PUSH20 0xFFFFFFFFFFFFFFFFFFFFFFFFFFFFFFFFFFFFFFFF AND DUP2 DUP4 PUSH32 0xEC7956F370C9A5A9AA87AAC9B7B8B5229B40B9E0868BF16E66A7577CA7364254 TIMESTAMP PUSH1 0x40 MLOAD PUSH2 0x12BC SWAP2 SWAP1 PUSH2 0x20FC JUMP JUMPDEST PUSH1 0x40 MLOAD DUP1 SWAP2 SUB SWAP1 LOG4 JUMPDEST POP POP JUMP JUMPDEST PUSH0 PUSH1 0x2 PUSH0 SWAP1 SLOAD SWAP1 PUSH2 0x100 EXP SWAP1 DIV PUSH20 0xFFFFFFFFFFFFFFFFFFFFFFFFFFFFFFFFFFFFFFFF AND PUSH20 0xFFFFFFFFFFFFFFFFFFFFFFFFFFFFFFFFFFFFFFFF AND PUSH4 0x26567EEC CALLER PUSH1 0x40 MLOAD DUP3 PUSH4 0xFFFFFFFF AND PUSH1 0xE0 SHL DUP2 MSTORE PUSH1 0x4 ADD PUSH2 0x1324 SWAP2 SWAP1 PUSH2 0x2154 JUMP JUMPDEST PUSH1 0x20 PUSH1 0x40 MLOAD DUP1 DUP4 SUB DUP2 DUP7 GAS STATICCALL ISZERO DUP1 ISZERO PUSH2 0x133F JUMPI RETURNDATASIZE PUSH0 PUSH0 RETURNDATACOPY RETURNDATASIZE PUSH0 REVERT JUMPDEST POP POP POP POP PUSH1 0x40 MLOAD RETURNDATASIZE PUSH1 0x1F NOT PUSH1 0x1F DUP3 ADD AND DUP3 ADD DUP1 PUSH1 0x40 MSTORE POP DUP2 ADD SWAP1 PUSH2 0x1363 SWAP2 SWAP1 PUSH2 0x2181 JUMP JUMPDEST SWAP1 POP PUSH0 PUSH1 0x7 PUSH0 DUP7 DUP2 MSTORE PUSH1 0x20 ADD SWAP1 DUP2 MSTORE PUSH1 0x20 ADD PUSH0 KECCAK256 PUSH1 0x2 ADD SLOAD SWAP1 POP DUP1 DUP3 EQ PUSH2 0x13BF JUMPI PUSH1 0x40 MLOAD PUSH32 0x8C379A000000000000000000000000000000000000000000000000000000000 DUP2 MSTORE PUSH1 0x4 ADD PUSH2 0x13B6 SWAP1 PUSH2 0x2886 JUMP JUMPDEST PUSH1 0x40 MLOAD DUP1 SWAP2 SUB SWAP1 REVERT JUMPDEST PUSH0 PUSH1 0x7 PUSH0 DUP8 DUP2 MSTORE PUSH1 0x20 ADD SWAP1 DUP2 MSTORE PUSH1 0x20 ADD PUSH0 KECCAK256 SWAP1 POP DUP1 PUSH1 0x5 ADD PUSH0 SWAP1 SLOAD SWAP1 PUSH2 0x100 EXP SWAP1 DIV PUSH1 0xFF AND ISZERO PUSH2 0x1424 JUMPI PUSH1 0x40 MLOAD PUSH32 0x8C379A000000000000000000000000000000000000000000000000000000000 DUP2 MSTORE PUSH1 0x4 ADD PUSH2 0x141B SWAP1 PUSH2 0x28EE JUMP JUMPDEST PUSH1 0x40 MLOAD DUP1 SWAP2 SUB SWAP1 REVERT JUMPDEST DUP5 DUP5 DUP3 PUSH1 0x3 ADD SWAP2 DUP3 PUSH2 0x1437 SWAP3 SWAP2 SWAP1 PUSH2 0x293D JUMP JUMPDEST POP DUP6 PUSH32 0x615AA59906C333098AC96C2E83DF6F9B09726588FB98FC975DA66D1A54CC3E57 DUP7 DUP7 TIMESTAMP PUSH1 0x40 MLOAD PUSH2 0x146C SWAP4 SWAP3 SWAP2 SWAP1 PUSH2 0x2A0A JUMP JUMPDEST PUSH1 0x40 MLOAD DUP1 SWAP2 SUB SWAP1 LOG2 POP POP POP POP POP POP JUMP JUMPDEST PUSH1 0x3 DUP3 DUP3 SWAP1 POP GT PUSH2 0x14C2 JUMPI PUSH1 0x40 MLOAD PUSH32 0x8C379A000000000000000000000000000000000000000000000000000000000 DUP2 MSTORE PUSH1 0x4 ADD PUSH2 0x14B9 SWAP1 PUSH2 0x2AAA JUMP JUMPDEST PUSH1 0x40 MLOAD DUP1 SWAP2 SUB SWAP1 REVERT JUMPDEST PUSH0 PUSH1 0x2 PUSH0 SWAP1 SLOAD SWAP1 PUSH2 0x100 EXP SWAP1 DIV PUSH20 0xFFFFFFFFFFFFFFFFFFFFFFFFFFFFFFFFFFFFFFFF AND PUSH20 0xFFFFFFFFFFFFFFFFFFFFFFFFFFFFFFFFFFFFFFFF AND PUSH4 0x26567EEC CALLER PUSH1 0x40 MLOAD DUP3 PUSH4 0xFFFFFFFF AND PUSH1 0xE0 SHL DUP2 MSTORE PUSH1 0x4 ADD PUSH2 0x151D SWAP2 SWAP1 PUSH2 0x2154 JUMP JUMPDEST PUSH1 0x20 PUSH1 0x40 MLOAD DUP1 DUP4 SUB DUP2 DUP7 GAS STATICCALL ISZERO DUP1 ISZERO PUSH2 0x1538 JUMPI RETURNDATASIZE PUSH0 PUSH0 RETURNDATACOPY RETURNDATASIZE PUSH0 REVERT JUMPDEST POP POP POP POP PUSH1 0x40 MLOAD RETURNDATASIZE PUSH1 0x1F NOT PUSH1 0x1F DUP3 ADD AND DUP3 ADD DUP1 PUSH1 0x40 MSTORE POP DUP2 ADD SWAP1 PUSH2 0x155C SWAP2 SWAP1 PUSH2 0x2181 JUMP JUMPDEST SWAP1 POP PUSH0 PUSH0 DUP2 SLOAD DUP1 SWAP3 SWAP2 SWAP1 PUSH2 0x156F SWAP1 PUSH2 0x243E JUMP JUMPDEST SWAP2 SWAP1 POP SSTORE POP PUSH0 PUSH0 SLOAD SWAP1 POP PUSH1 0x9 PUSH1 0x1 DUP2 PUSH1 0x1 DUP2 SLOAD ADD DUP1 DUP3 SSTORE DUP1 SWAP2 POP POP SUB SWAP1 PUSH0 MSTORE PUSH1 0x20 PUSH0 KECCAK256 SWAP1 POP POP PUSH0 PUSH1 0x1 PUSH1 0x9 DUP1 SLOAD SWAP1 POP PUSH2 0x15A8 SWAP2 SWAP1 PUSH2 0x240B JUMP JUMPDEST SWAP1 POP PUSH0 PUSH1 0x9 DUP3 DUP2 SLOAD DUP2 LT PUSH2 0x15BF JUMPI PUSH2 0x15BE PUSH2 0x228C JUMP JUMPDEST JUMPDEST SWAP1 PUSH0 MSTORE PUSH1 0x20 PUSH0 KECCAK256 SWAP1 PUSH1 0x5 MUL ADD SWAP1 POP DUP4 DUP2 PUSH0 ADD DUP2 SWAP1 SSTORE POP DUP3 DUP2 PUSH1 0x1 ADD DUP2 SWAP1 SSTORE POP DUP6 DUP6 DUP3 PUSH1 0x2 ADD SWAP2 DUP3 PUSH2 0x15F1 SWAP3 SWAP2 SWAP1 PUSH2 0x293D JUMP JUMPDEST POP TIMESTAMP DUP2 PUSH1 0x3 ADD DUP2 SWAP1 SSTORE POP PUSH1 0x3 PUSH0 DUP6 DUP2 MSTORE PUSH1 0x20 ADD SWAP1 DUP2 MSTORE PUSH1 0x20 ADD PUSH0 KECCAK256 DUP3 SWAP1 DUP1 PUSH1 0x1 DUP2 SLOAD ADD DUP1 DUP3 SSTORE DUP1 SWAP2 POP POP PUSH1 0x1 SWAP1 SUB SWAP1 PUSH0 MSTORE PUSH1 0x20 PUSH0 KECCAK256 ADD PUSH0 SWAP1 SWAP2 SWAP1 SWAP2 SWAP1 SWAP2 POP SSTORE PUSH1 0x40 MLOAD DUP1 PUSH1 0x40 ADD PUSH1 0x40 MSTORE DUP1 DUP6 DUP2 MSTORE PUSH1 0x20 ADD DUP4 DUP2 MSTORE POP PUSH1 0x4 PUSH0 DUP6 DUP2 MSTORE PUSH1 0x20 ADD SWAP1 DUP2 MSTORE PUSH1 0x20 ADD PUSH0 KECCAK256 PUSH0 DUP3 ADD MLOAD DUP2 PUSH0 ADD SSTORE PUSH1 0x20 DUP3 ADD MLOAD DUP2 PUSH1 0x1 ADD SSTORE SWAP1 POP POP CALLER PUSH20 0xFFFFFFFFFFFFFFFFFFFFFFFFFFFFFFFFFFFFFFFF AND DUP5 DUP5 PUSH32 0x557A532D3861A9CFDA27ACAD95B746CEB9D998EBE757A64AF43F6B37E68DCBB0 DUP10 DUP10 DUP7 PUSH1 0x3 ADD SLOAD PUSH1 0x40 MLOAD PUSH2 0x16BB SWAP4 SWAP3 SWAP2 SWAP1 PUSH2 0x2A0A JUMP JUMPDEST PUSH1 0x40 MLOAD DUP1 SWAP2 SUB SWAP1 LOG4 POP POP POP POP POP POP JUMP JUMPDEST PUSH0 PUSH2 0x16D5 DUP3 PUSH2 0x19B9 JUMP JUMPDEST PUSH2 0x1714 JUMPI PUSH1 0x40 MLOAD PUSH32 0x8C379A000000000000000000000000000000000000000000000000000000000 DUP2 MSTORE PUSH1 0x4 ADD PUSH2 0x170B SWAP1 PUSH2 0x2206 JUMP JUMPDEST PUSH1 0x40 MLOAD DUP1 SWAP2 SUB SWAP1 REVERT JUMPDEST PUSH1 0x8 PUSH0 DUP4 DUP2 MSTORE PUSH1 0x20 ADD SWAP1 DUP2 MSTORE PUSH1 0x20 ADD PUSH0 KECCAK256 DUP1 SLOAD SWAP1 POP SWAP1 POP SWAP2 SWAP1 POP JUMP JUMPDEST PUSH0 PUSH2 0x173A DUP3 PUSH2 0x19B9 JUMP JUMPDEST PUSH2 0x1779 JUMPI PUSH1 0x40 MLOAD PUSH32 0x8C379A000000000000000000000000000000000000000000000000000000000 DUP2 MSTORE PUSH1 0x4 ADD PUSH2 0x1770 SWAP1 PUSH2 0x281E JUMP JUMPDEST PUSH1 0x40 MLOAD DUP1 SWAP2 SUB SWAP1 REVERT JUMPDEST PUSH1 0x6 PUSH0 DUP4 DUP2 MSTORE PUSH1 0x20 ADD SWAP1 DUP2 MSTORE PUSH1 0x20 ADD PUSH0 KECCAK256 SLOAD SWAP1 POP SWAP2 SWAP1 POP JUMP JUMPDEST PUSH0 PUSH1 0x9 DUP1 SLOAD SWAP1 POP SWAP1 POP SWAP1 JUMP JUMPDEST PUSH0 PUSH1 0x2 PUSH0 SWAP1 SLOAD SWAP1 PUSH2 0x100 EXP SWAP1 DIV PUSH20 0xFFFFFFFFFFFFFFFFFFFFFFFFFFFFFFFFFFFFFFFF AND PUSH20 0xFFFFFFFFFFFFFFFFFFFFFFFFFFFFFFFFFFFFFFFF AND PUSH4 0x26567EEC CALLER PUSH1 0x40 MLOAD DUP3 PUSH4 0xFFFFFFFF AND PUSH1 0xE0 SHL DUP2 MSTORE PUSH1 0x4 ADD PUSH2 0x17F9 SWAP2 SWAP1 PUSH2 0x2154 JUMP JUMPDEST PUSH1 0x20 PUSH1 0x40 MLOAD DUP1 DUP4 SUB DUP2 DUP7 GAS STATICCALL ISZERO DUP1 ISZERO PUSH2 0x1814 JUMPI RETURNDATASIZE PUSH0 PUSH0 RETURNDATACOPY RETURNDATASIZE PUSH0 REVERT JUMPDEST POP POP POP POP PUSH1 0x40 MLOAD RETURNDATASIZE PUSH1 0x1F NOT PUSH1 0x1F DUP3 ADD AND DUP3 ADD DUP1 PUSH1 0x40 MSTORE POP DUP2 ADD SWAP1 PUSH2 0x1838 SWAP2 SWAP1 PUSH2 0x2181 JUMP JUMPDEST SWAP1 POP PUSH2 0x1843 DUP5 PUSH2 0x19B9 JUMP JUMPDEST PUSH2 0x1882 JUMPI PUSH1 0x40 MLOAD PUSH32 0x8C379A000000000000000000000000000000000000000000000000000000000 DUP2 MSTORE PUSH1 0x4 ADD PUSH2 0x1879 SWAP1 PUSH2 0x281E JUMP JUMPDEST PUSH1 0x40 MLOAD DUP1 SWAP2 SUB SWAP1 REVERT JUMPDEST PUSH0 PUSH1 0x4 PUSH0 DUP7 DUP2 MSTORE PUSH1 0x20 ADD SWAP1 DUP2 MSTORE PUSH1 0x20 ADD PUSH0 KECCAK256 PUSH1 0x40 MLOAD DUP1 PUSH1 0x40 ADD PUSH1 0x40 MSTORE SWAP1 DUP2 PUSH0 DUP3 ADD SLOAD DUP2 MSTORE PUSH1 0x20 ADD PUSH1 0x1 DUP3 ADD SLOAD DUP2 MSTORE POP POP SWAP1 POP DUP2 DUP2 PUSH0 ADD MLOAD EQ PUSH2 0x18F9 JUMPI PUSH1 0x40 MLOAD PUSH32 0x8C379A000000000000000000000000000000000000000000000000000000000 DUP2 MSTORE PUSH1 0x4 ADD PUSH2 0x18F0 SWAP1 PUSH2 0x2B12 JUMP JUMPDEST PUSH1 0x40 MLOAD DUP1 SWAP2 SUB SWAP1 REVERT JUMPDEST PUSH1 0x3 DUP5 DUP5 SWAP1 POP GT PUSH2 0x193F JUMPI PUSH1 0x40 MLOAD PUSH32 0x8C379A000000000000000000000000000000000000000000000000000000000 DUP2 MSTORE PUSH1 0x4 ADD PUSH2 0x1936 SWAP1 PUSH2 0x2AAA JUMP JUMPDEST PUSH1 0x40 MLOAD DUP1 SWAP2 SUB SWAP1 REVERT JUMPDEST DUP4 DUP4 PUSH1 0x9 DUP4 PUSH1 0x20 ADD MLOAD DUP2 SLOAD DUP2 LT PUSH2 0x1959 JUMPI PUSH2 0x1958 PUSH2 0x228C JUMP JUMPDEST JUMPDEST SWAP1 PUSH0 MSTORE PUSH1 0x20 PUSH0 KECCAK256 SWAP1 PUSH1 0x5 MUL ADD PUSH1 0x2 ADD SWAP2 DUP3 PUSH2 0x1975 SWAP3 SWAP2 SWAP1 PUSH2 0x293D JUMP JUMPDEST POP DUP5 PUSH32 0x34D923A5DCB2C58099B0F196DB697AA8BA83A64C244BC8C0CFD3C10BC098DFED DUP6 DUP6 TIMESTAMP PUSH1 0x40 MLOAD PUSH2 0x19AA SWAP4 SWAP3 SWAP2 SWAP1 PUSH2 0x2A0A JUMP JUMPDEST PUSH1 0x40 MLOAD DUP1 SWAP2 SUB SWAP1 LOG2 POP POP POP POP POP JUMP JUMPDEST PUSH0 PUSH0 PUSH1 0x4 PUSH0 DUP5 DUP2 MSTORE PUSH1 0x20 ADD SWAP1 DUP2 MSTORE PUSH1 0x20 ADD PUSH0 KECCAK256 PUSH1 0x40 MLOAD DUP1 PUSH1 0x40 ADD PUSH1 0x40 MSTORE SWAP1 DUP2 PUSH0 DUP3 ADD SLOAD DUP2 MSTORE PUSH1 0x20 ADD PUSH1 0x1 DUP3 ADD SLOAD DUP2 MSTORE POP POP SWAP1 POP PUSH0 DUP2 PUSH0 ADD MLOAD EQ ISZERO DUP1 ISZERO PUSH2 0x1A05 JUMPI POP PUSH2 0x1A03 DUP4 PUSH2 0x1A1E JUMP JUMPDEST ISZERO JUMPDEST ISZERO PUSH2 0x1A14 JUMPI PUSH1 0x1 SWAP2 POP POP PUSH2 0x1A19 JUMP JUMPDEST PUSH0 SWAP2 POP POP JUMPDEST SWAP2 SWAP1 POP JUMP JUMPDEST PUSH0 PUSH0 PUSH1 0x4 PUSH0 DUP5 DUP2 MSTORE PUSH1 0x20 ADD SWAP1 DUP2 MSTORE PUSH1 0x20 ADD PUSH0 KECCAK256 PUSH1 0x40 MLOAD DUP1 PUSH1 0x40 ADD PUSH1 0x40 MSTORE SWAP1 DUP2 PUSH0 DUP3 ADD SLOAD DUP2 MSTORE PUSH1 0x20 ADD PUSH1 0x1 DUP3 ADD SLOAD DUP2 MSTORE POP POP SWAP1 POP PUSH1 0x9 DUP2 PUSH1 0x20 ADD MLOAD DUP2 SLOAD DUP2 LT PUSH2 0x1A69 JUMPI PUSH2 0x1A68 PUSH2 0x228C JUMP JUMPDEST JUMPDEST SWAP1 PUSH0 MSTORE PUSH1 0x20 PUSH0 KECCAK256 SWAP1 PUSH1 0x5 MUL ADD PUSH1 0x4 ADD PUSH0 SWAP1 SLOAD SWAP1 PUSH2 0x100 EXP SWAP1 DIV PUSH1 0xFF AND SWAP2 POP POP SWAP2 SWAP1 POP JUMP JUMPDEST PUSH1 0x40 MLOAD DUP1 PUSH1 0xA0 ADD PUSH1 0x40 MSTORE DUP1 PUSH0 DUP2 MSTORE PUSH1 0x20 ADD PUSH0 DUP2 MSTORE PUSH1 0x20 ADD PUSH1 0x60 DUP2 MSTORE PUSH1 0x20 ADD PUSH0 DUP2 MSTORE PUSH1 0x20 ADD PUSH0 ISZERO ISZERO DUP2 MSTORE POP SWAP1 JUMP JUMPDEST PUSH1 0x40 MLOAD DUP1 PUSH1 0xC0 ADD PUSH1 0x40 MSTORE DUP1 PUSH0 DUP2 MSTORE PUSH1 0x20 ADD PUSH0 DUP2 MSTORE PUSH1 0x20 ADD PUSH0 DUP2 MSTORE PUSH1 0x20 ADD PUSH1 0x60 DUP2 MSTORE PUSH1 0x20 ADD PUSH0 DUP2 MSTORE PUSH1 0x20 ADD PUSH0 ISZERO ISZERO DUP2 MSTORE POP SWAP1 JUMP JUMPDEST PUSH0 PUSH0 REVERT JUMPDEST PUSH0 PUSH0 REVERT JUMPDEST PUSH0 DUP2 SWAP1 POP SWAP2 SWAP1 POP JUMP JUMPDEST PUSH2 0x1B07 DUP2 PUSH2 0x1AF5 JUMP JUMPDEST DUP2 EQ PUSH2 0x1B11 JUMPI PUSH0 PUSH0 REVERT JUMPDEST POP JUMP JUMPDEST PUSH0 DUP2 CALLDATALOAD SWAP1 POP PUSH2 0x1B22 DUP2 PUSH2 0x1AFE JUMP JUMPDEST SWAP3 SWAP2 POP POP JUMP JUMPDEST PUSH0 PUSH1 0x20 DUP3 DUP5 SUB SLT ISZERO PUSH2 0x1B3D JUMPI PUSH2 0x1B3C PUSH2 0x1AED JUMP JUMPDEST JUMPDEST PUSH0 PUSH2 0x1B4A DUP5 DUP3 DUP6 ADD PUSH2 0x1B14 JUMP JUMPDEST SWAP2 POP POP SWAP3 SWAP2 POP POP JUMP JUMPDEST PUSH0 DUP2 MLOAD SWAP1 POP SWAP2 SWAP1 POP JUMP JUMPDEST PUSH0 DUP3 DUP3 MSTORE PUSH1 0x20 DUP3 ADD SWAP1 POP SWAP3 SWAP2 POP POP JUMP JUMPDEST PUSH0 DUP2 SWAP1 POP PUSH1 0x20 DUP3 ADD SWAP1 POP SWAP2 SWAP1 POP JUMP JUMPDEST PUSH2 0x1B85 DUP2 PUSH2 0x1AF5 JUMP JUMPDEST DUP3 MSTORE POP POP JUMP JUMPDEST PUSH0 DUP2 MLOAD SWAP1 POP SWAP2 SWAP1 POP JUMP JUMPDEST PUSH0 DUP3 DUP3 MSTORE PUSH1 0x20 DUP3 ADD SWAP1 POP SWAP3 SWAP2 POP POP JUMP JUMPDEST DUP3 DUP2 DUP4 MCOPY PUSH0 DUP4 DUP4 ADD MSTORE POP POP POP JUMP JUMPDEST PUSH0 PUSH1 0x1F NOT PUSH1 0x1F DUP4 ADD AND SWAP1 POP SWAP2 SWAP1 POP JUMP JUMPDEST PUSH0 PUSH2 0x1BCD DUP3 PUSH2 0x1B8B JUMP JUMPDEST PUSH2 0x1BD7 DUP2 DUP6 PUSH2 0x1B95 JUMP JUMPDEST SWAP4 POP PUSH2 0x1BE7 DUP2 DUP6 PUSH1 0x20 DUP7 ADD PUSH2 0x1BA5 JUMP JUMPDEST PUSH2 0x1BF0 DUP2 PUSH2 0x1BB3 JUMP JUMPDEST DUP5 ADD SWAP2 POP POP SWAP3 SWAP2 POP POP JUMP JUMPDEST PUSH0 DUP2 ISZERO ISZERO SWAP1 POP SWAP2 SWAP1 POP JUMP JUMPDEST PUSH2 0x1C0F DUP2 PUSH2 0x1BFB JUMP JUMPDEST DUP3 MSTORE POP POP JUMP JUMPDEST PUSH0 PUSH1 0xA0 DUP4 ADD PUSH0 DUP4 ADD MLOAD PUSH2 0x1C2A PUSH0 DUP7 ADD DUP3 PUSH2 0x1B7C JUMP JUMPDEST POP PUSH1 0x20 DUP4 ADD MLOAD PUSH2 0x1C3D PUSH1 0x20 DUP7 ADD DUP3 PUSH2 0x1B7C JUMP JUMPDEST POP PUSH1 0x40 DUP4 ADD MLOAD DUP5 DUP3 SUB PUSH1 0x40 DUP7 ADD MSTORE PUSH2 0x1C55 DUP3 DUP3 PUSH2 0x1BC3 JUMP JUMPDEST SWAP2 POP POP PUSH1 0x60 DUP4 ADD MLOAD PUSH2 0x1C6A PUSH1 0x60 DUP7 ADD DUP3 PUSH2 0x1B7C JUMP JUMPDEST POP PUSH1 0x80 DUP4 ADD MLOAD PUSH2 0x1C7D PUSH1 0x80 DUP7 ADD DUP3 PUSH2 0x1C06 JUMP JUMPDEST POP DUP1 SWAP2 POP POP SWAP3 SWAP2 POP POP JUMP JUMPDEST PUSH0 PUSH2 0x1C93 DUP4 DUP4 PUSH2 0x1C15 JUMP JUMPDEST SWAP1 POP SWAP3 SWAP2 POP POP JUMP JUMPDEST PUSH0 PUSH1 0x20 DUP3 ADD SWAP1 POP SWAP2 SWAP1 POP JUMP JUMPDEST PUSH0 PUSH2 0x1CB1 DUP3 PUSH2 0x1B53 JUMP JUMPDEST PUSH2 0x1CBB DUP2 DUP6 PUSH2 0x1B5D JUMP JUMPDEST SWAP4 POP DUP4 PUSH1 0x20 DUP3 MUL DUP6 ADD PUSH2 0x1CCD DUP6 PUSH2 0x1B6D JUMP JUMPDEST DUP1 PUSH0 JUMPDEST DUP6 DUP2 LT ISZERO PUSH2 0x1D08 JUMPI DUP5 DUP5 SUB DUP10 MSTORE DUP2 MLOAD PUSH2 0x1CE9 DUP6 DUP3 PUSH2 0x1C88 JUMP JUMPDEST SWAP5 POP PUSH2 0x1CF4 DUP4 PUSH2 0x1C9B JUMP JUMPDEST SWAP3 POP PUSH1 0x20 DUP11 ADD SWAP10 POP POP PUSH1 0x1 DUP2 ADD SWAP1 POP PUSH2 0x1CD0 JUMP JUMPDEST POP DUP3 SWAP8 POP DUP8 SWAP6 POP POP POP POP POP POP SWAP3 SWAP2 POP POP JUMP JUMPDEST PUSH0 PUSH1 0x20 DUP3 ADD SWAP1 POP DUP2 DUP2 SUB PUSH0 DUP4 ADD MSTORE PUSH2 0x1D32 DUP2 DUP5 PUSH2 0x1CA7 JUMP JUMPDEST SWAP1 POP SWAP3 SWAP2 POP POP JUMP JUMPDEST PUSH0 PUSH0 PUSH0 PUSH1 0x60 DUP5 DUP7 SUB SLT ISZERO PUSH2 0x1D51 JUMPI PUSH2 0x1D50 PUSH2 0x1AED JUMP JUMPDEST JUMPDEST PUSH0 PUSH2 0x1D5E DUP7 DUP3 DUP8 ADD PUSH2 0x1B14 JUMP JUMPDEST SWAP4 POP POP PUSH1 0x20 PUSH2 0x1D6F DUP7 DUP3 DUP8 ADD PUSH2 0x1B14 JUMP JUMPDEST SWAP3 POP POP PUSH1 0x40 PUSH2 0x1D80 DUP7 DUP3 DUP8 ADD PUSH2 0x1B14 JUMP JUMPDEST SWAP2 POP POP SWAP3 POP SWAP3 POP SWAP3 JUMP JUMPDEST PUSH0 DUP2 MLOAD SWAP1 POP SWAP2 SWAP1 POP JUMP JUMPDEST PUSH0 DUP3 DUP3 MSTORE PUSH1 0x20 DUP3 ADD SWAP1 POP SWAP3 SWAP2 POP POP JUMP JUMPDEST PUSH0 DUP2 SWAP1 POP PUSH1 0x20 DUP3 ADD SWAP1 POP SWAP2 SWAP1 POP JUMP JUMPDEST PUSH0 PUSH1 0xC0 DUP4 ADD PUSH0 DUP4 ADD MLOAD PUSH2 0x1DC8 PUSH0 DUP7 ADD DUP3 PUSH2 0x1B7C JUMP JUMPDEST POP PUSH1 0x20 DUP4 ADD MLOAD PUSH2 0x1DDB PUSH1 0x20 DUP7 ADD DUP3 PUSH2 0x1B7C JUMP JUMPDEST POP PUSH1 0x40 DUP4 ADD MLOAD PUSH2 0x1DEE PUSH1 0x40 DUP7 ADD DUP3 PUSH2 0x1B7C JUMP JUMPDEST POP PUSH1 0x60 DUP4 ADD MLOAD DUP5 DUP3 SUB PUSH1 0x60 DUP7 ADD MSTORE PUSH2 0x1E06 DUP3 DUP3 PUSH2 0x1BC3 JUMP JUMPDEST SWAP2 POP POP PUSH1 0x80 DUP4 ADD MLOAD PUSH2 0x1E1B PUSH1 0x80 DUP7 ADD DUP3 PUSH2 0x1B7C JUMP JUMPDEST POP PUSH1 0xA0 DUP4 ADD MLOAD PUSH2 0x1E2E PUSH1 0xA0 DUP7 ADD DUP3 PUSH2 0x1C06 JUMP JUMPDEST POP DUP1 SWAP2 POP POP SWAP3 SWAP2 POP POP JUMP JUMPDEST PUSH0 PUSH2 0x1E44 DUP4 DUP4 PUSH2 0x1DB3 JUMP JUMPDEST SWAP1 POP SWAP3 SWAP2 POP POP JUMP JUMPDEST PUSH0 PUSH1 0x20 DUP3 ADD SWAP1 POP SWAP2 SWAP1 POP JUMP JUMPDEST PUSH0 PUSH2 0x1E62 DUP3 PUSH2 0x1D8A JUMP JUMPDEST PUSH2 0x1E6C DUP2 DUP6 PUSH2 0x1D94 JUMP JUMPDEST SWAP4 POP DUP4 PUSH1 0x20 DUP3 MUL DUP6 ADD PUSH2 0x1E7E DUP6 PUSH2 0x1DA4 JUMP JUMPDEST DUP1 PUSH0 JUMPDEST DUP6 DUP2 LT ISZERO PUSH2 0x1EB9 JUMPI DUP5 DUP5 SUB DUP10 MSTORE DUP2 MLOAD PUSH2 0x1E9A DUP6 DUP3 PUSH2 0x1E39 JUMP JUMPDEST SWAP5 POP PUSH2 0x1EA5 DUP4 PUSH2 0x1E4C JUMP JUMPDEST SWAP3 POP PUSH1 0x20 DUP11 ADD SWAP10 POP POP PUSH1 0x1 DUP2 ADD SWAP1 POP PUSH2 0x1E81 JUMP JUMPDEST POP DUP3 SWAP8 POP DUP8 SWAP6 POP POP POP POP POP POP SWAP3 SWAP2 POP POP JUMP JUMPDEST PUSH0 PUSH1 0x20 DUP3 ADD SWAP1 POP DUP2 DUP2 SUB PUSH0 DUP4 ADD MSTORE PUSH2 0x1EE3 DUP2 DUP5 PUSH2 0x1E58 JUMP JUMPDEST SWAP1 POP SWAP3 SWAP2 POP POP JUMP JUMPDEST PUSH0 PUSH0 REVERT JUMPDEST PUSH0 PUSH0 REVERT JUMPDEST PUSH0 PUSH0 REVERT JUMPDEST PUSH0 PUSH0 DUP4 PUSH1 0x1F DUP5 ADD SLT PUSH2 0x1F0C JUMPI PUSH2 0x1F0B PUSH2 0x1EEB JUMP JUMPDEST JUMPDEST DUP3 CALLDATALOAD SWAP1 POP PUSH8 0xFFFFFFFFFFFFFFFF DUP2 GT ISZERO PUSH2 0x1F29 JUMPI PUSH2 0x1F28 PUSH2 0x1EEF JUMP JUMPDEST JUMPDEST PUSH1 0x20 DUP4 ADD SWAP2 POP DUP4 PUSH1 0x1 DUP3 MUL DUP4 ADD GT ISZERO PUSH2 0x1F45 JUMPI PUSH2 0x1F44 PUSH2 0x1EF3 JUMP JUMPDEST JUMPDEST SWAP3 POP SWAP3 SWAP1 POP JUMP JUMPDEST PUSH0 PUSH0 PUSH0 PUSH1 0x40 DUP5 DUP7 SUB SLT ISZERO PUSH2 0x1F63 JUMPI PUSH2 0x1F62 PUSH2 0x1AED JUMP JUMPDEST JUMPDEST PUSH0 PUSH2 0x1F70 DUP7 DUP3 DUP8 ADD PUSH2 0x1B14 JUMP JUMPDEST SWAP4 POP POP PUSH1 0x20 DUP5 ADD CALLDATALOAD PUSH8 0xFFFFFFFFFFFFFFFF DUP2 GT ISZERO PUSH2 0x1F91 JUMPI PUSH2 0x1F90 PUSH2 0x1AF1 JUMP JUMPDEST JUMPDEST PUSH2 0x1F9D DUP7 DUP3 DUP8 ADD PUSH2 0x1EF7 JUMP JUMPDEST SWAP3 POP SWAP3 POP POP SWAP3 POP SWAP3 POP SWAP3 JUMP JUMPDEST PUSH0 PUSH1 0xA0 DUP4 ADD PUSH0 DUP4 ADD MLOAD PUSH2 0x1FBE PUSH0 DUP7 ADD DUP3 PUSH2 0x1B7C JUMP JUMPDEST POP PUSH1 0x20 DUP4 ADD MLOAD PUSH2 0x1FD1 PUSH1 0x20 DUP7 ADD DUP3 PUSH2 0x1B7C JUMP JUMPDEST POP PUSH1 0x40 DUP4 ADD MLOAD DUP5 DUP3 SUB PUSH1 0x40 DUP7 ADD MSTORE PUSH2 0x1FE9 DUP3 DUP3 PUSH2 0x1BC3 JUMP JUMPDEST SWAP2 POP POP PUSH1 0x60 DUP4 ADD MLOAD PUSH2 0x1FFE PUSH1 0x60 DUP7 ADD DUP3 PUSH2 0x1B7C JUMP JUMPDEST POP PUSH1 0x80 DUP4 ADD MLOAD PUSH2 0x2011 PUSH1 0x80 DUP7 ADD DUP3 PUSH2 0x1C06 JUMP JUMPDEST POP DUP1 SWAP2 POP POP SWAP3 SWAP2 POP POP JUMP JUMPDEST PUSH0 PUSH1 0x20 DUP3 ADD SWAP1 POP DUP2 DUP2 SUB PUSH0 DUP4 ADD MSTORE PUSH2 0x2034 DUP2 DUP5 PUSH2 0x1FA9 JUMP JUMPDEST SWAP1 POP SWAP3 SWAP2 POP POP JUMP JUMPDEST PUSH0 PUSH0 PUSH1 0x40 DUP4 DUP6 SUB SLT ISZERO PUSH2 0x2052 JUMPI PUSH2 0x2051 PUSH2 0x1AED JUMP JUMPDEST JUMPDEST PUSH0 PUSH2 0x205F DUP6 DUP3 DUP7 ADD PUSH2 0x1B14 JUMP JUMPDEST SWAP3 POP POP PUSH1 0x20 PUSH2 0x2070 DUP6 DUP3 DUP7 ADD PUSH2 0x1B14 JUMP JUMPDEST SWAP2 POP POP SWAP3 POP SWAP3 SWAP1 POP JUMP JUMPDEST PUSH2 0x2083 DUP2 PUSH2 0x1BFB JUMP JUMPDEST DUP3 MSTORE POP POP JUMP JUMPDEST PUSH0 PUSH1 0x20 DUP3 ADD SWAP1 POP PUSH2 0x209C PUSH0 DUP4 ADD DUP5 PUSH2 0x207A JUMP JUMPDEST SWAP3 SWAP2 POP POP JUMP JUMPDEST PUSH0 PUSH0 PUSH1 0x20 DUP4 DUP6 SUB SLT ISZERO PUSH2 0x20B8 JUMPI PUSH2 0x20B7 PUSH2 0x1AED JUMP JUMPDEST JUMPDEST PUSH0 DUP4 ADD CALLDATALOAD PUSH8 0xFFFFFFFFFFFFFFFF DUP2 GT ISZERO PUSH2 0x20D5 JUMPI PUSH2 0x20D4 PUSH2 0x1AF1 JUMP JUMPDEST JUMPDEST PUSH2 0x20E1 DUP6 DUP3 DUP7 ADD PUSH2 0x1EF7 JUMP JUMPDEST SWAP3 POP SWAP3 POP POP SWAP3 POP SWAP3 SWAP1 POP JUMP JUMPDEST PUSH2 0x20F6 DUP2 PUSH2 0x1AF5 JUMP JUMPDEST DUP3 MSTORE POP POP JUMP JUMPDEST PUSH0 PUSH1 0x20 DUP3 ADD SWAP1 POP PUSH2 0x210F PUSH0 DUP4 ADD DUP5 PUSH2 0x20ED JUMP JUMPDEST SWAP3 SWAP2 POP POP JUMP JUMPDEST PUSH0 PUSH20 0xFFFFFFFFFFFFFFFFFFFFFFFFFFFFFFFFFFFFFFFF DUP3 AND SWAP1 POP SWAP2 SWAP1 POP JUMP JUMPDEST PUSH0 PUSH2 0x213E DUP3 PUSH2 0x2115 JUMP JUMPDEST SWAP1 POP SWAP2 SWAP1 POP JUMP JUMPDEST PUSH2 0x214E DUP2 PUSH2 0x2134 JUMP JUMPDEST DUP3 MSTORE POP POP JUMP JUMPDEST PUSH0 PUSH1 0x20 DUP3 ADD SWAP1 POP PUSH2 0x2167 PUSH0 DUP4 ADD DUP5 PUSH2 0x2145 JUMP JUMPDEST SWAP3 SWAP2 POP POP JUMP JUMPDEST PUSH0 DUP2 MLOAD SWAP1 POP PUSH2 0x217B DUP2 PUSH2 0x1AFE JUMP JUMPDEST SWAP3 SWAP2 POP POP JUMP JUMPDEST PUSH0 PUSH1 0x20 DUP3 DUP5 SUB SLT ISZERO PUSH2 0x2196 JUMPI PUSH2 0x2195 PUSH2 0x1AED JUMP JUMPDEST JUMPDEST PUSH0 PUSH2 0x21A3 DUP5 DUP3 DUP6 ADD PUSH2 0x216D JUMP JUMPDEST SWAP2 POP POP SWAP3 SWAP2 POP POP JUMP JUMPDEST PUSH0 DUP3 DUP3 MSTORE PUSH1 0x20 DUP3 ADD SWAP1 POP SWAP3 SWAP2 POP POP JUMP JUMPDEST PUSH32 0x506F737420646F6573206E6F7420657869737400000000000000000000000000 PUSH0 DUP3 ADD MSTORE POP JUMP JUMPDEST PUSH0 PUSH2 0x21F0 PUSH1 0x13 DUP4 PUSH2 0x21AC JUMP JUMPDEST SWAP2 POP PUSH2 0x21FB DUP3 PUSH2 0x21BC JUMP JUMPDEST PUSH1 0x20 DUP3 ADD SWAP1 POP SWAP2 SWAP1 POP JUMP JUMPDEST PUSH0 PUSH1 0x20 DUP3 ADD SWAP1 POP DUP2 DUP2 SUB PUSH0 DUP4 ADD MSTORE PUSH2 0x221D DUP2 PUSH2 0x21E4 JUMP JUMPDEST SWAP1 POP SWAP2 SWAP1 POP JUMP JUMPDEST PUSH32 0x4E6F7420706F7374206F776E6572000000000000000000000000000000000000 PUSH0 DUP3 ADD MSTORE POP JUMP JUMPDEST PUSH0 PUSH2 0x2258 PUSH1 0xE DUP4 PUSH2 0x21AC JUMP JUMPDEST SWAP2 POP PUSH2 0x2263 DUP3 PUSH2 0x2224 JUMP JUMPDEST PUSH1 0x20 DUP3 ADD SWAP1 POP SWAP2 SWAP1 POP JUMP JUMPDEST PUSH0 PUSH1 0x20 DUP3 ADD SWAP1 POP DUP2 DUP2 SUB PUSH0 DUP4 ADD MSTORE PUSH2 0x2285 DUP2 PUSH2 0x224C JUMP JUMPDEST SWAP1 POP SWAP2 SWAP1 POP JUMP JUMPDEST PUSH32 0x4E487B7100000000000000000000000000000000000000000000000000000000 PUSH0 MSTORE PUSH1 0x32 PUSH1 0x4 MSTORE PUSH1 0x24 PUSH0 REVERT JUMPDEST PUSH32 0x416C72656164792064656C657465640000000000000000000000000000000000 PUSH0 DUP3 ADD MSTORE POP JUMP JUMPDEST PUSH0 PUSH2 0x22ED PUSH1 0xF DUP4 PUSH2 0x21AC JUMP JUMPDEST SWAP2 POP PUSH2 0x22F8 DUP3 PUSH2 0x22B9 JUMP JUMPDEST PUSH1 0x20 DUP3 ADD SWAP1 POP SWAP2 SWAP1 POP JUMP JUMPDEST PUSH0 PUSH1 0x20 DUP3 ADD SWAP1 POP DUP2 DUP2 SUB PUSH0 DUP4 ADD MSTORE PUSH2 0x231A DUP2 PUSH2 0x22E1 JUMP JUMPDEST SWAP1 POP SWAP2 SWAP1 POP JUMP JUMPDEST PUSH32 0x4E487B7100000000000000000000000000000000000000000000000000000000 PUSH0 MSTORE PUSH1 0x41 PUSH1 0x4 MSTORE PUSH1 0x24 PUSH0 REVERT JUMPDEST PUSH32 0x4E487B7100000000000000000000000000000000000000000000000000000000 PUSH0 MSTORE PUSH1 0x22 PUSH1 0x4 MSTORE PUSH1 0x24 PUSH0 REVERT JUMPDEST PUSH0 PUSH1 0x2 DUP3 DIV SWAP1 POP PUSH1 0x1 DUP3 AND DUP1 PUSH2 0x2392 JUMPI PUSH1 0x7F DUP3 AND SWAP2 POP JUMPDEST PUSH1 0x20 DUP3 LT DUP2 SUB PUSH2 0x23A5 JUMPI PUSH2 0x23A4 PUSH2 0x234E JUMP JUMPDEST JUMPDEST POP SWAP2 SWAP1 POP JUMP JUMPDEST PUSH32 0x4E487B7100000000000000000000000000000000000000000000000000000000 PUSH0 MSTORE PUSH1 0x11 PUSH1 0x4 MSTORE PUSH1 0x24 PUSH0 REVERT JUMPDEST PUSH0 PUSH2 0x23E2 DUP3 PUSH2 0x1AF5 JUMP JUMPDEST SWAP2 POP PUSH2 0x23ED DUP4 PUSH2 0x1AF5 JUMP JUMPDEST SWAP3 POP DUP3 DUP3 ADD SWAP1 POP DUP1 DUP3 GT ISZERO PUSH2 0x2405 JUMPI PUSH2 0x2404 PUSH2 0x23AB JUMP JUMPDEST JUMPDEST SWAP3 SWAP2 POP POP JUMP JUMPDEST PUSH0 PUSH2 0x2415 DUP3 PUSH2 0x1AF5 JUMP JUMPDEST SWAP2 POP PUSH2 0x2420 DUP4 PUSH2 0x1AF5 JUMP JUMPDEST SWAP3 POP DUP3 DUP3 SUB SWAP1 POP DUP2 DUP2 GT ISZERO PUSH2 0x2438 JUMPI PUSH2 0x2437 PUSH2 0x23AB JUMP JUMPDEST JUMPDEST SWAP3 SWAP2 POP POP JUMP JUMPDEST PUSH0 PUSH2 0x2448 DUP3 PUSH2 0x1AF5 JUMP JUMPDEST SWAP2 POP PUSH32 0xFFFFFFFFFFFFFFFFFFFFFFFFFFFFFFFFFFFFFFFFFFFFFFFFFFFFFFFFFFFFFFFF DUP3 SUB PUSH2 0x247A JUMPI PUSH2 0x2479 PUSH2 0x23AB JUMP JUMPDEST JUMPDEST PUSH1 0x1 DUP3 ADD SWAP1 POP SWAP2 SWAP1 POP JUMP JUMPDEST PUSH32 0x456D70747920636F6D6D656E7400000000000000000000000000000000000000 PUSH0 DUP3 ADD MSTORE POP JUMP JUMPDEST PUSH0 PUSH2 0x24B9 PUSH1 0xD DUP4 PUSH2 0x21AC JUMP JUMPDEST SWAP2 POP PUSH2 0x24C4 DUP3 PUSH2 0x2485 JUMP JUMPDEST PUSH1 0x20 DUP3 ADD SWAP1 POP SWAP2 SWAP1 POP JUMP JUMPDEST PUSH0 PUSH1 0x20 DUP3 ADD SWAP1 POP DUP2 DUP2 SUB PUSH0 DUP4 ADD MSTORE PUSH2 0x24E6 DUP2 PUSH2 0x24AD JUMP JUMPDEST SWAP1 POP SWAP2 SWAP1 POP JUMP JUMPDEST PUSH0 DUP2 SWAP1 POP DUP2 PUSH0 MSTORE PUSH1 0x20 PUSH0 KECCAK256 SWAP1 POP SWAP2 SWAP1 POP JUMP JUMPDEST PUSH0 PUSH1 0x20 PUSH1 0x1F DUP4 ADD DIV SWAP1 POP SWAP2 SWAP1 POP JUMP JUMPDEST PUSH0 DUP3 DUP3 SHL SWAP1 POP SWAP3 SWAP2 POP POP JUMP JUMPDEST PUSH0 PUSH1 0x8 DUP4 MUL PUSH2 0x2549 PUSH32 0xFFFFFFFFFFFFFFFFFFFFFFFFFFFFFFFFFFFFFFFFFFFFFFFFFFFFFFFFFFFFFFFF DUP3 PUSH2 0x250E JUMP JUMPDEST PUSH2 0x2553 DUP7 DUP4 PUSH2 0x250E JUMP JUMPDEST SWAP6 POP DUP1 NOT DUP5 AND SWAP4 POP DUP1 DUP7 AND DUP5 OR SWAP3 POP POP POP SWAP4 SWAP3 POP POP POP JUMP JUMPDEST PUSH0 DUP2 SWAP1 POP SWAP2 SWAP1 POP JUMP JUMPDEST PUSH0 PUSH2 0x258E PUSH2 0x2589 PUSH2 0x2584 DUP5 PUSH2 0x1AF5 JUMP JUMPDEST PUSH2 0x256B JUMP JUMPDEST PUSH2 0x1AF5 JUMP JUMPDEST SWAP1 POP SWAP2 SWAP1 POP JUMP JUMPDEST PUSH0 DUP2 SWAP1 POP SWAP2 SWAP1 POP JUMP JUMPDEST PUSH2 0x25A7 DUP4 PUSH2 0x2574 JUMP JUMPDEST PUSH2 0x25BB PUSH2 0x25B3 DUP3 PUSH2 0x2595 JUMP JUMPDEST DUP5 DUP5 SLOAD PUSH2 0x251A JUMP JUMPDEST DUP3 SSTORE POP POP POP POP JUMP JUMPDEST PUSH0 PUSH0 SWAP1 POP SWAP1 JUMP JUMPDEST PUSH2 0x25D2 PUSH2 0x25C3 JUMP JUMPDEST PUSH2 0x25DD DUP2 DUP5 DUP5 PUSH2 0x259E JUMP JUMPDEST POP POP POP JUMP JUMPDEST JUMPDEST DUP2 DUP2 LT ISZERO PUSH2 0x2600 JUMPI PUSH2 0x25F5 PUSH0 DUP3 PUSH2 0x25CA JUMP JUMPDEST PUSH1 0x1 DUP2 ADD SWAP1 POP PUSH2 0x25E3 JUMP JUMPDEST POP POP JUMP JUMPDEST PUSH1 0x1F DUP3 GT ISZERO PUSH2 0x2645 JUMPI PUSH2 0x2616 DUP2 PUSH2 0x24ED JUMP JUMPDEST PUSH2 0x261F DUP5 PUSH2 0x24FF JUMP JUMPDEST DUP2 ADD PUSH1 0x20 DUP6 LT ISZERO PUSH2 0x262E JUMPI DUP2 SWAP1 POP JUMPDEST PUSH2 0x2642 PUSH2 0x263A DUP6 PUSH2 0x24FF JUMP JUMPDEST DUP4 ADD DUP3 PUSH2 0x25E2 JUMP JUMPDEST POP POP JUMPDEST POP POP POP JUMP JUMPDEST PUSH0 DUP3 DUP3 SHR SWAP1 POP SWAP3 SWAP2 POP POP JUMP JUMPDEST PUSH0 PUSH2 0x2665 PUSH0 NOT DUP5 PUSH1 0x8 MUL PUSH2 0x264A JUMP JUMPDEST NOT DUP1 DUP4 AND SWAP2 POP POP SWAP3 SWAP2 POP POP JUMP JUMPDEST PUSH0 PUSH2 0x267D DUP4 DUP4 PUSH2 0x2656 JUMP JUMPDEST SWAP2 POP DUP3 PUSH1 0x2 MUL DUP3 OR SWAP1 POP SWAP3 SWAP2 POP POP JUMP JUMPDEST PUSH2 0x2696 DUP3 PUSH2 0x1B8B JUMP JUMPDEST PUSH8 0xFFFFFFFFFFFFFFFF DUP2 GT ISZERO PUSH2 0x26AF JUMPI PUSH2 0x26AE PUSH2 0x2321 JUMP JUMPDEST JUMPDEST PUSH2 0x26B9 DUP3 SLOAD PUSH2 0x237B JUMP JUMPDEST PUSH2 0x26C4 DUP3 DUP3 DUP6 PUSH2 0x2604 JUMP JUMPDEST PUSH0 PUSH1 0x20 SWAP1 POP PUSH1 0x1F DUP4 GT PUSH1 0x1 DUP2 EQ PUSH2 0x26F5 JUMPI PUSH0 DUP5 ISZERO PUSH2 0x26E3 JUMPI DUP3 DUP8 ADD MLOAD SWAP1 POP JUMPDEST PUSH2 0x26ED DUP6 DUP3 PUSH2 0x2672 JUMP JUMPDEST DUP7 SSTORE POP PUSH2 0x2754 JUMP JUMPDEST PUSH1 0x1F NOT DUP5 AND PUSH2 0x2703 DUP7 PUSH2 0x24ED JUMP JUMPDEST PUSH0 JUMPDEST DUP3 DUP2 LT ISZERO PUSH2 0x272A JUMPI DUP5 DUP10 ADD MLOAD DUP3 SSTORE PUSH1 0x1 DUP3 ADD SWAP2 POP PUSH1 0x20 DUP6 ADD SWAP5 POP PUSH1 0x20 DUP2 ADD SWAP1 POP PUSH2 0x2705 JUMP JUMPDEST DUP7 DUP4 LT ISZERO PUSH2 0x2747 JUMPI DUP5 DUP10 ADD MLOAD PUSH2 0x2743 PUSH1 0x1F DUP10 AND DUP3 PUSH2 0x2656 JUMP JUMPDEST DUP4 SSTORE POP JUMPDEST PUSH1 0x1 PUSH1 0x2 DUP9 MUL ADD DUP9 SSTORE POP POP POP JUMPDEST POP POP POP POP POP POP JUMP JUMPDEST DUP3 DUP2 DUP4 CALLDATACOPY PUSH0 DUP4 DUP4 ADD MSTORE POP POP POP JUMP JUMPDEST PUSH0 PUSH2 0x2775 DUP4 DUP6 PUSH2 0x21AC JUMP JUMPDEST SWAP4 POP PUSH2 0x2782 DUP4 DUP6 DUP5 PUSH2 0x275C JUMP JUMPDEST PUSH2 0x278B DUP4 PUSH2 0x1BB3 JUMP JUMPDEST DUP5 ADD SWAP1 POP SWAP4 SWAP3 POP POP POP JUMP JUMPDEST PUSH0 PUSH1 0x60 DUP3 ADD SWAP1 POP PUSH2 0x27A9 PUSH0 DUP4 ADD DUP8 PUSH2 0x2145 JUMP JUMPDEST DUP2 DUP2 SUB PUSH1 0x20 DUP4 ADD MSTORE PUSH2 0x27BC DUP2 DUP6 DUP8 PUSH2 0x276A JUMP JUMPDEST SWAP1 POP PUSH2 0x27CB PUSH1 0x40 DUP4 ADD DUP5 PUSH2 0x20ED JUMP JUMPDEST SWAP6 SWAP5 POP POP POP POP POP JUMP JUMPDEST PUSH32 0x506F737420646F65736E27742065786973740000000000000000000000000000 PUSH0 DUP3 ADD MSTORE POP JUMP JUMPDEST PUSH0 PUSH2 0x2808 PUSH1 0x12 DUP4 PUSH2 0x21AC JUMP JUMPDEST SWAP2 POP PUSH2 0x2813 DUP3 PUSH2 0x27D4 JUMP JUMPDEST PUSH1 0x20 DUP3 ADD SWAP1 POP SWAP2 SWAP1 POP JUMP JUMPDEST PUSH0 PUSH1 0x20 DUP3 ADD SWAP1 POP DUP2 DUP2 SUB PUSH0 DUP4 ADD MSTORE PUSH2 0x2835 DUP2 PUSH2 0x27FC JUMP JUMPDEST SWAP1 POP SWAP2 SWAP1 POP JUMP JUMPDEST PUSH32 0x596F7520646F6E2774206F776E207468697320636F6D6D656E74000000000000 PUSH0 DUP3 ADD MSTORE POP JUMP JUMPDEST PUSH0 PUSH2 0x2870 PUSH1 0x1A DUP4 PUSH2 0x21AC JUMP JUMPDEST SWAP2 POP PUSH2 0x287B DUP3 PUSH2 0x283C JUMP JUMPDEST PUSH1 0x20 DUP3 ADD SWAP1 POP SWAP2 SWAP1 POP JUMP JUMPDEST PUSH0 PUSH1 0x20 DUP3 ADD SWAP1 POP DUP2 DUP2 SUB PUSH0 DUP4 ADD MSTORE PUSH2 0x289D DUP2 PUSH2 0x2864 JUMP JUMPDEST SWAP1 POP SWAP2 SWAP1 POP JUMP JUMPDEST PUSH32 0x436F6D6D656E7420646F6573206E6F7420657873697374000000000000000000 PUSH0 DUP3 ADD MSTORE POP JUMP JUMPDEST PUSH0 PUSH2 0x28D8 PUSH1 0x17 DUP4 PUSH2 0x21AC JUMP JUMPDEST SWAP2 POP PUSH2 0x28E3 DUP3 PUSH2 0x28A4 JUMP JUMPDEST PUSH1 0x20 DUP3 ADD SWAP1 POP SWAP2 SWAP1 POP JUMP JUMPDEST PUSH0 PUSH1 0x20 DUP3 ADD SWAP1 POP DUP2 DUP2 SUB PUSH0 DUP4 ADD MSTORE PUSH2 0x2905 DUP2 PUSH2 0x28CC JUMP JUMPDEST SWAP1 POP SWAP2 SWAP1 POP JUMP JUMPDEST PUSH0 PUSH2 0x2916 DUP3 PUSH2 0x1AF5 JUMP JUMPDEST SWAP2 POP PUSH0 DUP3 SUB PUSH2 0x2928 JUMPI PUSH2 0x2927 PUSH2 0x23AB JUMP JUMPDEST JUMPDEST PUSH1 0x1 DUP3 SUB SWAP1 POP SWAP2 SWAP1 POP JUMP JUMPDEST PUSH0 DUP3 SWAP1 POP SWAP3 SWAP2 POP POP JUMP JUMPDEST PUSH2 0x2947 DUP4 DUP4 PUSH2 0x2933 JUMP JUMPDEST PUSH8 0xFFFFFFFFFFFFFFFF DUP2 GT ISZERO PUSH2 0x2960 JUMPI PUSH2 0x295F PUSH2 0x2321 JUMP JUMPDEST JUMPDEST PUSH2 0x296A DUP3 SLOAD PUSH2 0x237B JUMP JUMPDEST PUSH2 0x2975 DUP3 DUP3 DUP6 PUSH2 0x2604 JUMP JUMPDEST PUSH0 PUSH1 0x1F DUP4 GT PUSH1 0x1 DUP2 EQ PUSH2 0x29A2 JUMPI PUSH0 DUP5 ISZERO PUSH2 0x2990 JUMPI DUP3 DUP8 ADD CALLDATALOAD SWAP1 POP JUMPDEST PUSH2 0x299A DUP6 DUP3 PUSH2 0x2672 JUMP JUMPDEST DUP7 SSTORE POP PUSH2 0x2A01 JUMP JUMPDEST PUSH1 0x1F NOT DUP5 AND PUSH2 0x29B0 DUP7 PUSH2 0x24ED JUMP JUMPDEST PUSH0 JUMPDEST DUP3 DUP2 LT ISZERO PUSH2 0x29D7 JUMPI DUP5 DUP10 ADD CALLDATALOAD DUP3 SSTORE PUSH1 0x1 DUP3 ADD SWAP2 POP PUSH1 0x20 DUP6 ADD SWAP5 POP PUSH1 0x20 DUP2 ADD SWAP1 POP PUSH2 0x29B2 JUMP JUMPDEST DUP7 DUP4 LT ISZERO PUSH2 0x29F4 JUMPI DUP5 DUP10 ADD CALLDATALOAD PUSH2 0x29F0 PUSH1 0x1F DUP10 AND DUP3 PUSH2 0x2656 JUMP JUMPDEST DUP4 SSTORE POP JUMPDEST PUSH1 0x1 PUSH1 0x2 DUP9 MUL ADD DUP9 SSTORE POP POP POP JUMPDEST POP POP POP POP POP POP POP JUMP JUMPDEST PUSH0 PUSH1 0x40 DUP3 ADD SWAP1 POP DUP2 DUP2 SUB PUSH0 DUP4 ADD MSTORE PUSH2 0x2A23 DUP2 DUP6 DUP8 PUSH2 0x276A JUMP JUMPDEST SWAP1 POP PUSH2 0x2A32 PUSH1 0x20 DUP4 ADD DUP5 PUSH2 0x20ED JUMP JUMPDEST SWAP5 SWAP4 POP POP POP POP JUMP JUMPDEST PUSH32 0x636F6E74656E742073686F756C642062652061746C65617374206C6574746572 PUSH0 DUP3 ADD MSTORE PUSH32 0x2033000000000000000000000000000000000000000000000000000000000000 PUSH1 0x20 DUP3 ADD MSTORE POP JUMP JUMPDEST PUSH0 PUSH2 0x2A94 PUSH1 0x22 DUP4 PUSH2 0x21AC JUMP JUMPDEST SWAP2 POP PUSH2 0x2A9F DUP3 PUSH2 0x2A3A JUMP JUMPDEST PUSH1 0x40 DUP3 ADD SWAP1 POP SWAP2 SWAP1 POP JUMP JUMPDEST PUSH0 PUSH1 0x20 DUP3 ADD SWAP1 POP DUP2 DUP2 SUB PUSH0 DUP4 ADD MSTORE PUSH2 0x2AC1 DUP2 PUSH2 0x2A88 JUMP JUMPDEST SWAP1 POP SWAP2 SWAP1 POP JUMP JUMPDEST PUSH32 0x796F7520646F6E27742068617665207468697320706F73740000000000000000 PUSH0 DUP3 ADD MSTORE POP JUMP JUMPDEST PUSH0 PUSH2 0x2AFC PUSH1 0x18 DUP4 PUSH2 0x21AC JUMP JUMPDEST SWAP2 POP PUSH2 0x2B07 DUP3 PUSH2 0x2AC8 JUMP JUMPDEST PUSH1 0x20 DUP3 ADD SWAP1 POP SWAP2 SWAP1 POP JUMP JUMPDEST PUSH0 PUSH1 0x20 DUP3 ADD SWAP1 POP DUP2 DUP2 SUB PUSH0 DUP4 ADD MSTORE PUSH2 0x2B29 DUP2 PUSH2 0x2AF0 JUMP JUMPDEST SWAP1 POP SWAP2 SWAP1 POP JUMP INVALID LOG2 PUSH5 0x6970667358 0x22 SLT KECCAK256 0xAE MCOPY PUSH23 0x78C2863D49DBF8A61A4D7CE629DC38133B6CB8621F418F 0x2D CALLER CODESIZE GT SWAP7 0xB3 PUSH5 0x736F6C6343 STOP ADDMOD 0x1E STOP CALLER "
		},
		"gasEstimates": {
			"creation": {
				"codeDepositCost": "2222000",
				"executionCost": "infinite",
				"totalCost": "infinite"
			},
			"external": {
				"commentOnPost(uint256,string)": "infinite",
				"createPost(string)": "infinite",
				"deleteComment(uint256)": "infinite",
				"deletePost(uint256)": "infinite",
				"editComment(uint256,string)": "infinite",
				"editPost(uint256,string)": "infinite",
				"getCommentsByPost(uint256,uint256,uint256)": "infinite",
				"getPostById(uint256)": "infinite",
				"getPostCommentCount(uint256)": "infinite",
				"getPostLikeCount(uint256)": "infinite",
				"getPostsByUser(uint256)": "infinite",
				"getTotalPostCount()": "2506",
				"hasUserLikedPost(uint256,uint256)": "infinite",
				"togglePostLike(uint256)": "infinite"
			},
			"internal": {
				"_isPostDeleted(uint256)": "infinite",
				"_postExists(uint256)": "infinite"
			}
		},
		"methodIdentifiers": {
			"commentOnPost(uint256,string)": "64732154",
			"createPost(string)": "c7303c61",
			"deleteComment(uint256)": "7d0b1026",
			"deletePost(uint256)": "094cd5ee",
			"editComment(uint256,string)": "ad816029",
			"editPost(uint256,string)": "fa99654a",
			"getCommentsByPost(uint256,uint256,uint256)": "60f74377",
			"getPostById(uint256)": "64e95895",
			"getPostCommentCount(uint256)": "d0446c41",
			"getPostLikeCount(uint256)": "d6e93896",
			"getPostsByUser(uint256)": "211117ff",
			"getTotalPostCount()": "efbe8469",
			"hasUserLikedPost(uint256,uint256)": "65aa1ed9",
			"togglePostLike(uint256)": "96f25073"
		}
	},
	"abi": [
		{
			"inputs": [
				{
					"internalType": "address",
					"name": "_profileManagerAddress",
					"type": "address"
				}
			],
			"stateMutability": "nonpayable",
			"type": "constructor"
		},
		{
			"anonymous": false,
			"inputs": [
				{
					"indexed": true,
					"internalType": "uint256",
					"name": "commentId",
					"type": "uint256"
				},
				{
					"indexed": true,
					"internalType": "uint256",
					"name": "postId",
					"type": "uint256"
				},
				{
					"indexed": true,
					"internalType": "uint256",
					"name": "authorId",
					"type": "uint256"
				},
				{
					"indexed": false,
					"internalType": "address",
					"name": "authorAddress",
					"type": "address"
				},
				{
					"indexed": false,
					"internalType": "string",
					"name": "content",
					"type": "string"
				},
				{
					"indexed": false,
					"internalType": "uint256",
					"name": "createdAt",
					"type": "uint256"
				}
			],
			"name": "CommentCreated",
			"type": "event"
		},
		{
			"anonymous": false,
			"inputs": [
				{
					"indexed": true,
					"internalType": "uint256",
					"name": "commentId",
					"type": "uint256"
				},
				{
					"indexed": false,
					"internalType": "uint256",
					"name": "deletedAt",
					"type": "uint256"
				}
			],
			"name": "CommentDeleted",
			"type": "event"
		},
		{
			"anonymous": false,
			"inputs": [
				{
					"indexed": true,
					"internalType": "uint256",
					"name": "commentId",
					"type": "uint256"
				},
				{
					"indexed": false,
					"internalType": "string",
					"name": "newContent",
					"type": "string"
				},
				{
					"indexed": false,
					"internalType": "uint256",
					"name": "editedAt",
					"type": "uint256"
				}
			],
			"name": "CommentEdited",
			"type": "event"
		},
		{
			"anonymous": false,
			"inputs": [
				{
					"indexed": true,
					"internalType": "uint256",
					"name": "postId",
					"type": "uint256"
				},
				{
					"indexed": true,
					"internalType": "uint256",
					"name": "ownerId",
					"type": "uint256"
				},
				{
					"indexed": true,
					"internalType": "address",
					"name": "ownerAddress",
					"type": "address"
				},
				{
					"indexed": false,
					"internalType": "string",
					"name": "content",
					"type": "string"
				},
				{
					"indexed": false,
					"internalType": "uint256",
					"name": "createdAt",
					"type": "uint256"
				}
			],
			"name": "PostCreated",
			"type": "event"
		},
		{
			"anonymous": false,
			"inputs": [
				{
					"indexed": true,
					"internalType": "uint256",
					"name": "postId",
					"type": "uint256"
				},
				{
					"indexed": false,
					"internalType": "uint256",
					"name": "deletedAt",
					"type": "uint256"
				}
			],
			"name": "PostDeleted",
			"type": "event"
		},
		{
			"anonymous": false,
			"inputs": [
				{
					"indexed": true,
					"internalType": "uint256",
					"name": "postId",
					"type": "uint256"
				},
				{
					"indexed": false,
					"internalType": "string",
					"name": "newContent",
					"type": "string"
				},
				{
					"indexed": false,
					"internalType": "uint256",
					"name": "editedAt",
					"type": "uint256"
				}
			],
			"name": "PostEdited",
			"type": "event"
		},
		{
			"anonymous": false,
			"inputs": [
				{
					"indexed": true,
					"internalType": "uint256",
					"name": "postId",
					"type": "uint256"
				},
				{
					"indexed": true,
					"internalType": "uint256",
					"name": "userId",
					"type": "uint256"
				},
				{
					"indexed": true,
					"internalType": "address",
					"name": "userAddress",
					"type": "address"
				},
				{
					"indexed": false,
					"internalType": "uint256",
					"name": "createdAt",
					"type": "uint256"
				}
			],
			"name": "PostLiked",
			"type": "event"
		},
		{
			"anonymous": false,
			"inputs": [
				{
					"indexed": true,
					"internalType": "uint256",
					"name": "postId",
					"type": "uint256"
				},
				{
					"indexed": true,
					"internalType": "uint256",
					"name": "userId",
					"type": "uint256"
				},
				{
					"indexed": true,
					"internalType": "address",
					"name": "userAddress",
					"type": "address"
				},
				{
					"indexed": false,
					"internalType": "uint256",
					"name": "removedAt",
					"type": "uint256"
				}
			],
			"name": "PostUnliked",
			"type": "event"
		},
		{
			"inputs": [
				{
					"internalType": "uint256",
					"name": "_postId",
					"type": "uint256"
				},
				{
					"internalType": "string",
					"name": "_content",
					"type": "string"
				}
			],
			"name": "commentOnPost",
			"outputs": [],
			"stateMutability": "nonpayable",
			"type": "function"
		},
		{
			"inputs": [
				{
					"internalType": "string",
					"name": "_content",
					"type": "string"
				}
			],
			"name": "createPost",
			"outputs": [],
			"stateMutability": "nonpayable",
			"type": "function"
		},
		{
			"inputs": [
				{
					"internalType": "uint256",
					"name": "_commentId",
					"type": "uint256"
				}
			],
			"name": "deleteComment",
			"outputs": [],
			"stateMutability": "nonpayable",
			"type": "function"
		},
		{
			"inputs": [
				{
					"internalType": "uint256",
					"name": "_postId",
					"type": "uint256"
				}
			],
			"name": "deletePost",
			"outputs": [],
			"stateMutability": "nonpayable",
			"type": "function"
		},
		{
			"inputs": [
				{
					"internalType": "uint256",
					"name": "_commentId",
					"type": "uint256"
				},
				{
					"internalType": "string",
					"name": "newContent",
					"type": "string"
				}
			],
			"name": "editComment",
			"outputs": [],
			"stateMutability": "nonpayable",
			"type": "function"
		},
		{
			"inputs": [
				{
					"internalType": "uint256",
					"name": "_postId",
					"type": "uint256"
				},
				{
					"internalType": "string",
					"name": "newContent",
					"type": "string"
				}
			],
			"name": "editPost",
			"outputs": [],
			"stateMutability": "nonpayable",
			"type": "function"
		},
		{
			"inputs": [
				{
					"internalType": "uint256",
					"name": "_postId",
					"type": "uint256"
				},
				{
					"internalType": "uint256",
					"name": "_offset",
					"type": "uint256"
				},
				{
					"internalType": "uint256",
					"name": "_limit",
					"type": "uint256"
				}
			],
			"name": "getCommentsByPost",
			"outputs": [
				{
					"components": [
						{
							"internalType": "uint256",
							"name": "commentId",
							"type": "uint256"
						},
						{
							"internalType": "uint256",
							"name": "postId",
							"type": "uint256"
						},
						{
							"internalType": "uint256",
							"name": "authorId",
							"type": "uint256"
						},
						{
							"internalType": "string",
							"name": "content",
							"type": "string"
						},
						{
							"internalType": "uint256",
							"name": "createdAt",
							"type": "uint256"
						},
						{
							"internalType": "bool",
							"name": "isDeleted",
							"type": "bool"
						}
					],
					"internalType": "struct PostManager.Comment[]",
					"name": "",
					"type": "tuple[]"
				}
			],
			"stateMutability": "view",
			"type": "function"
		},
		{
			"inputs": [
				{
					"internalType": "uint256",
					"name": "_postId",
					"type": "uint256"
				}
			],
			"name": "getPostById",
			"outputs": [
				{
					"components": [
						{
							"internalType": "uint256",
							"name": "ownerId",
							"type": "uint256"
						},
						{
							"internalType": "uint256",
							"name": "postId",
							"type": "uint256"
						},
						{
							"internalType": "string",
							"name": "content",
							"type": "string"
						},
						{
							"internalType": "uint256",
							"name": "createdAt",
							"type": "uint256"
						},
						{
							"internalType": "bool",
							"name": "isDeleted",
							"type": "bool"
						}
					],
					"internalType": "struct PostManager.Post",
					"name": "",
					"type": "tuple"
				}
			],
			"stateMutability": "view",
			"type": "function"
		},
		{
			"inputs": [
				{
					"internalType": "uint256",
					"name": "_postId",
					"type": "uint256"
				}
			],
			"name": "getPostCommentCount",
			"outputs": [
				{
					"internalType": "uint256",
					"name": "",
					"type": "uint256"
				}
			],
			"stateMutability": "view",
			"type": "function"
		},
		{
			"inputs": [
				{
					"internalType": "uint256",
					"name": "_postId",
					"type": "uint256"
				}
			],
			"name": "getPostLikeCount",
			"outputs": [
				{
					"internalType": "uint256",
					"name": "",
					"type": "uint256"
				}
			],
			"stateMutability": "view",
			"type": "function"
		},
		{
			"inputs": [
				{
					"internalType": "uint256",
					"name": "userId",
					"type": "uint256"
				}
			],
			"name": "getPostsByUser",
			"outputs": [
				{
					"components": [
						{
							"internalType": "uint256",
							"name": "ownerId",
							"type": "uint256"
						},
						{
							"internalType": "uint256",
							"name": "postId",
							"type": "uint256"
						},
						{
							"internalType": "string",
							"name": "content",
							"type": "string"
						},
						{
							"internalType": "uint256",
							"name": "createdAt",
							"type": "uint256"
						},
						{
							"internalType": "bool",
							"name": "isDeleted",
							"type": "bool"
						}
					],
					"internalType": "struct PostManager.Post[]",
					"name": "",
					"type": "tuple[]"
				}
			],
			"stateMutability": "view",
			"type": "function"
		},
		{
			"inputs": [],
			"name": "getTotalPostCount",
			"outputs": [
				{
					"internalType": "uint256",
					"name": "",
					"type": "uint256"
				}
			],
			"stateMutability": "view",
			"type": "function"
		},
		{
			"inputs": [
				{
					"internalType": "uint256",
					"name": "_postId",
					"type": "uint256"
				},
				{
					"internalType": "uint256",
					"name": "_userId",
					"type": "uint256"
				}
			],
			"name": "hasUserLikedPost",
			"outputs": [
				{
					"internalType": "bool",
					"name": "",
					"type": "bool"
				}
			],
			"stateMutability": "view",
			"type": "function"
		},
		{
			"inputs": [
				{
					"internalType": "uint256",
					"name": "_postId",
					"type": "uint256"
				}
			],
			"name": "togglePostLike",
			"outputs": [],
			"stateMutability": "nonpayable",
			"type": "function"
		}
	]
}