{
	"data": {
		"bytecode": {
			"linkReferences": {},
			"object": "608060405234801561000f575f5ffd5b50604051612527380380612527833981810160405281019061003191906100d5565b8060025f6101000a81548173ffffffffffffffffffffffffffffffffffffffff021916908373ffffffffffffffffffffffffffffffffffffffff16021790555050610100565b5f5ffd5b5f73ffffffffffffffffffffffffffffffffffffffff82169050919050565b5f6100a48261007b565b9050919050565b6100b48161009a565b81146100be575f5ffd5b50565b5f815190506100cf816100ab565b92915050565b5f602082840312156100ea576100e9610077565b5b5f6100f7848285016100c1565b91505092915050565b61241a8061010d5f395ff3fe608060405234801561000f575f5ffd5b50600436106100b2575f3560e01c806396f250731161006f57806396f25073146101ae578063c7303c61146101ca578063d0446c41146101e6578063d6e9389614610216578063efbe846914610246578063fa99654a14610264576100b2565b8063094cd5ee146100b6578063211117ff146100d257806360f7437714610102578063647321541461013257806364e958951461014e57806365aa1ed91461017e575b5f5ffd5b6100d060048036038101906100cb91906114e1565b610280565b005b6100ec60048036038101906100e791906114e1565b610475565b6040516100f991906116d3565b60405180910390f35b61011c600480360381019061011791906116f3565b610680565b6040516101299190611871565b60405180910390f35b61014c600480360381019061014791906118f2565b610924565b005b610168600480360381019061016391906114e1565b610b60565b60405161017591906119c2565b60405180910390f35b610198600480360381019061019391906119e2565b610ce0565b6040516101a59190611a2f565b60405180910390f35b6101c860048036038101906101c391906114e1565b610d5e565b005b6101e460048036038101906101df9190611a48565b610f39565b005b61020060048036038101906101fb91906114e1565b61116f565b60405161020d9190611aa2565b60405180910390f35b610230600480360381019061022b91906114e1565b6111d4565b60405161023d9190611aa2565b60405180910390f35b61024e611236565b60405161025b9190611aa2565b60405180910390f35b61027e600480360381019061027991906118f2565b611242565b005b5f60025f9054906101000a900473ffffffffffffffffffffffffffffffffffffffff1673ffffffffffffffffffffffffffffffffffffffff166326567eec336040518263ffffffff1660e01b81526004016102db9190611afa565b602060405180830381865afa1580156102f6573d5f5f3e3d5ffd5b505050506040513d601f19601f8201168201806040525081019061031a9190611b27565b905061032582611421565b610364576040517f08c379a000000000000000000000000000000000000000000000000000000000815260040161035b90611bac565b60405180910390fd5b5f60045f8481526020019081526020015f206040518060400160405290815f8201548152602001600182015481525050905081815f0151146103db576040517f08c379a00000000000000000000000000000000000000000000000000000000081526004016103d290611c14565b60405180910390fd5b5f60098260200151815481106103f4576103f3611c32565b5b905f5260205f2090600502019050806004015f9054906101000a900460ff1615610453576040517f08c379a000000000000000000000000000000000000000000000000000000000815260040161044a90611ca9565b60405180910390fd5b6001816004015f6101000a81548160ff02191690831515021790555050505050565b60605f60035f8481526020019081526020015f208054806020026020016040519081016040528092919081815260200182805480156104d157602002820191905f5260205f20905b8154815260200190600101908083116104bd575b505050505090505f815167ffffffffffffffff8111156104f4576104f3611cc7565b5b60405190808252806020026020018201604052801561052d57816020015b61051a61144e565b8152602001906001900390816105125790505b5090505f5f90505b825181101561067557600983828151811061055357610552611c32565b5b60200260200101518154811061056c5761056b611c32565b5b905f5260205f2090600502016040518060a00160405290815f8201548152602001600182015481526020016002820180546105a690611d21565b80601f01602080910402602001604051908101604052809291908181526020018280546105d290611d21565b801561061d5780601f106105f45761010080835404028352916020019161061d565b820191905f5260205f20905b81548152906001019060200180831161060057829003601f168201915b5050505050815260200160038201548152602001600482015f9054906101000a900460ff16151515158152505082828151811061065d5761065c611c32565b5b60200260200101819052508080600101915050610535565b508092505050919050565b606061068b84611421565b6106ca576040517f08c379a00000000000000000000000000000000000000000000000000000000081526004016106c190611bac565b60405180910390fd5b5f60085f8681526020019081526020015f20805490509050808410610745575f67ffffffffffffffff81111561070357610702611cc7565b5b60405190808252806020026020018201604052801561073c57816020015b61072961147b565b8152602001906001900390816107215790505b5091505061091d565b5f83856107529190611d7e565b905081811115610760578190505b5f858261076d9190611db1565b90505f8167ffffffffffffffff81111561078a57610789611cc7565b5b6040519080825280602002602001820160405280156107c357816020015b6107b061147b565b8152602001906001900390816107a85790505b5090505f5f90505f8890505b84811015610913575f60085f8c81526020019081526020015f2082815481106107fb576107fa611c32565b5b905f5260205f200154905060075f8281526020019081526020015f206040518060a00160405290815f8201548152602001600182015481526020016002820154815260200160038201805461084f90611d21565b80601f016020809104026020016040519081016040528092919081815260200182805461087b90611d21565b80156108c65780601f1061089d576101008083540402835291602001916108c6565b820191905f5260205f20905b8154815290600101906020018083116108a957829003601f168201915b505050505081526020016004820154815250508484815181106108ec576108eb611c32565b5b6020026020010181905250828061090290611de4565b9350505080806001019150506107cf565b5081955050505050505b9392505050565b5f60025f9054906101000a900473ffffffffffffffffffffffffffffffffffffffff1673ffffffffffffffffffffffffffffffffffffffff166326567eec336040518263ffffffff1660e01b815260040161097f9190611afa565b602060405180830381865afa15801561099a573d5f5f3e3d5ffd5b505050506040513d601f19601f820116820180604052508101906109be9190611b27565b90506109c984611421565b610a08576040517f08c379a00000000000000000000000000000000000000000000000000000000081526004016109ff90611bac565b60405180910390fd5b5f8383905011610a4d576040517f08c379a0000000000000000000000000000000000000000000000000000000008152600401610a4490611e75565b60405180910390fd5b60015f815480929190610a5f90611de4565b91905055505f60015490506040518060a0016040528082815260200186815260200183815260200185858080601f0160208091040260200160405190810160405280939291908181526020018383808284375f81840152601f19601f8201169050808301925050505050505081526020014281525060075f8381526020019081526020015f205f820151815f015560208201518160010155604082015181600201556060820151816003019081610b169190612033565b506080820151816004015590505060085f8681526020019081526020015f2081908060018154018082558091505060019003905f5260205f20015f90919091909150555050505050565b610b6861144e565b610b7182611421565b610bb0576040517f08c379a0000000000000000000000000000000000000000000000000000000008152600401610ba79061214c565b60405180910390fd5b5f60045f8481526020019081526020015f206040518060400160405290815f820154815260200160018201548152505090506009816020015181548110610bfa57610bf9611c32565b5b905f5260205f2090600502016040518060a00160405290815f820154815260200160018201548152602001600282018054610c3490611d21565b80601f0160208091040260200160405190810160405280929190818152602001828054610c6090611d21565b8015610cab5780601f10610c8257610100808354040283529160200191610cab565b820191905f5260205f20905b815481529060010190602001808311610c8e57829003601f168201915b5050505050815260200160038201548152602001600482015f9054906101000a900460ff161515151581525050915050919050565b5f610cea83611421565b610d29576040517f08c379a0000000000000000000000000000000000000000000000000000000008152600401610d209061214c565b60405180910390fd5b60055f8481526020019081526020015f205f8381526020019081526020015f205f9054906101000a900460ff16905092915050565b5f60025f9054906101000a900473ffffffffffffffffffffffffffffffffffffffff1673ffffffffffffffffffffffffffffffffffffffff166326567eec336040518263ffffffff1660e01b8152600401610db99190611afa565b602060405180830381865afa158015610dd4573d5f5f3e3d5ffd5b505050506040513d601f19601f82011682018060405250810190610df89190611b27565b9050610e0382611421565b610e42576040517f08c379a0000000000000000000000000000000000000000000000000000000008152600401610e399061214c565b60405180910390fd5b60055f8381526020019081526020015f205f8281526020019081526020015f205f9054906101000a900460ff1615610ed6575f60055f8481526020019081526020015f205f8381526020019081526020015f205f6101000a81548160ff02191690831515021790555060065f8381526020019081526020015f205f815480929190610ecc9061216a565b9190505550610f35565b600160055f8481526020019081526020015f205f8381526020019081526020015f205f6101000a81548160ff02191690831515021790555060065f8381526020019081526020015f205f815480929190610f2f90611de4565b91905055505b5050565b60038282905011610f7f576040517f08c379a0000000000000000000000000000000000000000000000000000000008152600401610f7690612201565b60405180910390fd5b5f60025f9054906101000a900473ffffffffffffffffffffffffffffffffffffffff1673ffffffffffffffffffffffffffffffffffffffff166326567eec336040518263ffffffff1660e01b8152600401610fda9190611afa565b602060405180830381865afa158015610ff5573d5f5f3e3d5ffd5b505050506040513d601f19601f820116820180604052508101906110199190611b27565b90505f5f81548092919061102c90611de4565b91905055505f5f549050600960018160018154018082558091505003905f5260205f209050505f60016009805490506110659190611db1565b90505f6009828154811061107c5761107b611c32565b5b905f5260205f209060050201905083815f018190555082816001018190555085858260020191826110ae929190612229565b5042816003018190555060035f8581526020019081526020015f2082908060018154018082558091505060019003905f5260205f20015f909190919091505560405180604001604052808581526020018381525060045f8581526020019081526020015f205f820151815f0155602082015181600101559050507f9d8ba7605d631183923c2b8e95cd748a3f7bad1c3cab55df446fea93c84980ef838588884260405161115f959493929190612330565b60405180910390a1505050505050565b5f61117982611421565b6111b8576040517f08c379a00000000000000000000000000000000000000000000000000000000081526004016111af90611bac565b60405180910390fd5b60085f8381526020019081526020015f20805490509050919050565b5f6111de82611421565b61121d576040517f08c379a00000000000000000000000000000000000000000000000000000000081526004016112149061214c565b60405180910390fd5b60065f8381526020019081526020015f20549050919050565b5f600980549050905090565b5f60025f9054906101000a900473ffffffffffffffffffffffffffffffffffffffff1673ffffffffffffffffffffffffffffffffffffffff166326567eec336040518263ffffffff1660e01b815260040161129d9190611afa565b602060405180830381865afa1580156112b8573d5f5f3e3d5ffd5b505050506040513d601f19601f820116820180604052508101906112dc9190611b27565b90506112e784611421565b611326576040517f08c379a000000000000000000000000000000000000000000000000000000000815260040161131d9061214c565b60405180910390fd5b5f60045f8681526020019081526020015f206040518060400160405290815f8201548152602001600182015481525050905081815f01511461139d576040517f08c379a0000000000000000000000000000000000000000000000000000000008152600401611394906123c6565b60405180910390fd5b600384849050116113e3576040517f08c379a00000000000000000000000000000000000000000000000000000000081526004016113da90612201565b60405180910390fd5b838360098360200151815481106113fd576113fc611c32565b5b905f5260205f2090600502016002019182611419929190612229565b505050505050565b5f5f60045f8481526020019081526020015f205f0154146114455760019050611449565b5f90505b919050565b6040518060a001604052805f81526020015f8152602001606081526020015f81526020015f151581525090565b6040518060a001604052805f81526020015f81526020015f8152602001606081526020015f81525090565b5f5ffd5b5f5ffd5b5f819050919050565b6114c0816114ae565b81146114ca575f5ffd5b50565b5f813590506114db816114b7565b92915050565b5f602082840312156114f6576114f56114a6565b5b5f611503848285016114cd565b91505092915050565b5f81519050919050565b5f82825260208201905092915050565b5f819050602082019050919050565b61153e816114ae565b82525050565b5f81519050919050565b5f82825260208201905092915050565b8281835e5f83830152505050565b5f601f19601f8301169050919050565b5f61158682611544565b611590818561154e565b93506115a081856020860161155e565b6115a98161156c565b840191505092915050565b5f8115159050919050565b6115c8816115b4565b82525050565b5f60a083015f8301516115e35f860182611535565b5060208301516115f66020860182611535565b506040830151848203604086015261160e828261157c565b91505060608301516116236060860182611535565b50608083015161163660808601826115bf565b508091505092915050565b5f61164c83836115ce565b905092915050565b5f602082019050919050565b5f61166a8261150c565b6116748185611516565b93508360208202850161168685611526565b805f5b858110156116c157848403895281516116a28582611641565b94506116ad83611654565b925060208a01995050600181019050611689565b50829750879550505050505092915050565b5f6020820190508181035f8301526116eb8184611660565b905092915050565b5f5f5f6060848603121561170a576117096114a6565b5b5f611717868287016114cd565b9350506020611728868287016114cd565b9250506040611739868287016114cd565b9150509250925092565b5f81519050919050565b5f82825260208201905092915050565b5f819050602082019050919050565b5f60a083015f8301516117815f860182611535565b5060208301516117946020860182611535565b5060408301516117a76040860182611535565b50606083015184820360608601526117bf828261157c565b91505060808301516117d46080860182611535565b508091505092915050565b5f6117ea838361176c565b905092915050565b5f602082019050919050565b5f61180882611743565b611812818561174d565b9350836020820285016118248561175d565b805f5b8581101561185f578484038952815161184085826117df565b945061184b836117f2565b925060208a01995050600181019050611827565b50829750879550505050505092915050565b5f6020820190508181035f83015261188981846117fe565b905092915050565b5f5ffd5b5f5ffd5b5f5ffd5b5f5f83601f8401126118b2576118b1611891565b5b8235905067ffffffffffffffff8111156118cf576118ce611895565b5b6020830191508360018202830111156118eb576118ea611899565b5b9250929050565b5f5f5f60408486031215611909576119086114a6565b5b5f611916868287016114cd565b935050602084013567ffffffffffffffff811115611937576119366114aa565b5b6119438682870161189d565b92509250509250925092565b5f60a083015f8301516119645f860182611535565b5060208301516119776020860182611535565b506040830151848203604086015261198f828261157c565b91505060608301516119a46060860182611535565b5060808301516119b760808601826115bf565b508091505092915050565b5f6020820190508181035f8301526119da818461194f565b905092915050565b5f5f604083850312156119f8576119f76114a6565b5b5f611a05858286016114cd565b9250506020611a16858286016114cd565b9150509250929050565b611a29816115b4565b82525050565b5f602082019050611a425f830184611a20565b92915050565b5f5f60208385031215611a5e57611a5d6114a6565b5b5f83013567ffffffffffffffff811115611a7b57611a7a6114aa565b5b611a878582860161189d565b92509250509250929050565b611a9c816114ae565b82525050565b5f602082019050611ab55f830184611a93565b92915050565b5f73ffffffffffffffffffffffffffffffffffffffff82169050919050565b5f611ae482611abb565b9050919050565b611af481611ada565b82525050565b5f602082019050611b0d5f830184611aeb565b92915050565b5f81519050611b21816114b7565b92915050565b5f60208284031215611b3c57611b3b6114a6565b5b5f611b4984828501611b13565b91505092915050565b5f82825260208201905092915050565b7f506f737420646f6573206e6f74206578697374000000000000000000000000005f82015250565b5f611b96601383611b52565b9150611ba182611b62565b602082019050919050565b5f6020820190508181035f830152611bc381611b8a565b9050919050565b7f4e6f7420706f7374206f776e65720000000000000000000000000000000000005f82015250565b5f611bfe600e83611b52565b9150611c0982611bca565b602082019050919050565b5f6020820190508181035f830152611c2b81611bf2565b9050919050565b7f4e487b71000000000000000000000000000000000000000000000000000000005f52603260045260245ffd5b7f416c72656164792064656c6574656400000000000000000000000000000000005f82015250565b5f611c93600f83611b52565b9150611c9e82611c5f565b602082019050919050565b5f6020820190508181035f830152611cc081611c87565b9050919050565b7f4e487b71000000000000000000000000000000000000000000000000000000005f52604160045260245ffd5b7f4e487b71000000000000000000000000000000000000000000000000000000005f52602260045260245ffd5b5f6002820490506001821680611d3857607f821691505b602082108103611d4b57611d4a611cf4565b5b50919050565b7f4e487b71000000000000000000000000000000000000000000000000000000005f52601160045260245ffd5b5f611d88826114ae565b9150611d93836114ae565b9250828201905080821115611dab57611daa611d51565b5b92915050565b5f611dbb826114ae565b9150611dc6836114ae565b9250828203905081811115611dde57611ddd611d51565b5b92915050565b5f611dee826114ae565b91507fffffffffffffffffffffffffffffffffffffffffffffffffffffffffffffffff8203611e2057611e1f611d51565b5b600182019050919050565b7f456d70747920636f6d6d656e74000000000000000000000000000000000000005f82015250565b5f611e5f600d83611b52565b9150611e6a82611e2b565b602082019050919050565b5f6020820190508181035f830152611e8c81611e53565b9050919050565b5f819050815f5260205f209050919050565b5f6020601f8301049050919050565b5f82821b905092915050565b5f60088302611eef7fffffffffffffffffffffffffffffffffffffffffffffffffffffffffffffffff82611eb4565b611ef98683611eb4565b95508019841693508086168417925050509392505050565b5f819050919050565b5f611f34611f2f611f2a846114ae565b611f11565b6114ae565b9050919050565b5f819050919050565b611f4d83611f1a565b611f61611f5982611f3b565b848454611ec0565b825550505050565b5f5f905090565b611f78611f69565b611f83818484611f44565b505050565b5b81811015611fa657611f9b5f82611f70565b600181019050611f89565b5050565b601f821115611feb57611fbc81611e93565b611fc584611ea5565b81016020851015611fd4578190505b611fe8611fe085611ea5565b830182611f88565b50505b505050565b5f82821c905092915050565b5f61200b5f1984600802611ff0565b1980831691505092915050565b5f6120238383611ffc565b9150826002028217905092915050565b61203c82611544565b67ffffffffffffffff81111561205557612054611cc7565b5b61205f8254611d21565b61206a828285611faa565b5f60209050601f83116001811461209b575f8415612089578287015190505b6120938582612018565b8655506120fa565b601f1984166120a986611e93565b5f5b828110156120d0578489015182556001820191506020850194506020810190506120ab565b868310156120ed57848901516120e9601f891682611ffc565b8355505b6001600288020188555050505b505050505050565b7f506f737420646f65736e277420657869737400000000000000000000000000005f82015250565b5f612136601283611b52565b915061214182612102565b602082019050919050565b5f6020820190508181035f8301526121638161212a565b9050919050565b5f612174826114ae565b91505f820361218657612185611d51565b5b600182039050919050565b7f636f6e74656e742073686f756c642062652061746c65617374206c65747465725f8201527f2033000000000000000000000000000000000000000000000000000000000000602082015250565b5f6121eb602283611b52565b91506121f682612191565b604082019050919050565b5f6020820190508181035f830152612218816121df565b9050919050565b5f82905092915050565b612233838361221f565b67ffffffffffffffff81111561224c5761224b611cc7565b5b6122568254611d21565b612261828285611faa565b5f601f83116001811461228e575f841561227c578287013590505b6122868582612018565b8655506122ed565b601f19841661229c86611e93565b5f5b828110156122c35784890135825560018201915060208501945060208101905061229e565b868310156122e057848901356122dc601f891682611ffc565b8355505b6001600288020188555050505b50505050505050565b828183375f83830152505050565b5f61230f8385611b52565b935061231c8385846122f6565b6123258361156c565b840190509392505050565b5f6080820190506123435f830188611a93565b6123506020830187611a93565b8181036040830152612363818587612304565b90506123726060830184611a93565b9695505050505050565b7f796f7520646f6e27742068617665207468697320706f737400000000000000005f82015250565b5f6123b0601883611b52565b91506123bb8261237c565b602082019050919050565b5f6020820190508181035f8301526123dd816123a4565b905091905056fea2646970667358221220d74a3de51a2577139a87f5414fb1639c0bea78b431cc252c730bacfc44583a9764736f6c634300081e0033",
			"opcodes": "PUSH1 0x80 PUSH1 0x40 MSTORE CALLVALUE DUP1 ISZERO PUSH2 0xF JUMPI PUSH0 PUSH0 REVERT JUMPDEST POP PUSH1 0x40 MLOAD PUSH2 0x2527 CODESIZE SUB DUP1 PUSH2 0x2527 DUP4 CODECOPY DUP2 DUP2 ADD PUSH1 0x40 MSTORE DUP2 ADD SWAP1 PUSH2 0x31 SWAP2 SWAP1 PUSH2 0xD5 JUMP JUMPDEST DUP1 PUSH1 0x2 PUSH0 PUSH2 0x100 EXP DUP2 SLOAD DUP2 PUSH20 0xFFFFFFFFFFFFFFFFFFFFFFFFFFFFFFFFFFFFFFFF MUL NOT AND SWAP1 DUP4 PUSH20 0xFFFFFFFFFFFFFFFFFFFFFFFFFFFFFFFFFFFFFFFF AND MUL OR SWAP1 SSTORE POP POP PUSH2 0x100 JUMP JUMPDEST PUSH0 PUSH0 REVERT JUMPDEST PUSH0 PUSH20 0xFFFFFFFFFFFFFFFFFFFFFFFFFFFFFFFFFFFFFFFF DUP3 AND SWAP1 POP SWAP2 SWAP1 POP JUMP JUMPDEST PUSH0 PUSH2 0xA4 DUP3 PUSH2 0x7B JUMP JUMPDEST SWAP1 POP SWAP2 SWAP1 POP JUMP JUMPDEST PUSH2 0xB4 DUP2 PUSH2 0x9A JUMP JUMPDEST DUP2 EQ PUSH2 0xBE JUMPI PUSH0 PUSH0 REVERT JUMPDEST POP JUMP JUMPDEST PUSH0 DUP2 MLOAD SWAP1 POP PUSH2 0xCF DUP2 PUSH2 0xAB JUMP JUMPDEST SWAP3 SWAP2 POP POP JUMP JUMPDEST PUSH0 PUSH1 0x20 DUP3 DUP5 SUB SLT ISZERO PUSH2 0xEA JUMPI PUSH2 0xE9 PUSH2 0x77 JUMP JUMPDEST JUMPDEST PUSH0 PUSH2 0xF7 DUP5 DUP3 DUP6 ADD PUSH2 0xC1 JUMP JUMPDEST SWAP2 POP POP SWAP3 SWAP2 POP POP JUMP JUMPDEST PUSH2 0x241A DUP1 PUSH2 0x10D PUSH0 CODECOPY PUSH0 RETURN INVALID PUSH1 0x80 PUSH1 0x40 MSTORE CALLVALUE DUP1 ISZERO PUSH2 0xF JUMPI PUSH0 PUSH0 REVERT JUMPDEST POP PUSH1 0x4 CALLDATASIZE LT PUSH2 0xB2 JUMPI PUSH0 CALLDATALOAD PUSH1 0xE0 SHR DUP1 PUSH4 0x96F25073 GT PUSH2 0x6F JUMPI DUP1 PUSH4 0x96F25073 EQ PUSH2 0x1AE JUMPI DUP1 PUSH4 0xC7303C61 EQ PUSH2 0x1CA JUMPI DUP1 PUSH4 0xD0446C41 EQ PUSH2 0x1E6 JUMPI DUP1 PUSH4 0xD6E93896 EQ PUSH2 0x216 JUMPI DUP1 PUSH4 0xEFBE8469 EQ PUSH2 0x246 JUMPI DUP1 PUSH4 0xFA99654A EQ PUSH2 0x264 JUMPI PUSH2 0xB2 JUMP JUMPDEST DUP1 PUSH4 0x94CD5EE EQ PUSH2 0xB6 JUMPI DUP1 PUSH4 0x211117FF EQ PUSH2 0xD2 JUMPI DUP1 PUSH4 0x60F74377 EQ PUSH2 0x102 JUMPI DUP1 PUSH4 0x64732154 EQ PUSH2 0x132 JUMPI DUP1 PUSH4 0x64E95895 EQ PUSH2 0x14E JUMPI DUP1 PUSH4 0x65AA1ED9 EQ PUSH2 0x17E JUMPI JUMPDEST PUSH0 PUSH0 REVERT JUMPDEST PUSH2 0xD0 PUSH1 0x4 DUP1 CALLDATASIZE SUB DUP2 ADD SWAP1 PUSH2 0xCB SWAP2 SWAP1 PUSH2 0x14E1 JUMP JUMPDEST PUSH2 0x280 JUMP JUMPDEST STOP JUMPDEST PUSH2 0xEC PUSH1 0x4 DUP1 CALLDATASIZE SUB DUP2 ADD SWAP1 PUSH2 0xE7 SWAP2 SWAP1 PUSH2 0x14E1 JUMP JUMPDEST PUSH2 0x475 JUMP JUMPDEST PUSH1 0x40 MLOAD PUSH2 0xF9 SWAP2 SWAP1 PUSH2 0x16D3 JUMP JUMPDEST PUSH1 0x40 MLOAD DUP1 SWAP2 SUB SWAP1 RETURN JUMPDEST PUSH2 0x11C PUSH1 0x4 DUP1 CALLDATASIZE SUB DUP2 ADD SWAP1 PUSH2 0x117 SWAP2 SWAP1 PUSH2 0x16F3 JUMP JUMPDEST PUSH2 0x680 JUMP JUMPDEST PUSH1 0x40 MLOAD PUSH2 0x129 SWAP2 SWAP1 PUSH2 0x1871 JUMP JUMPDEST PUSH1 0x40 MLOAD DUP1 SWAP2 SUB SWAP1 RETURN JUMPDEST PUSH2 0x14C PUSH1 0x4 DUP1 CALLDATASIZE SUB DUP2 ADD SWAP1 PUSH2 0x147 SWAP2 SWAP1 PUSH2 0x18F2 JUMP JUMPDEST PUSH2 0x924 JUMP JUMPDEST STOP JUMPDEST PUSH2 0x168 PUSH1 0x4 DUP1 CALLDATASIZE SUB DUP2 ADD SWAP1 PUSH2 0x163 SWAP2 SWAP1 PUSH2 0x14E1 JUMP JUMPDEST PUSH2 0xB60 JUMP JUMPDEST PUSH1 0x40 MLOAD PUSH2 0x175 SWAP2 SWAP1 PUSH2 0x19C2 JUMP JUMPDEST PUSH1 0x40 MLOAD DUP1 SWAP2 SUB SWAP1 RETURN JUMPDEST PUSH2 0x198 PUSH1 0x4 DUP1 CALLDATASIZE SUB DUP2 ADD SWAP1 PUSH2 0x193 SWAP2 SWAP1 PUSH2 0x19E2 JUMP JUMPDEST PUSH2 0xCE0 JUMP JUMPDEST PUSH1 0x40 MLOAD PUSH2 0x1A5 SWAP2 SWAP1 PUSH2 0x1A2F JUMP JUMPDEST PUSH1 0x40 MLOAD DUP1 SWAP2 SUB SWAP1 RETURN JUMPDEST PUSH2 0x1C8 PUSH1 0x4 DUP1 CALLDATASIZE SUB DUP2 ADD SWAP1 PUSH2 0x1C3 SWAP2 SWAP1 PUSH2 0x14E1 JUMP JUMPDEST PUSH2 0xD5E JUMP JUMPDEST STOP JUMPDEST PUSH2 0x1E4 PUSH1 0x4 DUP1 CALLDATASIZE SUB DUP2 ADD SWAP1 PUSH2 0x1DF SWAP2 SWAP1 PUSH2 0x1A48 JUMP JUMPDEST PUSH2 0xF39 JUMP JUMPDEST STOP JUMPDEST PUSH2 0x200 PUSH1 0x4 DUP1 CALLDATASIZE SUB DUP2 ADD SWAP1 PUSH2 0x1FB SWAP2 SWAP1 PUSH2 0x14E1 JUMP JUMPDEST PUSH2 0x116F JUMP JUMPDEST PUSH1 0x40 MLOAD PUSH2 0x20D SWAP2 SWAP1 PUSH2 0x1AA2 JUMP JUMPDEST PUSH1 0x40 MLOAD DUP1 SWAP2 SUB SWAP1 RETURN JUMPDEST PUSH2 0x230 PUSH1 0x4 DUP1 CALLDATASIZE SUB DUP2 ADD SWAP1 PUSH2 0x22B SWAP2 SWAP1 PUSH2 0x14E1 JUMP JUMPDEST PUSH2 0x11D4 JUMP JUMPDEST PUSH1 0x40 MLOAD PUSH2 0x23D SWAP2 SWAP1 PUSH2 0x1AA2 JUMP JUMPDEST PUSH1 0x40 MLOAD DUP1 SWAP2 SUB SWAP1 RETURN JUMPDEST PUSH2 0x24E PUSH2 0x1236 JUMP JUMPDEST PUSH1 0x40 MLOAD PUSH2 0x25B SWAP2 SWAP1 PUSH2 0x1AA2 JUMP JUMPDEST PUSH1 0x40 MLOAD DUP1 SWAP2 SUB SWAP1 RETURN JUMPDEST PUSH2 0x27E PUSH1 0x4 DUP1 CALLDATASIZE SUB DUP2 ADD SWAP1 PUSH2 0x279 SWAP2 SWAP1 PUSH2 0x18F2 JUMP JUMPDEST PUSH2 0x1242 JUMP JUMPDEST STOP JUMPDEST PUSH0 PUSH1 0x2 PUSH0 SWAP1 SLOAD SWAP1 PUSH2 0x100 EXP SWAP1 DIV PUSH20 0xFFFFFFFFFFFFFFFFFFFFFFFFFFFFFFFFFFFFFFFF AND PUSH20 0xFFFFFFFFFFFFFFFFFFFFFFFFFFFFFFFFFFFFFFFF AND PUSH4 0x26567EEC CALLER PUSH1 0x40 MLOAD DUP3 PUSH4 0xFFFFFFFF AND PUSH1 0xE0 SHL DUP2 MSTORE PUSH1 0x4 ADD PUSH2 0x2DB SWAP2 SWAP1 PUSH2 0x1AFA JUMP JUMPDEST PUSH1 0x20 PUSH1 0x40 MLOAD DUP1 DUP4 SUB DUP2 DUP7 GAS STATICCALL ISZERO DUP1 ISZERO PUSH2 0x2F6 JUMPI RETURNDATASIZE PUSH0 PUSH0 RETURNDATACOPY RETURNDATASIZE PUSH0 REVERT JUMPDEST POP POP POP POP PUSH1 0x40 MLOAD RETURNDATASIZE PUSH1 0x1F NOT PUSH1 0x1F DUP3 ADD AND DUP3 ADD DUP1 PUSH1 0x40 MSTORE POP DUP2 ADD SWAP1 PUSH2 0x31A SWAP2 SWAP1 PUSH2 0x1B27 JUMP JUMPDEST SWAP1 POP PUSH2 0x325 DUP3 PUSH2 0x1421 JUMP JUMPDEST PUSH2 0x364 JUMPI PUSH1 0x40 MLOAD PUSH32 0x8C379A000000000000000000000000000000000000000000000000000000000 DUP2 MSTORE PUSH1 0x4 ADD PUSH2 0x35B SWAP1 PUSH2 0x1BAC JUMP JUMPDEST PUSH1 0x40 MLOAD DUP1 SWAP2 SUB SWAP1 REVERT JUMPDEST PUSH0 PUSH1 0x4 PUSH0 DUP5 DUP2 MSTORE PUSH1 0x20 ADD SWAP1 DUP2 MSTORE PUSH1 0x20 ADD PUSH0 KECCAK256 PUSH1 0x40 MLOAD DUP1 PUSH1 0x40 ADD PUSH1 0x40 MSTORE SWAP1 DUP2 PUSH0 DUP3 ADD SLOAD DUP2 MSTORE PUSH1 0x20 ADD PUSH1 0x1 DUP3 ADD SLOAD DUP2 MSTORE POP POP SWAP1 POP DUP2 DUP2 PUSH0 ADD MLOAD EQ PUSH2 0x3DB JUMPI PUSH1 0x40 MLOAD PUSH32 0x8C379A000000000000000000000000000000000000000000000000000000000 DUP2 MSTORE PUSH1 0x4 ADD PUSH2 0x3D2 SWAP1 PUSH2 0x1C14 JUMP JUMPDEST PUSH1 0x40 MLOAD DUP1 SWAP2 SUB SWAP1 REVERT JUMPDEST PUSH0 PUSH1 0x9 DUP3 PUSH1 0x20 ADD MLOAD DUP2 SLOAD DUP2 LT PUSH2 0x3F4 JUMPI PUSH2 0x3F3 PUSH2 0x1C32 JUMP JUMPDEST JUMPDEST SWAP1 PUSH0 MSTORE PUSH1 0x20 PUSH0 KECCAK256 SWAP1 PUSH1 0x5 MUL ADD SWAP1 POP DUP1 PUSH1 0x4 ADD PUSH0 SWAP1 SLOAD SWAP1 PUSH2 0x100 EXP SWAP1 DIV PUSH1 0xFF AND ISZERO PUSH2 0x453 JUMPI PUSH1 0x40 MLOAD PUSH32 0x8C379A000000000000000000000000000000000000000000000000000000000 DUP2 MSTORE PUSH1 0x4 ADD PUSH2 0x44A SWAP1 PUSH2 0x1CA9 JUMP JUMPDEST PUSH1 0x40 MLOAD DUP1 SWAP2 SUB SWAP1 REVERT JUMPDEST PUSH1 0x1 DUP2 PUSH1 0x4 ADD PUSH0 PUSH2 0x100 EXP DUP2 SLOAD DUP2 PUSH1 0xFF MUL NOT AND SWAP1 DUP4 ISZERO ISZERO MUL OR SWAP1 SSTORE POP POP POP POP POP JUMP JUMPDEST PUSH1 0x60 PUSH0 PUSH1 0x3 PUSH0 DUP5 DUP2 MSTORE PUSH1 0x20 ADD SWAP1 DUP2 MSTORE PUSH1 0x20 ADD PUSH0 KECCAK256 DUP1 SLOAD DUP1 PUSH1 0x20 MUL PUSH1 0x20 ADD PUSH1 0x40 MLOAD SWAP1 DUP2 ADD PUSH1 0x40 MSTORE DUP1 SWAP3 SWAP2 SWAP1 DUP2 DUP2 MSTORE PUSH1 0x20 ADD DUP3 DUP1 SLOAD DUP1 ISZERO PUSH2 0x4D1 JUMPI PUSH1 0x20 MUL DUP3 ADD SWAP2 SWAP1 PUSH0 MSTORE PUSH1 0x20 PUSH0 KECCAK256 SWAP1 JUMPDEST DUP2 SLOAD DUP2 MSTORE PUSH1 0x20 ADD SWAP1 PUSH1 0x1 ADD SWAP1 DUP1 DUP4 GT PUSH2 0x4BD JUMPI JUMPDEST POP POP POP POP POP SWAP1 POP PUSH0 DUP2 MLOAD PUSH8 0xFFFFFFFFFFFFFFFF DUP2 GT ISZERO PUSH2 0x4F4 JUMPI PUSH2 0x4F3 PUSH2 0x1CC7 JUMP JUMPDEST JUMPDEST PUSH1 0x40 MLOAD SWAP1 DUP1 DUP3 MSTORE DUP1 PUSH1 0x20 MUL PUSH1 0x20 ADD DUP3 ADD PUSH1 0x40 MSTORE DUP1 ISZERO PUSH2 0x52D JUMPI DUP2 PUSH1 0x20 ADD JUMPDEST PUSH2 0x51A PUSH2 0x144E JUMP JUMPDEST DUP2 MSTORE PUSH1 0x20 ADD SWAP1 PUSH1 0x1 SWAP1 SUB SWAP1 DUP2 PUSH2 0x512 JUMPI SWAP1 POP JUMPDEST POP SWAP1 POP PUSH0 PUSH0 SWAP1 POP JUMPDEST DUP3 MLOAD DUP2 LT ISZERO PUSH2 0x675 JUMPI PUSH1 0x9 DUP4 DUP3 DUP2 MLOAD DUP2 LT PUSH2 0x553 JUMPI PUSH2 0x552 PUSH2 0x1C32 JUMP JUMPDEST JUMPDEST PUSH1 0x20 MUL PUSH1 0x20 ADD ADD MLOAD DUP2 SLOAD DUP2 LT PUSH2 0x56C JUMPI PUSH2 0x56B PUSH2 0x1C32 JUMP JUMPDEST JUMPDEST SWAP1 PUSH0 MSTORE PUSH1 0x20 PUSH0 KECCAK256 SWAP1 PUSH1 0x5 MUL ADD PUSH1 0x40 MLOAD DUP1 PUSH1 0xA0 ADD PUSH1 0x40 MSTORE SWAP1 DUP2 PUSH0 DUP3 ADD SLOAD DUP2 MSTORE PUSH1 0x20 ADD PUSH1 0x1 DUP3 ADD SLOAD DUP2 MSTORE PUSH1 0x20 ADD PUSH1 0x2 DUP3 ADD DUP1 SLOAD PUSH2 0x5A6 SWAP1 PUSH2 0x1D21 JUMP JUMPDEST DUP1 PUSH1 0x1F ADD PUSH1 0x20 DUP1 SWAP2 DIV MUL PUSH1 0x20 ADD PUSH1 0x40 MLOAD SWAP1 DUP2 ADD PUSH1 0x40 MSTORE DUP1 SWAP3 SWAP2 SWAP1 DUP2 DUP2 MSTORE PUSH1 0x20 ADD DUP3 DUP1 SLOAD PUSH2 0x5D2 SWAP1 PUSH2 0x1D21 JUMP JUMPDEST DUP1 ISZERO PUSH2 0x61D JUMPI DUP1 PUSH1 0x1F LT PUSH2 0x5F4 JUMPI PUSH2 0x100 DUP1 DUP4 SLOAD DIV MUL DUP4 MSTORE SWAP2 PUSH1 0x20 ADD SWAP2 PUSH2 0x61D JUMP JUMPDEST DUP3 ADD SWAP2 SWAP1 PUSH0 MSTORE PUSH1 0x20 PUSH0 KECCAK256 SWAP1 JUMPDEST DUP2 SLOAD DUP2 MSTORE SWAP1 PUSH1 0x1 ADD SWAP1 PUSH1 0x20 ADD DUP1 DUP4 GT PUSH2 0x600 JUMPI DUP3 SWAP1 SUB PUSH1 0x1F AND DUP3 ADD SWAP2 JUMPDEST POP POP POP POP POP DUP2 MSTORE PUSH1 0x20 ADD PUSH1 0x3 DUP3 ADD SLOAD DUP2 MSTORE PUSH1 0x20 ADD PUSH1 0x4 DUP3 ADD PUSH0 SWAP1 SLOAD SWAP1 PUSH2 0x100 EXP SWAP1 DIV PUSH1 0xFF AND ISZERO ISZERO ISZERO ISZERO DUP2 MSTORE POP POP DUP3 DUP3 DUP2 MLOAD DUP2 LT PUSH2 0x65D JUMPI PUSH2 0x65C PUSH2 0x1C32 JUMP JUMPDEST JUMPDEST PUSH1 0x20 MUL PUSH1 0x20 ADD ADD DUP2 SWAP1 MSTORE POP DUP1 DUP1 PUSH1 0x1 ADD SWAP2 POP POP PUSH2 0x535 JUMP JUMPDEST POP DUP1 SWAP3 POP POP POP SWAP2 SWAP1 POP JUMP JUMPDEST PUSH1 0x60 PUSH2 0x68B DUP5 PUSH2 0x1421 JUMP JUMPDEST PUSH2 0x6CA JUMPI PUSH1 0x40 MLOAD PUSH32 0x8C379A000000000000000000000000000000000000000000000000000000000 DUP2 MSTORE PUSH1 0x4 ADD PUSH2 0x6C1 SWAP1 PUSH2 0x1BAC JUMP JUMPDEST PUSH1 0x40 MLOAD DUP1 SWAP2 SUB SWAP1 REVERT JUMPDEST PUSH0 PUSH1 0x8 PUSH0 DUP7 DUP2 MSTORE PUSH1 0x20 ADD SWAP1 DUP2 MSTORE PUSH1 0x20 ADD PUSH0 KECCAK256 DUP1 SLOAD SWAP1 POP SWAP1 POP DUP1 DUP5 LT PUSH2 0x745 JUMPI PUSH0 PUSH8 0xFFFFFFFFFFFFFFFF DUP2 GT ISZERO PUSH2 0x703 JUMPI PUSH2 0x702 PUSH2 0x1CC7 JUMP JUMPDEST JUMPDEST PUSH1 0x40 MLOAD SWAP1 DUP1 DUP3 MSTORE DUP1 PUSH1 0x20 MUL PUSH1 0x20 ADD DUP3 ADD PUSH1 0x40 MSTORE DUP1 ISZERO PUSH2 0x73C JUMPI DUP2 PUSH1 0x20 ADD JUMPDEST PUSH2 0x729 PUSH2 0x147B JUMP JUMPDEST DUP2 MSTORE PUSH1 0x20 ADD SWAP1 PUSH1 0x1 SWAP1 SUB SWAP1 DUP2 PUSH2 0x721 JUMPI SWAP1 POP JUMPDEST POP SWAP2 POP POP PUSH2 0x91D JUMP JUMPDEST PUSH0 DUP4 DUP6 PUSH2 0x752 SWAP2 SWAP1 PUSH2 0x1D7E JUMP JUMPDEST SWAP1 POP DUP2 DUP2 GT ISZERO PUSH2 0x760 JUMPI DUP2 SWAP1 POP JUMPDEST PUSH0 DUP6 DUP3 PUSH2 0x76D SWAP2 SWAP1 PUSH2 0x1DB1 JUMP JUMPDEST SWAP1 POP PUSH0 DUP2 PUSH8 0xFFFFFFFFFFFFFFFF DUP2 GT ISZERO PUSH2 0x78A JUMPI PUSH2 0x789 PUSH2 0x1CC7 JUMP JUMPDEST JUMPDEST PUSH1 0x40 MLOAD SWAP1 DUP1 DUP3 MSTORE DUP1 PUSH1 0x20 MUL PUSH1 0x20 ADD DUP3 ADD PUSH1 0x40 MSTORE DUP1 ISZERO PUSH2 0x7C3 JUMPI DUP2 PUSH1 0x20 ADD JUMPDEST PUSH2 0x7B0 PUSH2 0x147B JUMP JUMPDEST DUP2 MSTORE PUSH1 0x20 ADD SWAP1 PUSH1 0x1 SWAP1 SUB SWAP1 DUP2 PUSH2 0x7A8 JUMPI SWAP1 POP JUMPDEST POP SWAP1 POP PUSH0 PUSH0 SWAP1 POP PUSH0 DUP9 SWAP1 POP JUMPDEST DUP5 DUP2 LT ISZERO PUSH2 0x913 JUMPI PUSH0 PUSH1 0x8 PUSH0 DUP13 DUP2 MSTORE PUSH1 0x20 ADD SWAP1 DUP2 MSTORE PUSH1 0x20 ADD PUSH0 KECCAK256 DUP3 DUP2 SLOAD DUP2 LT PUSH2 0x7FB JUMPI PUSH2 0x7FA PUSH2 0x1C32 JUMP JUMPDEST JUMPDEST SWAP1 PUSH0 MSTORE PUSH1 0x20 PUSH0 KECCAK256 ADD SLOAD SWAP1 POP PUSH1 0x7 PUSH0 DUP3 DUP2 MSTORE PUSH1 0x20 ADD SWAP1 DUP2 MSTORE PUSH1 0x20 ADD PUSH0 KECCAK256 PUSH1 0x40 MLOAD DUP1 PUSH1 0xA0 ADD PUSH1 0x40 MSTORE SWAP1 DUP2 PUSH0 DUP3 ADD SLOAD DUP2 MSTORE PUSH1 0x20 ADD PUSH1 0x1 DUP3 ADD SLOAD DUP2 MSTORE PUSH1 0x20 ADD PUSH1 0x2 DUP3 ADD SLOAD DUP2 MSTORE PUSH1 0x20 ADD PUSH1 0x3 DUP3 ADD DUP1 SLOAD PUSH2 0x84F SWAP1 PUSH2 0x1D21 JUMP JUMPDEST DUP1 PUSH1 0x1F ADD PUSH1 0x20 DUP1 SWAP2 DIV MUL PUSH1 0x20 ADD PUSH1 0x40 MLOAD SWAP1 DUP2 ADD PUSH1 0x40 MSTORE DUP1 SWAP3 SWAP2 SWAP1 DUP2 DUP2 MSTORE PUSH1 0x20 ADD DUP3 DUP1 SLOAD PUSH2 0x87B SWAP1 PUSH2 0x1D21 JUMP JUMPDEST DUP1 ISZERO PUSH2 0x8C6 JUMPI DUP1 PUSH1 0x1F LT PUSH2 0x89D JUMPI PUSH2 0x100 DUP1 DUP4 SLOAD DIV MUL DUP4 MSTORE SWAP2 PUSH1 0x20 ADD SWAP2 PUSH2 0x8C6 JUMP JUMPDEST DUP3 ADD SWAP2 SWAP1 PUSH0 MSTORE PUSH1 0x20 PUSH0 KECCAK256 SWAP1 JUMPDEST DUP2 SLOAD DUP2 MSTORE SWAP1 PUSH1 0x1 ADD SWAP1 PUSH1 0x20 ADD DUP1 DUP4 GT PUSH2 0x8A9 JUMPI DUP3 SWAP1 SUB PUSH1 0x1F AND DUP3 ADD SWAP2 JUMPDEST POP POP POP POP POP DUP2 MSTORE PUSH1 0x20 ADD PUSH1 0x4 DUP3 ADD SLOAD DUP2 MSTORE POP POP DUP5 DUP5 DUP2 MLOAD DUP2 LT PUSH2 0x8EC JUMPI PUSH2 0x8EB PUSH2 0x1C32 JUMP JUMPDEST JUMPDEST PUSH1 0x20 MUL PUSH1 0x20 ADD ADD DUP2 SWAP1 MSTORE POP DUP3 DUP1 PUSH2 0x902 SWAP1 PUSH2 0x1DE4 JUMP JUMPDEST SWAP4 POP POP POP DUP1 DUP1 PUSH1 0x1 ADD SWAP2 POP POP PUSH2 0x7CF JUMP JUMPDEST POP DUP2 SWAP6 POP POP POP POP POP POP JUMPDEST SWAP4 SWAP3 POP POP POP JUMP JUMPDEST PUSH0 PUSH1 0x2 PUSH0 SWAP1 SLOAD SWAP1 PUSH2 0x100 EXP SWAP1 DIV PUSH20 0xFFFFFFFFFFFFFFFFFFFFFFFFFFFFFFFFFFFFFFFF AND PUSH20 0xFFFFFFFFFFFFFFFFFFFFFFFFFFFFFFFFFFFFFFFF AND PUSH4 0x26567EEC CALLER PUSH1 0x40 MLOAD DUP3 PUSH4 0xFFFFFFFF AND PUSH1 0xE0 SHL DUP2 MSTORE PUSH1 0x4 ADD PUSH2 0x97F SWAP2 SWAP1 PUSH2 0x1AFA JUMP JUMPDEST PUSH1 0x20 PUSH1 0x40 MLOAD DUP1 DUP4 SUB DUP2 DUP7 GAS STATICCALL ISZERO DUP1 ISZERO PUSH2 0x99A JUMPI RETURNDATASIZE PUSH0 PUSH0 RETURNDATACOPY RETURNDATASIZE PUSH0 REVERT JUMPDEST POP POP POP POP PUSH1 0x40 MLOAD RETURNDATASIZE PUSH1 0x1F NOT PUSH1 0x1F DUP3 ADD AND DUP3 ADD DUP1 PUSH1 0x40 MSTORE POP DUP2 ADD SWAP1 PUSH2 0x9BE SWAP2 SWAP1 PUSH2 0x1B27 JUMP JUMPDEST SWAP1 POP PUSH2 0x9C9 DUP5 PUSH2 0x1421 JUMP JUMPDEST PUSH2 0xA08 JUMPI PUSH1 0x40 MLOAD PUSH32 0x8C379A000000000000000000000000000000000000000000000000000000000 DUP2 MSTORE PUSH1 0x4 ADD PUSH2 0x9FF SWAP1 PUSH2 0x1BAC JUMP JUMPDEST PUSH1 0x40 MLOAD DUP1 SWAP2 SUB SWAP1 REVERT JUMPDEST PUSH0 DUP4 DUP4 SWAP1 POP GT PUSH2 0xA4D JUMPI PUSH1 0x40 MLOAD PUSH32 0x8C379A000000000000000000000000000000000000000000000000000000000 DUP2 MSTORE PUSH1 0x4 ADD PUSH2 0xA44 SWAP1 PUSH2 0x1E75 JUMP JUMPDEST PUSH1 0x40 MLOAD DUP1 SWAP2 SUB SWAP1 REVERT JUMPDEST PUSH1 0x1 PUSH0 DUP2 SLOAD DUP1 SWAP3 SWAP2 SWAP1 PUSH2 0xA5F SWAP1 PUSH2 0x1DE4 JUMP JUMPDEST SWAP2 SWAP1 POP SSTORE POP PUSH0 PUSH1 0x1 SLOAD SWAP1 POP PUSH1 0x40 MLOAD DUP1 PUSH1 0xA0 ADD PUSH1 0x40 MSTORE DUP1 DUP3 DUP2 MSTORE PUSH1 0x20 ADD DUP7 DUP2 MSTORE PUSH1 0x20 ADD DUP4 DUP2 MSTORE PUSH1 0x20 ADD DUP6 DUP6 DUP1 DUP1 PUSH1 0x1F ADD PUSH1 0x20 DUP1 SWAP2 DIV MUL PUSH1 0x20 ADD PUSH1 0x40 MLOAD SWAP1 DUP2 ADD PUSH1 0x40 MSTORE DUP1 SWAP4 SWAP3 SWAP2 SWAP1 DUP2 DUP2 MSTORE PUSH1 0x20 ADD DUP4 DUP4 DUP1 DUP3 DUP5 CALLDATACOPY PUSH0 DUP2 DUP5 ADD MSTORE PUSH1 0x1F NOT PUSH1 0x1F DUP3 ADD AND SWAP1 POP DUP1 DUP4 ADD SWAP3 POP POP POP POP POP POP POP DUP2 MSTORE PUSH1 0x20 ADD TIMESTAMP DUP2 MSTORE POP PUSH1 0x7 PUSH0 DUP4 DUP2 MSTORE PUSH1 0x20 ADD SWAP1 DUP2 MSTORE PUSH1 0x20 ADD PUSH0 KECCAK256 PUSH0 DUP3 ADD MLOAD DUP2 PUSH0 ADD SSTORE PUSH1 0x20 DUP3 ADD MLOAD DUP2 PUSH1 0x1 ADD SSTORE PUSH1 0x40 DUP3 ADD MLOAD DUP2 PUSH1 0x2 ADD SSTORE PUSH1 0x60 DUP3 ADD MLOAD DUP2 PUSH1 0x3 ADD SWAP1 DUP2 PUSH2 0xB16 SWAP2 SWAP1 PUSH2 0x2033 JUMP JUMPDEST POP PUSH1 0x80 DUP3 ADD MLOAD DUP2 PUSH1 0x4 ADD SSTORE SWAP1 POP POP PUSH1 0x8 PUSH0 DUP7 DUP2 MSTORE PUSH1 0x20 ADD SWAP1 DUP2 MSTORE PUSH1 0x20 ADD PUSH0 KECCAK256 DUP2 SWAP1 DUP1 PUSH1 0x1 DUP2 SLOAD ADD DUP1 DUP3 SSTORE DUP1 SWAP2 POP POP PUSH1 0x1 SWAP1 SUB SWAP1 PUSH0 MSTORE PUSH1 0x20 PUSH0 KECCAK256 ADD PUSH0 SWAP1 SWAP2 SWAP1 SWAP2 SWAP1 SWAP2 POP SSTORE POP POP POP POP POP JUMP JUMPDEST PUSH2 0xB68 PUSH2 0x144E JUMP JUMPDEST PUSH2 0xB71 DUP3 PUSH2 0x1421 JUMP JUMPDEST PUSH2 0xBB0 JUMPI PUSH1 0x40 MLOAD PUSH32 0x8C379A000000000000000000000000000000000000000000000000000000000 DUP2 MSTORE PUSH1 0x4 ADD PUSH2 0xBA7 SWAP1 PUSH2 0x214C JUMP JUMPDEST PUSH1 0x40 MLOAD DUP1 SWAP2 SUB SWAP1 REVERT JUMPDEST PUSH0 PUSH1 0x4 PUSH0 DUP5 DUP2 MSTORE PUSH1 0x20 ADD SWAP1 DUP2 MSTORE PUSH1 0x20 ADD PUSH0 KECCAK256 PUSH1 0x40 MLOAD DUP1 PUSH1 0x40 ADD PUSH1 0x40 MSTORE SWAP1 DUP2 PUSH0 DUP3 ADD SLOAD DUP2 MSTORE PUSH1 0x20 ADD PUSH1 0x1 DUP3 ADD SLOAD DUP2 MSTORE POP POP SWAP1 POP PUSH1 0x9 DUP2 PUSH1 0x20 ADD MLOAD DUP2 SLOAD DUP2 LT PUSH2 0xBFA JUMPI PUSH2 0xBF9 PUSH2 0x1C32 JUMP JUMPDEST JUMPDEST SWAP1 PUSH0 MSTORE PUSH1 0x20 PUSH0 KECCAK256 SWAP1 PUSH1 0x5 MUL ADD PUSH1 0x40 MLOAD DUP1 PUSH1 0xA0 ADD PUSH1 0x40 MSTORE SWAP1 DUP2 PUSH0 DUP3 ADD SLOAD DUP2 MSTORE PUSH1 0x20 ADD PUSH1 0x1 DUP3 ADD SLOAD DUP2 MSTORE PUSH1 0x20 ADD PUSH1 0x2 DUP3 ADD DUP1 SLOAD PUSH2 0xC34 SWAP1 PUSH2 0x1D21 JUMP JUMPDEST DUP1 PUSH1 0x1F ADD PUSH1 0x20 DUP1 SWAP2 DIV MUL PUSH1 0x20 ADD PUSH1 0x40 MLOAD SWAP1 DUP2 ADD PUSH1 0x40 MSTORE DUP1 SWAP3 SWAP2 SWAP1 DUP2 DUP2 MSTORE PUSH1 0x20 ADD DUP3 DUP1 SLOAD PUSH2 0xC60 SWAP1 PUSH2 0x1D21 JUMP JUMPDEST DUP1 ISZERO PUSH2 0xCAB JUMPI DUP1 PUSH1 0x1F LT PUSH2 0xC82 JUMPI PUSH2 0x100 DUP1 DUP4 SLOAD DIV MUL DUP4 MSTORE SWAP2 PUSH1 0x20 ADD SWAP2 PUSH2 0xCAB JUMP JUMPDEST DUP3 ADD SWAP2 SWAP1 PUSH0 MSTORE PUSH1 0x20 PUSH0 KECCAK256 SWAP1 JUMPDEST DUP2 SLOAD DUP2 MSTORE SWAP1 PUSH1 0x1 ADD SWAP1 PUSH1 0x20 ADD DUP1 DUP4 GT PUSH2 0xC8E JUMPI DUP3 SWAP1 SUB PUSH1 0x1F AND DUP3 ADD SWAP2 JUMPDEST POP POP POP POP POP DUP2 MSTORE PUSH1 0x20 ADD PUSH1 0x3 DUP3 ADD SLOAD DUP2 MSTORE PUSH1 0x20 ADD PUSH1 0x4 DUP3 ADD PUSH0 SWAP1 SLOAD SWAP1 PUSH2 0x100 EXP SWAP1 DIV PUSH1 0xFF AND ISZERO ISZERO ISZERO ISZERO DUP2 MSTORE POP POP SWAP2 POP POP SWAP2 SWAP1 POP JUMP JUMPDEST PUSH0 PUSH2 0xCEA DUP4 PUSH2 0x1421 JUMP JUMPDEST PUSH2 0xD29 JUMPI PUSH1 0x40 MLOAD PUSH32 0x8C379A000000000000000000000000000000000000000000000000000000000 DUP2 MSTORE PUSH1 0x4 ADD PUSH2 0xD20 SWAP1 PUSH2 0x214C JUMP JUMPDEST PUSH1 0x40 MLOAD DUP1 SWAP2 SUB SWAP1 REVERT JUMPDEST PUSH1 0x5 PUSH0 DUP5 DUP2 MSTORE PUSH1 0x20 ADD SWAP1 DUP2 MSTORE PUSH1 0x20 ADD PUSH0 KECCAK256 PUSH0 DUP4 DUP2 MSTORE PUSH1 0x20 ADD SWAP1 DUP2 MSTORE PUSH1 0x20 ADD PUSH0 KECCAK256 PUSH0 SWAP1 SLOAD SWAP1 PUSH2 0x100 EXP SWAP1 DIV PUSH1 0xFF AND SWAP1 POP SWAP3 SWAP2 POP POP JUMP JUMPDEST PUSH0 PUSH1 0x2 PUSH0 SWAP1 SLOAD SWAP1 PUSH2 0x100 EXP SWAP1 DIV PUSH20 0xFFFFFFFFFFFFFFFFFFFFFFFFFFFFFFFFFFFFFFFF AND PUSH20 0xFFFFFFFFFFFFFFFFFFFFFFFFFFFFFFFFFFFFFFFF AND PUSH4 0x26567EEC CALLER PUSH1 0x40 MLOAD DUP3 PUSH4 0xFFFFFFFF AND PUSH1 0xE0 SHL DUP2 MSTORE PUSH1 0x4 ADD PUSH2 0xDB9 SWAP2 SWAP1 PUSH2 0x1AFA JUMP JUMPDEST PUSH1 0x20 PUSH1 0x40 MLOAD DUP1 DUP4 SUB DUP2 DUP7 GAS STATICCALL ISZERO DUP1 ISZERO PUSH2 0xDD4 JUMPI RETURNDATASIZE PUSH0 PUSH0 RETURNDATACOPY RETURNDATASIZE PUSH0 REVERT JUMPDEST POP POP POP POP PUSH1 0x40 MLOAD RETURNDATASIZE PUSH1 0x1F NOT PUSH1 0x1F DUP3 ADD AND DUP3 ADD DUP1 PUSH1 0x40 MSTORE POP DUP2 ADD SWAP1 PUSH2 0xDF8 SWAP2 SWAP1 PUSH2 0x1B27 JUMP JUMPDEST SWAP1 POP PUSH2 0xE03 DUP3 PUSH2 0x1421 JUMP JUMPDEST PUSH2 0xE42 JUMPI PUSH1 0x40 MLOAD PUSH32 0x8C379A000000000000000000000000000000000000000000000000000000000 DUP2 MSTORE PUSH1 0x4 ADD PUSH2 0xE39 SWAP1 PUSH2 0x214C JUMP JUMPDEST PUSH1 0x40 MLOAD DUP1 SWAP2 SUB SWAP1 REVERT JUMPDEST PUSH1 0x5 PUSH0 DUP4 DUP2 MSTORE PUSH1 0x20 ADD SWAP1 DUP2 MSTORE PUSH1 0x20 ADD PUSH0 KECCAK256 PUSH0 DUP3 DUP2 MSTORE PUSH1 0x20 ADD SWAP1 DUP2 MSTORE PUSH1 0x20 ADD PUSH0 KECCAK256 PUSH0 SWAP1 SLOAD SWAP1 PUSH2 0x100 EXP SWAP1 DIV PUSH1 0xFF AND ISZERO PUSH2 0xED6 JUMPI PUSH0 PUSH1 0x5 PUSH0 DUP5 DUP2 MSTORE PUSH1 0x20 ADD SWAP1 DUP2 MSTORE PUSH1 0x20 ADD PUSH0 KECCAK256 PUSH0 DUP4 DUP2 MSTORE PUSH1 0x20 ADD SWAP1 DUP2 MSTORE PUSH1 0x20 ADD PUSH0 KECCAK256 PUSH0 PUSH2 0x100 EXP DUP2 SLOAD DUP2 PUSH1 0xFF MUL NOT AND SWAP1 DUP4 ISZERO ISZERO MUL OR SWAP1 SSTORE POP PUSH1 0x6 PUSH0 DUP4 DUP2 MSTORE PUSH1 0x20 ADD SWAP1 DUP2 MSTORE PUSH1 0x20 ADD PUSH0 KECCAK256 PUSH0 DUP2 SLOAD DUP1 SWAP3 SWAP2 SWAP1 PUSH2 0xECC SWAP1 PUSH2 0x216A JUMP JUMPDEST SWAP2 SWAP1 POP SSTORE POP PUSH2 0xF35 JUMP JUMPDEST PUSH1 0x1 PUSH1 0x5 PUSH0 DUP5 DUP2 MSTORE PUSH1 0x20 ADD SWAP1 DUP2 MSTORE PUSH1 0x20 ADD PUSH0 KECCAK256 PUSH0 DUP4 DUP2 MSTORE PUSH1 0x20 ADD SWAP1 DUP2 MSTORE PUSH1 0x20 ADD PUSH0 KECCAK256 PUSH0 PUSH2 0x100 EXP DUP2 SLOAD DUP2 PUSH1 0xFF MUL NOT AND SWAP1 DUP4 ISZERO ISZERO MUL OR SWAP1 SSTORE POP PUSH1 0x6 PUSH0 DUP4 DUP2 MSTORE PUSH1 0x20 ADD SWAP1 DUP2 MSTORE PUSH1 0x20 ADD PUSH0 KECCAK256 PUSH0 DUP2 SLOAD DUP1 SWAP3 SWAP2 SWAP1 PUSH2 0xF2F SWAP1 PUSH2 0x1DE4 JUMP JUMPDEST SWAP2 SWAP1 POP SSTORE POP JUMPDEST POP POP JUMP JUMPDEST PUSH1 0x3 DUP3 DUP3 SWAP1 POP GT PUSH2 0xF7F JUMPI PUSH1 0x40 MLOAD PUSH32 0x8C379A000000000000000000000000000000000000000000000000000000000 DUP2 MSTORE PUSH1 0x4 ADD PUSH2 0xF76 SWAP1 PUSH2 0x2201 JUMP JUMPDEST PUSH1 0x40 MLOAD DUP1 SWAP2 SUB SWAP1 REVERT JUMPDEST PUSH0 PUSH1 0x2 PUSH0 SWAP1 SLOAD SWAP1 PUSH2 0x100 EXP SWAP1 DIV PUSH20 0xFFFFFFFFFFFFFFFFFFFFFFFFFFFFFFFFFFFFFFFF AND PUSH20 0xFFFFFFFFFFFFFFFFFFFFFFFFFFFFFFFFFFFFFFFF AND PUSH4 0x26567EEC CALLER PUSH1 0x40 MLOAD DUP3 PUSH4 0xFFFFFFFF AND PUSH1 0xE0 SHL DUP2 MSTORE PUSH1 0x4 ADD PUSH2 0xFDA SWAP2 SWAP1 PUSH2 0x1AFA JUMP JUMPDEST PUSH1 0x20 PUSH1 0x40 MLOAD DUP1 DUP4 SUB DUP2 DUP7 GAS STATICCALL ISZERO DUP1 ISZERO PUSH2 0xFF5 JUMPI RETURNDATASIZE PUSH0 PUSH0 RETURNDATACOPY RETURNDATASIZE PUSH0 REVERT JUMPDEST POP POP POP POP PUSH1 0x40 MLOAD RETURNDATASIZE PUSH1 0x1F NOT PUSH1 0x1F DUP3 ADD AND DUP3 ADD DUP1 PUSH1 0x40 MSTORE POP DUP2 ADD SWAP1 PUSH2 0x1019 SWAP2 SWAP1 PUSH2 0x1B27 JUMP JUMPDEST SWAP1 POP PUSH0 PUSH0 DUP2 SLOAD DUP1 SWAP3 SWAP2 SWAP1 PUSH2 0x102C SWAP1 PUSH2 0x1DE4 JUMP JUMPDEST SWAP2 SWAP1 POP SSTORE POP PUSH0 PUSH0 SLOAD SWAP1 POP PUSH1 0x9 PUSH1 0x1 DUP2 PUSH1 0x1 DUP2 SLOAD ADD DUP1 DUP3 SSTORE DUP1 SWAP2 POP POP SUB SWAP1 PUSH0 MSTORE PUSH1 0x20 PUSH0 KECCAK256 SWAP1 POP POP PUSH0 PUSH1 0x1 PUSH1 0x9 DUP1 SLOAD SWAP1 POP PUSH2 0x1065 SWAP2 SWAP1 PUSH2 0x1DB1 JUMP JUMPDEST SWAP1 POP PUSH0 PUSH1 0x9 DUP3 DUP2 SLOAD DUP2 LT PUSH2 0x107C JUMPI PUSH2 0x107B PUSH2 0x1C32 JUMP JUMPDEST JUMPDEST SWAP1 PUSH0 MSTORE PUSH1 0x20 PUSH0 KECCAK256 SWAP1 PUSH1 0x5 MUL ADD SWAP1 POP DUP4 DUP2 PUSH0 ADD DUP2 SWAP1 SSTORE POP DUP3 DUP2 PUSH1 0x1 ADD DUP2 SWAP1 SSTORE POP DUP6 DUP6 DUP3 PUSH1 0x2 ADD SWAP2 DUP3 PUSH2 0x10AE SWAP3 SWAP2 SWAP1 PUSH2 0x2229 JUMP JUMPDEST POP TIMESTAMP DUP2 PUSH1 0x3 ADD DUP2 SWAP1 SSTORE POP PUSH1 0x3 PUSH0 DUP6 DUP2 MSTORE PUSH1 0x20 ADD SWAP1 DUP2 MSTORE PUSH1 0x20 ADD PUSH0 KECCAK256 DUP3 SWAP1 DUP1 PUSH1 0x1 DUP2 SLOAD ADD DUP1 DUP3 SSTORE DUP1 SWAP2 POP POP PUSH1 0x1 SWAP1 SUB SWAP1 PUSH0 MSTORE PUSH1 0x20 PUSH0 KECCAK256 ADD PUSH0 SWAP1 SWAP2 SWAP1 SWAP2 SWAP1 SWAP2 POP SSTORE PUSH1 0x40 MLOAD DUP1 PUSH1 0x40 ADD PUSH1 0x40 MSTORE DUP1 DUP6 DUP2 MSTORE PUSH1 0x20 ADD DUP4 DUP2 MSTORE POP PUSH1 0x4 PUSH0 DUP6 DUP2 MSTORE PUSH1 0x20 ADD SWAP1 DUP2 MSTORE PUSH1 0x20 ADD PUSH0 KECCAK256 PUSH0 DUP3 ADD MLOAD DUP2 PUSH0 ADD SSTORE PUSH1 0x20 DUP3 ADD MLOAD DUP2 PUSH1 0x1 ADD SSTORE SWAP1 POP POP PUSH32 0x9D8BA7605D631183923C2B8E95CD748A3F7BAD1C3CAB55DF446FEA93C84980EF DUP4 DUP6 DUP9 DUP9 TIMESTAMP PUSH1 0x40 MLOAD PUSH2 0x115F SWAP6 SWAP5 SWAP4 SWAP3 SWAP2 SWAP1 PUSH2 0x2330 JUMP JUMPDEST PUSH1 0x40 MLOAD DUP1 SWAP2 SUB SWAP1 LOG1 POP POP POP POP POP POP JUMP JUMPDEST PUSH0 PUSH2 0x1179 DUP3 PUSH2 0x1421 JUMP JUMPDEST PUSH2 0x11B8 JUMPI PUSH1 0x40 MLOAD PUSH32 0x8C379A000000000000000000000000000000000000000000000000000000000 DUP2 MSTORE PUSH1 0x4 ADD PUSH2 0x11AF SWAP1 PUSH2 0x1BAC JUMP JUMPDEST PUSH1 0x40 MLOAD DUP1 SWAP2 SUB SWAP1 REVERT JUMPDEST PUSH1 0x8 PUSH0 DUP4 DUP2 MSTORE PUSH1 0x20 ADD SWAP1 DUP2 MSTORE PUSH1 0x20 ADD PUSH0 KECCAK256 DUP1 SLOAD SWAP1 POP SWAP1 POP SWAP2 SWAP1 POP JUMP JUMPDEST PUSH0 PUSH2 0x11DE DUP3 PUSH2 0x1421 JUMP JUMPDEST PUSH2 0x121D JUMPI PUSH1 0x40 MLOAD PUSH32 0x8C379A000000000000000000000000000000000000000000000000000000000 DUP2 MSTORE PUSH1 0x4 ADD PUSH2 0x1214 SWAP1 PUSH2 0x214C JUMP JUMPDEST PUSH1 0x40 MLOAD DUP1 SWAP2 SUB SWAP1 REVERT JUMPDEST PUSH1 0x6 PUSH0 DUP4 DUP2 MSTORE PUSH1 0x20 ADD SWAP1 DUP2 MSTORE PUSH1 0x20 ADD PUSH0 KECCAK256 SLOAD SWAP1 POP SWAP2 SWAP1 POP JUMP JUMPDEST PUSH0 PUSH1 0x9 DUP1 SLOAD SWAP1 POP SWAP1 POP SWAP1 JUMP JUMPDEST PUSH0 PUSH1 0x2 PUSH0 SWAP1 SLOAD SWAP1 PUSH2 0x100 EXP SWAP1 DIV PUSH20 0xFFFFFFFFFFFFFFFFFFFFFFFFFFFFFFFFFFFFFFFF AND PUSH20 0xFFFFFFFFFFFFFFFFFFFFFFFFFFFFFFFFFFFFFFFF AND PUSH4 0x26567EEC CALLER PUSH1 0x40 MLOAD DUP3 PUSH4 0xFFFFFFFF AND PUSH1 0xE0 SHL DUP2 MSTORE PUSH1 0x4 ADD PUSH2 0x129D SWAP2 SWAP1 PUSH2 0x1AFA JUMP JUMPDEST PUSH1 0x20 PUSH1 0x40 MLOAD DUP1 DUP4 SUB DUP2 DUP7 GAS STATICCALL ISZERO DUP1 ISZERO PUSH2 0x12B8 JUMPI RETURNDATASIZE PUSH0 PUSH0 RETURNDATACOPY RETURNDATASIZE PUSH0 REVERT JUMPDEST POP POP POP POP PUSH1 0x40 MLOAD RETURNDATASIZE PUSH1 0x1F NOT PUSH1 0x1F DUP3 ADD AND DUP3 ADD DUP1 PUSH1 0x40 MSTORE POP DUP2 ADD SWAP1 PUSH2 0x12DC SWAP2 SWAP1 PUSH2 0x1B27 JUMP JUMPDEST SWAP1 POP PUSH2 0x12E7 DUP5 PUSH2 0x1421 JUMP JUMPDEST PUSH2 0x1326 JUMPI PUSH1 0x40 MLOAD PUSH32 0x8C379A000000000000000000000000000000000000000000000000000000000 DUP2 MSTORE PUSH1 0x4 ADD PUSH2 0x131D SWAP1 PUSH2 0x214C JUMP JUMPDEST PUSH1 0x40 MLOAD DUP1 SWAP2 SUB SWAP1 REVERT JUMPDEST PUSH0 PUSH1 0x4 PUSH0 DUP7 DUP2 MSTORE PUSH1 0x20 ADD SWAP1 DUP2 MSTORE PUSH1 0x20 ADD PUSH0 KECCAK256 PUSH1 0x40 MLOAD DUP1 PUSH1 0x40 ADD PUSH1 0x40 MSTORE SWAP1 DUP2 PUSH0 DUP3 ADD SLOAD DUP2 MSTORE PUSH1 0x20 ADD PUSH1 0x1 DUP3 ADD SLOAD DUP2 MSTORE POP POP SWAP1 POP DUP2 DUP2 PUSH0 ADD MLOAD EQ PUSH2 0x139D JUMPI PUSH1 0x40 MLOAD PUSH32 0x8C379A000000000000000000000000000000000000000000000000000000000 DUP2 MSTORE PUSH1 0x4 ADD PUSH2 0x1394 SWAP1 PUSH2 0x23C6 JUMP JUMPDEST PUSH1 0x40 MLOAD DUP1 SWAP2 SUB SWAP1 REVERT JUMPDEST PUSH1 0x3 DUP5 DUP5 SWAP1 POP GT PUSH2 0x13E3 JUMPI PUSH1 0x40 MLOAD PUSH32 0x8C379A000000000000000000000000000000000000000000000000000000000 DUP2 MSTORE PUSH1 0x4 ADD PUSH2 0x13DA SWAP1 PUSH2 0x2201 JUMP JUMPDEST PUSH1 0x40 MLOAD DUP1 SWAP2 SUB SWAP1 REVERT JUMPDEST DUP4 DUP4 PUSH1 0x9 DUP4 PUSH1 0x20 ADD MLOAD DUP2 SLOAD DUP2 LT PUSH2 0x13FD JUMPI PUSH2 0x13FC PUSH2 0x1C32 JUMP JUMPDEST JUMPDEST SWAP1 PUSH0 MSTORE PUSH1 0x20 PUSH0 KECCAK256 SWAP1 PUSH1 0x5 MUL ADD PUSH1 0x2 ADD SWAP2 DUP3 PUSH2 0x1419 SWAP3 SWAP2 SWAP1 PUSH2 0x2229 JUMP JUMPDEST POP POP POP POP POP POP JUMP JUMPDEST PUSH0 PUSH0 PUSH1 0x4 PUSH0 DUP5 DUP2 MSTORE PUSH1 0x20 ADD SWAP1 DUP2 MSTORE PUSH1 0x20 ADD PUSH0 KECCAK256 PUSH0 ADD SLOAD EQ PUSH2 0x1445 JUMPI PUSH1 0x1 SWAP1 POP PUSH2 0x1449 JUMP JUMPDEST PUSH0 SWAP1 POP JUMPDEST SWAP2 SWAP1 POP JUMP JUMPDEST PUSH1 0x40 MLOAD DUP1 PUSH1 0xA0 ADD PUSH1 0x40 MSTORE DUP1 PUSH0 DUP2 MSTORE PUSH1 0x20 ADD PUSH0 DUP2 MSTORE PUSH1 0x20 ADD PUSH1 0x60 DUP2 MSTORE PUSH1 0x20 ADD PUSH0 DUP2 MSTORE PUSH1 0x20 ADD PUSH0 ISZERO ISZERO DUP2 MSTORE POP SWAP1 JUMP JUMPDEST PUSH1 0x40 MLOAD DUP1 PUSH1 0xA0 ADD PUSH1 0x40 MSTORE DUP1 PUSH0 DUP2 MSTORE PUSH1 0x20 ADD PUSH0 DUP2 MSTORE PUSH1 0x20 ADD PUSH0 DUP2 MSTORE PUSH1 0x20 ADD PUSH1 0x60 DUP2 MSTORE PUSH1 0x20 ADD PUSH0 DUP2 MSTORE POP SWAP1 JUMP JUMPDEST PUSH0 PUSH0 REVERT JUMPDEST PUSH0 PUSH0 REVERT JUMPDEST PUSH0 DUP2 SWAP1 POP SWAP2 SWAP1 POP JUMP JUMPDEST PUSH2 0x14C0 DUP2 PUSH2 0x14AE JUMP JUMPDEST DUP2 EQ PUSH2 0x14CA JUMPI PUSH0 PUSH0 REVERT JUMPDEST POP JUMP JUMPDEST PUSH0 DUP2 CALLDATALOAD SWAP1 POP PUSH2 0x14DB DUP2 PUSH2 0x14B7 JUMP JUMPDEST SWAP3 SWAP2 POP POP JUMP JUMPDEST PUSH0 PUSH1 0x20 DUP3 DUP5 SUB SLT ISZERO PUSH2 0x14F6 JUMPI PUSH2 0x14F5 PUSH2 0x14A6 JUMP JUMPDEST JUMPDEST PUSH0 PUSH2 0x1503 DUP5 DUP3 DUP6 ADD PUSH2 0x14CD JUMP JUMPDEST SWAP2 POP POP SWAP3 SWAP2 POP POP JUMP JUMPDEST PUSH0 DUP2 MLOAD SWAP1 POP SWAP2 SWAP1 POP JUMP JUMPDEST PUSH0 DUP3 DUP3 MSTORE PUSH1 0x20 DUP3 ADD SWAP1 POP SWAP3 SWAP2 POP POP JUMP JUMPDEST PUSH0 DUP2 SWAP1 POP PUSH1 0x20 DUP3 ADD SWAP1 POP SWAP2 SWAP1 POP JUMP JUMPDEST PUSH2 0x153E DUP2 PUSH2 0x14AE JUMP JUMPDEST DUP3 MSTORE POP POP JUMP JUMPDEST PUSH0 DUP2 MLOAD SWAP1 POP SWAP2 SWAP1 POP JUMP JUMPDEST PUSH0 DUP3 DUP3 MSTORE PUSH1 0x20 DUP3 ADD SWAP1 POP SWAP3 SWAP2 POP POP JUMP JUMPDEST DUP3 DUP2 DUP4 MCOPY PUSH0 DUP4 DUP4 ADD MSTORE POP POP POP JUMP JUMPDEST PUSH0 PUSH1 0x1F NOT PUSH1 0x1F DUP4 ADD AND SWAP1 POP SWAP2 SWAP1 POP JUMP JUMPDEST PUSH0 PUSH2 0x1586 DUP3 PUSH2 0x1544 JUMP JUMPDEST PUSH2 0x1590 DUP2 DUP6 PUSH2 0x154E JUMP JUMPDEST SWAP4 POP PUSH2 0x15A0 DUP2 DUP6 PUSH1 0x20 DUP7 ADD PUSH2 0x155E JUMP JUMPDEST PUSH2 0x15A9 DUP2 PUSH2 0x156C JUMP JUMPDEST DUP5 ADD SWAP2 POP POP SWAP3 SWAP2 POP POP JUMP JUMPDEST PUSH0 DUP2 ISZERO ISZERO SWAP1 POP SWAP2 SWAP1 POP JUMP JUMPDEST PUSH2 0x15C8 DUP2 PUSH2 0x15B4 JUMP JUMPDEST DUP3 MSTORE POP POP JUMP JUMPDEST PUSH0 PUSH1 0xA0 DUP4 ADD PUSH0 DUP4 ADD MLOAD PUSH2 0x15E3 PUSH0 DUP7 ADD DUP3 PUSH2 0x1535 JUMP JUMPDEST POP PUSH1 0x20 DUP4 ADD MLOAD PUSH2 0x15F6 PUSH1 0x20 DUP7 ADD DUP3 PUSH2 0x1535 JUMP JUMPDEST POP PUSH1 0x40 DUP4 ADD MLOAD DUP5 DUP3 SUB PUSH1 0x40 DUP7 ADD MSTORE PUSH2 0x160E DUP3 DUP3 PUSH2 0x157C JUMP JUMPDEST SWAP2 POP POP PUSH1 0x60 DUP4 ADD MLOAD PUSH2 0x1623 PUSH1 0x60 DUP7 ADD DUP3 PUSH2 0x1535 JUMP JUMPDEST POP PUSH1 0x80 DUP4 ADD MLOAD PUSH2 0x1636 PUSH1 0x80 DUP7 ADD DUP3 PUSH2 0x15BF JUMP JUMPDEST POP DUP1 SWAP2 POP POP SWAP3 SWAP2 POP POP JUMP JUMPDEST PUSH0 PUSH2 0x164C DUP4 DUP4 PUSH2 0x15CE JUMP JUMPDEST SWAP1 POP SWAP3 SWAP2 POP POP JUMP JUMPDEST PUSH0 PUSH1 0x20 DUP3 ADD SWAP1 POP SWAP2 SWAP1 POP JUMP JUMPDEST PUSH0 PUSH2 0x166A DUP3 PUSH2 0x150C JUMP JUMPDEST PUSH2 0x1674 DUP2 DUP6 PUSH2 0x1516 JUMP JUMPDEST SWAP4 POP DUP4 PUSH1 0x20 DUP3 MUL DUP6 ADD PUSH2 0x1686 DUP6 PUSH2 0x1526 JUMP JUMPDEST DUP1 PUSH0 JUMPDEST DUP6 DUP2 LT ISZERO PUSH2 0x16C1 JUMPI DUP5 DUP5 SUB DUP10 MSTORE DUP2 MLOAD PUSH2 0x16A2 DUP6 DUP3 PUSH2 0x1641 JUMP JUMPDEST SWAP5 POP PUSH2 0x16AD DUP4 PUSH2 0x1654 JUMP JUMPDEST SWAP3 POP PUSH1 0x20 DUP11 ADD SWAP10 POP POP PUSH1 0x1 DUP2 ADD SWAP1 POP PUSH2 0x1689 JUMP JUMPDEST POP DUP3 SWAP8 POP DUP8 SWAP6 POP POP POP POP POP POP SWAP3 SWAP2 POP POP JUMP JUMPDEST PUSH0 PUSH1 0x20 DUP3 ADD SWAP1 POP DUP2 DUP2 SUB PUSH0 DUP4 ADD MSTORE PUSH2 0x16EB DUP2 DUP5 PUSH2 0x1660 JUMP JUMPDEST SWAP1 POP SWAP3 SWAP2 POP POP JUMP JUMPDEST PUSH0 PUSH0 PUSH0 PUSH1 0x60 DUP5 DUP7 SUB SLT ISZERO PUSH2 0x170A JUMPI PUSH2 0x1709 PUSH2 0x14A6 JUMP JUMPDEST JUMPDEST PUSH0 PUSH2 0x1717 DUP7 DUP3 DUP8 ADD PUSH2 0x14CD JUMP JUMPDEST SWAP4 POP POP PUSH1 0x20 PUSH2 0x1728 DUP7 DUP3 DUP8 ADD PUSH2 0x14CD JUMP JUMPDEST SWAP3 POP POP PUSH1 0x40 PUSH2 0x1739 DUP7 DUP3 DUP8 ADD PUSH2 0x14CD JUMP JUMPDEST SWAP2 POP POP SWAP3 POP SWAP3 POP SWAP3 JUMP JUMPDEST PUSH0 DUP2 MLOAD SWAP1 POP SWAP2 SWAP1 POP JUMP JUMPDEST PUSH0 DUP3 DUP3 MSTORE PUSH1 0x20 DUP3 ADD SWAP1 POP SWAP3 SWAP2 POP POP JUMP JUMPDEST PUSH0 DUP2 SWAP1 POP PUSH1 0x20 DUP3 ADD SWAP1 POP SWAP2 SWAP1 POP JUMP JUMPDEST PUSH0 PUSH1 0xA0 DUP4 ADD PUSH0 DUP4 ADD MLOAD PUSH2 0x1781 PUSH0 DUP7 ADD DUP3 PUSH2 0x1535 JUMP JUMPDEST POP PUSH1 0x20 DUP4 ADD MLOAD PUSH2 0x1794 PUSH1 0x20 DUP7 ADD DUP3 PUSH2 0x1535 JUMP JUMPDEST POP PUSH1 0x40 DUP4 ADD MLOAD PUSH2 0x17A7 PUSH1 0x40 DUP7 ADD DUP3 PUSH2 0x1535 JUMP JUMPDEST POP PUSH1 0x60 DUP4 ADD MLOAD DUP5 DUP3 SUB PUSH1 0x60 DUP7 ADD MSTORE PUSH2 0x17BF DUP3 DUP3 PUSH2 0x157C JUMP JUMPDEST SWAP2 POP POP PUSH1 0x80 DUP4 ADD MLOAD PUSH2 0x17D4 PUSH1 0x80 DUP7 ADD DUP3 PUSH2 0x1535 JUMP JUMPDEST POP DUP1 SWAP2 POP POP SWAP3 SWAP2 POP POP JUMP JUMPDEST PUSH0 PUSH2 0x17EA DUP4 DUP4 PUSH2 0x176C JUMP JUMPDEST SWAP1 POP SWAP3 SWAP2 POP POP JUMP JUMPDEST PUSH0 PUSH1 0x20 DUP3 ADD SWAP1 POP SWAP2 SWAP1 POP JUMP JUMPDEST PUSH0 PUSH2 0x1808 DUP3 PUSH2 0x1743 JUMP JUMPDEST PUSH2 0x1812 DUP2 DUP6 PUSH2 0x174D JUMP JUMPDEST SWAP4 POP DUP4 PUSH1 0x20 DUP3 MUL DUP6 ADD PUSH2 0x1824 DUP6 PUSH2 0x175D JUMP JUMPDEST DUP1 PUSH0 JUMPDEST DUP6 DUP2 LT ISZERO PUSH2 0x185F JUMPI DUP5 DUP5 SUB DUP10 MSTORE DUP2 MLOAD PUSH2 0x1840 DUP6 DUP3 PUSH2 0x17DF JUMP JUMPDEST SWAP5 POP PUSH2 0x184B DUP4 PUSH2 0x17F2 JUMP JUMPDEST SWAP3 POP PUSH1 0x20 DUP11 ADD SWAP10 POP POP PUSH1 0x1 DUP2 ADD SWAP1 POP PUSH2 0x1827 JUMP JUMPDEST POP DUP3 SWAP8 POP DUP8 SWAP6 POP POP POP POP POP POP SWAP3 SWAP2 POP POP JUMP JUMPDEST PUSH0 PUSH1 0x20 DUP3 ADD SWAP1 POP DUP2 DUP2 SUB PUSH0 DUP4 ADD MSTORE PUSH2 0x1889 DUP2 DUP5 PUSH2 0x17FE JUMP JUMPDEST SWAP1 POP SWAP3 SWAP2 POP POP JUMP JUMPDEST PUSH0 PUSH0 REVERT JUMPDEST PUSH0 PUSH0 REVERT JUMPDEST PUSH0 PUSH0 REVERT JUMPDEST PUSH0 PUSH0 DUP4 PUSH1 0x1F DUP5 ADD SLT PUSH2 0x18B2 JUMPI PUSH2 0x18B1 PUSH2 0x1891 JUMP JUMPDEST JUMPDEST DUP3 CALLDATALOAD SWAP1 POP PUSH8 0xFFFFFFFFFFFFFFFF DUP2 GT ISZERO PUSH2 0x18CF JUMPI PUSH2 0x18CE PUSH2 0x1895 JUMP JUMPDEST JUMPDEST PUSH1 0x20 DUP4 ADD SWAP2 POP DUP4 PUSH1 0x1 DUP3 MUL DUP4 ADD GT ISZERO PUSH2 0x18EB JUMPI PUSH2 0x18EA PUSH2 0x1899 JUMP JUMPDEST JUMPDEST SWAP3 POP SWAP3 SWAP1 POP JUMP JUMPDEST PUSH0 PUSH0 PUSH0 PUSH1 0x40 DUP5 DUP7 SUB SLT ISZERO PUSH2 0x1909 JUMPI PUSH2 0x1908 PUSH2 0x14A6 JUMP JUMPDEST JUMPDEST PUSH0 PUSH2 0x1916 DUP7 DUP3 DUP8 ADD PUSH2 0x14CD JUMP JUMPDEST SWAP4 POP POP PUSH1 0x20 DUP5 ADD CALLDATALOAD PUSH8 0xFFFFFFFFFFFFFFFF DUP2 GT ISZERO PUSH2 0x1937 JUMPI PUSH2 0x1936 PUSH2 0x14AA JUMP JUMPDEST JUMPDEST PUSH2 0x1943 DUP7 DUP3 DUP8 ADD PUSH2 0x189D JUMP JUMPDEST SWAP3 POP SWAP3 POP POP SWAP3 POP SWAP3 POP SWAP3 JUMP JUMPDEST PUSH0 PUSH1 0xA0 DUP4 ADD PUSH0 DUP4 ADD MLOAD PUSH2 0x1964 PUSH0 DUP7 ADD DUP3 PUSH2 0x1535 JUMP JUMPDEST POP PUSH1 0x20 DUP4 ADD MLOAD PUSH2 0x1977 PUSH1 0x20 DUP7 ADD DUP3 PUSH2 0x1535 JUMP JUMPDEST POP PUSH1 0x40 DUP4 ADD MLOAD DUP5 DUP3 SUB PUSH1 0x40 DUP7 ADD MSTORE PUSH2 0x198F DUP3 DUP3 PUSH2 0x157C JUMP JUMPDEST SWAP2 POP POP PUSH1 0x60 DUP4 ADD MLOAD PUSH2 0x19A4 PUSH1 0x60 DUP7 ADD DUP3 PUSH2 0x1535 JUMP JUMPDEST POP PUSH1 0x80 DUP4 ADD MLOAD PUSH2 0x19B7 PUSH1 0x80 DUP7 ADD DUP3 PUSH2 0x15BF JUMP JUMPDEST POP DUP1 SWAP2 POP POP SWAP3 SWAP2 POP POP JUMP JUMPDEST PUSH0 PUSH1 0x20 DUP3 ADD SWAP1 POP DUP2 DUP2 SUB PUSH0 DUP4 ADD MSTORE PUSH2 0x19DA DUP2 DUP5 PUSH2 0x194F JUMP JUMPDEST SWAP1 POP SWAP3 SWAP2 POP POP JUMP JUMPDEST PUSH0 PUSH0 PUSH1 0x40 DUP4 DUP6 SUB SLT ISZERO PUSH2 0x19F8 JUMPI PUSH2 0x19F7 PUSH2 0x14A6 JUMP JUMPDEST JUMPDEST PUSH0 PUSH2 0x1A05 DUP6 DUP3 DUP7 ADD PUSH2 0x14CD JUMP JUMPDEST SWAP3 POP POP PUSH1 0x20 PUSH2 0x1A16 DUP6 DUP3 DUP7 ADD PUSH2 0x14CD JUMP JUMPDEST SWAP2 POP POP SWAP3 POP SWAP3 SWAP1 POP JUMP JUMPDEST PUSH2 0x1A29 DUP2 PUSH2 0x15B4 JUMP JUMPDEST DUP3 MSTORE POP POP JUMP JUMPDEST PUSH0 PUSH1 0x20 DUP3 ADD SWAP1 POP PUSH2 0x1A42 PUSH0 DUP4 ADD DUP5 PUSH2 0x1A20 JUMP JUMPDEST SWAP3 SWAP2 POP POP JUMP JUMPDEST PUSH0 PUSH0 PUSH1 0x20 DUP4 DUP6 SUB SLT ISZERO PUSH2 0x1A5E JUMPI PUSH2 0x1A5D PUSH2 0x14A6 JUMP JUMPDEST JUMPDEST PUSH0 DUP4 ADD CALLDATALOAD PUSH8 0xFFFFFFFFFFFFFFFF DUP2 GT ISZERO PUSH2 0x1A7B JUMPI PUSH2 0x1A7A PUSH2 0x14AA JUMP JUMPDEST JUMPDEST PUSH2 0x1A87 DUP6 DUP3 DUP7 ADD PUSH2 0x189D JUMP JUMPDEST SWAP3 POP SWAP3 POP POP SWAP3 POP SWAP3 SWAP1 POP JUMP JUMPDEST PUSH2 0x1A9C DUP2 PUSH2 0x14AE JUMP JUMPDEST DUP3 MSTORE POP POP JUMP JUMPDEST PUSH0 PUSH1 0x20 DUP3 ADD SWAP1 POP PUSH2 0x1AB5 PUSH0 DUP4 ADD DUP5 PUSH2 0x1A93 JUMP JUMPDEST SWAP3 SWAP2 POP POP JUMP JUMPDEST PUSH0 PUSH20 0xFFFFFFFFFFFFFFFFFFFFFFFFFFFFFFFFFFFFFFFF DUP3 AND SWAP1 POP SWAP2 SWAP1 POP JUMP JUMPDEST PUSH0 PUSH2 0x1AE4 DUP3 PUSH2 0x1ABB JUMP JUMPDEST SWAP1 POP SWAP2 SWAP1 POP JUMP JUMPDEST PUSH2 0x1AF4 DUP2 PUSH2 0x1ADA JUMP JUMPDEST DUP3 MSTORE POP POP JUMP JUMPDEST PUSH0 PUSH1 0x20 DUP3 ADD SWAP1 POP PUSH2 0x1B0D PUSH0 DUP4 ADD DUP5 PUSH2 0x1AEB JUMP JUMPDEST SWAP3 SWAP2 POP POP JUMP JUMPDEST PUSH0 DUP2 MLOAD SWAP1 POP PUSH2 0x1B21 DUP2 PUSH2 0x14B7 JUMP JUMPDEST SWAP3 SWAP2 POP POP JUMP JUMPDEST PUSH0 PUSH1 0x20 DUP3 DUP5 SUB SLT ISZERO PUSH2 0x1B3C JUMPI PUSH2 0x1B3B PUSH2 0x14A6 JUMP JUMPDEST JUMPDEST PUSH0 PUSH2 0x1B49 DUP5 DUP3 DUP6 ADD PUSH2 0x1B13 JUMP JUMPDEST SWAP2 POP POP SWAP3 SWAP2 POP POP JUMP JUMPDEST PUSH0 DUP3 DUP3 MSTORE PUSH1 0x20 DUP3 ADD SWAP1 POP SWAP3 SWAP2 POP POP JUMP JUMPDEST PUSH32 0x506F737420646F6573206E6F7420657869737400000000000000000000000000 PUSH0 DUP3 ADD MSTORE POP JUMP JUMPDEST PUSH0 PUSH2 0x1B96 PUSH1 0x13 DUP4 PUSH2 0x1B52 JUMP JUMPDEST SWAP2 POP PUSH2 0x1BA1 DUP3 PUSH2 0x1B62 JUMP JUMPDEST PUSH1 0x20 DUP3 ADD SWAP1 POP SWAP2 SWAP1 POP JUMP JUMPDEST PUSH0 PUSH1 0x20 DUP3 ADD SWAP1 POP DUP2 DUP2 SUB PUSH0 DUP4 ADD MSTORE PUSH2 0x1BC3 DUP2 PUSH2 0x1B8A JUMP JUMPDEST SWAP1 POP SWAP2 SWAP1 POP JUMP JUMPDEST PUSH32 0x4E6F7420706F7374206F776E6572000000000000000000000000000000000000 PUSH0 DUP3 ADD MSTORE POP JUMP JUMPDEST PUSH0 PUSH2 0x1BFE PUSH1 0xE DUP4 PUSH2 0x1B52 JUMP JUMPDEST SWAP2 POP PUSH2 0x1C09 DUP3 PUSH2 0x1BCA JUMP JUMPDEST PUSH1 0x20 DUP3 ADD SWAP1 POP SWAP2 SWAP1 POP JUMP JUMPDEST PUSH0 PUSH1 0x20 DUP3 ADD SWAP1 POP DUP2 DUP2 SUB PUSH0 DUP4 ADD MSTORE PUSH2 0x1C2B DUP2 PUSH2 0x1BF2 JUMP JUMPDEST SWAP1 POP SWAP2 SWAP1 POP JUMP JUMPDEST PUSH32 0x4E487B7100000000000000000000000000000000000000000000000000000000 PUSH0 MSTORE PUSH1 0x32 PUSH1 0x4 MSTORE PUSH1 0x24 PUSH0 REVERT JUMPDEST PUSH32 0x416C72656164792064656C657465640000000000000000000000000000000000 PUSH0 DUP3 ADD MSTORE POP JUMP JUMPDEST PUSH0 PUSH2 0x1C93 PUSH1 0xF DUP4 PUSH2 0x1B52 JUMP JUMPDEST SWAP2 POP PUSH2 0x1C9E DUP3 PUSH2 0x1C5F JUMP JUMPDEST PUSH1 0x20 DUP3 ADD SWAP1 POP SWAP2 SWAP1 POP JUMP JUMPDEST PUSH0 PUSH1 0x20 DUP3 ADD SWAP1 POP DUP2 DUP2 SUB PUSH0 DUP4 ADD MSTORE PUSH2 0x1CC0 DUP2 PUSH2 0x1C87 JUMP JUMPDEST SWAP1 POP SWAP2 SWAP1 POP JUMP JUMPDEST PUSH32 0x4E487B7100000000000000000000000000000000000000000000000000000000 PUSH0 MSTORE PUSH1 0x41 PUSH1 0x4 MSTORE PUSH1 0x24 PUSH0 REVERT JUMPDEST PUSH32 0x4E487B7100000000000000000000000000000000000000000000000000000000 PUSH0 MSTORE PUSH1 0x22 PUSH1 0x4 MSTORE PUSH1 0x24 PUSH0 REVERT JUMPDEST PUSH0 PUSH1 0x2 DUP3 DIV SWAP1 POP PUSH1 0x1 DUP3 AND DUP1 PUSH2 0x1D38 JUMPI PUSH1 0x7F DUP3 AND SWAP2 POP JUMPDEST PUSH1 0x20 DUP3 LT DUP2 SUB PUSH2 0x1D4B JUMPI PUSH2 0x1D4A PUSH2 0x1CF4 JUMP JUMPDEST JUMPDEST POP SWAP2 SWAP1 POP JUMP JUMPDEST PUSH32 0x4E487B7100000000000000000000000000000000000000000000000000000000 PUSH0 MSTORE PUSH1 0x11 PUSH1 0x4 MSTORE PUSH1 0x24 PUSH0 REVERT JUMPDEST PUSH0 PUSH2 0x1D88 DUP3 PUSH2 0x14AE JUMP JUMPDEST SWAP2 POP PUSH2 0x1D93 DUP4 PUSH2 0x14AE JUMP JUMPDEST SWAP3 POP DUP3 DUP3 ADD SWAP1 POP DUP1 DUP3 GT ISZERO PUSH2 0x1DAB JUMPI PUSH2 0x1DAA PUSH2 0x1D51 JUMP JUMPDEST JUMPDEST SWAP3 SWAP2 POP POP JUMP JUMPDEST PUSH0 PUSH2 0x1DBB DUP3 PUSH2 0x14AE JUMP JUMPDEST SWAP2 POP PUSH2 0x1DC6 DUP4 PUSH2 0x14AE JUMP JUMPDEST SWAP3 POP DUP3 DUP3 SUB SWAP1 POP DUP2 DUP2 GT ISZERO PUSH2 0x1DDE JUMPI PUSH2 0x1DDD PUSH2 0x1D51 JUMP JUMPDEST JUMPDEST SWAP3 SWAP2 POP POP JUMP JUMPDEST PUSH0 PUSH2 0x1DEE DUP3 PUSH2 0x14AE JUMP JUMPDEST SWAP2 POP PUSH32 0xFFFFFFFFFFFFFFFFFFFFFFFFFFFFFFFFFFFFFFFFFFFFFFFFFFFFFFFFFFFFFFFF DUP3 SUB PUSH2 0x1E20 JUMPI PUSH2 0x1E1F PUSH2 0x1D51 JUMP JUMPDEST JUMPDEST PUSH1 0x1 DUP3 ADD SWAP1 POP SWAP2 SWAP1 POP JUMP JUMPDEST PUSH32 0x456D70747920636F6D6D656E7400000000000000000000000000000000000000 PUSH0 DUP3 ADD MSTORE POP JUMP JUMPDEST PUSH0 PUSH2 0x1E5F PUSH1 0xD DUP4 PUSH2 0x1B52 JUMP JUMPDEST SWAP2 POP PUSH2 0x1E6A DUP3 PUSH2 0x1E2B JUMP JUMPDEST PUSH1 0x20 DUP3 ADD SWAP1 POP SWAP2 SWAP1 POP JUMP JUMPDEST PUSH0 PUSH1 0x20 DUP3 ADD SWAP1 POP DUP2 DUP2 SUB PUSH0 DUP4 ADD MSTORE PUSH2 0x1E8C DUP2 PUSH2 0x1E53 JUMP JUMPDEST SWAP1 POP SWAP2 SWAP1 POP JUMP JUMPDEST PUSH0 DUP2 SWAP1 POP DUP2 PUSH0 MSTORE PUSH1 0x20 PUSH0 KECCAK256 SWAP1 POP SWAP2 SWAP1 POP JUMP JUMPDEST PUSH0 PUSH1 0x20 PUSH1 0x1F DUP4 ADD DIV SWAP1 POP SWAP2 SWAP1 POP JUMP JUMPDEST PUSH0 DUP3 DUP3 SHL SWAP1 POP SWAP3 SWAP2 POP POP JUMP JUMPDEST PUSH0 PUSH1 0x8 DUP4 MUL PUSH2 0x1EEF PUSH32 0xFFFFFFFFFFFFFFFFFFFFFFFFFFFFFFFFFFFFFFFFFFFFFFFFFFFFFFFFFFFFFFFF DUP3 PUSH2 0x1EB4 JUMP JUMPDEST PUSH2 0x1EF9 DUP7 DUP4 PUSH2 0x1EB4 JUMP JUMPDEST SWAP6 POP DUP1 NOT DUP5 AND SWAP4 POP DUP1 DUP7 AND DUP5 OR SWAP3 POP POP POP SWAP4 SWAP3 POP POP POP JUMP JUMPDEST PUSH0 DUP2 SWAP1 POP SWAP2 SWAP1 POP JUMP JUMPDEST PUSH0 PUSH2 0x1F34 PUSH2 0x1F2F PUSH2 0x1F2A DUP5 PUSH2 0x14AE JUMP JUMPDEST PUSH2 0x1F11 JUMP JUMPDEST PUSH2 0x14AE JUMP JUMPDEST SWAP1 POP SWAP2 SWAP1 POP JUMP JUMPDEST PUSH0 DUP2 SWAP1 POP SWAP2 SWAP1 POP JUMP JUMPDEST PUSH2 0x1F4D DUP4 PUSH2 0x1F1A JUMP JUMPDEST PUSH2 0x1F61 PUSH2 0x1F59 DUP3 PUSH2 0x1F3B JUMP JUMPDEST DUP5 DUP5 SLOAD PUSH2 0x1EC0 JUMP JUMPDEST DUP3 SSTORE POP POP POP POP JUMP JUMPDEST PUSH0 PUSH0 SWAP1 POP SWAP1 JUMP JUMPDEST PUSH2 0x1F78 PUSH2 0x1F69 JUMP JUMPDEST PUSH2 0x1F83 DUP2 DUP5 DUP5 PUSH2 0x1F44 JUMP JUMPDEST POP POP POP JUMP JUMPDEST JUMPDEST DUP2 DUP2 LT ISZERO PUSH2 0x1FA6 JUMPI PUSH2 0x1F9B PUSH0 DUP3 PUSH2 0x1F70 JUMP JUMPDEST PUSH1 0x1 DUP2 ADD SWAP1 POP PUSH2 0x1F89 JUMP JUMPDEST POP POP JUMP JUMPDEST PUSH1 0x1F DUP3 GT ISZERO PUSH2 0x1FEB JUMPI PUSH2 0x1FBC DUP2 PUSH2 0x1E93 JUMP JUMPDEST PUSH2 0x1FC5 DUP5 PUSH2 0x1EA5 JUMP JUMPDEST DUP2 ADD PUSH1 0x20 DUP6 LT ISZERO PUSH2 0x1FD4 JUMPI DUP2 SWAP1 POP JUMPDEST PUSH2 0x1FE8 PUSH2 0x1FE0 DUP6 PUSH2 0x1EA5 JUMP JUMPDEST DUP4 ADD DUP3 PUSH2 0x1F88 JUMP JUMPDEST POP POP JUMPDEST POP POP POP JUMP JUMPDEST PUSH0 DUP3 DUP3 SHR SWAP1 POP SWAP3 SWAP2 POP POP JUMP JUMPDEST PUSH0 PUSH2 0x200B PUSH0 NOT DUP5 PUSH1 0x8 MUL PUSH2 0x1FF0 JUMP JUMPDEST NOT DUP1 DUP4 AND SWAP2 POP POP SWAP3 SWAP2 POP POP JUMP JUMPDEST PUSH0 PUSH2 0x2023 DUP4 DUP4 PUSH2 0x1FFC JUMP JUMPDEST SWAP2 POP DUP3 PUSH1 0x2 MUL DUP3 OR SWAP1 POP SWAP3 SWAP2 POP POP JUMP JUMPDEST PUSH2 0x203C DUP3 PUSH2 0x1544 JUMP JUMPDEST PUSH8 0xFFFFFFFFFFFFFFFF DUP2 GT ISZERO PUSH2 0x2055 JUMPI PUSH2 0x2054 PUSH2 0x1CC7 JUMP JUMPDEST JUMPDEST PUSH2 0x205F DUP3 SLOAD PUSH2 0x1D21 JUMP JUMPDEST PUSH2 0x206A DUP3 DUP3 DUP6 PUSH2 0x1FAA JUMP JUMPDEST PUSH0 PUSH1 0x20 SWAP1 POP PUSH1 0x1F DUP4 GT PUSH1 0x1 DUP2 EQ PUSH2 0x209B JUMPI PUSH0 DUP5 ISZERO PUSH2 0x2089 JUMPI DUP3 DUP8 ADD MLOAD SWAP1 POP JUMPDEST PUSH2 0x2093 DUP6 DUP3 PUSH2 0x2018 JUMP JUMPDEST DUP7 SSTORE POP PUSH2 0x20FA JUMP JUMPDEST PUSH1 0x1F NOT DUP5 AND PUSH2 0x20A9 DUP7 PUSH2 0x1E93 JUMP JUMPDEST PUSH0 JUMPDEST DUP3 DUP2 LT ISZERO PUSH2 0x20D0 JUMPI DUP5 DUP10 ADD MLOAD DUP3 SSTORE PUSH1 0x1 DUP3 ADD SWAP2 POP PUSH1 0x20 DUP6 ADD SWAP5 POP PUSH1 0x20 DUP2 ADD SWAP1 POP PUSH2 0x20AB JUMP JUMPDEST DUP7 DUP4 LT ISZERO PUSH2 0x20ED JUMPI DUP5 DUP10 ADD MLOAD PUSH2 0x20E9 PUSH1 0x1F DUP10 AND DUP3 PUSH2 0x1FFC JUMP JUMPDEST DUP4 SSTORE POP JUMPDEST PUSH1 0x1 PUSH1 0x2 DUP9 MUL ADD DUP9 SSTORE POP POP POP JUMPDEST POP POP POP POP POP POP JUMP JUMPDEST PUSH32 0x506F737420646F65736E27742065786973740000000000000000000000000000 PUSH0 DUP3 ADD MSTORE POP JUMP JUMPDEST PUSH0 PUSH2 0x2136 PUSH1 0x12 DUP4 PUSH2 0x1B52 JUMP JUMPDEST SWAP2 POP PUSH2 0x2141 DUP3 PUSH2 0x2102 JUMP JUMPDEST PUSH1 0x20 DUP3 ADD SWAP1 POP SWAP2 SWAP1 POP JUMP JUMPDEST PUSH0 PUSH1 0x20 DUP3 ADD SWAP1 POP DUP2 DUP2 SUB PUSH0 DUP4 ADD MSTORE PUSH2 0x2163 DUP2 PUSH2 0x212A JUMP JUMPDEST SWAP1 POP SWAP2 SWAP1 POP JUMP JUMPDEST PUSH0 PUSH2 0x2174 DUP3 PUSH2 0x14AE JUMP JUMPDEST SWAP2 POP PUSH0 DUP3 SUB PUSH2 0x2186 JUMPI PUSH2 0x2185 PUSH2 0x1D51 JUMP JUMPDEST JUMPDEST PUSH1 0x1 DUP3 SUB SWAP1 POP SWAP2 SWAP1 POP JUMP JUMPDEST PUSH32 0x636F6E74656E742073686F756C642062652061746C65617374206C6574746572 PUSH0 DUP3 ADD MSTORE PUSH32 0x2033000000000000000000000000000000000000000000000000000000000000 PUSH1 0x20 DUP3 ADD MSTORE POP JUMP JUMPDEST PUSH0 PUSH2 0x21EB PUSH1 0x22 DUP4 PUSH2 0x1B52 JUMP JUMPDEST SWAP2 POP PUSH2 0x21F6 DUP3 PUSH2 0x2191 JUMP JUMPDEST PUSH1 0x40 DUP3 ADD SWAP1 POP SWAP2 SWAP1 POP JUMP JUMPDEST PUSH0 PUSH1 0x20 DUP3 ADD SWAP1 POP DUP2 DUP2 SUB PUSH0 DUP4 ADD MSTORE PUSH2 0x2218 DUP2 PUSH2 0x21DF JUMP JUMPDEST SWAP1 POP SWAP2 SWAP1 POP JUMP JUMPDEST PUSH0 DUP3 SWAP1 POP SWAP3 SWAP2 POP POP JUMP JUMPDEST PUSH2 0x2233 DUP4 DUP4 PUSH2 0x221F JUMP JUMPDEST PUSH8 0xFFFFFFFFFFFFFFFF DUP2 GT ISZERO PUSH2 0x224C JUMPI PUSH2 0x224B PUSH2 0x1CC7 JUMP JUMPDEST JUMPDEST PUSH2 0x2256 DUP3 SLOAD PUSH2 0x1D21 JUMP JUMPDEST PUSH2 0x2261 DUP3 DUP3 DUP6 PUSH2 0x1FAA JUMP JUMPDEST PUSH0 PUSH1 0x1F DUP4 GT PUSH1 0x1 DUP2 EQ PUSH2 0x228E JUMPI PUSH0 DUP5 ISZERO PUSH2 0x227C JUMPI DUP3 DUP8 ADD CALLDATALOAD SWAP1 POP JUMPDEST PUSH2 0x2286 DUP6 DUP3 PUSH2 0x2018 JUMP JUMPDEST DUP7 SSTORE POP PUSH2 0x22ED JUMP JUMPDEST PUSH1 0x1F NOT DUP5 AND PUSH2 0x229C DUP7 PUSH2 0x1E93 JUMP JUMPDEST PUSH0 JUMPDEST DUP3 DUP2 LT ISZERO PUSH2 0x22C3 JUMPI DUP5 DUP10 ADD CALLDATALOAD DUP3 SSTORE PUSH1 0x1 DUP3 ADD SWAP2 POP PUSH1 0x20 DUP6 ADD SWAP5 POP PUSH1 0x20 DUP2 ADD SWAP1 POP PUSH2 0x229E JUMP JUMPDEST DUP7 DUP4 LT ISZERO PUSH2 0x22E0 JUMPI DUP5 DUP10 ADD CALLDATALOAD PUSH2 0x22DC PUSH1 0x1F DUP10 AND DUP3 PUSH2 0x1FFC JUMP JUMPDEST DUP4 SSTORE POP JUMPDEST PUSH1 0x1 PUSH1 0x2 DUP9 MUL ADD DUP9 SSTORE POP POP POP JUMPDEST POP POP POP POP POP POP POP JUMP JUMPDEST DUP3 DUP2 DUP4 CALLDATACOPY PUSH0 DUP4 DUP4 ADD MSTORE POP POP POP JUMP JUMPDEST PUSH0 PUSH2 0x230F DUP4 DUP6 PUSH2 0x1B52 JUMP JUMPDEST SWAP4 POP PUSH2 0x231C DUP4 DUP6 DUP5 PUSH2 0x22F6 JUMP JUMPDEST PUSH2 0x2325 DUP4 PUSH2 0x156C JUMP JUMPDEST DUP5 ADD SWAP1 POP SWAP4 SWAP3 POP POP POP JUMP JUMPDEST PUSH0 PUSH1 0x80 DUP3 ADD SWAP1 POP PUSH2 0x2343 PUSH0 DUP4 ADD DUP9 PUSH2 0x1A93 JUMP JUMPDEST PUSH2 0x2350 PUSH1 0x20 DUP4 ADD DUP8 PUSH2 0x1A93 JUMP JUMPDEST DUP2 DUP2 SUB PUSH1 0x40 DUP4 ADD MSTORE PUSH2 0x2363 DUP2 DUP6 DUP8 PUSH2 0x2304 JUMP JUMPDEST SWAP1 POP PUSH2 0x2372 PUSH1 0x60 DUP4 ADD DUP5 PUSH2 0x1A93 JUMP JUMPDEST SWAP7 SWAP6 POP POP POP POP POP POP JUMP JUMPDEST PUSH32 0x796F7520646F6E27742068617665207468697320706F73740000000000000000 PUSH0 DUP3 ADD MSTORE POP JUMP JUMPDEST PUSH0 PUSH2 0x23B0 PUSH1 0x18 DUP4 PUSH2 0x1B52 JUMP JUMPDEST SWAP2 POP PUSH2 0x23BB DUP3 PUSH2 0x237C JUMP JUMPDEST PUSH1 0x20 DUP3 ADD SWAP1 POP SWAP2 SWAP1 POP JUMP JUMPDEST PUSH0 PUSH1 0x20 DUP3 ADD SWAP1 POP DUP2 DUP2 SUB PUSH0 DUP4 ADD MSTORE PUSH2 0x23DD DUP2 PUSH2 0x23A4 JUMP JUMPDEST SWAP1 POP SWAP2 SWAP1 POP JUMP INVALID LOG2 PUSH5 0x6970667358 0x22 SLT KECCAK256 0xD7 BLOBBASEFEE RETURNDATASIZE JUMPF 0x1A25 PUSH24 0x139A87F5414FB1639C0BEA78B431CC252C730BACFC44583A SWAP8 PUSH5 0x736F6C6343 STOP ADDMOD 0x1E STOP CALLER "
		},
		"gasEstimates": {
			"creation": {
				"codeDepositCost": "1848400",
				"executionCost": "infinite",
				"totalCost": "infinite"
			},
			"external": {
				"commentOnPost(uint256,string)": "infinite",
				"createPost(string)": "infinite",
				"deletePost(uint256)": "infinite",
				"editPost(uint256,string)": "infinite",
				"getCommentsByPost(uint256,uint256,uint256)": "infinite",
				"getPostById(uint256)": "infinite",
				"getPostCommentCount(uint256)": "infinite",
				"getPostLikeCount(uint256)": "infinite",
				"getPostsByUser(uint256)": "infinite",
				"getTotalPostCount()": "2528",
				"hasUserLikedPost(uint256,uint256)": "infinite",
				"togglePostLike(uint256)": "infinite"
			},
			"internal": {
				"_postExists(uint256)": "2247"
			}
		},
		"methodIdentifiers": {
			"commentOnPost(uint256,string)": "64732154",
			"createPost(string)": "c7303c61",
			"deletePost(uint256)": "094cd5ee",
			"editPost(uint256,string)": "fa99654a",
			"getCommentsByPost(uint256,uint256,uint256)": "60f74377",
			"getPostById(uint256)": "64e95895",
			"getPostCommentCount(uint256)": "d0446c41",
			"getPostLikeCount(uint256)": "d6e93896",
			"getPostsByUser(uint256)": "211117ff",
			"getTotalPostCount()": "efbe8469",
			"hasUserLikedPost(uint256,uint256)": "65aa1ed9",
			"togglePostLike(uint256)": "96f25073"
		}
	},
	"abi": [
		{
			"inputs": [
				{
					"internalType": "address",
					"name": "_profileManagerAddress",
					"type": "address"
				}
			],
			"stateMutability": "nonpayable",
			"type": "constructor"
		},
		{
			"anonymous": false,
			"inputs": [
				{
					"indexed": false,
					"internalType": "uint256",
					"name": "postId",
					"type": "uint256"
				},
				{
					"indexed": false,
					"internalType": "uint256",
					"name": "ownerId",
					"type": "uint256"
				},
				{
					"indexed": false,
					"internalType": "string",
					"name": "content",
					"type": "string"
				},
				{
					"indexed": false,
					"internalType": "uint256",
					"name": "createdAt",
					"type": "uint256"
				}
			],
			"name": "PostCreated",
			"type": "event"
		},
		{
			"inputs": [
				{
					"internalType": "uint256",
					"name": "_postId",
					"type": "uint256"
				},
				{
					"internalType": "string",
					"name": "_content",
					"type": "string"
				}
			],
			"name": "commentOnPost",
			"outputs": [],
			"stateMutability": "nonpayable",
			"type": "function"
		},
		{
			"inputs": [
				{
					"internalType": "string",
					"name": "_content",
					"type": "string"
				}
			],
			"name": "createPost",
			"outputs": [],
			"stateMutability": "nonpayable",
			"type": "function"
		},
		{
			"inputs": [
				{
					"internalType": "uint256",
					"name": "_postId",
					"type": "uint256"
				}
			],
			"name": "deletePost",
			"outputs": [],
			"stateMutability": "nonpayable",
			"type": "function"
		},
		{
			"inputs": [
				{
					"internalType": "uint256",
					"name": "_postId",
					"type": "uint256"
				},
				{
					"internalType": "string",
					"name": "_content",
					"type": "string"
				}
			],
			"name": "editPost",
			"outputs": [],
			"stateMutability": "nonpayable",
			"type": "function"
		},
		{
			"inputs": [
				{
					"internalType": "uint256",
					"name": "_postId",
					"type": "uint256"
				},
				{
					"internalType": "uint256",
					"name": "_offset",
					"type": "uint256"
				},
				{
					"internalType": "uint256",
					"name": "_limit",
					"type": "uint256"
				}
			],
			"name": "getCommentsByPost",
			"outputs": [
				{
					"components": [
						{
							"internalType": "uint256",
							"name": "commentId",
							"type": "uint256"
						},
						{
							"internalType": "uint256",
							"name": "postId",
							"type": "uint256"
						},
						{
							"internalType": "uint256",
							"name": "authorId",
							"type": "uint256"
						},
						{
							"internalType": "string",
							"name": "content",
							"type": "string"
						},
						{
							"internalType": "uint256",
							"name": "createdAt",
							"type": "uint256"
						}
					],
					"internalType": "struct PostManager.Comment[]",
					"name": "",
					"type": "tuple[]"
				}
			],
			"stateMutability": "view",
			"type": "function"
		},
		{
			"inputs": [
				{
					"internalType": "uint256",
					"name": "_postId",
					"type": "uint256"
				}
			],
			"name": "getPostById",
			"outputs": [
				{
					"components": [
						{
							"internalType": "uint256",
							"name": "ownerId",
							"type": "uint256"
						},
						{
							"internalType": "uint256",
							"name": "postId",
							"type": "uint256"
						},
						{
							"internalType": "string",
							"name": "content",
							"type": "string"
						},
						{
							"internalType": "uint256",
							"name": "createdAt",
							"type": "uint256"
						},
						{
							"internalType": "bool",
							"name": "isDeleted",
							"type": "bool"
						}
					],
					"internalType": "struct PostManager.Post",
					"name": "",
					"type": "tuple"
				}
			],
			"stateMutability": "view",
			"type": "function"
		},
		{
			"inputs": [
				{
					"internalType": "uint256",
					"name": "_postId",
					"type": "uint256"
				}
			],
			"name": "getPostCommentCount",
			"outputs": [
				{
					"internalType": "uint256",
					"name": "",
					"type": "uint256"
				}
			],
			"stateMutability": "view",
			"type": "function"
		},
		{
			"inputs": [
				{
					"internalType": "uint256",
					"name": "_postId",
					"type": "uint256"
				}
			],
			"name": "getPostLikeCount",
			"outputs": [
				{
					"internalType": "uint256",
					"name": "",
					"type": "uint256"
				}
			],
			"stateMutability": "view",
			"type": "function"
		},
		{
			"inputs": [
				{
					"internalType": "uint256",
					"name": "userId",
					"type": "uint256"
				}
			],
			"name": "getPostsByUser",
			"outputs": [
				{
					"components": [
						{
							"internalType": "uint256",
							"name": "ownerId",
							"type": "uint256"
						},
						{
							"internalType": "uint256",
							"name": "postId",
							"type": "uint256"
						},
						{
							"internalType": "string",
							"name": "content",
							"type": "string"
						},
						{
							"internalType": "uint256",
							"name": "createdAt",
							"type": "uint256"
						},
						{
							"internalType": "bool",
							"name": "isDeleted",
							"type": "bool"
						}
					],
					"internalType": "struct PostManager.Post[]",
					"name": "",
					"type": "tuple[]"
				}
			],
			"stateMutability": "view",
			"type": "function"
		},
		{
			"inputs": [],
			"name": "getTotalPostCount",
			"outputs": [
				{
					"internalType": "uint256",
					"name": "",
					"type": "uint256"
				}
			],
			"stateMutability": "view",
			"type": "function"
		},
		{
			"inputs": [
				{
					"internalType": "uint256",
					"name": "_postId",
					"type": "uint256"
				},
				{
					"internalType": "uint256",
					"name": "_userId",
					"type": "uint256"
				}
			],
			"name": "hasUserLikedPost",
			"outputs": [
				{
					"internalType": "bool",
					"name": "",
					"type": "bool"
				}
			],
			"stateMutability": "view",
			"type": "function"
		},
		{
			"inputs": [
				{
					"internalType": "uint256",
					"name": "_postId",
					"type": "uint256"
				}
			],
			"name": "togglePostLike",
			"outputs": [],
			"stateMutability": "nonpayable",
			"type": "function"
		}
	]
}