{
	"data": {
		"bytecode": {
			"linkReferences": {},
			"object": "608060405234801561000f575f5ffd5b50604051610a28380380610a28833981810160405281019061003191906100d5565b8060015f6101000a81548173ffffffffffffffffffffffffffffffffffffffff021916908373ffffffffffffffffffffffffffffffffffffffff16021790555050610100565b5f5ffd5b5f73ffffffffffffffffffffffffffffffffffffffff82169050919050565b5f6100a48261007b565b9050919050565b6100b48161009a565b81146100be575f5ffd5b50565b5f815190506100cf816100ab565b92915050565b5f602082840312156100ea576100e9610077565b5b5f6100f7848285016100c1565b91505092915050565b61091b8061010d5f395ff3fe608060405234801561000f575f5ffd5b5060043610610034575f3560e01c80630b1e7f8314610038578063c7303c611461006b575b5f5ffd5b610052600480360381019061004d91906102b3565b610087565b604051610062949392919061035d565b60405180910390f35b61008560048036038101906100809190610408565b610139565b005b6002602052805f5260405f205f91509050805f0154908060010154908060020180546100b290610480565b80601f01602080910402602001604051908101604052809291908181526020018280546100de90610480565b80156101295780601f1061010057610100808354040283529160200191610129565b820191905f5260205f20905b81548152906001019060200180831161010c57829003601f168201915b5050505050908060050154905084565b5f5f81548092919061014a906104dd565b91905055505f5f5490505f60015f9054906101000a900473ffffffffffffffffffffffffffffffffffffffff1673ffffffffffffffffffffffffffffffffffffffff166326567eec336040518263ffffffff1660e01b81526004016101af9190610563565b602060405180830381865afa1580156101ca573d5f5f3e3d5ffd5b505050506040513d601f19601f820116820180604052508101906101ee9190610590565b90505f60025f8481526020019081526020015f20905081815f01819055508281600101819055508484826002019182610228929190610792565b504281600501819055507f9d8ba7605d631183923c2b8e95cd748a3f7bad1c3cab55df446fea93c84980ef8383878742604051610269959493929190610899565b60405180910390a15050505050565b5f5ffd5b5f5ffd5b5f819050919050565b61029281610280565b811461029c575f5ffd5b50565b5f813590506102ad81610289565b92915050565b5f602082840312156102c8576102c7610278565b5b5f6102d58482850161029f565b91505092915050565b6102e781610280565b82525050565b5f81519050919050565b5f82825260208201905092915050565b8281835e5f83830152505050565b5f601f19601f8301169050919050565b5f61032f826102ed565b61033981856102f7565b9350610349818560208601610307565b61035281610315565b840191505092915050565b5f6080820190506103705f8301876102de565b61037d60208301866102de565b818103604083015261038f8185610325565b905061039e60608301846102de565b95945050505050565b5f5ffd5b5f5ffd5b5f5ffd5b5f5f83601f8401126103c8576103c76103a7565b5b8235905067ffffffffffffffff8111156103e5576103e46103ab565b5b602083019150836001820283011115610401576104006103af565b5b9250929050565b5f5f6020838503121561041e5761041d610278565b5b5f83013567ffffffffffffffff81111561043b5761043a61027c565b5b610447858286016103b3565b92509250509250929050565b7f4e487b71000000000000000000000000000000000000000000000000000000005f52602260045260245ffd5b5f600282049050600182168061049757607f821691505b6020821081036104aa576104a9610453565b5b50919050565b7f4e487b71000000000000000000000000000000000000000000000000000000005f52601160045260245ffd5b5f6104e782610280565b91507fffffffffffffffffffffffffffffffffffffffffffffffffffffffffffffffff8203610519576105186104b0565b5b600182019050919050565b5f73ffffffffffffffffffffffffffffffffffffffff82169050919050565b5f61054d82610524565b9050919050565b61055d81610543565b82525050565b5f6020820190506105765f830184610554565b92915050565b5f8151905061058a81610289565b92915050565b5f602082840312156105a5576105a4610278565b5b5f6105b28482850161057c565b91505092915050565b5f82905092915050565b7f4e487b71000000000000000000000000000000000000000000000000000000005f52604160045260245ffd5b5f819050815f5260205f209050919050565b5f6020601f8301049050919050565b5f82821b905092915050565b5f6008830261064e7fffffffffffffffffffffffffffffffffffffffffffffffffffffffffffffffff82610613565b6106588683610613565b95508019841693508086168417925050509392505050565b5f819050919050565b5f61069361068e61068984610280565b610670565b610280565b9050919050565b5f819050919050565b6106ac83610679565b6106c06106b88261069a565b84845461061f565b825550505050565b5f5f905090565b6106d76106c8565b6106e28184846106a3565b505050565b5b81811015610705576106fa5f826106cf565b6001810190506106e8565b5050565b601f82111561074a5761071b816105f2565b61072484610604565b81016020851015610733578190505b61074761073f85610604565b8301826106e7565b50505b505050565b5f82821c905092915050565b5f61076a5f198460080261074f565b1980831691505092915050565b5f610782838361075b565b9150826002028217905092915050565b61079c83836105bb565b67ffffffffffffffff8111156107b5576107b46105c5565b5b6107bf8254610480565b6107ca828285610709565b5f601f8311600181146107f7575f84156107e5578287013590505b6107ef8582610777565b865550610856565b601f198416610805866105f2565b5f5b8281101561082c57848901358255600182019150602085019450602081019050610807565b868310156108495784890135610845601f89168261075b565b8355505b6001600288020188555050505b50505050505050565b828183375f83830152505050565b5f61087883856102f7565b935061088583858461085f565b61088e83610315565b840190509392505050565b5f6080820190506108ac5f8301886102de565b6108b960208301876102de565b81810360408301526108cc81858761086d565b90506108db60608301846102de565b969550505050505056fea264697066735822122078e42b69caee0cd3a78297fd9831605b6cc4e37c040d0d69ae4763d8e18380c164736f6c634300081e0033",
			"opcodes": "PUSH1 0x80 PUSH1 0x40 MSTORE CALLVALUE DUP1 ISZERO PUSH2 0xF JUMPI PUSH0 PUSH0 REVERT JUMPDEST POP PUSH1 0x40 MLOAD PUSH2 0xA28 CODESIZE SUB DUP1 PUSH2 0xA28 DUP4 CODECOPY DUP2 DUP2 ADD PUSH1 0x40 MSTORE DUP2 ADD SWAP1 PUSH2 0x31 SWAP2 SWAP1 PUSH2 0xD5 JUMP JUMPDEST DUP1 PUSH1 0x1 PUSH0 PUSH2 0x100 EXP DUP2 SLOAD DUP2 PUSH20 0xFFFFFFFFFFFFFFFFFFFFFFFFFFFFFFFFFFFFFFFF MUL NOT AND SWAP1 DUP4 PUSH20 0xFFFFFFFFFFFFFFFFFFFFFFFFFFFFFFFFFFFFFFFF AND MUL OR SWAP1 SSTORE POP POP PUSH2 0x100 JUMP JUMPDEST PUSH0 PUSH0 REVERT JUMPDEST PUSH0 PUSH20 0xFFFFFFFFFFFFFFFFFFFFFFFFFFFFFFFFFFFFFFFF DUP3 AND SWAP1 POP SWAP2 SWAP1 POP JUMP JUMPDEST PUSH0 PUSH2 0xA4 DUP3 PUSH2 0x7B JUMP JUMPDEST SWAP1 POP SWAP2 SWAP1 POP JUMP JUMPDEST PUSH2 0xB4 DUP2 PUSH2 0x9A JUMP JUMPDEST DUP2 EQ PUSH2 0xBE JUMPI PUSH0 PUSH0 REVERT JUMPDEST POP JUMP JUMPDEST PUSH0 DUP2 MLOAD SWAP1 POP PUSH2 0xCF DUP2 PUSH2 0xAB JUMP JUMPDEST SWAP3 SWAP2 POP POP JUMP JUMPDEST PUSH0 PUSH1 0x20 DUP3 DUP5 SUB SLT ISZERO PUSH2 0xEA JUMPI PUSH2 0xE9 PUSH2 0x77 JUMP JUMPDEST JUMPDEST PUSH0 PUSH2 0xF7 DUP5 DUP3 DUP6 ADD PUSH2 0xC1 JUMP JUMPDEST SWAP2 POP POP SWAP3 SWAP2 POP POP JUMP JUMPDEST PUSH2 0x91B DUP1 PUSH2 0x10D PUSH0 CODECOPY PUSH0 RETURN INVALID PUSH1 0x80 PUSH1 0x40 MSTORE CALLVALUE DUP1 ISZERO PUSH2 0xF JUMPI PUSH0 PUSH0 REVERT JUMPDEST POP PUSH1 0x4 CALLDATASIZE LT PUSH2 0x34 JUMPI PUSH0 CALLDATALOAD PUSH1 0xE0 SHR DUP1 PUSH4 0xB1E7F83 EQ PUSH2 0x38 JUMPI DUP1 PUSH4 0xC7303C61 EQ PUSH2 0x6B JUMPI JUMPDEST PUSH0 PUSH0 REVERT JUMPDEST PUSH2 0x52 PUSH1 0x4 DUP1 CALLDATASIZE SUB DUP2 ADD SWAP1 PUSH2 0x4D SWAP2 SWAP1 PUSH2 0x2B3 JUMP JUMPDEST PUSH2 0x87 JUMP JUMPDEST PUSH1 0x40 MLOAD PUSH2 0x62 SWAP5 SWAP4 SWAP3 SWAP2 SWAP1 PUSH2 0x35D JUMP JUMPDEST PUSH1 0x40 MLOAD DUP1 SWAP2 SUB SWAP1 RETURN JUMPDEST PUSH2 0x85 PUSH1 0x4 DUP1 CALLDATASIZE SUB DUP2 ADD SWAP1 PUSH2 0x80 SWAP2 SWAP1 PUSH2 0x408 JUMP JUMPDEST PUSH2 0x139 JUMP JUMPDEST STOP JUMPDEST PUSH1 0x2 PUSH1 0x20 MSTORE DUP1 PUSH0 MSTORE PUSH1 0x40 PUSH0 KECCAK256 PUSH0 SWAP2 POP SWAP1 POP DUP1 PUSH0 ADD SLOAD SWAP1 DUP1 PUSH1 0x1 ADD SLOAD SWAP1 DUP1 PUSH1 0x2 ADD DUP1 SLOAD PUSH2 0xB2 SWAP1 PUSH2 0x480 JUMP JUMPDEST DUP1 PUSH1 0x1F ADD PUSH1 0x20 DUP1 SWAP2 DIV MUL PUSH1 0x20 ADD PUSH1 0x40 MLOAD SWAP1 DUP2 ADD PUSH1 0x40 MSTORE DUP1 SWAP3 SWAP2 SWAP1 DUP2 DUP2 MSTORE PUSH1 0x20 ADD DUP3 DUP1 SLOAD PUSH2 0xDE SWAP1 PUSH2 0x480 JUMP JUMPDEST DUP1 ISZERO PUSH2 0x129 JUMPI DUP1 PUSH1 0x1F LT PUSH2 0x100 JUMPI PUSH2 0x100 DUP1 DUP4 SLOAD DIV MUL DUP4 MSTORE SWAP2 PUSH1 0x20 ADD SWAP2 PUSH2 0x129 JUMP JUMPDEST DUP3 ADD SWAP2 SWAP1 PUSH0 MSTORE PUSH1 0x20 PUSH0 KECCAK256 SWAP1 JUMPDEST DUP2 SLOAD DUP2 MSTORE SWAP1 PUSH1 0x1 ADD SWAP1 PUSH1 0x20 ADD DUP1 DUP4 GT PUSH2 0x10C JUMPI DUP3 SWAP1 SUB PUSH1 0x1F AND DUP3 ADD SWAP2 JUMPDEST POP POP POP POP POP SWAP1 DUP1 PUSH1 0x5 ADD SLOAD SWAP1 POP DUP5 JUMP JUMPDEST PUSH0 PUSH0 DUP2 SLOAD DUP1 SWAP3 SWAP2 SWAP1 PUSH2 0x14A SWAP1 PUSH2 0x4DD JUMP JUMPDEST SWAP2 SWAP1 POP SSTORE POP PUSH0 PUSH0 SLOAD SWAP1 POP PUSH0 PUSH1 0x1 PUSH0 SWAP1 SLOAD SWAP1 PUSH2 0x100 EXP SWAP1 DIV PUSH20 0xFFFFFFFFFFFFFFFFFFFFFFFFFFFFFFFFFFFFFFFF AND PUSH20 0xFFFFFFFFFFFFFFFFFFFFFFFFFFFFFFFFFFFFFFFF AND PUSH4 0x26567EEC CALLER PUSH1 0x40 MLOAD DUP3 PUSH4 0xFFFFFFFF AND PUSH1 0xE0 SHL DUP2 MSTORE PUSH1 0x4 ADD PUSH2 0x1AF SWAP2 SWAP1 PUSH2 0x563 JUMP JUMPDEST PUSH1 0x20 PUSH1 0x40 MLOAD DUP1 DUP4 SUB DUP2 DUP7 GAS STATICCALL ISZERO DUP1 ISZERO PUSH2 0x1CA JUMPI RETURNDATASIZE PUSH0 PUSH0 RETURNDATACOPY RETURNDATASIZE PUSH0 REVERT JUMPDEST POP POP POP POP PUSH1 0x40 MLOAD RETURNDATASIZE PUSH1 0x1F NOT PUSH1 0x1F DUP3 ADD AND DUP3 ADD DUP1 PUSH1 0x40 MSTORE POP DUP2 ADD SWAP1 PUSH2 0x1EE SWAP2 SWAP1 PUSH2 0x590 JUMP JUMPDEST SWAP1 POP PUSH0 PUSH1 0x2 PUSH0 DUP5 DUP2 MSTORE PUSH1 0x20 ADD SWAP1 DUP2 MSTORE PUSH1 0x20 ADD PUSH0 KECCAK256 SWAP1 POP DUP2 DUP2 PUSH0 ADD DUP2 SWAP1 SSTORE POP DUP3 DUP2 PUSH1 0x1 ADD DUP2 SWAP1 SSTORE POP DUP5 DUP5 DUP3 PUSH1 0x2 ADD SWAP2 DUP3 PUSH2 0x228 SWAP3 SWAP2 SWAP1 PUSH2 0x792 JUMP JUMPDEST POP TIMESTAMP DUP2 PUSH1 0x5 ADD DUP2 SWAP1 SSTORE POP PUSH32 0x9D8BA7605D631183923C2B8E95CD748A3F7BAD1C3CAB55DF446FEA93C84980EF DUP4 DUP4 DUP8 DUP8 TIMESTAMP PUSH1 0x40 MLOAD PUSH2 0x269 SWAP6 SWAP5 SWAP4 SWAP3 SWAP2 SWAP1 PUSH2 0x899 JUMP JUMPDEST PUSH1 0x40 MLOAD DUP1 SWAP2 SUB SWAP1 LOG1 POP POP POP POP POP JUMP JUMPDEST PUSH0 PUSH0 REVERT JUMPDEST PUSH0 PUSH0 REVERT JUMPDEST PUSH0 DUP2 SWAP1 POP SWAP2 SWAP1 POP JUMP JUMPDEST PUSH2 0x292 DUP2 PUSH2 0x280 JUMP JUMPDEST DUP2 EQ PUSH2 0x29C JUMPI PUSH0 PUSH0 REVERT JUMPDEST POP JUMP JUMPDEST PUSH0 DUP2 CALLDATALOAD SWAP1 POP PUSH2 0x2AD DUP2 PUSH2 0x289 JUMP JUMPDEST SWAP3 SWAP2 POP POP JUMP JUMPDEST PUSH0 PUSH1 0x20 DUP3 DUP5 SUB SLT ISZERO PUSH2 0x2C8 JUMPI PUSH2 0x2C7 PUSH2 0x278 JUMP JUMPDEST JUMPDEST PUSH0 PUSH2 0x2D5 DUP5 DUP3 DUP6 ADD PUSH2 0x29F JUMP JUMPDEST SWAP2 POP POP SWAP3 SWAP2 POP POP JUMP JUMPDEST PUSH2 0x2E7 DUP2 PUSH2 0x280 JUMP JUMPDEST DUP3 MSTORE POP POP JUMP JUMPDEST PUSH0 DUP2 MLOAD SWAP1 POP SWAP2 SWAP1 POP JUMP JUMPDEST PUSH0 DUP3 DUP3 MSTORE PUSH1 0x20 DUP3 ADD SWAP1 POP SWAP3 SWAP2 POP POP JUMP JUMPDEST DUP3 DUP2 DUP4 MCOPY PUSH0 DUP4 DUP4 ADD MSTORE POP POP POP JUMP JUMPDEST PUSH0 PUSH1 0x1F NOT PUSH1 0x1F DUP4 ADD AND SWAP1 POP SWAP2 SWAP1 POP JUMP JUMPDEST PUSH0 PUSH2 0x32F DUP3 PUSH2 0x2ED JUMP JUMPDEST PUSH2 0x339 DUP2 DUP6 PUSH2 0x2F7 JUMP JUMPDEST SWAP4 POP PUSH2 0x349 DUP2 DUP6 PUSH1 0x20 DUP7 ADD PUSH2 0x307 JUMP JUMPDEST PUSH2 0x352 DUP2 PUSH2 0x315 JUMP JUMPDEST DUP5 ADD SWAP2 POP POP SWAP3 SWAP2 POP POP JUMP JUMPDEST PUSH0 PUSH1 0x80 DUP3 ADD SWAP1 POP PUSH2 0x370 PUSH0 DUP4 ADD DUP8 PUSH2 0x2DE JUMP JUMPDEST PUSH2 0x37D PUSH1 0x20 DUP4 ADD DUP7 PUSH2 0x2DE JUMP JUMPDEST DUP2 DUP2 SUB PUSH1 0x40 DUP4 ADD MSTORE PUSH2 0x38F DUP2 DUP6 PUSH2 0x325 JUMP JUMPDEST SWAP1 POP PUSH2 0x39E PUSH1 0x60 DUP4 ADD DUP5 PUSH2 0x2DE JUMP JUMPDEST SWAP6 SWAP5 POP POP POP POP POP JUMP JUMPDEST PUSH0 PUSH0 REVERT JUMPDEST PUSH0 PUSH0 REVERT JUMPDEST PUSH0 PUSH0 REVERT JUMPDEST PUSH0 PUSH0 DUP4 PUSH1 0x1F DUP5 ADD SLT PUSH2 0x3C8 JUMPI PUSH2 0x3C7 PUSH2 0x3A7 JUMP JUMPDEST JUMPDEST DUP3 CALLDATALOAD SWAP1 POP PUSH8 0xFFFFFFFFFFFFFFFF DUP2 GT ISZERO PUSH2 0x3E5 JUMPI PUSH2 0x3E4 PUSH2 0x3AB JUMP JUMPDEST JUMPDEST PUSH1 0x20 DUP4 ADD SWAP2 POP DUP4 PUSH1 0x1 DUP3 MUL DUP4 ADD GT ISZERO PUSH2 0x401 JUMPI PUSH2 0x400 PUSH2 0x3AF JUMP JUMPDEST JUMPDEST SWAP3 POP SWAP3 SWAP1 POP JUMP JUMPDEST PUSH0 PUSH0 PUSH1 0x20 DUP4 DUP6 SUB SLT ISZERO PUSH2 0x41E JUMPI PUSH2 0x41D PUSH2 0x278 JUMP JUMPDEST JUMPDEST PUSH0 DUP4 ADD CALLDATALOAD PUSH8 0xFFFFFFFFFFFFFFFF DUP2 GT ISZERO PUSH2 0x43B JUMPI PUSH2 0x43A PUSH2 0x27C JUMP JUMPDEST JUMPDEST PUSH2 0x447 DUP6 DUP3 DUP7 ADD PUSH2 0x3B3 JUMP JUMPDEST SWAP3 POP SWAP3 POP POP SWAP3 POP SWAP3 SWAP1 POP JUMP JUMPDEST PUSH32 0x4E487B7100000000000000000000000000000000000000000000000000000000 PUSH0 MSTORE PUSH1 0x22 PUSH1 0x4 MSTORE PUSH1 0x24 PUSH0 REVERT JUMPDEST PUSH0 PUSH1 0x2 DUP3 DIV SWAP1 POP PUSH1 0x1 DUP3 AND DUP1 PUSH2 0x497 JUMPI PUSH1 0x7F DUP3 AND SWAP2 POP JUMPDEST PUSH1 0x20 DUP3 LT DUP2 SUB PUSH2 0x4AA JUMPI PUSH2 0x4A9 PUSH2 0x453 JUMP JUMPDEST JUMPDEST POP SWAP2 SWAP1 POP JUMP JUMPDEST PUSH32 0x4E487B7100000000000000000000000000000000000000000000000000000000 PUSH0 MSTORE PUSH1 0x11 PUSH1 0x4 MSTORE PUSH1 0x24 PUSH0 REVERT JUMPDEST PUSH0 PUSH2 0x4E7 DUP3 PUSH2 0x280 JUMP JUMPDEST SWAP2 POP PUSH32 0xFFFFFFFFFFFFFFFFFFFFFFFFFFFFFFFFFFFFFFFFFFFFFFFFFFFFFFFFFFFFFFFF DUP3 SUB PUSH2 0x519 JUMPI PUSH2 0x518 PUSH2 0x4B0 JUMP JUMPDEST JUMPDEST PUSH1 0x1 DUP3 ADD SWAP1 POP SWAP2 SWAP1 POP JUMP JUMPDEST PUSH0 PUSH20 0xFFFFFFFFFFFFFFFFFFFFFFFFFFFFFFFFFFFFFFFF DUP3 AND SWAP1 POP SWAP2 SWAP1 POP JUMP JUMPDEST PUSH0 PUSH2 0x54D DUP3 PUSH2 0x524 JUMP JUMPDEST SWAP1 POP SWAP2 SWAP1 POP JUMP JUMPDEST PUSH2 0x55D DUP2 PUSH2 0x543 JUMP JUMPDEST DUP3 MSTORE POP POP JUMP JUMPDEST PUSH0 PUSH1 0x20 DUP3 ADD SWAP1 POP PUSH2 0x576 PUSH0 DUP4 ADD DUP5 PUSH2 0x554 JUMP JUMPDEST SWAP3 SWAP2 POP POP JUMP JUMPDEST PUSH0 DUP2 MLOAD SWAP1 POP PUSH2 0x58A DUP2 PUSH2 0x289 JUMP JUMPDEST SWAP3 SWAP2 POP POP JUMP JUMPDEST PUSH0 PUSH1 0x20 DUP3 DUP5 SUB SLT ISZERO PUSH2 0x5A5 JUMPI PUSH2 0x5A4 PUSH2 0x278 JUMP JUMPDEST JUMPDEST PUSH0 PUSH2 0x5B2 DUP5 DUP3 DUP6 ADD PUSH2 0x57C JUMP JUMPDEST SWAP2 POP POP SWAP3 SWAP2 POP POP JUMP JUMPDEST PUSH0 DUP3 SWAP1 POP SWAP3 SWAP2 POP POP JUMP JUMPDEST PUSH32 0x4E487B7100000000000000000000000000000000000000000000000000000000 PUSH0 MSTORE PUSH1 0x41 PUSH1 0x4 MSTORE PUSH1 0x24 PUSH0 REVERT JUMPDEST PUSH0 DUP2 SWAP1 POP DUP2 PUSH0 MSTORE PUSH1 0x20 PUSH0 KECCAK256 SWAP1 POP SWAP2 SWAP1 POP JUMP JUMPDEST PUSH0 PUSH1 0x20 PUSH1 0x1F DUP4 ADD DIV SWAP1 POP SWAP2 SWAP1 POP JUMP JUMPDEST PUSH0 DUP3 DUP3 SHL SWAP1 POP SWAP3 SWAP2 POP POP JUMP JUMPDEST PUSH0 PUSH1 0x8 DUP4 MUL PUSH2 0x64E PUSH32 0xFFFFFFFFFFFFFFFFFFFFFFFFFFFFFFFFFFFFFFFFFFFFFFFFFFFFFFFFFFFFFFFF DUP3 PUSH2 0x613 JUMP JUMPDEST PUSH2 0x658 DUP7 DUP4 PUSH2 0x613 JUMP JUMPDEST SWAP6 POP DUP1 NOT DUP5 AND SWAP4 POP DUP1 DUP7 AND DUP5 OR SWAP3 POP POP POP SWAP4 SWAP3 POP POP POP JUMP JUMPDEST PUSH0 DUP2 SWAP1 POP SWAP2 SWAP1 POP JUMP JUMPDEST PUSH0 PUSH2 0x693 PUSH2 0x68E PUSH2 0x689 DUP5 PUSH2 0x280 JUMP JUMPDEST PUSH2 0x670 JUMP JUMPDEST PUSH2 0x280 JUMP JUMPDEST SWAP1 POP SWAP2 SWAP1 POP JUMP JUMPDEST PUSH0 DUP2 SWAP1 POP SWAP2 SWAP1 POP JUMP JUMPDEST PUSH2 0x6AC DUP4 PUSH2 0x679 JUMP JUMPDEST PUSH2 0x6C0 PUSH2 0x6B8 DUP3 PUSH2 0x69A JUMP JUMPDEST DUP5 DUP5 SLOAD PUSH2 0x61F JUMP JUMPDEST DUP3 SSTORE POP POP POP POP JUMP JUMPDEST PUSH0 PUSH0 SWAP1 POP SWAP1 JUMP JUMPDEST PUSH2 0x6D7 PUSH2 0x6C8 JUMP JUMPDEST PUSH2 0x6E2 DUP2 DUP5 DUP5 PUSH2 0x6A3 JUMP JUMPDEST POP POP POP JUMP JUMPDEST JUMPDEST DUP2 DUP2 LT ISZERO PUSH2 0x705 JUMPI PUSH2 0x6FA PUSH0 DUP3 PUSH2 0x6CF JUMP JUMPDEST PUSH1 0x1 DUP2 ADD SWAP1 POP PUSH2 0x6E8 JUMP JUMPDEST POP POP JUMP JUMPDEST PUSH1 0x1F DUP3 GT ISZERO PUSH2 0x74A JUMPI PUSH2 0x71B DUP2 PUSH2 0x5F2 JUMP JUMPDEST PUSH2 0x724 DUP5 PUSH2 0x604 JUMP JUMPDEST DUP2 ADD PUSH1 0x20 DUP6 LT ISZERO PUSH2 0x733 JUMPI DUP2 SWAP1 POP JUMPDEST PUSH2 0x747 PUSH2 0x73F DUP6 PUSH2 0x604 JUMP JUMPDEST DUP4 ADD DUP3 PUSH2 0x6E7 JUMP JUMPDEST POP POP JUMPDEST POP POP POP JUMP JUMPDEST PUSH0 DUP3 DUP3 SHR SWAP1 POP SWAP3 SWAP2 POP POP JUMP JUMPDEST PUSH0 PUSH2 0x76A PUSH0 NOT DUP5 PUSH1 0x8 MUL PUSH2 0x74F JUMP JUMPDEST NOT DUP1 DUP4 AND SWAP2 POP POP SWAP3 SWAP2 POP POP JUMP JUMPDEST PUSH0 PUSH2 0x782 DUP4 DUP4 PUSH2 0x75B JUMP JUMPDEST SWAP2 POP DUP3 PUSH1 0x2 MUL DUP3 OR SWAP1 POP SWAP3 SWAP2 POP POP JUMP JUMPDEST PUSH2 0x79C DUP4 DUP4 PUSH2 0x5BB JUMP JUMPDEST PUSH8 0xFFFFFFFFFFFFFFFF DUP2 GT ISZERO PUSH2 0x7B5 JUMPI PUSH2 0x7B4 PUSH2 0x5C5 JUMP JUMPDEST JUMPDEST PUSH2 0x7BF DUP3 SLOAD PUSH2 0x480 JUMP JUMPDEST PUSH2 0x7CA DUP3 DUP3 DUP6 PUSH2 0x709 JUMP JUMPDEST PUSH0 PUSH1 0x1F DUP4 GT PUSH1 0x1 DUP2 EQ PUSH2 0x7F7 JUMPI PUSH0 DUP5 ISZERO PUSH2 0x7E5 JUMPI DUP3 DUP8 ADD CALLDATALOAD SWAP1 POP JUMPDEST PUSH2 0x7EF DUP6 DUP3 PUSH2 0x777 JUMP JUMPDEST DUP7 SSTORE POP PUSH2 0x856 JUMP JUMPDEST PUSH1 0x1F NOT DUP5 AND PUSH2 0x805 DUP7 PUSH2 0x5F2 JUMP JUMPDEST PUSH0 JUMPDEST DUP3 DUP2 LT ISZERO PUSH2 0x82C JUMPI DUP5 DUP10 ADD CALLDATALOAD DUP3 SSTORE PUSH1 0x1 DUP3 ADD SWAP2 POP PUSH1 0x20 DUP6 ADD SWAP5 POP PUSH1 0x20 DUP2 ADD SWAP1 POP PUSH2 0x807 JUMP JUMPDEST DUP7 DUP4 LT ISZERO PUSH2 0x849 JUMPI DUP5 DUP10 ADD CALLDATALOAD PUSH2 0x845 PUSH1 0x1F DUP10 AND DUP3 PUSH2 0x75B JUMP JUMPDEST DUP4 SSTORE POP JUMPDEST PUSH1 0x1 PUSH1 0x2 DUP9 MUL ADD DUP9 SSTORE POP POP POP JUMPDEST POP POP POP POP POP POP POP JUMP JUMPDEST DUP3 DUP2 DUP4 CALLDATACOPY PUSH0 DUP4 DUP4 ADD MSTORE POP POP POP JUMP JUMPDEST PUSH0 PUSH2 0x878 DUP4 DUP6 PUSH2 0x2F7 JUMP JUMPDEST SWAP4 POP PUSH2 0x885 DUP4 DUP6 DUP5 PUSH2 0x85F JUMP JUMPDEST PUSH2 0x88E DUP4 PUSH2 0x315 JUMP JUMPDEST DUP5 ADD SWAP1 POP SWAP4 SWAP3 POP POP POP JUMP JUMPDEST PUSH0 PUSH1 0x80 DUP3 ADD SWAP1 POP PUSH2 0x8AC PUSH0 DUP4 ADD DUP9 PUSH2 0x2DE JUMP JUMPDEST PUSH2 0x8B9 PUSH1 0x20 DUP4 ADD DUP8 PUSH2 0x2DE JUMP JUMPDEST DUP2 DUP2 SUB PUSH1 0x40 DUP4 ADD MSTORE PUSH2 0x8CC DUP2 DUP6 DUP8 PUSH2 0x86D JUMP JUMPDEST SWAP1 POP PUSH2 0x8DB PUSH1 0x60 DUP4 ADD DUP5 PUSH2 0x2DE JUMP JUMPDEST SWAP7 SWAP6 POP POP POP POP POP POP JUMP INVALID LOG2 PUSH5 0x6970667358 0x22 SLT KECCAK256 PUSH25 0xE42B69CAEE0CD3A78297FD9831605B6CC4E37C040D0D69AE47 PUSH4 0xD8E18380 0xC1 PUSH5 0x736F6C6343 STOP ADDMOD 0x1E STOP CALLER "
		},
		"gasEstimates": {
			"creation": {
				"codeDepositCost": "466200",
				"executionCost": "infinite",
				"totalCost": "infinite"
			},
			"external": {
				"createPost(string)": "infinite",
				"posts(uint256)": "infinite"
			}
		},
		"methodIdentifiers": {
			"createPost(string)": "c7303c61",
			"posts(uint256)": "0b1e7f83"
		}
	},
	"abi": [
		{
			"inputs": [
				{
					"internalType": "address",
					"name": "_profileManagerAddress",
					"type": "address"
				}
			],
			"stateMutability": "nonpayable",
			"type": "constructor"
		},
		{
			"anonymous": false,
			"inputs": [
				{
					"indexed": false,
					"internalType": "uint256",
					"name": "postId",
					"type": "uint256"
				},
				{
					"indexed": false,
					"internalType": "uint256",
					"name": "ownerId",
					"type": "uint256"
				},
				{
					"indexed": false,
					"internalType": "string",
					"name": "description",
					"type": "string"
				},
				{
					"indexed": false,
					"internalType": "uint256",
					"name": "createdAt",
					"type": "uint256"
				}
			],
			"name": "PostCreated",
			"type": "event"
		},
		{
			"inputs": [
				{
					"internalType": "string",
					"name": "_description",
					"type": "string"
				}
			],
			"name": "createPost",
			"outputs": [],
			"stateMutability": "nonpayable",
			"type": "function"
		},
		{
			"inputs": [
				{
					"internalType": "uint256",
					"name": "",
					"type": "uint256"
				}
			],
			"name": "posts",
			"outputs": [
				{
					"internalType": "uint256",
					"name": "ownerId",
					"type": "uint256"
				},
				{
					"internalType": "uint256",
					"name": "postId",
					"type": "uint256"
				},
				{
					"internalType": "string",
					"name": "description",
					"type": "string"
				},
				{
					"internalType": "uint256",
					"name": "createdAt",
					"type": "uint256"
				}
			],
			"stateMutability": "view",
			"type": "function"
		}
	]
}